:020000040800F2
:10000000181C0020A1270008151F0008211F000848
:100010002D1F0008391F0008451F000800000000C0
:10002000000000000000000000000000511F000858
:100030005D1F000800000000691F00082D50000827
:1000400001280008012800080128000801280008EC
:1000500001280008012800080128000801280008DC
:1000600001280008012800080128000801280008CC
:1000700001280008012800080128000801280008BC
:1000800001280008012800080128000801280008AC
:10009000012800080128000801280008012800089C
:1000A00001280008CD1F00080128000801280008C9
:1000B000C5500008312000089D20000801280008D4
:1000C000012800080128000801280008012800086C
:1000D000012800083DA9000849A9000855A9000801
:1000E0000128000801280008891F000801280008CD
:1000F00075210008012800080128000801280008CF
:10010000012800080128000809210008012800082A
:10011000012800080128000801280008012800081B
:10012000012800080128000801280008012800080B
:1001300001280008012800080128000801280008FB
:10014000012800080128000801280008751F000880
:1001500001280008012800080128000801280008DB
:1001600001280008012800080128000801280008CB
:1001700001280008012800080128000801280008BB
:10018000012800080128000880B584B000AFF8609D
:100190000B467A60FB72FB7A013B032B52D801A21B
:1001A00052F823F0B5010008D9010008FD0100084C
:1001B00021020008FB68DB6A18460FF0A3FA034629
:1001C000184679680FF0F6FA034618460FF0DEFC81
:1001D0000246FB685A6336E0FB68DB6A18460FF09C
:1001E00091FA0346184679680FF0E4FA0346184678
:1001F0000FF0CCFC0246FB689A6324E0FB68DB6AE4
:1002000018460FF07FFA0346184679680FF0D2FAC5
:10021000034618460FF0BAFC0246FB68DA6312E0A8
:10022000FB68DB6A18460FF06DFA034618467968DA
:100230000FF0C0FA034618460FF0A8FC0246FB6810
:100240001A6400E000BF1037BD4680BD90B5ADB068
:1002500002AFF860B9603B601346FB800023C7F82B
:10026000A4300023C7F8A0300023C7F89C30012336
:10027000C7F898300023A7F8963005F047FA07F141
:100280004403184603F03CFCFB68B3F1804F06D3EF
:10029000FA684FF4A053C4F200039A420DD9FA68E9
:1002A00041F2FF73C4F200039A4217D9FA684FF47F
:1002B0000053C4F200039A4210D8FA6C4FF4605312
:1002C000C4F20203D3F88C301B0E03F00103013398
:1002D00003FB02F35B00C7F8A4300FE03A6D4FF464
:1002E0006053C4F20203D3F88C301B0E03F00103F9
:1002F000013303FB02F35B00C7F8A4303B68002B1B
:100300000DDDD7F8A42048F21F53C5F2EB1383FB91
:1003100002135911D317CA1A3B689A4201DA012312
:10032000F4E01FE0D7F8A0300133C7F8A030D7F8C9
:10033000A420D7F8A03092FBF3F23B6892FBF3F3D2
:10034000C7F89C30D7F89C30B3F5803F02DA002321
:10035000C7F89830D7F8A0204FF6FE739A4201DD17
:100360000123D3E0D7F89830002BDBD1D7F8A420B5
:10037000D7F8A03092FBF3F2D7F89C3092FBF3F35E
:100380003B60F86809F0DEFCFB8800220092022046
:10039000B9681A46002301F0D1FCD7F89C30013B24
:1003A000FB63D7F8A0309BB2013B9BB23B87002395
:1003B000A7F8403000237B87002387F8423007F1FD
:1003C0003803F86819460AF039FB6023BB84002320
:1003D0003B8608237B860123FB8404233B854FF463
:1003E0008073BB864FF40073FB8607F12403F86823
:1003F00019460AF0D9FBF86800210AF0C5FD07F19B
:100400002403F86819460AF049FCF86800210AF04C
:10041000D7FD07F12403F86819460AF0C7FCF8680D
:1004200000210AF0EBFD07F12403F86819460AF0F1
:1004300043FDF86800210AF0FDFDFA680023C4F2CC
:1004400001039A4206D0FA684FF48063C4F20103B4
:100450009A4211D107F1140318460AF031FE4FF405
:1004600080433B8407F11403F86819460AF000FE44
:10047000F86801210AF042FEFA8807F15403104699
:10048000194609F01BFB0023A7F8963025E0B7F8C2
:1004900096305B0007F1A802134433F8543C012B5B
:1004A00016D1B7F8963010335B0007F1A8010B4462
:1004B00033F8523C184609F043FE03461C46F868E0
:1004C00009F0B4FE0346B86821461A4604F04CFF12
:1004D000B7F896300133A7F89630B7F896300F2B5F
:1004E000D5D9FB6800225A63FB6800229A63FB6837
:1004F0000022DA63FB6800221A64F86801210AF01E
:1005000013FBF86801210AF02FFB00231846AC37D3
:10051000BD4690BD80B485B000AF78600023FB601D
:100520007B68DB684FF0FF325A607B68DB684FF016
:10053000FF325A61FB7B43F08003FB737B7B43F00C
:1005400008037B737B68DB68FA689A611437BD46E1
:100550005DF8047B704700BF80B586B000AF78605F
:100560000023FB7400237B610023FB60032005F064
:1005700071FC7B68DB681B69FB607B6901337B6115
:100580007A694FF45463C0F203039A4201D90023FD
:1005900028E0FB68C3F3C073DBB2002BE6D0002376
:1005A0007B61FB6843F00103FB607B68DB68FA68F2
:1005B0001A617B68DB681B69FB607B6901337B61C7
:1005C0007A694FF45463C0F203039A4200D905E0FC
:1005D000FB68C3F30003DBB2012BEAD0032005F074
:1005E00039FCFB7C18461837BD4680BD80B489B005
:1005F00000AFF860B960FA71BB800023FB76FB683E
:10060000DB78002B23D100237B610023FB61BB88B7
:100610000333DA1C002BB8BF13469B107B61FB79B8
:10062000FA6832339B0013449B683B610023FB61F3
:1006300009E0BB681A683B691A60FB690133FB611A
:10064000BB680433BB60FA697B699A42F1D3FB7ED5
:1006500018462437BD465DF8047B704780B489B0E6
:1006600000AFF860B9601346FB800023FB61FB8894
:100670000333DA1C002BB8BF13469B10BB61FB6829
:10068000D3F8D0307B610023FB6109E07B691A68F5
:10069000BB681A60FB690133FB61BB680433BB6054
:1006A000FA69BB699A42F1D3BB6818462437BD4644
:1006B0005DF8047B704700BF80B487B000AF7860FE
:1006C0000B46FB7000233B610023FB737B68002219
:1006D000DA707B6801229A707B6840229A80FB78EE
:1006E000012B13D14FF0A0433B617B680122DA72EA
:1006F0007B6808221A707B6804225A707B684FF46A
:10070000A072DA807B6802221A7213E0FB78002B59
:1007100010D10023C4F204033B617B680022DA722B
:100720007B680C221A707B6806225A707B684FF433
:10073000A062DA803A697B68DA603B6903F500639E
:100740001A467B681A6100237B611CE07B695A01B1
:100750003B69134403F510631A4679687B690433D7
:100760009B000B449A607B695A013B69134403F573
:1007700030631A4679687B6914339B000B445A60D6
:100780007B6901337B617B685B781A467B699A429F
:10079000DCD83B6903F580631A467B685A613B6984
:1007A00003F588631A467B68C3F8CC2000237B617D
:1007B0000FE07B695A013B69134403F5A0631A46B5
:1007C00079687B6922339B000B449A607B69013313
:1007D0007B617B681B781A467B699A42E9D80023C3
:1007E0007B610FE07B691A033B69134403F5805377
:1007F0001A4679687B6932339B000B449A607B69A7
:1008000001337B617B681B781A467B699A42E9D881
:100810003B6903F560631A467B68C3F80C21FB7BD8
:1008200018461C37BD465DF8047B704780B588B01C
:1008300000AF78600023FB770023BB6100237B615E
:100840000023FB607B681B7A012B4FD17B68DB6840
:100850009B6B7B61BB7D6FF30003BB757B685B7A31
:10086000002B03D0BB7D43F01003BB757B68DB68B6
:100870007A699A630023BB617B68DB68DB68BB61D4
:100880003B7E6FF386133B76BB7E6FF38613BB769E
:100890003B7E43F010033B763B7E6FF3C3033B7616
:1008A0003B7E6FF3C7133B76BB7E6FF34103BB7692
:1008B000BB7E6FF3C303BB767B68DB68BA69DA6023
:1008C0007868FFF749FE7B68DB78012B40F0828077
:1008D0003B7B052262F344033B733B7B43F02003E5
:1008E0003B737B68DB68FA689A6073E07B68DB685F
:1008F000DB68BB613B7E43F040033B767B68DB6893
:10090000BA69DA607868FFF727FE00237B61BB7D58
:1009100043F00103BB757B681B7A032B03D1BB7DBE
:1009200043F00203BB75BB7D43F00403BB75BB7D85
:1009300043F00803BB75BB7D43F02003BB757B68A8
:100940005B7A002B03D0BB7D43F01003BB757B6843
:10095000DB687A699A63142005F0A2FA7B68DB6889
:10096000DB68BB617B681B7A032B03D1BB7E43F042
:100970000103BB767B68DB68BA69DA607B681B7A47
:10098000032B27D17B68DB681B6B3B61FB7C01225F
:1009900062F38303FB74BB7C6FF3C713BB74FB7CF4
:1009A00043F01003FB74BB7C2D2262F30603BB747F
:1009B0007B68DB683A691A63C82005F071FABB7C72
:1009C00043F08003BB747B68DB683A691A63C82014
:1009D00005F066FA7B68DB78012B10D17B68DB6859
:1009E0009B68FB603B7B052262F344033B733B7BCC
:1009F00043F020033B737B68DB68FA689A60FB7FF7
:100A000018462037BD4680BD80B485B000AF786001
:100A10000023FB730023BB603B7A43F001033B726E
:100A20007B68DB687A68D2689168BA680A439A6022
:100A3000FB7B18461437BD465DF8047B704700BF4A
:100A400080B485B000AF78600023FB730023BB60E7
:100A50003B7A43F001033B727B68DB687A68D268BB
:100A60009168BA68D2430A409A60FB7B18461437F3
:100A7000BD465DF8047B704780B586B000AF7860F6
:100A800039600023FB7400237B610023FB60FB685B
:100A900043F02003FB603B68DBB203F01F03DAB2D4
:100AA000FB6862F38A13FB607B68DB68FA681A6193
:100AB0007B68DB681B69FB607B6901337B617A695A
:100AC0004FF45463C0F203039A4200D905E0FB6877
:100AD000C3F34013DBB2012BEAD0032005F0BAF9CF
:100AE000FB7C18461837BD4680BD00BF80B586B078
:100AF00000AF78600023FB7400237B610023FB6060
:100B0000FB6843F01003FB607B68DB68FA681A61DE
:100B10007B68DB681B69FB607B6901337B617A69F9
:100B20004FF45463C0F203039A4200D905E0FB6816
:100B3000C3F30013DBB2012BEAD0032005F08AF9DE
:100B4000FB7C18461837BD4680BD00BF80B584B019
:100B500000AF78600B46FB700023FB737B68DB689B
:100B6000DB68BB60FB7A6FF34513FB72FB7A6FF3B4
:100B70008613FB72FB78012B04D1FB7A43F0200330
:100B8000FB7206E0FB78002B03D1FB7A43F04003B5
:100B9000FB727B68DB68BA68DA60322005F080F9A6
:100BA000FB7B18461037BD4680BD00BF80B483B0C4
:100BB00000AF78607B68DB685B6903F0010318466F
:100BC0000C37BD465DF8047B704700BF80B582B02E
:100BD00000AF78607868FFF7E9FF0346012B0CBF90
:100BE00000230123DBB218460837BD4680BD00BF95
:100BF00080B485B000AF78600023FB607B68DB6861
:100C00005B69FB607B68DB689B69FA681340FB608B
:100C1000FB6818461437BD465DF8047B704700BF7B
:100C200080B485B000AF78600B46FB707B681B69B1
:100C30001B68FB60FB7803F00303DAB23B7B62F3D3
:100C400001033B737B681B69FA681A601437BD4661
:100C50005DF8047B704700BF80B58CB000AF786052
:100C6000002387F82B3000237B6200233B620023A4
:100C7000FB610023BB6100237B617B68D3F80C31EF
:100C800000221A607B681B691B683B6297F8213061
:100C90006FF3C40387F821307B681B693A6A1A60D6
:100CA0007B68DB7A012B40D178680321FFF7B8FF1E
:100CB0007B68DB6880225A62FB8B402262F30F0361
:100CC000FB83BB8B802262F30F03BB837B68DB68F3
:100CD000FA699A62BA8BFB8B13449BB23B837B8B82
:100CE000802262F30F037B837B68DB68BA69C3F8F9
:100CF00004213A8B7B8B13449BB23B837B8B6FF33A
:100D00000F037B837B68DB68BA69C3F808213A8BE1
:100D10007B8B13449BB23B837B8B6FF30F037B83F3
:100D20007B68DB68BA69C3F80C2178681021FFF78B
:100D3000A3FE7868FFF7DAFE7B681B6900221A6160
:100D40007B681B6900225A617B681B694FF0FF3288
:100D50009A617B681B690022DA610023FB623AE03A
:100D60007A68FB6A04339B0013449B681B687B62B0
:100D700097F82730C3F3C013DBB2002B0ED000234B
:100D80007B6297F8273043F0400387F8273097F8C5
:100D9000273043F0080387F8273001E000237B6207
:100DA0007A68FB6A04339B0013449B687A6A1A6072
:100DB0007A68FB6A04339B0013449B6800221A6123
:100DC0007A68FB6A04339B0013449B68FF229A6095
:100DD000FB6A0133FB627B685B781A46FB6A9A42C6
:100DE000BED80023FB6235E07A68FB6A14339B00AF
:100DF00013445B681B68FB60FB7BC3F3C013DBB26F
:100E0000002B0AD00023FB60FB7B43F04003FB7305
:100E1000FB7B43F00803FB7301E00023FB607A686F
:100E2000FB6A14339B0013445B68FA681A607A68A3
:100E3000FB6A14339B0013445B6800221A617A68D2
:100E4000FB6A14339B0013445B68FF229A60FB6AC1
:100E50000133FB627B685B781A46FB6A9A42C3D80F
:100E600000237B617B7D43F001037B757B681B69FD
:100E70007A68126911697A69D24311407A690A4322
:100E80001A617B68DB78012B1BD100233B613B7C23
:100E900043F001033B743B7C43F002033B743B8A09
:100EA000402262F38A033B82BB7C43F00103BB74A4
:100EB0007B8A402262F349037B827B681B693A6923
:100EC0001A63786800F006F897F82B301846303728
:100ED000BD4680BD80B584B000AF78600023FB7351
:100EE0000023BB607B68DB6800229A617B68DB685B
:100EF0004FF0FF325A617868FFF70CFB7B68DB78B4
:100F0000002B03D13B7A43F010033B727B7A43F012
:100F100008037B727B7A43F010037B727B7A43F089
:100F200020037B72BB7A43F00403BB72BB7A43F0AD
:100F30000803BB723B7A43F008033B72BB7A43F071
:100F40001003BB72BB7A43F02003BB727B68DB6883
:100F50007A68D2689169BA68D2431140BA680A4384
:100F60009A61FB7B18461037BD4680BD80B485B0C2
:100F700000AF78600023FB737B681B699B68BB60D4
:100F80003B7AC3F34103DBB2022B09D0032B04D01D
:100F9000012B02D00323FB7305E00223FB7302E065
:100FA0000123FB7300BFFB7B18461437BD465DF879
:100FB000047B704780B487B000AF78600023FB7576
:100FC0000023BB607B681B699B683B617B689B69F6
:100FD0001B68FB603B7CC3F34103DBB2022B04D0F4
:100FE000BB896FF30A03BB8105E0BB89032262F36F
:100FF0000A03BB8100BF7B689B69FA681A607B7A31
:1010000043F001037B727B681B697A68126951683F
:10101000BA68D2431140BA680A435A60FB7D184649
:101020001C37BD465DF8047B704700BF80B487B0B5
:1010300000AF786039600023FB740023FB6000235D
:10104000BB603B685B78012B0FD13B681B787A68EB
:1010500004339B0013449B687B613B681B7801222F
:1010600002FA03F39BB23B810EE03B681B787A687F
:1010700014339B0013445B687B613B681B7801223F
:1010800002FA03F39BB27B817B691B68FB607B7B6D
:10109000C3F3C013DBB2002B27D13B689B689BB224
:1010A000C3F30A039AB2BB8962F30A03BB813B68AC
:1010B000DB7803F00303DAB2BB7B62F38303BB7319
:1010C0003B68DB88DBB203F00F03DAB2FB8962F323
:1010D0008913FB81FB7B43F01003FB737B7B43F0A5
:1010E00080037B73FA687B691A607B681B697A6886
:1010F0001269D169BA680A43DA61FB7C18461C3769
:10110000BD465DF8047B704780B487B000AF78605F
:1011100039600023FB740023FB600023BB603B6845
:101120005B78012B0FD13B681B787A6804339B00F6
:1011300013449B687B613B681B78012202FA03F32E
:101140009BB23B810EE03B681B787A6814339B00AE
:1011500013445B687B613B681B78012202FA03F34E
:101160009BB27B817B7B6FF3C7137B73FA687B69D0
:101170001A607B681B697A681269D169BA68D243C0
:101180000A40DA61FB7C18461C37BD465DF8047BDB
:10119000704700BF80B588B000AF78603960002329
:1011A000FB770023BB6100237B6100233B613B682D
:1011B0005B78012B40F0AB803B681B787A68043386
:1011C0009B0013449B681B687B613B681B787A68B3
:1011D00004339B0013449B681B693B613B685B695C
:1011E000002B09D13B696FF312033B617B8A01221B
:1011F00062F3CC037B8222E03B685B69C3F312029B
:101200003B6962F312033B613B685A693B689B6828
:1012100013445A1E3B689B68B2FBF3F39BB2C3F3C3
:1012200009039AB27B8A62F3CC037B823B68DB784A
:10123000012B04D1FB7C012262F34613FB743B6853
:101240001B787A6804339B0013449B683A691A61DF
:101250007B68DB78012B0AD13B681B787A68043302
:101260009B0013449B683A6812695A6115E03B6819
:10127000DB78012B11D03B685B69002B0DD03B68FC
:101280001B78012202FA03F3BB617B681B697A6851
:101290001269516BBA690A435A633B68DB78012BC8
:1012A00014D17B681B699B68FB60FB68C3F30D234B
:1012B0009BB203F00103002B04D1FB7D43F020031C
:1012C000FB7503E0FB7D43F01003FB75FB7D43F0F2
:1012D0000403FB75FB7D43F08003FB753B681B78C3
:1012E0007A6804339B0013449B687A691A603B68F0
:1012F000DB78012B40F088803B68D9683B681A781E
:101300003B685B699BB27868FFF770F97CE03B68EB
:101310001B787A6814339B0013445B681B687B61FD
:101320003B681B787A6814339B0013445B681B6925
:101330003B613B685B69002B0DD13B689B68C3F345
:1013400012023B6962F312033B617B8A012262F362
:10135000CC037B821FE03B685A693B689B6813445F
:101360005A1E3B689B68B2FBF3F39BB2C3F30903BD
:101370009AB27B8A62F3CC037B827B8AC3F3C90374
:101380009BB23A68926802FB03F3C3F312023B6913
:1013900062F312033B613B681B787A6814339B004D
:1013A00013445B683A691A617B68DB78012B09D1C9
:1013B0003B681B787A6814339B0013445B683A6877
:1013C00012695A613B68DB78012B0CD13B685B7971
:1013D000002B04D0FB7D43F02003FB7503E0FB7D75
:1013E00043F01003FB75FB7D43F00403FB75FB7DAD
:1013F00043F08003FB753B681B787A6814339B00CD
:1014000013445B687A691A60FB7F18462037BD4633
:1014100080BD00BF80B489B000AF78603960002320
:10142000FB770023BB6100233B610023BB603B686B
:101430005B78012B6FD17B689B697B617B691B6843
:101440003B617B691B69BB603B685B69002B09D111
:101450003B7A6FF306033B72BB7A012262F3C4034B
:10146000BB7223E03B685A693B689B689A420ED97D
:101470003B689A683B685A613B689B68DBB203F043
:101480007F03DAB23B7A62F306033B7209E03B6802
:101490005B69DBB203F07F03DAB23B7A62F30603E7
:1014A0003B72BB7A012262F3C403BB72BA687B69E8
:1014B0001A617B68DB78012B09D13B681B787A685D
:1014C00004339B0013449B683A6812695A61FB7CA1
:1014D00043F00403FB74FB7C43F08003FB743A6924
:1014E0007B691A607B68DB78002B75D13B685B6990
:1014F000002B71D03B681B78012202FA03F3BA6912
:101500001343BB617B681B697A681269516BBA69C6
:101510000A435A6360E03B681B787A6814339B0087
:1015200013445B681B683B613B681B787A68143323
:101530009B0013445B681B69BB603B685B69002BC5
:101540000FD13B689B68DBB203F07F03DAB23B7AD2
:1015500062F306033B72BB7A012262F3C403BB72DF
:1015600012E03B689A683B685A613B689B68DBB253
:1015700003F07F03DAB23B7A62F306033B72BB7A75
:10158000012262F3C403BB723B681B787A68143390
:101590009B0013445B68BA681A617B68DB78012B97
:1015A00009D13B681B787A6814339B0013445B684D
:1015B0003A6812695A61FB7C43F00403FB74FB7CBC
:1015C00043F08003FB743B681B787A6814339B00FC
:1015D00013445B683A691A60FB7F18462437BD469E
:1015E0005DF8047B704700BF80B487B000AF7860BF
:1015F00039600023FB750023FB603B685B78012B9F
:101600001CD13B681B787A6804339B0013449B68A9
:101610003B613B691B68FB60FB7BC3F3C013DBB220
:10162000002B03D0FB7B43F04003FB73BB7B43F0F9
:101630002003BB73FA683B691A6011E03B681B78B2
:101640007A6814339B0013445B683B613B691B68F9
:10165000FB60BB7B43F02003BB73FA683B691A60F5
:10166000FB7D18461C37BD465DF8047B704700BF04
:1016700080B487B000AF786039600023FB7400232A
:10168000FB603B685B78012B08D13B681B787A686C
:1016900004339B0013449B687B6107E03B681B7825
:1016A0007A6814339B0013445B687B617B691B6819
:1016B000FB60BB7B6FF34513BB733B68DB78032B8D
:1016C00003D03B68DB78022B03D1FB7B43F0100394
:1016D000FB73FA687B691A60FB7C18461C37BD46B1
:1016E0005DF8047B704700BF80B485B000AF7860C0
:1016F0007B681B699B69FB607B681B69DB69FA6817
:101700001340FB60FB681B0C18461437BD465DF8A0
:10171000047B704780B485B000AF78600B46FB70E7
:10172000FB787A6814339B0013445B689B68FB600A
:101730007B681B695B69FA681340FB60FB681846AD
:101740001437BD465DF8047B704700BF80B485B098
:1017500000AF78607B681B699B69FB607B681B69D5
:10176000DB69FA681340FB60FB689BB218461437CC
:10177000BD465DF8047B704780B487B000AF7860E9
:1017800000233B61FB7C43F0C003FB74BB7C012264
:1017900062F3C403BB743B7C182262F306033B7400
:1017A0007B685B6D3A691A617B68DB78012B16D127
:1017B0000023FB607B685B6D7A6802F5B9625A6151
:1017C0007B685B6D1B68FB60FB7B43F08003FB73F6
:1017D0004FF08023FB607B685B6DFA681A601C37F2
:1017E000BD465DF8047B704780B485B000AF78607B
:1017F0007B689B7A002B1BD07B681B699B68FB6016
:101800003B7BC3F30003DBB2012B11D17B6803F5F3
:1018100086731B68BB603B7A6FF341033B723B7A74
:101820006FF300033B727B68D3F80C31BA681A601F
:101830001437BD465DF8047B704700BF80B483B0A9
:1018400000AF7860396040F26C22C2F20002396861
:101850000B465B000B449B0013440833188840F28E
:101860006C22C2F2000239680B465B000B449B00FD
:1018700013440A3302461A8040F26C22C2F200027C
:1018800039680B465B000B449B00134406331888F1
:1018900040F26C22C2F2000239680B465B000B4436
:1018A0009B001344083302461A8040F26C22C2F2B5
:1018B000000239680B465B000B449B001344043361
:1018C000188840F26C22C2F2000239680B465B00B5
:1018D0000B449B001344063302461A8040F26C22EC
:1018E000C2F2000239680B465B000B449B001344B4
:1018F0000233188840F26C22C2F2000239680B46AB
:101900005B000B449B001344043302461A8040F2F0
:101910006C22C2F2000239680B465B000B449B004C
:101920001344188840F26C22C2F2000239680B4658
:101930005B000B449B001344023302461A807B6811
:1019400098B240F26C22C2F2000239680B465B008A
:101950000B449B00134402461A8040F26C22C2F2F0
:10196000000239680B465B000B449B0013441B8844
:10197000012B47D140F26C22C2F2000239680B46BB
:101980005B000B449B00134402331B88012B39D1AD
:1019900040F26C22C2F2000239680B465B000B4435
:1019A0009B00134404331B88012B2BD140F26C2283
:1019B000C2F2000239680B465B000B449B001344E3
:1019C00006331B88012B1DD140F26C22C2F20002AB
:1019D00039680B465B000B449B00134408331B889B
:1019E000012B0FD140F26C22C2F2000239680B4683
:1019F0005B000B449B0013440A331B88002B01D16E
:101A00000B2355E040F26C22C2F2000239680B460B
:101A10005B000B449B0013441B88002B47D140F212
:101A20006C22C2F2000239680B465B000B449B003B
:101A3000134402331B88002B39D140F26C22C2F2CE
:101A4000000239680B465B000B449B0013440433CF
:101A50001B88002B2BD140F26C22C2F200023968A5
:101A60000B465B000B449B00134406331B88002B82
:101A70001DD140F26C22C2F2000239680B465B00B5
:101A80000B449B00134408331B88002B0FD140F2FA
:101A90006C22C2F2000239680B465B000B449B00CB
:101AA00013440A331B88012B01D1632300E0002378
:101AB00018460C37BD465DF8047B704780B483B090
:101AC00000AF7860396040F20002C2F2000239686B
:101AD0000B465B000B449B0013440833188840F20C
:101AE0000002C2F2000239680B465B000B449B0007
:101AF00013440A3302461A8040F20002C2F2000286
:101B000039680B465B000B449B001344063318886E
:101B100040F20002C2F2000239680B465B000B443F
:101B20009B001344083302461A8040F20002C2F2BE
:101B3000000239680B465B000B449B0013440433DE
:101B4000188840F20002C2F2000239680B465B00BE
:101B50000B449B001344063302461A8040F20002F5
:101B6000C2F2000239680B465B000B449B00134431
:101B70000233188840F20002C2F2000239680B46B4
:101B80005B000B449B001344043302461A8040F26E
:101B90000002C2F2000239680B465B000B449B0056
:101BA0001344188840F20002C2F2000239680B4662
:101BB0005B000B449B001344023302461A807B688F
:101BC00098B240F20002C2F2000239680B465B0094
:101BD0000B449B00134402461A8040F20002C2F2FA
:101BE000000239680B465B000B449B0013441B88C2
:101BF000002B47D140F20002C2F2000239680B46C6
:101C00005B000B449B00134402331B88002B39D12B
:101C100040F20002C2F2000239680B465B000B443E
:101C20009B00134404331B88002B2BD140F200028D
:101C3000C2F2000239680B465B000B449B00134460
:101C400006331B88002B1DD140F20002C2F20002B5
:101C500039680B465B000B449B00134408331B8818
:101C6000002B0FD140F20002C2F2000239680B468D
:101C70005B000B449B0013440A331B88012B01D1EA
:101C8000632355E040F20002C2F2000239680B46BD
:101C90005B000B449B0013441B88012B47D140F28F
:101CA0000002C2F2000239680B465B000B449B0045
:101CB000134402331B88012B39D140F20002C2F2D7
:101CC000000239680B465B000B449B00134404334D
:101CD0001B88012B2BD140F20002C2F200023968AE
:101CE0000B465B000B449B00134406331B88012BFF
:101CF0001DD140F20002C2F2000239680B465B00BF
:101D00000B449B00134408331B88012B0FD140F276
:101D10000002C2F2000239680B465B000B449B00D4
:101D200013440A331B88002B01D10B2300E000234E
:101D300018460C37BD465DF8047B704780B584B00B
:101D400000AF39600146F971BA80BB713A6800236F
:101D5000C4F202039A4204D10120012101F0A4FF40
:101D60002EE03A684FF48063C4F202039A4204D131
:101D70000220012101F098FF22E03A684FF400634D
:101D8000C4F202039A4204D10420012101F08CFF25
:101D900016E03A684FF44063C4F202039A4204D159
:101DA0000820012101F080FF0AE03A684FF48053D7
:101DB000C4F202039A4203D11020012101F074FF02
:101DC00007F10803184603F07FFABB88BB60FB7974
:101DD0003B733B7EBB73BB79FB7303237B7307F1C0
:101DE00008033868194603F0E1F9FB79012B04D1A7
:101DF000BB883868194603F0A9FA1037BD4680BD84
:101E000080B400AFBD465DF8047B704780B483B0FA
:101E100000AF0346FB71FB79002B02D0012B02D0EF
:101E200002E000BF00E000BF0C37BD465DF8047B58
:101E3000704700BF80B400AFBD465DF8047B7047BB
:101E400080B400AFBD465DF8047B704780B400AF3E
:101E5000BD465DF8047B704780B400AFBD465DF8B9
:101E6000047B704780B400AFBD465DF8047B7047CB
:101E700080B582B000AF0346FB71FB79184603F0D2
:101E800067FB0837BD4680BD80B582B002AF40F227
:101E90003003C2F20003009340F2D040C2F20000CF
:101EA000012140F28C02C2F2000240F24413C2F25D
:101EB000000300F0A9FCBD4680BD00BF80B582B024
:101EC00000AF0123FB8000233B6000BF3A68531C36
:101ED0003B604AF21F13C0F207039A42F6D94FF44F
:101EE0004063C4F20203FA88120392B25A83FB8859
:101EF0005B00FB80FB880F2B01D90123FB804FF493
:101F00004063C4F20203FA88120392B21A8301F00A
:101F1000BBFFD8E780B400AFBD465DF8047B7047D7
:101F200080B500AFFFF7CAFF80BD00BF80B500AF2E
:101F3000FFF7C4FF80BD00BF80B500AFFFF7BEFF55
:101F400080BD00BF80B500AFFFF7B8FF80BD00BF08
:101F500080B400AFBD465DF8047B704780B400AF2D
:101F6000BD465DF8047B704780B400AFBD465DF8A8
:101F7000047B704780B500AF40F2D040C2F2000051
:101F800004F010FF80BD00BF80B500AF40F2D04329
:101F9000C2F200039B7A002B13D04EF61053CEF200
:101FA00000034EF61052CEF20002126822F0060232
:101FB0001A6003F063FB40F2D040C2F20000FFF76A
:101FC00013FC4FF4802007F069FD80BD80B500AFA1
:101FD0000023C4F201031B889BB21B099BB2002B98
:101FE0000BD040F2A023C2F200031B685A1C40F23F
:101FF000A023C2F200031A6013E00023C4F201031D
:102000001B889BB21B099BB2002B0AD140F29C2378
:10201000C2F200031B685A1C40F29C23C2F2000368
:102020001A600020C4F20100012109F08DF880BD82
:1020300080B500AF4FF48063C4F200031B889BB2ED
:102040001B099BB2002B0BD040F2B023C2F200035D
:102050001B685A1C40F2B023C2F200031A6014E05D
:102060004FF48063C4F200031B889BB21B099BB230
:10207000002B0AD140F2AC23C2F200031B685A1CA9
:1020800040F2AC23C2F200031A604FF48060C4F245
:102090000000012109F058F880BD00BF80B500AFF5
:1020A0004FF40063C4F200031B889BB21B099BB270
:1020B000002B0BD040F2B823C2F200031B685A1C5D
:1020C00040F2B823C2F200031A6014E04FF4006338
:1020D000C4F200031B889BB21B099BB2002B0AD1E0
:1020E00040F2B423C2F200031B685A1C40F2B4232E
:1020F000C2F200031A604FF40060C4F20000012134
:1021000009F022F880BD00BF80B500AF4FF44063F6
:10211000C4F200031B889BB21B099BB2002B0BD09F
:1021200040F2C023C2F200031B685A1C40F2C023D5
:10213000C2F200031A6014E04FF44063C4F20003DB
:102140001B889BB21B099BB2002B0AD140F2BC2317
:10215000C2F200031B685A1C40F2BC23C2F2000307
:102160001A604FF44060C4F20000012108F0ECFF57
:1021700080BD00BF80B500AF4FF48063C4F201039F
:102180001B889BB21B099BB2002B0BD040F2C823CB
:10219000C2F200031B685A1C40F2C823C2F20003BB
:1021A0001A6014E04FF48063C4F201031B889BB2F1
:1021B0001B099BB2002B0AD140F2C423C2F20003D8
:1021C0001B685A1C40F2C423C2F200031A604FF489
:1021D0008060C4F20100012108F0B6FF80BD00BF9D
:1021E00080B58AB000AF7860396000237B6200233D
:1021F0003B620023FB610023BB617B681B8A9BB2AF
:102200007B627B6A23F440537B623B68DB887A6A9B
:1022100013437B627B6A9AB27B681A827B689B89D4
:102220009BB27B627B6A23F4B05323F00C037B6286
:102230003B689A883B681B8913439AB23B685B8969
:1022400013439BB27A6A13437B627B6A9AB27B68C0
:102250009A817B689B8A9BB27B627B6A23F4407382
:102260007B623B689B897A6A13437B627B6A9AB282
:102270007B689A8207F10803184601F041FC7A68EE
:102280004FF48053C4F201039A4206D07A684FF4A7
:10229000A053C4F201039A4202D17B693B6201E080
:1022A0003B693B627B689B899BB29BB21BB2002B54
:1022B0000CDA3A6A13469B0013449A001A443B68AE
:1022C0001B685B00B2FBF3F3FB610BE03A6A134659
:1022D0009B0013449A001A443B681B689B00B2FBA6
:1022E000F3F3FB61FA6948F21F53C5F2EB13A3FB4A
:1022F00002135B091B017B627B6A1B09642202FBE0
:1023000003F3FA69D31ABB617B689B899BB29BB2CA
:102310001BB2002B10DABB69DB0003F1320248F27A
:102320001F53C5F2EB13A3FB02135B0903F0070372
:102330007A6A13437B620FE0BB691B0103F132022F
:1023400048F21F53C5F2EB13A3FB02135B0903F022
:102350000F037A6A13437B627B6A9AB27B681A81A5
:102360002837BD4680BD00BF80B483B000AF786021
:102370000B46FB70FB78002B08D07B689B899BB2D7
:1023800043F400539AB27B689A8107E07B689B898B
:102390009BB223F400539AB27B689A810C37BD46F6
:1023A0005DF8047B704700BF80B483B000AF7860F5
:1023B0007B689B889BB2C3F308039BB218460C371B
:1023C000BD465DF8047B704780B487B000AF78608D
:1023D00013460A467A807B7000233B610023FB6032
:1023E0000023BB6000237B617B687B617B88DBB261
:1023F0005B09DBB23B617B8803F01F03FB60FB687A
:10240000012202FA03F3BB603B69012B03D17B6914
:102410000C337B6109E03B69022B03D17B691033EC
:102420007B6102E07B6914337B617B78002B06D0F3
:102430007B697A691168BA680A431A6006E07B69A9
:102440007A691168BA68D2430A401A601C37BD46DF
:102450005DF8047B704700BF80B487B000AF786040
:102460000B467B800023FB6000237B610023BB6065
:102470000023FB747B88DBB25B09DBB2BB607B882B
:1024800003F01F037B617B69012202FA03F37B6186
:10249000BB68012B06D17B689B899BB27A6913408C
:1024A0007B610FE0BB68022B06D17B681B8A9BB265
:1024B0007A6913407B6105E07B689B8A9BB27A69ED
:1024C00013407B617B881B0A9BB2FB60FB68012287
:1024D00002FA03F3FB607B681B889BB2FA68134027
:1024E000FB607B69002B05D0FB68002B02D0012329
:1024F000FB7401E00023FB74FB7C18461C37BD46CF
:102500005DF8047B704700BF80B588B000AF78608D
:1025100039600023FB6107F1080300221A600433CD
:1025200000221A60043300221A60043300221A6069
:10253000043300221A6004333B68002B03D17B680C
:102540003020984750E00023FB6129E039684CF6C1
:10255000CD43CCF6CC43A3FB0123DA0813469B0002
:1025600013445B00CA1AD2B207F10801FB690B449D
:102570001A7038680CF068FC02460B461046194683
:102580001BA3D3E900230CF0D5FC02460B461046F2
:1025900019460CF091FF03463B60FB690133FB6178
:1025A0003B68002B0CBF00230123DAB2FB69132B1D
:1025B000CCBF00230123DBB21340DBB2002BC5D11B
:1025C000FB69013BFB610CE007F10802FB69134466
:1025D0001B783033DAB27B6810469847FB69013BC1
:1025E000FB61FB69002BEFDA2037BD4680BD00BFE1
:1025F0009A9999999999B93F80B582B000AF78605E
:1026000039603B68002B09DA7B682D2098473B68CE
:102610005B4278681946FFF777FF04E03B6878680B
:102620001946FFF771FF0837BD4680BDB0B588B0C9
:1026300000AF786039600323BB610023FB61002396
:102640007B614FF00003FB604FF000033B6107F13B
:102650000C033868194608F049FE3861FB681846D3
:102660000DF06EFA034678681946FFF7C5FF7B68E0
:102670002E2098473B6923F00044B8690DF046F8D6
:1026800003464FF00000C4F22010194609F070F81C
:102690000346204619460DF08DF80346184608F00B
:1026A00049FE034618460DF04BFA03467B610123B1
:1026B000FB6105E07B6830209847FB690133FB61D3
:1026C000BA69FB69D31A18460CF0CEFB02460B46DA
:1026D0004FF000004FF00001C4F2240108F052FE58
:1026E00004460D4678690CF0BFFB02460B462046B7
:1026F00029460CF0AFFE0346002B03D0FA69BB69F4
:102700009A42D7DB78687969FFF776FF2037BD46B4
:10271000B0BD00BF80B584B000AF786039600023E1
:10272000FB600023FB6009E0FB683A6813441A78F9
:102730007B6810469847FB680133FB60FB683A688A
:1027400013441B78002B02D0FB68132BECDD1037F1
:10275000BD4680BD80B582B000AF78607B680D203B
:1027600098477B680A2098470837BD4680BD00BF60
:1027700080B584B000AFF860B9607A60F868B96875
:10278000FFF7C8FFFB682C209847F8687968FFF7C7
:102790004DFFFB682C2098471037BD4680BD00BF19
:1027A00080B582B000AF4FF6E463C0F600037B60F3
:1027B00040F20003C2F200033B6007E03B681A1DD1
:1027C0003A607A68111D796012681A603A6840F2BE
:1027D0006C23C2F200039A42F0D3074807494FF036
:1027E00000028842B8BF40F8042BFADB00F008FB77
:1027F0000837BD4680BD00006C0200201814002080
:1028000080B400AFFEE700BF80B584B000AFF860D1
:102810007A603B600B46FB72F86803F09FFAF86839
:1028200000F01CF8FB683A68C3F8E025FB68BA6959
:10283000C3F8E425FB687A68C3F8E825FB7AF868F2
:10284000194607F0CFFDFB68D3F8E4351B689847BD
:10285000F86803F0E7FA1037BD4680BD80B483B056
:1028600000AF7860002318460C37BD465DF8047B46
:10287000704700BF80B584B000AF786007F10803EF
:102880007868194604F0CEF93B7A03F01F03012B58
:102890000AD0022B0FD0002B14D107F1080378685F
:1028A000194603F0B9FD16E007F1080378681946E8
:1028B00003F002FE0FE007F108037868194603F001
:1028C0002FFE08E03B7A23F07F03DBB278681946DD
:1028D00007F00AFF00BF002318461037BD4680BD31
:1028E00080B584B000AF78600B46FB70FB78002B9E
:1028F00045D17B6803F55C73FB607B6893F811310D
:10290000032B4FD1FB68DA69FB689B689A4221D997
:10291000FB68DA69FB689B68D21AFB68DA617B683E
:10292000DB78012B06D1FB68DA68FB689B681A44E8
:10293000FB68DA60FB68DA68FB689968FB68DB694A
:10294000994238BF0B469BB2786811461A4607F089
:10295000B1FF27E07B68D3F8E0351B69002B0AD074
:102960007B6893F81231032B05D17B68D3F8E035EF
:102970001B6978689847786807F0B0FF12E07B68B9
:10298000D3F8E0359B69002B0CD07B6893F81231AB
:10299000032B07D17B68D3F8E0359B69FA78786818
:1029A00011469847002318461037BD4680BD00BF2A
:1029B00080B584B000AF78600B46FB70FB78002BCD
:1029C00060D17B6803F58C73FB607B6893F81131F1
:1029D000022B6AD1FB68DA69FB689B689A421CD9B2
:1029E000FB68DA69FB689B68D21AFB68DA617B686E
:1029F000DB78012B06D1FB68DA68FB689B681A4418
:102A0000FB68DA60FB68DA68FB68DB699BB27868B0
:102A100011461A4607F01AFF47E0FB681B6AFA687E
:102A20009268B3FBF2F102FB01F29B1A002B14D166
:102A3000FB681A6AFB689B689A420ED3FB681A6AA5
:102A4000FB685B6A9A4208D278680021002207F08E
:102A5000FDFEFB6800225A6227E07B68D3F8E03570
:102A6000DB68002B0AD07B6893F81231032B05D169
:102A70007B68D3F8E035DB6878689847786807F0BA
:102A800045FF12E07B68D3F8E0355B69002B0CD082
:102A90007B6893F81231032B07D17B68D3F8E035BC
:102AA0005B69FA7878681146984700231846103712
:102AB000BD4680BD80B582B000AF786078680021E7
:102AC0004022002307F00EFD786880214022002379
:102AD00007F008FD7B68012283F812217B68D3F898
:102AE000E4355B687A689278104698470023184668
:102AF0000837BD4680BD00BF80B582B000AF7860AA
:102B00007B68D3F8E4351B6998477B68032283F818
:102B10001221002318460837BD4680BD80B582B01B
:102B200000AF78607B68042283F812217B68D3F8B9
:102B3000E435DB689847002318460837BD4680BD5A
:102B400080B582B000AF78607B68D3F8E035DB6990
:102B5000002B05D07B68D3F8E035DB6978689847AF
:102B6000002318460837BD4680BD00BF80B582B03F
:102B700000AF78600B46FB707B68D3F8E0351B68CC
:102B8000FA787868114698477B68D3F8E4359B68F3
:102B90009847002318460837BD4680BD80B582B0EF
:102BA00000AF78600B46FB707B68D3F8E0355B685C
:102BB000FA78786811469847002318460837BD46CA
:102BC00080BD00BF80B582B000AF78607B68D3F86D
:102BD000E0351B6A78689847002318460837BD46D9
:102BE00080BD00BF80B582B000AF78607B68D3F84D
:102BF000E0355B6A78689847002318460837BD4679
:102C000080BD00BF80B582B002AF02F037FD41F257
:102C10006F20C3F6832002F031FA4FF40060C4F253
:102C20000200012101F0B4FC0020C4F201004FF4C5
:102C30008051C4F202014FF4804242F21073FDF75A
:102C400005FB0020C4F201004FF48051C4F20201E0
:102C50004FF4807242F21073FDF7F8FA0020C4F2CC
:102C600001004FF48051C4F202014FF4006242F2BD
:102C70001073FDF7EBFA0020C4F201004FF480510D
:102C8000C4F202014FF4005242F21073FDF7DEFA73
:102C90004FF44063C4F2020300934FF400730193B6
:102CA0004FF49040C4F200004FF4E1314FF4406221
:102CB000C4F202024FF4807307F052FEFFF7E4F80B
:102CC000BD4680BD80B582B002AF002300930120D5
:102CD0004FF44061C4F202014FF440420123FFF778
:102CE0002DF80023009300204FF40061C4F202018C
:102CF0004FF400520223FFF721F800230093002035
:102D00004FF40061C4F202014FF400420023FFF7C8
:102D100015F80023009301204FF48051C4F2020102
:102D200002220123FFF70AF80023009301204FF449
:102D30004061C4F2020108220123FEF7FFFF0023D5
:102D4000009301204FF48061C4F202014FF48052DD
:102D50000023FEF7F3FF0023009301204FF480616E
:102D6000C4F202014FF480620023FEF7E7FF002364
:102D7000009301204FF48061C4F202010422002379
:102D8000FEF7DCFF0023009301204FF48051C4F2D2
:102D900002014FF480620023FEF7D0FF002300936E
:102DA00001204FF48051C4F2020110220023FEF7EB
:102DB000C5FF0023009301204FF48051C4F20201AB
:102DC0004FF400720023FEF7B9FF002300930120A7
:102DD0004FF48051C4F202014FF400420023FEF789
:102DE000ADFF0023009301204FF44061C4F20201C3
:102DF0004FF480520023FEF7A1FFBD4680BD00BF07
:102E0000B0B5ACB002AF07F1180300221A6004336A
:102E100000221A60043300221A60043300221A6070
:102E2000043300221A60043300221A6004333B4644
:102E300000221A60043300221A60043300221A6050
:102E4000043300221A60043300221A600433002283
:102E50001A6004334FF00003C7F890304FF00003BE
:102E6000C7F8A4304FF00003C7F8A0300023A7F83C
:102E70008E300023A7F89E300023A7F88C30002363
:102E8000A7F89C300023A7F89A300023A7F89830C1
:102E90000023A7F89630FFF7B5FEFFF713FF07F101
:102EA000500207F130031046194601F099F807F176
:102EB0005003184605F020FF00F0E6FF002002F066
:102EC00015F9034618460BF0BFFF02460B461046A5
:102ED00019464FF000024FF00003C4F214030CF047
:102EE000AFFA0346002B00D1E8E7002002F02EF9EC
:102EF00007F15003184605F093FA07F150031846FE
:102F000006F08EF84FF40060C4F202004FF4005156
:102F100002F0F4F9034618460021FEF78FFC034641
:102F2000A7F88E30B7F88E30632B02D10123A7F8B3
:102F30008230B7F882301BB2012B07D007F1500264
:102F400007F130031046194601F04AF807F118025C
:102F500007F150031046194602F0B2FFB7F89C3053
:102F6000062B00F2FD8401A252F823F0892F0008FD
:102F7000D9320008493500086D3600086D37000861
:102F80006738000861390008BB6918464FF4705172
:102F9000C4F21C610CF0A2FD0346002B00F0BB80C4
:102FA000FB6918464FF47051C4F21C610CF096FD99
:102FB0000346002B00F0AF80B7F89E30012B0BD0FA
:102FC000022B0FD0002B15D13B6D3B634FF000035C
:102FD000C4F28C337B630DE03B6D3B634FF0000329
:102FE0007B6307E03B6D3B634FF00003CCF28C3317
:102FF0007B6300BF00F0E0FF0023A7F88C303A6B42
:103000003B6D104619460CF0CBFA03461C467A6B12
:103010007B6D104619460CF0C3FA0346204619464C
:1030200004F00AFF0346FB644FF00003C7F8A43026
:103030003A6B3B6D104619460CF0B2FA03461C463B
:103040007A6B7B6D104619460CF0AAFA03462046AF
:10305000194604F01DFF0346BB63BA6BFB6C1046B8
:10306000194604F059FF03467B64FA6C7B6C4FF001
:103070000001C4F2DC210091104619464FF0000215
:10308000C4F2FA324FF00003C4F2C83304F0F8FF80
:103090000346FB63FA6B7B6E104619460CF080FA10
:1030A0000346184604F072FCC7F89000D7F8900069
:1030B000D7F8A4100CF076FA03461A46BB6B1046FC
:1030C000194605F0C9F803463B61D7F89000D7F8D8
:1030D000A4100CF067FA03461A46BB6B104619465B
:1030E00005F012F903467B61FB6C18464FF08041F6
:1030F0000CF0FEFC0346002B04D0B7F89E300133E1
:10310000A7F89E30B7F89E30022B03D90023A7F80A
:103110009E30E0E0DFE0FB6918464FF00001CCF2A2
:1031200020110CF0F9FC0346002B1BD0FB6918465C
:103130004FF00001C4F220110CF0E4FC0346002B18
:1031400010D0B7F89A300133A7F89A300223A7F8C5
:103150008C30B7F89A30C72B03D90123A7F89C30DD
:10316000B9E0B8E0D7F8883018464FF000014FF0CA
:103170000002C4F2C8224FF00003C4F2163304F078
:10318000BDFB0346184601F00DFD0023A7F89A3059
:103190003B6D3B63FA697B6D104619460CF002FAF1
:1031A00003467B637B6D18464FF000010CF0BEFCBC
:1031B0000346002B10D07B6B18464FF000010CF03B
:1031C00097FC0346002B07D17B6D18464FF000019A
:1031D0000CF0ACFC0346002B0123A7F88C303A6BB3
:1031E0003B6D104619460CF0DBF903461C467A6B22
:1031F0007B6D104619460CF0D3F90346204619465C
:1032000004F01AFE0346FB644FF00003C7F8A43035
:103210003A6B3B6D104619460CF0C2F903461C464A
:103220007A6B7B6D104619460CF0BAF903462046BE
:10323000194604F02DFE0346BB63BA6BFB6C1046C7
:10324000194604F069FE03467B64FA6C7B6C4FF010
:103250000001C4F2DC210091104619464FF0000233
:10326000C4F2FA324FF00003C4F2C83304F008FF8E
:103270000346FB63FA6B7B6E104619460CF090F91F
:103280000346184604F082FBC7F89000D7F8900078
:10329000D7F8A4100CF086F903461A46BB6B10460B
:1032A000194604F0D9FF03463B61D7F89000D7F8E0
:1032B000A4100CF077F903461A46BB6B104619466A
:1032C00005F022F803467B614FF40040C4F2BB4096
:1032D00000F0FCFD44E343E3B7F89830002B40F0E6
:1032E00088803B6D4FF48040C4F29C4019460CF03E
:1032F00057F903461A467B6D1046194604F0C8FD7F
:10330000034683F00043BB63BA693B6D1046194620
:103310000CF048F9034618460BF0B8FD04460D467C
:10332000BB6B18460BF0B2FD02460B461046194621
:1033300083A3D3E900230BF0FDFD02460B461046A4
:10334000194607F011FF02460B46104619464FF08A
:1033500000024FF00003C4F214030BF0EBFD024631
:103360000B46204629460BF033FC02460B4610461E
:1033700019460CF0C1F803463B63FA697B6D1046B1
:1033800019460CF00FF9034618460BF07FFD044672
:103390000D46BB6B18460BF079FD02460B461046F6
:1033A000194667A3D3E900230BF0C4FD02460B4680
:1033B0001046194607F01CFF02460B4610461946F8
:1033C0004FF000024FF00003C4F214030BF0B2FD03
:1033D00002460B46204629460BF0FAFB02460B46F6
:1033E000104619460CF088F803467B630123A7F8C2
:1033F0009830D7F8883018464FF00001C4F21631E3
:103400004FF00002C4F2C8224FF00003C4F216339A
:1034100004F074FA0346184601F0C4FB0323A7F82E
:103420008C303A6B3B6D104619460CF0B9F80346E8
:103430001C467A6B7B6D104619460CF0B1F80346BA
:103440002046194604F0F8FC0346FB643A6B3B6DDA
:10345000104619460CF0A4F803461C467A6B7B6DA7
:10346000104619460CF09CF803462046194604F015
:103470000FFD0346BB634FF00003C7F8A430BA6BDF
:10348000FB6C1046194604F047FD03467B64FA6C5A
:103490007B6C4FF00001C4F2DC210091104619460C
:1034A0004FF00002C4F2FA324FF00003C4F2C83306
:1034B00004F0E6FD0346FB63FA6B7B6E104619468B
:1034C0000CF06EF80346184604F060FAC7F8900056
:1034D000D7F89000D7F8A4100CF064F803461A4609
:1034E000BB6B1046194604F0B7FE03463B61D7F8A4
:1034F0009000D7F8A4100CF055F803461A46BB6BA1
:103500001046194604F000FF03467B614FF00000AF
:10351000C4F2484000F0DAFCFB6C18464FF00001A2
:10352000C4F2A0010CF0E4FA0346002B00D117E22C
:103530000223A7F89C303B6DBB657B6DFB650FE2FA
:10354000113444A246DF913FB7F89830012B0ED1D9
:10355000BB6D18464FF00001C4F248310CF020F862
:1035600003463B63FB6D7B630223A7F8983004237B
:10357000A7F88C304FF00000C4F2C83000F0A6FC71
:103580003A6B3B6D104619460CF00AF803461C4690
:103590007A6B7B6D104619460CF002F80346204604
:1035A000194604F049FC0346FB643A6B3B6D104638
:1035B00019460BF0F5FF03461C467A6B7B6D1046EF
:1035C00019460BF0EDFF03462046194604F060FC57
:1035D0000346BB63BA6BFB6C1046194604F09CFCB7
:1035E00003467B64FA6C7B6C4FF00001C4F2FA3145
:1035F0000091104619464FF00002C4F27A424FF093
:103600000003C4F27A4304F03BFD0346FB63FA6B0C
:103610007B6E104619460BF0C3FF0346184604F0B4
:10362000B5F9C7F89000BB6BD7F89000194604F0C5
:1036300013FE03463B61BB6BD7F89000194604F0BC
:1036400063FE03467B61FB6C18464FF00001C4F239
:1036500020110CF04DFA0346002B00D180E100232D
:10366000A7F89C300023A7F8983079E14FF00003C9
:103670003B634FF000037B633A6B3B6D104619468A
:103680000BF08EFF03461C467A6B7B6D1046194685
:103690000BF086FF03462046194604F0CDFB034697
:1036A000FB643A6B3B6D104619460BF079FF0346FD
:1036B0001C467A6B7B6D104619460BF071FF034672
:1036C0002046194604F0E4FB0346BB63BA6BFB6C6F
:1036D0001046194604F020FC03467B64FA6C7B6CB0
:1036E0004FF00001C4F27A410091104619464FF4A0
:1036F0008042C4F21C624FF4A043C4F2C37304F0CE
:10370000BFFC0346FB63FA6B7B6E104619460BF059
:1037100047FF0346184604F039F9C7F89000BB6B21
:10372000D7F89000194604F097FD03463B61BB6B48
:10373000D7F89000194604F0E7FD03467B61FB6C67
:1037400018464FF00001C4F220110CF0D1F90346E5
:10375000002B00D104E10623A7F89C300123A7F831
:1037600096303B6DBB657B6DFB65F9E03B6D3B6364
:103770004FF00003C4F28C337B633A6B3B6D104611
:1037800019460BF00DFF03461C467A6B7B6D104605
:1037900019460BF005FF03462046194604F04CFB82
:1037A0000346FB643A6B3B6D104619460BF0F8FE7E
:1037B00003461C467A6B7B6D104619460BF0F0FEF3
:1037C00003462046194604F063FB0346BB63BA6B0D
:1037D000FB6C1046194604F09FFB03467B64FA6CB1
:1037E0007B6C4FF00001C4F2342100911046194661
:1037F0004FF00002C4F248224FF00003C4F2A013BD
:1038000004F03EFC0346FB63FA6B7B6E10461946E0
:103810000BF0C6FE0346184604F0B8F8C7F890004F
:10382000BB6BD7F89000194604F016FD03463B61C8
:10383000BB6BD7F89000194604F066FD03467B6128
:10384000FB6C18464FF00001C4F220110CF050F947
:103850000346002B00D183E00023A7F89C3000230F
:10386000A7F898307CE03B6D3B634FF00003CCF24F
:103870008C337B633A6B3B6D104619460BF090FE20
:1038800003461C467A6B7B6D104619460BF088FE8A
:1038900003462046194604F0CFFA0346FB643A6B10
:1038A0003B6D104619460BF07BFE03461C467A6BB7
:1038B0007B6D104619460BF073FE034620461946F1
:1038C00004F0E6FA0346BB63BA6BFB6C104619467C
:1038D00004F022FB03467B64FA6C7B6C4FF0000122
:1038E000C4F234210091104619464FF00002C4F290
:1038F00048224FF00003C4F2A01304F0C1FB0346BA
:10390000FB63FA6B7B6E104619460BF049FE0346CB
:10391000184604F03BF8C7F89000BB6BD7F890004E
:10392000194604F099FC03463B61BB6BD7F8900045
:10393000194604F0E9FC03467B61FB6C18464FF026
:103940000001C4F220110CF0D3F80346002B00D183
:1039500005E00023A7F89C300023A7F8983000BFAB
:103960003B6D18464FF48041C4F288410CF0D4F806
:103970000346002B02D00323A7F89C30B7F882300F
:103980001BB2012B40F08B80B7F89630012B3AD058
:1039900039697A693B6E084611461A464FF00003B2
:1039A000CCF2F02304F044F803461846D7F8A410EC
:1039B0000BF0F8FD03463B6039697A693B6E0846B7
:1039C00011461A464FF00003C4F2F02304F0DCF86D
:1039D00003461846D7F8A4100BF0E4FD03467B60BD
:1039E00039697A693B6E084611461A464FF0000362
:1039F00004F076F903461846D7F8A4100BF0D2FD70
:103A00000346BB600CE007F150023B4610461946E6
:103A100005F01AFA4FF00000C4F2963000F056FAA2
:103A20003B6D4FF48040C4F29C4019460BF0B8FD4A
:103A300003461A467B6D1046194604F029FA0346E0
:103A400083F00043BB633A6EBB6B104619464FF0E0
:103A50000002C4F220124FF00003C4F2701303F00E
:103A600005FF0346FB603A68FB68104619460BF0F9
:103A700099FD03461D467A68FB68104619460BF00F
:103A800091FD03461C46BA68FB68104619460BF0C8
:103A900089FD0346284621461A4601F03BF97B6E14
:103AA0001846D7F8A0100CF037F80346002B02D0C8
:103AB0007B6EC7F8A030012001F018FB0346C72B2E
:103AC0001CD97B6E1846D7F8A0100CF007F80346F7
:103AD000002B0BD17B6E41F67160C0F600004FF6F3
:103AE000D831C0F600011A46FEF742FE41F6716079
:103AF000C0F60000FEF72EFEFFF7E0B9FFF7DEB9D3
:103B000080B489B000AF78600023BB6100237B6183
:103B10000023FB6102233B610023FB600223BB60A7
:103B20004FF46053C4F202039B6803F00C03BB61C3
:103B3000BB69042B0AD0082B0FD0002B5AD17A680E
:103B40004FF41053C0F2F40313605AE07A684FF454
:103B50009053C0F27A03136053E04FF46053C4F201
:103B600002035B6803F480039B0DFB604FF460531A
:103B7000C4F202035B6803F03F03BB60FB68002BE9
:103B800013D04FF49053C0F27A03BA68B3FBF2F249
:103B90004FF46053C4F20203596847F6C0730B40F8
:103BA0009B0903FB02F3FB6112E04FF41053C0F2D8
:103BB000F403BA68B3FBF2F24FF46053C4F20203A9
:103BC000596847F6C0730B409B0903FB02F3FB6186
:103BD0004FF46053C4F202035B6803F440331B0CE0
:103BE00001335B003B61FA693B69B2FBF3F27B682E
:103BF0001A6006E07A684FF41053C0F2F4031360C1
:103C000000BF4FF46053C4F202039B6803F0F0035B
:103C1000BB61BB691B09BB6140F27C03C2F20003BC
:103C2000BA6913441B78DBB27B617B681A687B69D5
:103C3000DA407B685A604FF46053C4F202039B6819
:103C400003F4E053BB61BB699B0ABB6140F27C0398
:103C5000C2F20003BA6913441B78DBB27B617B6854
:103C60005A687B69DA407B689A604FF46053C4F20B
:103C700002039B6803F46043BB61BB695B0BBB61E0
:103C800040F27C03C2F20003BA6913441B78DBB232
:103C90007B617B685A687B69DA407B68DA6024372D
:103CA000BD465DF8047B704780B483B000AF786098
:103CB0000B46FB70FB78002B0CD04FF46053C4F222
:103CC00002034FF46052C4F20202116B7A680A4395
:103CD0001A630CE04FF46053C4F202034FF46052D5
:103CE000C4F20202116B7A68D2430A401A630C379D
:103CF000BD465DF8047B704780B483B000AF786048
:103D00000B46FB70FB78002B0CD04FF46053C4F2D1
:103D100002034FF46052C4F20202516B7A680A4304
:103D20005A630CE04FF46053C4F202034FF4605244
:103D3000C4F20202516B7A68D2430A405A630C37CC
:103D4000BD465DF8047B704780B483B000AF7860F7
:103D50000B46FB70FB78002B0CD04FF46053C4F281
:103D600002034FF46052C4F20202116C7A680A43F3
:103D70001A640CE04FF46053C4F202034FF4605233
:103D8000C4F20202116C7A68D2430A401A640C37FA
:103D9000BD465DF8047B704780B483B000AF7860A7
:103DA0000B46FB70FB78002B0CD04FF46053C4F231
:103DB00002034FF46052C4F20202516C7A680A4363
:103DC0005A640CE04FF46053C4F202034FF46052A3
:103DD000C4F20202516C7A68D2430A405A640C372A
:103DE000BD465DF8047B704780B483B000AF786057
:103DF0000B46FB70FB78002B0CD04FF46053C4F2E1
:103E000002034FF46052C4F20202116A7A680A4354
:103E10001A620CE04FF46053C4F202034FF4605294
:103E2000C4F20202116A7A68D2430A401A620C375D
:103E3000BD465DF8047B704780B483B000AF786006
:103E40000B46FB70FB78002B0CD04FF46053C4F290
:103E500002034FF46052C4F20202516A7A680A43C4
:103E60005A620CE04FF46053C4F202034FF4605204
:103E7000C4F20202516A7A68D2430A405A620C378D
:103E8000BD465DF8047B704780B582B000AF00236B
:103E90007B6009E04FF48050C4F20200022101F07F
:103EA00047FA7B6801337B607A6844F23F23C0F2B3
:103EB0000F039A42EED94FF48050C4F2020002215F
:103EC00001F044FA0837BD4680BD00BF80B582B01E
:103ED00000AF786040F2CC23C2F200031B681846A2
:103EE0004FF00001C4F2A0010BF05CFB03461A4640
:103EF00040F2CC23C2F200031A6040F2CC23C2F29B
:103F000000031B68184679680BF0FCFD0346002B84
:103F100007D04FF48050C4F20200022101F008FAE9
:103F200005E040F2D023C2F2000301221A6040F201
:103F3000D023C2F200031B68012B19D140F2D42315
:103F4000C2F200031B6818464FF00001C4F2A00142
:103F50000BF028FB03461A4640F2D423C2F20003BA
:103F60001A604FF48050C4F20200022101F0EEF911
:103F700040F2D423C2F200031B68184679680BF0A4
:103F8000CBFD0346002B13D040F2CC23C2F200033A
:103F90004FF000021A6040F2D423C2F200034FF047
:103FA00000021A6040F2D023C2F2000300221A601D
:103FB0000837BD4680BD00BF80B500AF4FF48050CC
:103FC000C4F20200022101F0C1F980BD80B500AF4A
:103FD0004FF48050C4F20200022101F0A9F980BD23
:103FE00080B582B000AF786039604FF44060C4F2B1
:103FF0000200082101F09CF97B684FF000021A6171
:104000007B684FF000021A607B684FF000025A6034
:104010007B684FF000029A607B684FF00002DA6024
:104020007B684FF00002DA617B684FF000025A6251
:104030007B684FF000021A627B684FF000025A6101
:104040007B684FF000029A617B684FF00002DA62F1
:104050007B6800225A867B6800229A863B684FF074
:1040600000029A603B684FF000021A603B684FF014
:1040700000025A603B684FF00002DA613B684FF083
:1040800000029A613B684FF000025A613B684FF0B2
:104090000002DA603B684FF000021A6100F04CFE4B
:1040A0004FF44060C4F20200082101F04FF90837D4
:1040B000BD4680BD80B500AF4FF480700121FFF791
:1040C000BBFE4FF480700021FFF7B6FE80BD00BF3D
:1040D00080B485B000AF786039600023FB600023B6
:1040E000FB727B685B68FB60FB6823F0407323F422
:1040F0008073FB603B681B791A023B681B681343A3
:10410000FA681343FB607B68FA685A607B689B68B7
:10411000FB60FA684FF2FD73CCF2FF031340FB60C3
:104120003B681A693B68DB681A433B689B681A4323
:104130003B685B795B001343FA681343FB607B6861
:10414000FA689A607B68DB6AFB60FB6823F47003A3
:10415000FB603B681B7D013BDAB2FB7A1343FB72C9
:10416000FB7A1B05FA681343FB607B68FA68DA6226
:104170001437BD465DF8047B704700BF80B483B040
:1041800000AF78607B6800221A607B6800221A7199
:104190007B6800225A717B6800229A607B6800224B
:1041A000DA607B6800221A617B6801221A750C377D
:1041B000BD465DF8047B704780B485B000AF786081
:1041C0000023FB604FF40C53C4F201035B68FB60F7
:1041D000FA6843F2E003CFF6FC731340FB607B68A0
:1041E0001A687B685B681A437B689B681A437B6824
:1041F000DB681343FA681343FB604FF40C53C4F2BB
:104200000103FA685A601437BD465DF8047B7047B5
:1042100080B483B000AF78607B6800221A607B684E
:1042200000225A607B6800229A607B680022DA6074
:104230000C37BD465DF8047B704700BF80B483B087
:1042400000AF78600B46FB70FB78002B06D07B68D4
:104250009B6843F001027B689A6005E07B689B687D
:1042600023F001027B689A600C37BD465DF8047B41
:10427000704700BF80B485B000AF7860F970BA7045
:104280007B700023FB600023BB60FB78092B23D9E4
:104290007B68DB68FB60FB78A3F10A0213465B00D6
:1042A0001344072202FA03F3BB60BB68DB43FA68DE
:1042B0001340FB607978FB78A3F10A0213465B0098
:1042C000134401FA03F3BB60FA68BB681343FB6055
:1042D0007B68FA68DA601EE07B681B69FB60FA782D
:1042E00013465B001344072202FA03F3BB60BB686A
:1042F000DB43FA681340FB607978FA7813465B0079
:10430000134401FA03F3BB60FA68BB681343FB6014
:104310007B68FA681A61BB78062B21D87B685B6BD7
:10432000FB60BB785A1E13469B0013441F2202FAFF
:1043300003F3BB60BB68DB43FA681340FB60F978AA
:10434000BB785A1E13469B00134401FA03F3BB606B
:10435000FA68BB681343FB607B68FA685A6347E0FE
:10436000BB780C2B21D87B681B6BFB60BB78DA1FFA
:1043700013469B0013441F2202FA03F3BB60BB6881
:10438000DB43FA681340FB60F978BB78DA1F134609
:104390009B00134401FA03F3BB60FA68BB68134344
:1043A000FB607B68FA681A6322E07B68DB6AFB606B
:1043B000BB78A3F10D0213469B0013441F2202FA9F
:1043C00003F3BB60BB68DB43FA681340FB60F9781A
:1043D000BB78A3F10D0213469B00134401FA03F3CB
:1043E000BB60FA68BB681343FB607B68FA68DA62FB
:1043F0001437BD465DF8047B704700BF80B483B0BE
:1044000000AF78607B689B6843F080427B689A606D
:104410000C37BD465DF8047B704700BF80B483B0A5
:1044200000AF78600B46FB70FB78002B06D07B68F2
:104430009B6843F480727B689A6005E07B689B68A8
:1044400023F480727B689A600C37BD465DF8047B6C
:10445000704700BF80B483B000AF78600B46FB703C
:10446000FB78002B06D07B689B6843F400727B6866
:104470009A6005E07B689B6823F400727B689A6011
:104480000C37BD465DF8047B704700BF80B485B033
:1044900000AF78600B467B80FF23FB737A680023B4
:1044A000C4F202039A422FD17B88012B02D1002350
:1044B000FB7366E07B88022B02D10123FB7360E073
:1044C0007B88042B02D10223FB735AE07B88082BE4
:1044D00002D10323FB7354E07B88102B02D1042309
:1044E000FB734EE07B88202B02D10523FB7348E051
:1044F0007B88402B02D10623FB7342E07B88802B14
:104500003FD10723FB733CE07A684FF48063C4F229
:1045100002039A420BD17B88012B02D10823FB7343
:104520002FE07B88022B2CD10923FB7329E07A68CA
:104530004FF40063C4F202039A4222D17B88012B1C
:1045400002D10A23FB731CE07B88022B02D10B23D0
:10455000FB7316E07B88042B02D10C23FB7310E065
:104560007B88082B02D10D23FB730AE07B88102B7C
:1045700002D10E23FB7304E07B88082B01D10F23AB
:10458000FB73FB7B18461437BD465DF8047B704710
:1045900090B5B5B002AF78600B467B800023A7F8DA
:1045A000C6300023A7F8C43007F1B40300221A6014
:1045B000043300221A60043300221A6004330022FC
:1045C0001A600433FF2387F8B43007F19C031846C0
:1045D000FFF7D4FD07F18C031846FFF719FE07F12A
:1045E0005003184601F068FB4FF480700121FFF77B
:1045F000D3FB4FF480000121FFF756FB7B8800229C
:104600000092032079681A460023FDF797FB7A8809
:1046100007F10C031046194605F050FA46F2104017
:10462000C4F2020001F0DAF900233B6542F24C03C8
:10463000C4F201037B6540F2D823C2F20003BB65DC
:104640000023FB65BB8D3B6600237B664FF48063D4
:10465000BB664FF40063FB664FF400533B674FF4B7
:1046600080737B674FF40033BB670023FB67012334
:10467000C7F880300023C7F884300023C7F888309B
:1046800007F1500346F21040C4F20200194601F04F
:10469000BBFA46F21040C4F20200012101F042FBD5
:1046A000FFF708FD0023C7F88C300023C7F89030CF
:1046B0000023C7F894304FF47063C7F8983007F1BF
:1046C0008C031846FFF778FD0023C7F89C300123C0
:1046D00087F8A030012387F8A1300023C7F8A43061
:1046E0000023C7F8A8300023C7F8AC30BB8DDBB27D
:1046F00087F8B03007F19C034FF40050C4F201007A
:104700001946FFF7E5FC4FF40050C4F20100012107
:10471000FFF784FE0023A7F8C63024E0B7F8C630C0
:104720005B0007F1C802134433F8BC3C012B15D1E0
:10473000B7F8C640B7F8C63010335B0007F1C802BF
:10474000134433F8BA3C78681946FFF79FFE0346D6
:104750001A4607F1C803234403F8142CB7F8C630EF
:104760000133A7F8C630B7F8C6300F2BD6D90023CF
:10477000A7F8C6302BE0B7F8C63007F1C8021344DB
:1047800013F8143CFF2B1DD0B7F8C4300133A7F841
:10479000C430BB8DB7F8C4209A4200D91BE0B7F8EB
:1047A000C63007F1C802134413F8142CB7F8C4300C
:1047B000DBB24FF40050C4F2010011461A46072341
:1047C000FFF758FDB7F8C6300133A7F8C630B7F881
:1047D000C6300F2BCFD94FF40050C4F20100012195
:1047E000FFF738FE4FF40050C4F201000121FFF73B
:1047F00025FD4FF40050C4F20100FFF7FFFDCC3758
:10480000BD4690BD80B483B000AF0346FB80FA88FC
:1048100040F2D823C2F2000333F812301BB218461C
:104820000C37BD465DF8047B704700BF80B582B091
:1048300000AF786078684FF44041C4F279410BF0E2
:104840004DF90346002B12D04FF48060C4F20200F1
:10485000042100F07BFD4FF48050C4F202004FF4BD
:10486000806100F073FD4FF000037B6046E07868E4
:104870004FF000010BF05AF90346002B0FD04FF414
:104880008060C4F20200042100F052FD4FF4805019
:10489000C4F202004FF4806100F058FD2EE0786809
:1048A0004FF000010BF024F90346002B0FD04FF41A
:1048B0008060C4F20200042100F048FD4FF48050F3
:1048C000C4F202004FF4806100F032FD16E0786817
:1048D0004FF000010BF002F90346002B0ED04FF40D
:1048E0008060C4F20200042100F030FD4FF48050DB
:1048F000C4F202004FF4806100F028FD7B6823F0D1
:1049000000434FF00000C4F2C8204FF000011A46E7
:1049100002F08EFF78604FF00000C4F2C820796882
:104920000AF03EFE034618464FF00001C4F2C821CB
:104930000AF0F4FF03460020C4F2010001211A46E8
:10494000FBF722FC0837BD4680BD00BF80B582B0B2
:1049500000AF786078684FF44041C4F279410BF0C1
:10496000BDF80346002B13D04FF48060C4F2020060
:104970004FF4805100F0EAFC4FF48060C4F2020072
:104980004FF4806100F0E2FC4FF000037B604DE0EB
:1049900078684FF000010BF0C9F80346002B10D0E7
:1049A0004FF48060C4F202004FF4805100F0C0FC6C
:1049B0004FF48060C4F202004FF4806100F0C6FC46
:1049C00034E078684FF000010BF092F80346002BBA
:1049D00014D04FF48060C4F202004FF4805100F014
:1049E000B5FC4FF48060C4F202004FF4806100F027
:1049F0009FFC7B6883F000437B6017E078684FF092
:104A000000010BF06BF80346002B0FD04FF48060D1
:104A1000C4F202004FF4805100F098FC4FF4806023
:104A2000C4F202004FF4806100F090FC7B6823F038
:104A300000434FF00000C4F2C8204FF000011A46B6
:104A400002F0F6FE78604FF00000C4F2C8207968EA
:104A50000AF0A6FD034618464FF00001C4F2C82133
:104A60000AF05CFF03460020C4F2010004211A464C
:104A7000FBF78AFB0837BD4680BD00BF80B582B01A
:104A800000AF786078684FF44041C4F279410BF090
:104A900025F80346002B12D04FF48050C4F20200D8
:104AA000102100F053FC4FF48050C4F202004FF488
:104AB000007100F04BFC4FF000037B604AE0786827
:104AC0004FF000010BF032F80346002B0FD04FF4EB
:104AD0008050C4F20200102100F02AFC4FF48050F4
:104AE000C4F202004FF4007100F030FC32E078684C
:104AF0004FF000010AF0FCFF0346002B13D04FF4E7
:104B00008050C4F20200102100F020FC4FF48050CD
:104B1000C4F202004FF4007100F00AFC7B6883F0DD
:104B200000437B6016E078684FF000010AF0D6FF82
:104B30000346002B0ED04FF48050C4F20200102127
:104B400000F004FC4FF48050C4F202004FF40071F6
:104B500000F0FCFB7B6823F000434FF00000C4F240
:104B6000C8204FF000011A4602F062FE78604FF054
:104B70000000C4F2C82079680AF012FD0346184606
:104B80004FF00001C4F2C8210AF0C8FE034600201D
:104B9000C4F2010002211A46FBF7F6FA0837BD46B7
:104BA00080BD00BF80B582B000AF786078684FF4F8
:104BB0004041C4F279410AF091FF0346002B13D023
:104BC0004FF48050C4F202004FF4004100F0BEFBED
:104BD0004FF44060C4F202004FF4805100F0B6FB85
:104BE0004FF000037B604DE078684FF000010AF061
:104BF0009DFF0346002B10D04FF48050C4F20200FA
:104C00004FF4004100F094FB4FF44060C4F2020006
:104C10004FF4805100F09AFB34E078684FF00001C7
:104C20000AF066FF0346002B14D04FF48050C4F204
:104C300002004FF4004100F089FB4FF44060C4F2E1
:104C400002004FF4805100F073FB7B6883F0004357
:104C50007B6017E078684FF000010AF03FFF0346E1
:104C6000002B0FD04FF48050C4F202004FF40041EB
:104C700000F06CFB4FF44060C4F202004FF480512E
:104C800000F064FB4FF40060C4F202004FF40041F6
:104C900000F034FB034618460221FCF70FFF0346E1
:104CA0000B2B0FD14FF48050C4F202004FF400419F
:104CB00000F04CFB4FF44060C4F202004FF480510E
:104CC00000F044FB7B6823F000434FF00000C4F287
:104CD000C8204FF000011A4602F0AAFD78604FF09C
:104CE0000000C4F2C82079680AF05AFC034618464E
:104CF0004FF00001C4F2C8210AF010FE0346002064
:104D0000C4F2010003211A46FBF73EFA0837BD46FC
:104D100080BD00BF80B584B000AFF860B9607A6034
:104D2000F868FFF783FDB868FFF710FE7868FFF7B3
:104D3000A5FE1037BD4680BD80B500AF4FF4805052
:104D4000C4F20200102100F001FB4FF48050C4F2C5
:104D500002004FF4007100F0F9FA4FF48060C4F2E1
:104D600002004FF4805100F0F1FA4FF48060C4F279
:104D700002004FF4806100F0E9FA4FF48060C4F261
:104D80000200042100F0E2FA4FF48050C4F2020065
:104D90004FF4806100F0DAFA4FF48050C4F2020060
:104DA0004FF4004100F0D2FA4FF44060C4F2020028
:104DB0004FF4805100F0CAFA80BD00BF80B483B0C8
:104DC00000AF03463960FB713B6812221A8040F243
:104DD000A803C2F2000318460C37BD465DF8047BF9
:104DE000704700BF80B483B000AF03463960FB71E9
:104DF0003B6804221A8040F2C803C2F2000318463E
:104E00000C37BD465DF8047B704700BF80B582B0AB
:104E100000AF03463960FB71FB79002B0BD14FF6D5
:104E2000E430C0F6000040F65831C2F200013A68A2
:104E300001F062FF0AE04FF60840C0F6000040F6BD
:104E40005831C2F200013A6801F056FF40F658337B
:104E5000C2F2000318460837BD4680BD80B582B057
:104E600000AF03463960FB714FF62C40C0F60000DE
:104E700040F65831C2F200013A6801F03DFF40F6B9
:104E80005833C2F2000318460837BD4680BD00BF44
:104E900080B582B000AF03463960FB71FB79002B0F
:104EA0000BD14FF64040C0F6000040F65831C2F238
:104EB00000013A6801F020FF0AE04FF65040C0F6CA
:104EC000000040F65831C2F200013A6801F014FFC8
:104ED00040F65833C2F2000318460837BD4680BD7D
:104EE00080B582B000AF03463960FB71FB79002BBF
:104EF0000BD14FF66040C0F6000040F65831C2F2C8
:104F000000013A6801F0F8FE0AE04FF66040C0F692
:104F1000000040F65831C2F200013A6801F0ECFEA0
:104F200040F65833C2F2000318460837BD4680BD2C
:104F300080B582B000AF03463960FB71FB79002B6E
:104F40000BD14FF66C40C0F6000040F65831C2F26B
:104F500000013A6801F0D0FE0AE04FF66C40C0F65E
:104F6000000040F65831C2F200013A6801F0C4FE78
:104F700040F65833C2F2000318460837BD4680BDDC
:104F800080B483B000AF03463960FB7197F90730F6
:104F9000002B0EDA4FF46D43CEF20003FA7902F0E3
:104FA0000F02111F3A68D2B21201D2B20B441A7624
:104FB0000CE04FF46143CEF2000397F907103A6812
:104FC000D2B21201D2B20B4483F800230C37BD4693
:104FD0005DF8047B704700BF80B582B000AF786099
:104FE0007B68B3F1807F01D301231AE04EF21003F6
:104FF000CEF200037A6822F07F42013A5A604FF005
:10500000FF300F21FFF7BCFF4EF21003CEF200037A
:1050100000229A604EF21003CEF2000307221A60BB
:10502000002318460837BD4680BD00BF80B400AFDE
:1050300040F2E823C2F200031B685A1C40F2E82346
:10504000C2F200031A6040F2F023C2F200031B68B0
:105050005A1C40F2F023C2F200031A6040F2EC2323
:10506000C2F200031B685A1C40F2EC23C2F2000398
:105070001A60BD465DF8047B704700BF80B582B002
:1050800000AF786000F042FB4FF0FF300121FFF7E6
:1050900077FF40F2E803C2F200031B6818460AF0EB
:1050A00031FB0346184679680AF084FB034618462C
:1050B0000AF06CFD03461846FFF78EFF0837BD4621
:1050C00080BD00BF80B500AF40F2F423C2F2000300
:1050D0001B685A1C40F2F423C2F200031A604FF01E
:1050E0008040012106F030F880BD00BF80B483B05D
:1050F00000AF78607B68002B05D140F2E823C2F254
:1051000000031B681BE07B68012B05D140F2EC23F8
:10511000C2F200031B6812E07B68022B05D140F24B
:10512000F423C2F200031B6809E07B68032B05D15E
:1051300040F2F023C2F200031B6800E0002318468F
:105140000C37BD465DF8047B704700BF80B483B068
:1051500000AF78607B68002B06D140F2E823C2F2F2
:10516000000300221A601CE07B68012B06D140F28C
:10517000EC23C2F2000300221A6012E07B68022BCB
:1051800006D140F2F423C2F2000300221A6008E0C4
:105190007B68032B05D140F2F023C2F2000300220A
:1051A0001A600C37BD465DF8047B704780B487B049
:1051B00000AF7860396000237B6100233B610023EE
:1051C000FB6000237B6176E07B69012202FA03F336
:1051D0003B613B681A683B691340FB60FA683B69B6
:1051E0009A4265D17B681A687B695B00032101FAEA
:1051F00003F3DB431A407B681A607B681A683B68DC
:105200001B7919467B695B0001FA03F31A437B683B
:105210001A603B681B79012B03D03B681B79022B7A
:105220002ED17B689A687B695B00032101FA03F346
:10523000DB431A407B689A607B689A683B685B79BD
:1052400019467B695B0001FA03F31A437B689A6095
:105250007B685A687B699BB2012101FA03F3DB4347
:105260001A407B685A607B685A683B689B7919468C
:105270007B699BB201FA03F39BB21A437B685A60C5
:105280007B68DA687B699BB25B00032101FA03F358
:10529000DB431A407B68DA607B68DA683B68DB795D
:1052A00019467B695B0001FA03F31A437B68DA60F5
:1052B0007B6901337B617B690F2B85D91C37BD4628
:1052C0005DF8047B704700BF80B483B000AF7860A6
:1052D0007B684FF6FF721A607B6800221A717B6848
:1052E00000225A717B6800229A717B680022DA7171
:1052F0000C37BD465DF8047B704700BF80B485B0B5
:1053000000AF78600B467B800023FB737B681A69D3
:105310007B881340002B02D00123FB7301E00023A4
:10532000FB73FB7B18461437BD465DF8047B704762
:1053300080B483B000AF78600B467B807B687A884E
:105340001A830C37BD465DF8047B704780B483B088
:1053500000AF78600B467B807B687A885A830C3775
:10536000BD465DF8047B704780B485B000AF7860BF
:1053700013460A467A807B700023FB600023BB60E3
:105380007A787B8803F007039B0002FA03F3FB6043
:105390007B88DB089BB21A467B88DB089BB21946E8
:1053A0007B68083153F821107B8803F007039B00CA
:1053B0000F2000FA03F3DB4319407B68083243F8FF
:1053C00022107B88DB089BB21A467B68083253F8B0
:1053D0002220FB681343BB607B88DB089BB21A4624
:1053E0007B680832B96843F822101437BD465DF86F
:1053F000047B704780B400AF00231846BD465DF8BB
:10540000047B704780B400AF00231846BD465DF8AA
:10541000047B704780B485B000AFF860B9607A60F3
:10542000FB68232B00F28B8001A252F823F000BF0F
:105430003F5500083F5500083F5500083F550008FC
:105440003F5500083F5500083F5500083F550008EC
:105450003F5500083F5500083F5500083F550008DC
:105460003F5500083F5500083F5500083F550008CC
:105470003F5500083F5500083F5500083F550008BC
:105480003F5500083F5500083F5500083F550008AC
:105490003F5500083F5500083F5500083F5500089C
:1054A0003F5500083F5500083F5500083F5500088C
:1054B0003F550008C15400083F5500083F550008FB
:1054C00040F2CC03C2F200031B68DAB2BB681A7068
:1054D000BB685A1C40F2CC03C2F200031B681B0AD3
:1054E000DBB21370BB689A1C40F2CC03C2F200031B
:1054F0001B681B0CDBB21370BB68DA1C40F2CC03D8
:10550000C2F200031B681B0EDBB21370BB681A1DCE
:1055100040F2CC03C2F200031B791370BB685A1D22
:1055200040F2CC03C2F200035B791370BB689A1D92
:1055300040F2CC03C2F200039B79137000E000BF7D
:10554000002318461437BD465DF8047B704700BF42
:1055500080B582B000AF0346FB71FB1D18460121E8
:1055600000F004F80837BD4680BD00BF80B485B0A8
:1055700000AF786039600023FB6029E040F2AC3373
:10558000C2F200031A687968FB680B44197840F688
:105590001843C2F20003995440F2AC33C2F2000344
:1055A0001B685A1C40F2AC33C2F200031A60FB685D
:1055B0000133FB6040F2AC33C2F200031B68B3F569
:1055C000006F05D140F2AC33C2F2000300221A6032
:1055D000FA683B689A42D1D3002318461437BD4677
:1055E0005DF8047B704700BF80B485B000AF786081
:1055F00039600023FB6036E040F65433C2F200030A
:105600001A687968FB680B44197840F6C023C2F227
:105610000003995440F65433C2F200031B685A1C2D
:1056200040F65433C2F200031A6040F65433C2F21B
:1056300000031B68802B05D140F65433C2F20003EF
:1056400000221A6040F65433C2F200031A6840F692
:105650004033C2F200031B689A4201D1022307E0E3
:10566000FB680133FB60FA683B689A42C4D30023AD
:1056700018461437BD465DF8047B704780B500AF0F
:105680004FF46053C4F202034FF46052C4F20202BA
:10569000126842F001021A604FF46053C4F2020330
:1056A00000229A604FF46053C4F202034FF4605238
:1056B000C4F20202126822F0847222F480321A606C
:1056C0004FF46053C4F2020343F21002C2F20042EC
:1056D0005A604FF46053C4F202034FF46052C4F2B4
:1056E0000202126822F480221A604FF46053C4F25E
:1056F00002030022DA6000F0B3F84FF46D43CEF2FB
:1057000000034FF000629A6080BD00BF80B487B094
:1057100000AF00233B6100237B610223FB60002379
:10572000BB6002237B604FF46053C4F202039B68AA
:1057300003F00C033B613B69042B0DD0082B15D003
:10574000002B63D140F2E803C2F200034FF4105281
:10575000C0F2F4021A6063E040F2E803C2F2000310
:105760004FF49052C0F27A021A6059E04FF460533D
:10577000C4F202035B6803F480039B0DBB604FF42B
:105780006053C4F202035B6803F03F037B60BB68B5
:10579000002B13D04FF49053C0F27A037A68B3FB16
:1057A000F2F24FF46053C4F20203596847F6C07333
:1057B0000B409B0903FB02F37B6112E04FF4105393
:1057C000C0F2F4037A68B3FBF2F24FF46053C4F210
:1057D0000203596847F6C0730B409B0903FB02F3B1
:1057E0007B614FF46053C4F202035B6803F44033FF
:1057F0001B0C01335B00FB607A69FB68B2FBF3F2C0
:1058000040F2E803C2F200031A6009E040F2E80344
:10581000C2F200034FF41052C0F2F4021A6000BF4B
:105820004FF46053C4F202039B6803F0F0031A09BB
:1058300040F2EC03C2F200039B5CDBB23B6140F23E
:10584000E803C2F200031A683B69DA4040F2E80359
:10585000C2F200031A601C37BD465DF8047B704736
:1058600080B483B000AF00237B6000233B604FF423
:105870006053C4F202034FF46052C4F20202126891
:1058800042F480321A604FF46053C4F202031B6882
:1058900003F400333B607B6801337B603B68002B83
:1058A00003D17B68B3F5A06FEDD14FF46053C4F220
:1058B00002031B6803F40033002B02D001233B607A
:1058C00001E000233B603B68012B40F082804FF4F5
:1058D0006053C4F202034FF46052C4F20202126C2D
:1058E00042F080521A644FF4E043C4F200034FF4D4
:1058F000E042C4F20002126842F480421A604FF49F
:105900006053C4F202034FF46052C4F20202926880
:105910009A604FF46053C4F202034FF46052C4F231
:105920000202926842F400429A604FF46053C4F25B
:1059300002034FF46052C4F20202926842F4A05291
:105940009A604FF46053C4F2020345F20842C0F279
:1059500040725A604FF46053C4F202034FF4605235
:10596000C4F20202126842F080721A6000BF4FF463
:105970006053C4F202031B6803F00073002BF6D0DF
:105980004FF47053C4F2020340F205621A604FF400
:105990006053C4F202034FF46052C4F202029268F0
:1059A00022F003029A604FF46053C4F202034FF4F2
:1059B0006052C4F20202926842F002029A6000BF92
:1059C0004FF46053C4F202039B6803F00C03082BEE
:1059D000F6D10C37BD465DF8047B704780B483B0C8
:1059E00000AF78607B681B6823F001027B681A6057
:1059F0007B6800221A607B6800225A607B68002264
:105A00009A607B680022DA607B6800221A617B68FA
:105A100021225A617A6846F21003C4F202039A42C4
:105A200006D14FF4C043C4F202033D229A60E6E07F
:105A30007A6846F22803C4F202039A4207D14FF46F
:105A4000C043C4F202034FF474629A60D7E07A68EC
:105A500046F24003C4F202039A4207D14FF4C04316
:105A6000C4F202034FF474129A60C8E07A6846F2F6
:105A70005803C4F202039A4207D14FF4C043C4F260
:105A800002034FF074629A60B9E07A6846F27003DC
:105A9000C4F202039A4208D14FF4C043C4F2020395
:105AA0003D22C2F20002DA60A9E07A6846F2880379
:105AB000C4F202039A4209D14FF4C043C4F2020374
:105AC0004FF47462C2F20002DA6098E07A6846F23B
:105AD000A003C4F202039A4208D14FF4C043C4F2B7
