:020000040800F2
:10000000E81B0020712200087D1C0008891C0008E4
:10001000951C0008A11C0008AD1C00080000000091
:10002000000000000000000000000000B91C0008F3
:10003000C51C000800000000D11C00086148000831
:10004000D1220008D1220008D1220008D1220008C4
:10005000D1220008D1220008D1220008D1220008B4
:10006000D1220008D1220008D1220008D1220008A4
:10007000D1220008D1220008D1220008D122000894
:10008000D1220008D1220008D1220008D122000884
:10009000D1220008D1220008D1220008D122000874
:1000A000D1220008351D0008D1220008D122000805
:1000B000F9480008991D0008051E0008D122000813
:1000C000D1220008D1220008D1220008D122000844
:1000D000D1220008259E0008319E00083D9E0008A0
:1000E000D1220008D1220008F11C0008D12200080A
:1000F000DD1E0008D1220008D1220008D12200080C
:10010000D1220008D1220008711E0008D122000867
:10011000D1220008D1220008D1220008D1220008F3
:10012000D1220008D1220008D1220008D1220008E3
:10013000D1220008D1220008D1220008D1220008D3
:10014000D1220008D1220008D1220008DD1C0008BD
:10015000D1220008D1220008D1220008D1220008B3
:10016000D1220008D1220008D1220008D1220008A3
:10017000D1220008D1220008D1220008D122000893
:10018000D1220008D122000880B584B000AFF86009
:100190000B467A60FB72FB7A013B032B52D801A21B
:1001A00052F823F0B5010008D9010008FD0100084C
:1001B00021020008FB68DB6A18460DF0ABFE03461F
:1001C000184679680DF0FEFE034618460EF0C0F89A
:1001D0000246FB685A6336E0FB68DB6A18460DF09E
:1001E00099FE0346184679680DF0ECFE0346184662
:1001F0000EF0AEF80246FB689A6324E0FB68DB6A07
:1002000018460DF087FE0346184679680DF0DAFEB1
:10021000034618460EF09CF80246FB68DA6312E0CB
:10022000FB68DB6A18460DF075FE034618467968D0
:100230000DF0C8FE034618460EF08AF80246FB6829
:100240001A6400E000BF1037BD4680BD90B5ADB068
:1002500002AFF860B9603B601346FB800023C7F82B
:10026000A4300023C7F8A0300023C7F89C30012336
:10027000C7F898300023A7F8963004F053FE07F132
:100280004403184603F02CF9FB68B3F1804F06D302
:10029000FA684FF4A053C4F200039A420DD9FA68E9
:1002A00041F2FF73C4F200039A4217D9FA684FF47F
:1002B0000053C4F200039A4210D8FA6C4FF4605312
:1002C000C4F20203D3F88C301B0E03F00103013398
:1002D00003FB02F35B00C7F8A4300FE03A6D4FF464
:1002E0006053C4F20203D3F88C301B0E03F00103F9
:1002F000013303FB02F35B00C7F8A4303B68002B1B
:100300000DDDD7F8A42048F21F53C5F2EB1383FB91
:1003100002135911D317CA1A3B689A4201DA012312
:10032000F4E01FE0D7F8A0300133C7F8A030D7F8C9
:10033000A420D7F8A03092FBF3F23B6892FBF3F3D2
:10034000C7F89C30D7F89C30B3F5803F02DA002321
:10035000C7F89830D7F8A0204FF6FE739A4201DD17
:100360000123D3E0D7F89830002BDBD1D7F8A420B5
:10037000D7F8A03092FBF3F2D7F89C3092FBF3F35E
:100380003B60F86808F052FFFB88002200920220D0
:10039000B9681A46002301F091FBD7F89C30013B65
:1003A000FB63D7F8A0309BB2013B9BB23B87002395
:1003B000A7F8403000237B87002387F8423007F1FD
:1003C0003803F868194609F0ADFD6023BB840023AB
:1003D0003B8608237B860123FB8404233B854FF463
:1003E0008073BB864FF40073FB8607F12403F86823
:1003F000194609F04DFEF86800210AF039F807F1B6
:100400002403F868194609F0BDFEF86800210AF0D7
:100410004BF807F12403F868194609F03BFFF86828
:1004200000210AF05FF807F12403F868194609F083
:10043000B7FFF86800210AF071F8FA680023C4F2E7
:1004400001039A4206D0FA684FF48063C4F20103B4
:100450009A4211D107F1140318460AF0A5F84FF497
:1004600080433B8407F11403F86819460AF074F8D6
:10047000F86801210AF0B6F8FA8807F1540310462B
:10048000194608F08FFD0023A7F8963025E0B7F84D
:1004900096305B0007F1A802134433F8543C012B5B
:1004A00016D1B7F8963010335B0007F1A8010B4462
:1004B00033F8523C184609F0B7F803461C46F86872
:1004C00009F028F90346B86821461A4604F066FB8D
:1004D000B7F896300133A7F89630B7F896300F2B5F
:1004E000D5D9FB6800225A63FB6800229A63FB6837
:1004F0000022DA63FB6800221A64F868012109F01F
:1005000087FDF868012109F0A3FD00231846AC37E8
:10051000BD4690BD80B485B000AF78600023FB601D
:100520007B68DB684FF0FF325A607B68DB684FF016
:10053000FF325A61FB7B43F08003FB737B7B43F00C
:1005400008037B737B68DB68FA689A611437BD46E1
:100550005DF8047B704700BF80B586B000AF78605F
:100560000023FB7400237B610023FB60032005F064
:100570007DF87B68DB681B69FB607B6901337B610D
:100580007A694FF45463C0F203039A4201D90023FD
:1005900028E0FB68C3F3C073DBB2002BE6D0002376
:1005A0007B61FB6843F00103FB607B68DB68FA68F2
:1005B0001A617B68DB681B69FB607B6901337B61C7
:1005C0007A694FF45463C0F203039A4200D905E0FC
:1005D000FB68C3F30003DBB2012BEAD0032005F074
:1005E00045F8FB7C18461837BD4680BD80B489B0FD
:1005F00000AFF860B960FA71BB800023FB76FB683E
:10060000DB78002B23D100237B610023FB61BB88B7
:100610000333DA1C002BB8BF13469B107B61FB79B8
:10062000FA6832339B0013449B683B610023FB61F3
:1006300009E0BB681A683B691A60FB690133FB611A
:10064000BB680433BB60FA697B699A42F1D3FB7ED5
:1006500018462437BD465DF8047B704780B489B0E6
:1006600000AFF860B9601346FB800023FB61FB8894
:100670000333DA1C002BB8BF13469B10BB61FB6829
:10068000D3F8D0307B610023FB6109E07B691A68F5
:10069000BB681A60FB690133FB61BB680433BB6054
:1006A000FA69BB699A42F1D3BB6818462437BD4644
:1006B0005DF8047B704700BF80B487B000AF7860FE
:1006C0000B46FB7000233B610023FB737B68002219
:1006D000DA707B6801229A707B6840229A80FB78EE
:1006E000012B13D14FF0A0433B617B680122DA72EA
:1006F0007B6808221A707B6804225A707B684FF46A
:10070000A072DA807B6802221A7213E0FB78002B59
:1007100010D10023C4F204033B617B680022DA722B
:100720007B680C221A707B6806225A707B684FF433
:10073000A062DA803A697B68DA603B6903F500639E
:100740001A467B681A6100237B611CE07B695A01B1
:100750003B69134403F510631A4679687B690433D7
:100760009B000B449A607B695A013B69134403F573
:1007700030631A4679687B6914339B000B445A60D6
:100780007B6901337B617B685B781A467B699A429F
:10079000DCD83B6903F580631A467B685A613B6984
:1007A00003F588631A467B68C3F8CC2000237B617D
:1007B0000FE07B695A013B69134403F5A0631A46B5
:1007C00079687B6922339B000B449A607B69013313
:1007D0007B617B681B781A467B699A42E9D80023C3
:1007E0007B610FE07B691A033B69134403F5805377
:1007F0001A4679687B6932339B000B449A607B69A7
:1008000001337B617B681B781A467B699A42E9D881
:100810003B6903F560631A467B68C3F80C21FB7BD8
:1008200018461C37BD465DF8047B704780B588B01C
:1008300000AF78600023FB770023BB6100237B615E
:100840000023FB607B681B7A012B4FD17B68DB6840
:100850009B6B7B61BB7D6FF30003BB757B685B7A31
:10086000002B03D0BB7D43F01003BB757B68DB68B6
:100870007A699A630023BB617B68DB68DB68BB61D4
:100880003B7E6FF386133B76BB7E6FF38613BB769E
:100890003B7E43F010033B763B7E6FF3C3033B7616
:1008A0003B7E6FF3C7133B76BB7E6FF34103BB7692
:1008B000BB7E6FF3C303BB767B68DB68BA69DA6023
:1008C0007868FFF749FE7B68DB78012B40F0828077
:1008D0003B7B052262F344033B733B7B43F02003E5
:1008E0003B737B68DB68FA689A6073E07B68DB685F
:1008F000DB68BB613B7E43F040033B767B68DB6893
:10090000BA69DA607868FFF727FE00237B61BB7D58
:1009100043F00103BB757B681B7A032B03D1BB7DBE
:1009200043F00203BB75BB7D43F00403BB75BB7D85
:1009300043F00803BB75BB7D43F02003BB757B68A8
:100940005B7A002B03D0BB7D43F01003BB757B6843
:10095000DB687A699A63142004F0AEFE7B68DB687A
:10096000DB68BB617B681B7A032B03D1BB7E43F042
:100970000103BB767B68DB68BA69DA607B681B7A47
:10098000032B27D17B68DB681B6B3B61FB7C01225F
:1009900062F38303FB74BB7C6FF3C713BB74FB7CF4
:1009A00043F01003FB74BB7C2D2262F30603BB747F
:1009B0007B68DB683A691A63C82004F07DFEBB7C63
:1009C00043F08003BB747B68DB683A691A63C82014
:1009D00004F072FE7B68DB78012B10D17B68DB684A
:1009E0009B68FB603B7B052262F344033B733B7BCC
:1009F00043F020033B737B68DB68FA689A60FB7FF7
:100A000018462037BD4680BD80B485B000AF786001
:100A10000023FB730023BB603B7A43F001033B726E
:100A20007B68DB687A68D2689168BA680A439A6022
:100A3000FB7B18461437BD465DF8047B704700BF4A
:100A400080B485B000AF78600023FB730023BB60E7
:100A50003B7A43F001033B727B68DB687A68D268BB
:100A60009168BA68D2430A409A60FB7B18461437F3
:100A7000BD465DF8047B704780B586B000AF7860F6
:100A800039600023FB7400237B610023FB60FB685B
:100A900043F02003FB603B68DBB203F01F03DAB2D4
:100AA000FB6862F38A13FB607B68DB68FA681A6193
:100AB0007B68DB681B69FB607B6901337B617A695A
:100AC0004FF45463C0F203039A4200D905E0FB6877
:100AD000C3F34013DBB2012BEAD0032004F0C6FDC0
:100AE000FB7C18461837BD4680BD00BF80B586B078
:100AF00000AF78600023FB7400237B610023FB6060
:100B0000FB6843F01003FB607B68DB68FA681A61DE
:100B10007B68DB681B69FB607B6901337B617A69F9
:100B20004FF45463C0F203039A4200D905E0FB6816
:100B3000C3F30013DBB2012BEAD0032004F096FDCF
:100B4000FB7C18461837BD4680BD00BF80B584B019
:100B500000AF78600B46FB700023FB737B68DB689B
:100B6000DB68BB60FB7A6FF34513FB72FB7A6FF3B4
:100B70008613FB72FB78012B04D1FB7A43F0200330
:100B8000FB7206E0FB78002B03D1FB7A43F04003B5
:100B9000FB727B68DB68BA68DA60322004F08CFD97
:100BA000FB7B18461037BD4680BD00BF80B483B0C4
:100BB00000AF78607B68DB685B6903F0010318466F
:100BC0000C37BD465DF8047B704700BF80B582B02E
:100BD00000AF78607868FFF7E9FF0346012B0CBF90
:100BE00000230123DBB218460837BD4680BD00BF95
:100BF00080B485B000AF78600023FB607B68DB6861
:100C00005B69FB607B68DB689B69FA681340FB608B
:100C1000FB6818461437BD465DF8047B704700BF7B
:100C200080B485B000AF78600B46FB707B681B69B1
:100C30001B68FB60FB7803F00303DAB23B7B62F3D3
:100C400001033B737B681B69FA681A601437BD4661
:100C50005DF8047B704700BF80B58CB000AF786052
:100C6000002387F82B3000237B6200233B620023A4
:100C7000FB610023BB6100237B617B68D3F80C31EF
:100C800000221A607B681B691B683B6297F8213061
:100C90006FF3C40387F821307B681B693A6A1A60D6
:100CA0007B68DB7A012B40D178680321FFF7B8FF1E
:100CB0007B68DB6880225A62FB8B402262F30F0361
:100CC000FB83BB8B802262F30F03BB837B68DB68F3
:100CD000FA699A62BA8BFB8B13449BB23B837B8B82
:100CE000802262F30F037B837B68DB68BA69C3F8F9
:100CF00004213A8B7B8B13449BB23B837B8B6FF33A
:100D00000F037B837B68DB68BA69C3F808213A8BE1
:100D10007B8B13449BB23B837B8B6FF30F037B83F3
:100D20007B68DB68BA69C3F80C2178681021FFF78B
:100D3000A3FE7868FFF7DAFE7B681B6900221A6160
:100D40007B681B6900225A617B681B694FF0FF3288
:100D50009A617B681B690022DA610023FB623AE03A
:100D60007A68FB6A04339B0013449B681B687B62B0
:100D700097F82730C3F3C013DBB2002B0ED000234B
:100D80007B6297F8273043F0400387F8273097F8C5
:100D9000273043F0080387F8273001E000237B6207
:100DA0007A68FB6A04339B0013449B687A6A1A6072
:100DB0007A68FB6A04339B0013449B6800221A6123
:100DC0007A68FB6A04339B0013449B68FF229A6095
:100DD000FB6A0133FB627B685B781A46FB6A9A42C6
:100DE000BED80023FB6235E07A68FB6A14339B00AF
:100DF00013445B681B68FB60FB7BC3F3C013DBB26F
:100E0000002B0AD00023FB60FB7B43F04003FB7305
:100E1000FB7B43F00803FB7301E00023FB607A686F
:100E2000FB6A14339B0013445B68FA681A607A68A3
:100E3000FB6A14339B0013445B6800221A617A68D2
:100E4000FB6A14339B0013445B68FF229A60FB6AC1
:100E50000133FB627B685B781A46FB6A9A42C3D80F
:100E600000237B617B7D43F001037B757B681B69FD
:100E70007A68126911697A69D24311407A690A4322
:100E80001A617B68DB78012B1BD100233B613B7C23
:100E900043F001033B743B7C43F002033B743B8A09
:100EA000402262F38A033B82BB7C43F00103BB74A4
:100EB0007B8A402262F349037B827B681B693A6923
:100EC0001A63786800F006F897F82B301846303728
:100ED000BD4680BD80B584B000AF78600023FB7351
:100EE0000023BB607B68DB6800229A617B68DB685B
:100EF0004FF0FF325A617868FFF70CFB7B68DB78B4
:100F0000002B03D13B7A43F010033B727B7A43F012
:100F100008037B727B7A43F010037B727B7A43F089
:100F200020037B72BB7A43F00403BB72BB7A43F0AD
:100F30000803BB723B7A43F008033B72BB7A43F071
:100F40001003BB72BB7A43F02003BB727B68DB6883
:100F50007A68D2689169BA68D2431140BA680A4384
:100F60009A61FB7B18461037BD4680BD80B485B0C2
:100F700000AF78600023FB737B681B699B68BB60D4
:100F80003B7AC3F34103DBB2022B09D0032B04D01D
:100F9000012B02D00323FB7305E00223FB7302E065
:100FA0000123FB7300BFFB7B18461437BD465DF879
:100FB000047B704780B487B000AF78600023FB7576
:100FC0000023BB607B681B699B683B617B689B69F6
:100FD0001B68FB603B7CC3F34103DBB2022B04D0F4
:100FE000BB896FF30A03BB8105E0BB89032262F36F
:100FF0000A03BB8100BF7B689B69FA681A607B7A31
:1010000043F001037B727B681B697A68126951683F
:10101000BA68D2431140BA680A435A60FB7D184649
:101020001C37BD465DF8047B704700BF80B487B0B5
:1010300000AF786039600023FB740023FB6000235D
:10104000BB603B685B78012B0FD13B681B787A68EB
:1010500004339B0013449B687B613B681B7801222F
:1010600002FA03F39BB23B810EE03B681B787A687F
:1010700014339B0013445B687B613B681B7801223F
:1010800002FA03F39BB27B817B691B68FB607B7B6D
:10109000C3F3C013DBB2002B27D13B689B689BB224
:1010A000C3F30A039AB2BB8962F30A03BB813B68AC
:1010B000DB7803F00303DAB2BB7B62F38303BB7319
:1010C0003B68DB88DBB203F00F03DAB2FB8962F323
:1010D0008913FB81FB7B43F01003FB737B7B43F0A5
:1010E00080037B73FA687B691A607B681B697A6886
:1010F0001269D169BA680A43DA61FB7C18461C3769
:10110000BD465DF8047B704780B487B000AF78605F
:1011100039600023FB740023FB600023BB603B6845
:101120005B78012B0FD13B681B787A6804339B00F6
:1011300013449B687B613B681B78012202FA03F32E
:101140009BB23B810EE03B681B787A6814339B00AE
:1011500013445B687B613B681B78012202FA03F34E
:101160009BB27B817B7B6FF3C7137B73FA687B69D0
:101170001A607B681B697A681269D169BA68D243C0
:101180000A40DA61FB7C18461C37BD465DF8047BDB
:10119000704700BF80B588B000AF78603960002329
:1011A000FB770023BB6100237B6100233B613B682D
:1011B0005B78012B40F0AB803B681B787A68043386
:1011C0009B0013449B681B687B613B681B787A68B3
:1011D00004339B0013449B681B693B613B685B695C
:1011E000002B09D13B696FF312033B617B8A01221B
:1011F00062F3CC037B8222E03B685B69C3F312029B
:101200003B6962F312033B613B685A693B689B6828
:1012100013445A1E3B689B68B2FBF3F39BB2C3F3C3
:1012200009039AB27B8A62F3CC037B823B68DB784A
:10123000012B04D1FB7C012262F34613FB743B6853
:101240001B787A6804339B0013449B683A691A61DF
:101250007B68DB78012B0AD13B681B787A68043302
:101260009B0013449B683A6812695A6115E03B6819
:10127000DB78012B11D03B685B69002B0DD03B68FC
:101280001B78012202FA03F3BB617B681B697A6851
:101290001269516BBA690A435A633B68DB78012BC8
:1012A00014D17B681B699B68FB60FB68C3F30D234B
:1012B0009BB203F00103002B04D1FB7D43F020031C
:1012C000FB7503E0FB7D43F01003FB75FB7D43F0F2
:1012D0000403FB75FB7D43F08003FB753B681B78C3
:1012E0007A6804339B0013449B687A691A603B68F0
:1012F000DB78012B40F088803B68D9683B681A781E
:101300003B685B699BB27868FFF770F97CE03B68EB
:101310001B787A6814339B0013445B681B687B61FD
:101320003B681B787A6814339B0013445B681B6925
:101330003B613B685B69002B0DD13B689B68C3F345
:1013400012023B6962F312033B617B8A012262F362
:10135000CC037B821FE03B685A693B689B6813445F
:101360005A1E3B689B68B2FBF3F39BB2C3F30903BD
:101370009AB27B8A62F3CC037B827B8AC3F3C90374
:101380009BB23A68926802FB03F3C3F312023B6913
:1013900062F312033B613B681B787A6814339B004D
:1013A00013445B683A691A617B68DB78012B09D1C9
:1013B0003B681B787A6814339B0013445B683A6877
:1013C00012695A613B68DB78012B0CD13B685B7971
:1013D000002B04D0FB7D43F02003FB7503E0FB7D75
:1013E00043F01003FB75FB7D43F00403FB75FB7DAD
:1013F00043F08003FB753B681B787A6814339B00CD
:1014000013445B687A691A60FB7F18462037BD4633
:1014100080BD00BF80B489B000AF78603960002320
:10142000FB770023BB6100233B610023BB603B686B
:101430005B78012B6FD17B689B697B617B691B6843
:101440003B617B691B69BB603B685B69002B09D111
:101450003B7A6FF306033B72BB7A012262F3C4034B
:10146000BB7223E03B685A693B689B689A420ED97D
:101470003B689A683B685A613B689B68DBB203F043
:101480007F03DAB23B7A62F306033B7209E03B6802
:101490005B69DBB203F07F03DAB23B7A62F30603E7
:1014A0003B72BB7A012262F3C403BB72BA687B69E8
:1014B0001A617B68DB78012B09D13B681B787A685D
:1014C00004339B0013449B683A6812695A61FB7CA1
:1014D00043F00403FB74FB7C43F08003FB743A6924
:1014E0007B691A607B68DB78002B75D13B685B6990
:1014F000002B71D03B681B78012202FA03F3BA6912
:101500001343BB617B681B697A681269516BBA69C6
:101510000A435A6360E03B681B787A6814339B0087
:1015200013445B681B683B613B681B787A68143323
:101530009B0013445B681B69BB603B685B69002BC5
:101540000FD13B689B68DBB203F07F03DAB23B7AD2
:1015500062F306033B72BB7A012262F3C403BB72DF
:1015600012E03B689A683B685A613B689B68DBB253
:1015700003F07F03DAB23B7A62F306033B72BB7A75
:10158000012262F3C403BB723B681B787A68143390
:101590009B0013445B68BA681A617B68DB78012B97
:1015A00009D13B681B787A6814339B0013445B684D
:1015B0003A6812695A61FB7C43F00403FB74FB7CBC
:1015C00043F08003FB743B681B787A6814339B00FC
:1015D00013445B683A691A60FB7F18462437BD469E
:1015E0005DF8047B704700BF80B487B000AF7860BF
:1015F00039600023FB750023FB603B685B78012B9F
:101600001CD13B681B787A6804339B0013449B68A9
:101610003B613B691B68FB60FB7BC3F3C013DBB220
:10162000002B03D0FB7B43F04003FB73BB7B43F0F9
:101630002003BB73FA683B691A6011E03B681B78B2
:101640007A6814339B0013445B683B613B691B68F9
:10165000FB60BB7B43F02003BB73FA683B691A60F5
:10166000FB7D18461C37BD465DF8047B704700BF04
:1016700080B487B000AF786039600023FB7400232A
:10168000FB603B685B78012B08D13B681B787A686C
:1016900004339B0013449B687B6107E03B681B7825
:1016A0007A6814339B0013445B687B617B691B6819
:1016B000FB60BB7B6FF34513BB733B68DB78032B8D
:1016C00003D03B68DB78022B03D1FB7B43F0100394
:1016D000FB73FA687B691A60FB7C18461C37BD46B1
:1016E0005DF8047B704700BF80B485B000AF7860C0
:1016F0007B681B699B69FB607B681B69DB69FA6817
:101700001340FB60FB681B0C18461437BD465DF8A0
:10171000047B704780B485B000AF78600B46FB70E7
:10172000FB787A6814339B0013445B689B68FB600A
:101730007B681B695B69FA681340FB60FB681846AD
:101740001437BD465DF8047B704700BF80B485B098
:1017500000AF78607B681B699B69FB607B681B69D5
:10176000DB69FA681340FB60FB689BB218461437CC
:10177000BD465DF8047B704780B487B000AF7860E9
:1017800000233B61FB7C43F0C003FB74BB7C012264
:1017900062F3C403BB743B7C182262F306033B7400
:1017A0007B685B6D3A691A617B68DB78012B16D127
:1017B0000023FB607B685B6D7A6802F5B9625A6151
:1017C0007B685B6D1B68FB60FB7B43F08003FB73F6
:1017D0004FF08023FB607B685B6DFA681A601C37F2
:1017E000BD465DF8047B704780B485B000AF78607B
:1017F0007B689B7A002B1BD07B681B699B68FB6016
:101800003B7BC3F30003DBB2012B11D17B6803F5F3
:1018100086731B68BB603B7A6FF341033B723B7A74
:101820006FF300033B727B68D3F80C31BA681A601F
:101830001437BD465DF8047B704700BF80B483B0A9
:1018400000AF7860396040F23C22C2F20002396891
:101850000B465B000B449B0013440833188840F28E
:101860003C22C2F2000239680B465B000B449B002D
:1018700013440A3302461A8040F23C22C2F20002AC
:1018800039680B465B000B449B00134406331888F1
:1018900040F23C22C2F2000239680B465B000B4466
:1018A0009B001344083302461A8040F23C22C2F2E5
:1018B000000239680B465B000B449B001344043361
:1018C000188840F23C22C2F2000239680B465B00E5
:1018D0000B449B001344063302461A8040F23C221C
:1018E000C2F2000239680B465B000B449B001344B4
:1018F0000233188840F23C22C2F2000239680B46DB
:101900005B000B449B001344043302461A8040F2F0
:101910003C22C2F2000239680B465B000B449B007C
:101920001344188840F23C22C2F2000239680B4688
:101930005B000B449B001344023302461A807B6811
:1019400098B240F23C22C2F2000239680B465B00BA
:101950000B449B00134402461A8040F23C22C2F220
:10196000000239680B465B000B449B0013441B8844
:10197000012B47D140F23C22C2F2000239680B46EB
:101980005B000B449B00134402331B88012B39D1AD
:1019900040F23C22C2F2000239680B465B000B4465
:1019A0009B00134404331B88012B2BD140F23C22B3
:1019B000C2F2000239680B465B000B449B001344E3
:1019C00006331B88012B1DD140F23C22C2F20002DB
:1019D00039680B465B000B449B00134408331B889B
:1019E000012B0FD140F23C22C2F2000239680B46B3
:1019F0005B000B449B0013440A331B88002B01D16E
:101A00000B2355E040F23C22C2F2000239680B463B
:101A10005B000B449B0013441B88002B47D140F212
:101A20003C22C2F2000239680B465B000B449B006B
:101A3000134402331B88002B39D140F23C22C2F2FE
:101A4000000239680B465B000B449B0013440433CF
:101A50001B88002B2BD140F23C22C2F200023968D5
:101A60000B465B000B449B00134406331B88002B82
:101A70001DD140F23C22C2F2000239680B465B00E5
:101A80000B449B00134408331B88002B0FD140F2FA
:101A90003C22C2F2000239680B465B000B449B00FB
:101AA00013440A331B88012B01D1632300E0002378
:101AB00018460C37BD465DF8047B704780B584B08E
:101AC00000AF39600146F971BA80BB713A680023F2
:101AD000C4F202039A4204D10120012101F0D4FD95
:101AE0002EE03A684FF48063C4F202039A4204D1B4
:101AF0000220012101F0C8FD22E03A684FF40063A2
:101B0000C4F202039A4204D10420012101F0BCFD79
:101B100016E03A684FF44063C4F202039A4204D1DB
:101B20000820012101F0B0FD0AE03A684FF480532B
:101B3000C4F202039A4203D11020012101F0A4FD56
:101B400007F10803184602F0D9FFBB88BB60FB7998
:101B50003B733B7EBB73BB79FB7303237B7307F142
:101B600008033868194602F03BFFFB79012B04D1CA
:101B7000BB883868194603F003F81037BD4680BDAE
:101B800080B400AFBD465DF8047B704780B483B07D
:101B900000AF0346FB71FB79002B02D0012B02D072
:101BA00002E000BF00E000BF0C37BD465DF8047BDB
:101BB000704700BF80B400AFBD465DF8047B70473E
:101BC00080B400AFBD465DF8047B704780B400AFC1
:101BD000BD465DF8047B704780B400AFBD465DF83C
:101BE000047B704780B400AFBD465DF8047B70474E
:101BF00080B582B002AF40F20003C2F2000300934E
:101C000040F2A040C2F20000012140F25C02C2F2A8
:101C1000000240F21413C2F2000300F05DFBBD4667
:101C200080BD00BF80B582B000AF0123FB800023E0
:101C30003B6000BF3A68531C3B604AF21F13C0F27E
:101C400007039A42F6D94FF44063C4F20203FA88BC
:101C5000120392B25A83FB885B00FB80FB880F2B38
:101C600001D90123FB804FF44063C4F20203FA88D8
:101C7000120392B21A8301F0F7FDD8E780B400AFE7
:101C8000BD465DF8047B704780B500AFFFF7CAFF23
:101C900080BD00BF80B500AFFFF7C4FF80BD00BFAF
:101CA00080B500AFFFF7BEFF80BD00BF80B500AFBD
:101CB000FFF7B8FF80BD00BF80B400AFBD465DF840
:101CC000047B704780B400AFBD465DF8047B70476D
:101CD00080B400AFBD465DF8047B704780B500AFAF
:101CE00040F2A040C2F2000004F06CFC80BD00BFD6
:101CF00080B500AF40F2A043C2F200039B7A002BF4
:101D000013D04EF61053CEF200034EF61052CEF220
:101D10000002126822F006021A6003F0BBF840F2DB
:101D2000A040C2F20000FFF75FFD4FF4802007F0F3
:101D300029F980BD80B500AF0023C4F201031B88E0
:101D40009BB21B099BB2002B0BD040F27023C2F256
:101D500000031B685A1C40F27023C2F200031A6091
:101D600013E00023C4F201031B889BB21B099BB242
:101D7000002B0AD140F26C23C2F200031B685A1CEC
:101D800040F26C23C2F200031A600020C4F201008A
:101D9000012108F04DFC80BD80B500AF4FF4806399
:101DA000C4F200031B889BB21B099BB2002B0BD013
:101DB00040F28023C2F200031B685A1C40F28023C9
:101DC000C2F200031A6014E04FF48063C4F200030F
:101DD0001B889BB21B099BB2002B0AD140F27C23CB
:101DE000C2F200031B685A1C40F27C23C2F20003BB
:101DF0001A604FF48060C4F20000012108F018FC62
:101E000080BD00BF80B500AF4FF40063C4F2000393
:101E10001B889BB21B099BB2002B0BD040F288237E
:101E2000C2F200031B685A1C40F28823C2F200036E
:101E30001A6014E04FF40063C4F200031B889BB2E5
:101E40001B099BB2002B0AD140F28423C2F200038B
:101E50001B685A1C40F28423C2F200031A604FF43C
:101E60000060C4F20000012108F0E2FB80BD00BF69
:101E700080B500AF4FF44063C4F200031B889BB2EF
:101E80001B099BB2002B0BD040F29023C2F200033F
:101E90001B685A1C40F29023C2F200031A6014E03F
:101EA0004FF44063C4F200031B889BB21B099BB232
:101EB000002B0AD140F28C23C2F200031B685A1C8B
:101EC00040F28C23C2F200031A604FF44060C4F267
:101ED0000000012108F0ACFB80BD00BF80B500AF61
:101EE0004FF48063C4F201031B889BB21B099BB2B1
:101EF000002B0BD040F29823C2F200031B685A1C3F
:101F000040F29823C2F200031A6014E04FF4806399
:101F1000C4F201031B889BB21B099BB2002B0AD1A0
:101F200040F29423C2F200031B685A1C40F294232F
:101F3000C2F200031A604FF48060C4F20100012174
:101F400008F076FB80BD00BF80B58AB000AF786036
:101F5000396000237B6200233B620023FB61002386
:101F6000BB617B681B8A9BB27B627B6A23F4405314
:101F70007B623B68DB887A6A13437B627B6A9AB236
:101F80007B681A827B689B899BB27B627B6A23F4A5
:101F9000B05323F00C037B623B689A883B681B8933
:101FA00013439AB23B685B8913439BB27A6A13432B
:101FB0007B627B6A9AB27B689A817B689B8A9BB2C0
:101FC0007B627B6A23F440737B623B689B897A6AFD
:101FD00013437B627B6A9AB27B689A8207F108039B
:101FE000184601F07DFA7A684FF48053C4F2010379
:101FF0009A4206D07A684FF4A053C4F201039A4281
:1020000002D17B693B6201E03B693B627B689B8953
:102010009BB29BB21BB2002B0CDA3A6A13469B00B0
:1020200013449A001A443B681B685B00B2FBF3F34D
:10203000FB610BE03A6A13469B0013449A001A4472
:102040003B681B689B00B2FBF3F3FB61FA6948F243
:102050001F53C5F2EB13A3FB02135B091B017B6249
:102060007B6A1B09642202FB03F3FA69D31ABB6182
:102070007B689B899BB29BB21BB2002B10DABB69B9
:10208000DB0003F1320248F21F53C5F2EB13A3FB4E
:1020900002135B0903F007037A6A13437B620FE0C4
:1020A000BB691B0103F1320248F21F53C5F2EB1367
:1020B000A3FB02135B0903F00F037A6A13437B62ED
:1020C0007B6A9AB27B681A812837BD4680BD00BF03
:1020D00080B483B000AF78600B46FB70FB78002BB8
:1020E00008D07B689B899BB243F400539AB27B680B
:1020F0009A8107E07B689B899BB223F400539AB2D4
:102100007B689A810C37BD465DF8047B704700BF41
:1021100080B483B000AF78607B689B889BB2C3F3C8
:1021200008039BB218460C37BD465DF8047B704728
:1021300080B487B000AF786013460A467A807B701F
:1021400000233B610023FB600023BB6000237B6115
:102150007B687B617B88DBB25B09DBB23B617B88A0
:1021600003F01F03FB60FB68012202FA03F3BB606C
:102170003B69012B03D17B690C337B6109E03B692F
:10218000022B03D17B6910337B6102E07B6914333E
:102190007B617B78002B06D07B697A691168BA680D
:1021A0000A431A6006E07B697A691168BA68D2430B
:1021B0000A401A601C37BD465DF8047B704700BFBB
:1021C00080B487B000AF78600B467B800023FB6053
:1021D00000237B610023BB600023FB747B88DBB2A0
:1021E0005B09DBB2BB607B8803F01F037B617B690B
:1021F000012202FA03F37B61BB68012B06D17B68E5
:102200009B899BB27A6913407B610FE0BB68022B0C
:1022100006D17B681B8A9BB27A6913407B6105E01B
:102220007B689B8A9BB27A6913407B617B881B0A1F
:102230009BB2FB60FB68012202FA03F3FB607B6840
:102240001B889BB2FA681340FB607B69002B05D0AA
:10225000FB68002B02D00123FB7401E00023FB7418
:10226000FB7C18461C37BD465DF8047B704700BFF9
:1022700080B582B000AF4EF27C63C0F600037B6095
:1022800040F20003C2F200033B6007E03B681A1D06
:102290003A607A68111D796012681A603A6840F2F3
:1022A0003C23C2F200039A42F0D3074807494FF09B
:1022B00000028842B8BF40F8042BFADB00F0FCFAB9
:1022C0000837BD4680BD00003C020020E813002016
:1022D00080B400AFFEE700BF80B584B000AFF86007
:1022E0007A603B600B46FB72F86803F043F9F868CC
:1022F00000F01CF8FB683A68C3F8E025FB68BA698F
:10230000C3F8E425FB687A68C3F8E825FB7AF86827
:10231000194607F0DBFAFB68D3F8E4351B689847E9
:10232000F86803F08BF91037BD4680BD80B483B0E8
:1023300000AF7860002318460C37BD465DF8047B7B
:10234000704700BF80B584B000AF786007F1080324
:102350007868194604F076F83B7A03F01F03012BE6
:102360000AD0022B0FD0002B14D107F10803786894
:10237000194603F061FC16E007F108037868194676
:1023800003F0AAFC0FE007F108037868194603F090
:10239000D7FC08E03B7A23F07F03DBB2786819466C
:1023A00007F016FC00BF002318461037BD4680BD5D
:1023B00080B584B000AF78600B46FB70FB78002BD3
:1023C00045D17B6803F55C73FB607B6893F8113142
:1023D000032B4FD1FB68DA69FB689B689A4221D9CD
:1023E000FB68DA69FB689B68D21AFB68DA617B6874
:1023F000DB78012B06D1FB68DA68FB689B681A441E
:10240000FB68DA60FB68DA68FB689968FB68DB697F
:10241000994238BF0B469BB2786811461A4607F0BE
:10242000BDFC27E07B68D3F8E0351B69002B0AD0A0
:102430007B6893F81231032B05D17B68D3F8E03524
:102440001B6978689847786807F0BCFC12E07B68E5
:10245000D3F8E0359B69002B0CD07B6893F81231E0
:10246000032B07D17B68D3F8E0359B69FA7878684D
:1024700011469847002318461037BD4680BD00BF5F
:1024800080B584B000AF78600B46FB70FB78002B02
:1024900060D17B6803F58C73FB607B6893F8113126
:1024A000022B6AD1FB68DA69FB689B689A421CD9E7
:1024B000FB68DA69FB689B68D21AFB68DA617B68A3
:1024C000DB78012B06D1FB68DA68FB689B681A444D
:1024D000FB68DA60FB68DA68FB68DB699BB27868E6
:1024E00011461A4607F026FC47E0FB681B6AFA68AB
:1024F0009268B3FBF2F102FB01F29B1A002B14D19C
:10250000FB681A6AFB689B689A420ED3FB681A6ADA
:10251000FB685B6A9A4208D278680021002207F0C3
:1025200009FCFB6800225A6227E07B68D3F8E0359B
:10253000DB68002B0AD07B6893F81231032B05D19E
:102540007B68D3F8E035DB6878689847786807F0EF
:1025500051FC12E07B68D3F8E0355B69002B0CD0AE
:102560007B6893F81231032B07D17B68D3F8E035F1
:102570005B69FA7878681146984700231846103747
:10258000BD4680BD80B582B000AF7860786800211C
:102590004022002307F01AFA7868802140220023A5
:1025A00007F014FA7B68012283F812217B68D3F8C4
:1025B000E4355B687A68927810469847002318469D
:1025C0000837BD4680BD00BF80B582B000AF7860DF
:1025D0007B68D3F8E4351B6998477B68032283F84E
:1025E0001221002318460837BD4680BD80B582B051
:1025F00000AF78607B68042283F812217B68D3F8EF
:10260000E435DB689847002318460837BD4680BD8F
:1026100080B582B000AF78607B68D3F8E035DB69C5
:10262000002B05D07B68D3F8E035DB6978689847E4
:10263000002318460837BD4680BD00BF80B582B074
:1026400000AF78600B46FB707B68D3F8E0351B6801
:10265000FA787868114698477B68D3F8E4359B6828
:102660009847002318460837BD4680BD80B582B024
:1026700000AF78600B46FB707B68D3F8E0355B6891
:10268000FA78786811469847002318460837BD46FF
:1026900080BD00BF80B582B000AF78607B68D3F8A2
:1026A000E0351B6A78689847002318460837BD460E
:1026B00080BD00BF80B582B000AF78607B68D3F882
:1026C000E0355B6A78689847002318460837BD46AE
:1026D00080BD00BF80B582B002AF02F0DBFB41F2EB
:1026E0006F20C3F6832002F0E3F84FF40060C4F2D9
:1026F0000200012101F03CFC0020C4F201004FF473
:102700008051C4F202014FF4807242F21073FDF75F
:102710009DFD4FF48060C4F200004FF48061C4F26C
:102720000201022242F21073FDF790FD0020C4F274
:1027300001004FF48051C4F202014FF4804242F292
:102740001073FDF783FD0020C4F201004FF4806197
:10275000C4F202014FF4804242F21073FDF776FD9D
:102760004FF44063C4F2020300934FF400730193EB
:102770004FF49040C4F200004FF4E1314FF4406256
:10278000C4F202024FF4807307F05EFBFFF730FAE9
:10279000BD4680BD80B582B002AF0023009301200A
:1027A0004FF44061C4F202014FF440420123FFF7AD
:1027B00085F90023009300204FF40061C4F2020168
:1027C0004FF400520223FFF779F900230093002011
:1027D0004FF40061C4F2020102220023FFF76EF9F8
:1027E0000023009301204FF48051C4F20201022221
:1027F0000123FFF763F90023009301200021C4F2B5
:10280000020180220123FFF759F9002300930120E0
:102810004FF40061C4F2020110220123FFF74EF9C8
:102820000023009301204FF48051C4F202014FF4C1
:1028300080620123FFF742F90023009301204FF447
:102840008061C4F2020104220123FFF737F900235B
:10285000009301204FF48061C4F202014FF48062C2
:102860000123FFF72BF90023009301204FF480612F
:10287000C4F202014FF480520123FFF71FF9002335
:10288000009301204FF44061C4F202014FF4006252
:102890000123FFF713F90023009301204FF4806117
:1028A000C4F202014FF400420123FFF707F9BD46CD
:1028B00080BD00BF00000000B0B5ACB002AF07F1B2
:1028C0001C0300221A60043300221A600433002221
:1028D0001A60043300221A60043300221A600433A1
:1028E00000221A6004333B1D00221A6004330022C8
:1028F0001A60043300221A60043300221A60043381
:1029000000221A60043300221A6004334FF00003DF
:10291000C7F894304FF00003C7F8A4300023A7F89D
:1029200092300023A7F8A2300023A7F890300023AC
:10293000A7F8A0300023A7F89E300023A7F89C300A
:102940000023A7F89A30FFF7C5FEFFF723FF07F132
:10295000540207F134031046194601F031F807F12B
:102960005403184605F070FD00F07EFF002001F0D2
:10297000D7FF0346042B40F2B085002002F000F898
:1029800007F15403184605F00BF94FF40060C4F248
:1029900002004FF4005102F0CBF803461846002124
:1029A000FEF74CFF0346A7F89230B7F89230632B3E
:1029B00002D10123A7F88630B7F886301BB2012B6D
:1029C00007D007F1540207F134031046194600F00E
:1029D000F7FF07F11C0207F154031046194602F0F5
:1029E0007BFEB7F8A030062B00F2D68401A252F885
:1029F00023F000BF112A00083B2D0008812F00089A
:102A0000A5300008A53100089F320008993300085E
:102A1000FB6918464FF47051C4F21C610BF066FC60
:102A20000346002B00F0BB803B6A18464FF4705100
:102A3000C4F21C610BF05AFC0346002B00F0AF807F
:102A4000B7F8A230012B0BD0022B0FD0002B15D1E1
:102A50007B6D7B634FF00003C4F28C33BB630DE0EE
:102A60007B6D7B634FF00003BB6307E07B6D7B6393
:102A70004FF00003CCF28C33BB6300BF00F08CFF3F
:102A80000023A7F890307A6B7B6D104619460BF047
:102A90008FF903461C46BA6BBB6D104619460BF006
:102AA00087F903462046194604F09AFD03463B6524
:102AB0004FF00003C7F8A4307A6B7B6D10461946BF
:102AC0000BF076F903461C46BA6BBB6D10461946EF
:102AD0000BF06EF903462046194604F0ADFD03469F
:102AE000FB63FA6B3B6D1046194604F0E9FD0346A3
:102AF000BB643A6DBB6C4FF00001C4F2F011009161
:102B0000104619464FF00002C4F2A0024FF0000335
:102B1000C4F2701304F088FE03463B643A6CBB6E4B
:102B2000104619460BF044F90346184604F0F8FA2B
:102B3000C7F89400D7F89400D7F8A4100BF03AF92E
:102B400003461A46FB6B1046194604F045FF034640
:102B50007B61D7F89400D7F8A4100BF02BF903464B
:102B60001A46FB6B1046194604F08EFF0346BB6104
:102B70003B6D18464FF080410BF0C2FB0346002B23
:102B800004D0B7F8A2300133A7F8A230B7F8A230CA
:102B9000022B03D90023A7F8A230CDE0CCE03B6A9A
:102BA00018464FF00001CCF220110BF0BDFB03469C
:102BB000002B1BD03B6A18464FF00001C4F22011D5
:102BC0000BF0A8FB0346002B10D0B7F89E30013362
:102BD000A7F89E300223A7F89030B7F89E30C72B95
:102BE00003D90123A7F8A030A6E0A5E00023A7F8A9
:102BF0009E307B6D7B633A6ABB6D104619460BF0C5
:102C0000D9F80346BB63BB6D18464FF000010BF0CB
:102C100095FB0346002B10D0BB6B18464FF000010C
:102C20000BF06EFB0346002B07D1BB6D18464FF02F
:102C300000010BF083FB0346002B0123A7F8903023
:102C40007A6B7B6D104619460BF0B2F803461C46B2
:102C5000BA6BBB6D104619460BF0AAF80346204626
:102C6000194604F0BDFC03463B654FF00003C7F86E
:102C7000A4307A6B7B6D104619460BF099F8034629
:102C80001C46BA6BBB6D104619460BF091F8034613
:102C90002046194604F0D0FC0346FB63FA6B3B6DFB
:102CA0001046194604F00CFD0346BB643A6DBB6C3C
:102CB0004FF00001C4F2F0110091104619464FF098
:102CC0000002C4F2A0024FF00003C4F2701304F03B
:102CD000ABFD03463B643A6CBB6E104619460BF0E5
:102CE00067F80346184604F01BFAC7F89400D7F8B3
:102CF0009400D7F8A4100BF05DF803461A46FB6B5E
:102D00001046194604F068FE03467B61D7F894002C
:102D1000D7F8A4100BF04EF803461A46FB6B10468A
:102D2000194604F0B1FE0346BB614FF40040C4F203
:102D3000BB4000F0BBFD2FE32EE3B7F89C30002B27
:102D400040F088807B6D4FF48040C4F29C4019466F
:102D50000BF02EF803461A46BB6D1046194604F0D8
:102D60006BFC034683F00043FB63FA697B6D1046FE
:102D700019460BF01FF8034618460AF08FFC04466C
:102D80000D46FB6B18460AF089FC02460B461046BE
:102D9000194679A3D3E900230AF0D4FC02460B4676
:102DA0001046194607F054FC02460B4610461946D9
:102DB0004FF000024FF00003C4F214030AF0C2FC0B
:102DC00002460B46204629460AF00AFB02460B46FD
:102DD000104619460AF098FF03467B633A6ABB6DBA
:102DE000104619460AF0E6FF034618460AF056FC5C
:102DF00004460D46FB6B18460AF050FC02460B4693
:102E0000104619465CA3D3E900230AF09BFC024656
:102E10000B461046194607F05FFC02460B4610466B
:102E200019464FF000024FF00003C4F214030AF0F9
:102E300089FC02460B46204629460AF0D1FA024692
:102E40000B46104619460AF05FFF0346BB63012399
:102E5000A7F89C300323A7F890307A6B7B6D10465F
:102E600019460AF0A5FF03461C46BA6BBB6D104617
:102E700019460AF09DFF03462046194604F0B0FBB0
:102E800003463B657A6B7B6D104619460AF090FF4E
:102E900003461C46BA6BBB6D104619460AF088FF04
:102EA00003462046194604F0C7FB0346FB634FF078
:102EB0000003C7F8A430FA6B3B6D1046194604F0C6
:102EC000FFFB0346BB643A6DBB6C4FF00001C4F2DC
:102ED000F0110091104619464FF00002C4F2A00212
:102EE0004FF00003C4F2701304F09EFC03463B64F1
:102EF0003A6CBB6E104619460AF05AFF0346184654
:102F000004F00EF9C7F89400D7F89400D7F8A4108D
:102F10000AF050FF03461A46FB6B1046194604F0B0
:102F20005BFD03467B61D7F89400D7F8A4100AF044
:102F300041FF03461A46FB6B1046194604F0A4FDF8
:102F40000346BB614FF00000C4F2484000F0AEFC05
:102F50003B6D18464FF00001C4F2A0010BF0D0F910
:102F60000346002B00D117E20223A7F8A0307B6DA7
:102F7000FB65BB6D3B660FE2113444A246DF913F17
:102F8000B7F89C30012B0ED1FB6D18464FF00001B5
:102F9000C4F28C310AF00CFF03467B633B6EBB63CB
:102FA0000223A7F89C300423A7F890304FF00000CC
:102FB000C4F2C83000F07AFC7A6B7B6D104619467B
:102FC0000AF0F6FE03461C46BA6BBB6D1046194666
:102FD0000AF0EEFE03462046194604F001FB0346C4
:102FE0003B657A6B7B6D104619460AF0E1FE03469D
:102FF0001C46BA6BBB6D104619460AF0D9FE034653
:103000002046194604F018FB0346FB63FA6B3B6D40
:103010001046194604F054FB0346BB643A6DBB6C82
:103020004FF00001C4F216310091104619464FF0DE
:103030000002C4F27A424FF00003C4F27A4304F073
:10304000F3FB03463B643A6CBB6E104619460AF02C
:10305000AFFE0346184604F063F8C7F89400FB6B14
:10306000D7F89400194604F0B7FC03467B61FB6B6C
:10307000D7F89400194604F007FD0346BB613B6D89
:1030800018464FF00001C4F220110BF039F9034645
:10309000002B00D180E10023A7F8A0300023A7F87F
:1030A0009C3079E14FF000037B634FF00003BB637A
:1030B0007A6B7B6D104619460AF07AFE03461C4671
:1030C000BA6BBB6D104619460AF072FE03462046E5
:1030D000194604F085FA03463B657A6B7B6D104612
:1030E00019460AF065FE03461C46BA6BBB6D1046D6
:1030F00019460AF05DFE03462046194604F09CFA84
:103100000346FB63FA6B3B6D1046194604F0D8FA90
:103110000346BB643A6DBB6C4FF00001C4F2FA3158
:103120000091104619464FF48042C4F21C624FF4DD
:10313000A043C4F2C37304F077FB03463B643A6CCC
:10314000BB6E104619460AF033FE0346184603F0DC
:10315000E7FFC7F89400FB6BD7F89400194604F01A
:103160003BFC03467B61FB6BD7F89400194604F0E7
:103170008BFC0346BB613B6D18464FF00001C4F267
:1031800020110BF0BDF80346002B00D104E106230B
:10319000A7F8A0300123A7F89A307B6DFB65BB6DC3
:1031A0003B66F9E07B6D7B634FF00003C4F28C3328
:1031B000BB637A6B7B6D104619460AF0F9FD034636
:1031C0001C46BA6BBB6D104619460AF0F1FD03466A
:1031D0002046194604F004FA03463B657A6B7B6D82
:1031E000104619460AF0E4FD03461C46BA6BBB6D57
:1031F000104619460AF0DCFD03462046194604F045
:103200001BFA0346FB63FA6B3B6D1046194604F04C
:1032100057FA0346BB643A6DBB6C4FF00001C4F231
:1032200034210091104619464FF00002C4F24822A2
:103230004FF00003C4F2A01304F0F6FA03463B6417
:103240003A6CBB6E104619460AF0B2FD03461846AA
:1032500003F066FFC7F89400FB6BD7F8940019469B
:1032600004F0BAFB03467B61FB6BD7F89400194668
:1032700004F00AFC0346BB613B6D18464FF00001A9
:10328000C4F220110BF03CF80346002B00D183E080
:103290000023A7F8A0300023A7F89C307CE07B6DCA
:1032A0007B634FF00003CCF28C33BB637A6B7B6D96
:1032B000104619460AF07CFD03461C46BA6BBB6DEE
:1032C000104619460AF074FD03462046194604F0DC
:1032D00087F903463B657A6B7B6D104619460AF009
:1032E00067FD03461C46BA6BBB6D104619460AF0D3
:1032F0005FFD03462046194604F09EF90346FB6332
:10330000FA6B3B6D1046194604F0DAF90346BB64CC
:103310003A6DBB6C4FF00001C4F2342100911046AD
:1033200019464FF00002C4F248224FF00003C4F2E5
:10333000A01304F079FA03463B643A6CBB6E104666
:1033400019460AF035FD0346184603F0E9FEC7F8B2
:103350009400FB6BD7F89400194604F03DFB03463C
:103360007B61FB6BD7F89400194604F08DFB034694
:10337000BB613B6D18464FF00001C4F220110AF00A
:10338000BFFF0346002B00D105E00023A7F8A030C3
:103390000023A7F89C3000BF7B6D18464FF4804196
:1033A000C4F288410AF0C0FF0346002B02D0032379
:1033B000A7F8A030B7F886301BB2012B40F08D8003
:1033C000B7F89A30012B3AD07969BA697B6E084612
:1033D00011461A464FF00003CCF2F02303F0FCFE36
:1033E00003461846D7F8A4100AF0E4FC03467B60B5
:1033F0007969BA697B6E084611461A464FF0000398
:10340000C4F2F02303F094FF03461846D7F8A41043
:103410000AF0D0FC0346BB607969BA697B6E084646
:1034200011461A464FF0000304F02EF803461846E2
:10343000D7F8A4100AF0BEFC0346FB600CE007F1CD
:1034400054023B1D1046194605F016F84FF00000D7
:10345000C4F2963000F02AFA7B6D4FF48040C4F23B
:103460009C4019460AF0A4FC03461A46BB6D104660
:10347000194604F0E1F8034683F00043FB637A6EDB
:10348000FB6B104619464FF00002C4F248224FF081
:103490000003C4F2702303F0F9FD03463B617A6830
:1034A0003B69104619460AF085FC03461D46BA687A
:1034B0003B69104619460AF07DFC03461C46FA6833
:1034C0003B69104619460AF075FC0346284621461A
:1034D0001A4601F03BF8FFF749BAFFF747BA00BFB9
:1034E00080B489B000AF78600023BB6100237B61AA
:1034F0000023FB6102233B610023FB600223BB60CE
:103500004FF46053C4F202039B6803F00C03BB61E9
:10351000BB69042B0AD0082B0FD0002B5AD17A6834
:103520004FF41053C0F2F40313605AE07A684FF47A
:103530009053C0F27A03136053E04FF46053C4F227
:1035400002035B6803F480039B0DFB604FF4605340
:10355000C4F202035B6803F03F03BB60FB68002B0F
:1035600013D04FF49053C0F27A03BA68B3FBF2F26F
:103570004FF46053C4F20203596847F6C0730B401E
:103580009B0903FB02F3FB6112E04FF41053C0F2FE
:10359000F403BA68B3FBF2F24FF46053C4F20203CF
:1035A000596847F6C0730B409B0903FB02F3FB61AC
:1035B0004FF46053C4F202035B6803F440331B0C06
:1035C00001335B003B61FA693B69B2FBF3F27B6854
:1035D0001A6006E07A684FF41053C0F2F4031360E7
:1035E00000BF4FF46053C4F202039B6803F0F00382
:1035F000BB61BB691B09BB6140F24C03C2F2000313
:10360000BA6913441B78DBB27B617B681A687B69FB
:10361000DA407B685A604FF46053C4F202039B683F
:1036200003F4E053BB61BB699B0ABB6140F24C03EE
:10363000C2F20003BA6913441B78DBB27B617B687A
:103640005A687B69DA407B689A604FF46053C4F231
:1036500002039B6803F46043BB61BB695B0BBB6106
:1036600040F24C03C2F20003BA6913441B78DBB288
:103670007B617B685A687B69DA407B68DA60243753
:10368000BD465DF8047B704780B483B000AF7860BE
:103690000B46FB70FB78002B0CD04FF46053C4F248
:1036A00002034FF46052C4F20202116B7A680A43BB
:1036B0001A630CE04FF46053C4F202034FF46052FB
:1036C000C4F20202116B7A68D2430A401A630C37C3
:1036D000BD465DF8047B704780B483B000AF78606E
:1036E0000B46FB70FB78002B0CD04FF46053C4F2F8
:1036F00002034FF46052C4F20202516B7A680A432B
:103700005A630CE04FF46053C4F202034FF460526A
:10371000C4F20202516B7A68D2430A405A630C37F2
:10372000BD465DF8047B704780B483B000AF78601D
:103730000B46FB70FB78002B0CD04FF46053C4F2A7
:1037400002034FF46052C4F20202116C7A680A4319
:103750001A640CE04FF46053C4F202034FF4605259
:10376000C4F20202116C7A68D2430A401A640C3720
:10377000BD465DF8047B704780B483B000AF7860CD
:103780000B46FB70FB78002B0CD04FF46053C4F257
:1037900002034FF46052C4F20202516C7A680A4389
:1037A0005A640CE04FF46053C4F202034FF46052C9
:1037B000C4F20202516C7A68D2430A405A640C3750
:1037C000BD465DF8047B704780B483B000AF78607D
:1037D0000B46FB70FB78002B0CD04FF46053C4F207
:1037E00002034FF46052C4F20202116A7A680A437B
:1037F0001A620CE04FF46053C4F202034FF46052BB
:10380000C4F20202116A7A68D2430A401A620C3783
:10381000BD465DF8047B704780B483B000AF78602C
:103820000B46FB70FB78002B0CD04FF46053C4F2B6
:1038300002034FF46052C4F20202516A7A680A43EA
:103840005A620CE04FF46053C4F202034FF460522A
:10385000C4F20202516A7A68D2430A405A620C37B3
:10386000BD465DF8047B704780B582B000AF002391
:103870007B6009E04FF48050C4F20200022101F0A5
:1038800071F97B6801337B607A6844F23F23C0F2B0
:103890000F039A42EED94FF48050C4F20200022185
:1038A00001F06EF90837BD4680BD00BF80B582B01B
:1038B00000AF786040F29C23C2F200031B681846F8
:1038C0004FF00001C4F2A0010AF074FA03461A4650
:1038D00040F29C23C2F200031A6040F29C23C2F221
:1038E00000031B68184679680AF014FD0346002B94
:1038F00007D04FF48050C4F20200022101F032F9E7
:1039000005E040F2A023C2F2000301221A6040F257
:10391000A023C2F200031B68012B19D140F2A4239B
:10392000C2F200031B6818464FF00001C4F2A00168
:103930000AF040FA03461A4640F2A423C2F20003FA
:103940001A604FF48050C4F20200022101F018F90D
:1039500040F2A423C2F200031B68184679680AF0FB
:10396000E3FC0346002B13D040F29C23C2F2000379
:103970004FF000021A6040F2A423C2F200034FF09D
:1039800000021A6040F2A023C2F2000300221A6073
:103990000837BD4680BD00BF80B500AF4FF48050F2
:1039A000C4F20200022101F0EBF880BD80B500AF47
:1039B0004FF48050C4F20200022101F0D3F880BD20
:1039C00080B582B000AF786039600020C4F2020098
:1039D0004FF4004101F0C6F87B684FF000021A6115
:1039E0007B684FF000021A607B684FF000025A605B
:1039F0007B684FF000029A607B684FF00002DA604B
:103A00007B684FF00002DA617B684FF000025A6277
:103A10007B684FF000021A627B684FF000025A6127
:103A20007B684FF000029A617B684FF00002DA6217
:103A30007B6800225A867B6800229A863B684FF09A
:103A400000029A603B684FF000021A603B684FF03A
:103A500000025A603B684FF00002DA613B684FF0A9
:103A600000029A613B684FF000025A613B684FF0D8
:103A70000002DA603B684FF000021A6100F078FD46
:103A80000020C4F202004FF4004101F079F8083739
:103A9000BD4680BD80B500AF4FF480700121FFF7B7
:103AA000BBFE4FF480700021FFF7B6FE80BD00BF63
:103AB00080B485B000AF786039600023FB600023DC
:103AC000FB727B685B68FB60FB6823F0407323F448
:103AD0008073FB603B681B791A023B681B681343C9
:103AE000FA681343FB607B68FA685A607B689B68DE
:103AF000FB60FA684FF2FD73CCF2FF031340FB60EA
:103B00003B681A693B68DB681A433B689B681A4349
:103B10003B685B795B001343FA681343FB607B6887
:103B2000FA689A607B68DB6AFB60FB6823F47003C9
:103B3000FB603B681B7D013BDAB2FB7A1343FB72EF
:103B4000FB7A1B05FA681343FB607B68FA68DA624C
:103B50001437BD465DF8047B704700BF80B483B066
:103B600000AF78607B6800221A607B6800221A71BF
:103B70007B6800225A717B6800229A607B68002271
:103B8000DA607B6800221A617B6801221A750C37A3
:103B9000BD465DF8047B704780B485B000AF7860A7
:103BA0000023FB604FF40C53C4F201035B68FB601D
:103BB000FA6843F2E003CFF6FC731340FB607B68C6
:103BC0001A687B685B681A437B689B681A437B684A
:103BD000DB681343FA681343FB604FF40C53C4F2E1
:103BE0000103FA685A601437BD465DF8047B7047DC
:103BF00080B483B000AF78607B6800221A607B6875
:103C000000225A607B6800229A607B680022DA609A
:103C10000C37BD465DF8047B704700BF80B483B0AD
:103C200000AF78600B46FB70FB78002B06D07B68FA
:103C30009B6843F001027B689A6005E07B689B68A3
:103C400023F001027B689A600C37BD465DF8047B67
:103C5000704700BF80B485B000AF7860F970BA706B
:103C60007B700023FB600023BB60FB78092B23D90A
:103C70007B68DB68FB60FB78A3F10A0213465B00FC
:103C80001344072202FA03F3BB60BB68DB43FA6804
:103C90001340FB607978FB78A3F10A0213465B00BE
:103CA000134401FA03F3BB60FA68BB681343FB607B
:103CB0007B68FA68DA601EE07B681B69FB60FA7853
:103CC00013465B001344072202FA03F3BB60BB6890
:103CD000DB43FA681340FB607978FA7813465B009F
:103CE000134401FA03F3BB60FA68BB681343FB603B
:103CF0007B68FA681A61BB78062B21D87B685B6BFE
:103D0000FB60BB785A1E13469B0013441F2202FA25
:103D100003F3BB60BB68DB43FA681340FB60F978D0
:103D2000BB785A1E13469B00134401FA03F3BB6091
:103D3000FA68BB681343FB607B68FA685A6347E024
:103D4000BB780C2B21D87B681B6BFB60BB78DA1F20
:103D500013469B0013441F2202FA03F3BB60BB68A7
:103D6000DB43FA681340FB60F978BB78DA1F13462F
:103D70009B00134401FA03F3BB60FA68BB6813436A
:103D8000FB607B68FA681A6322E07B68DB6AFB6091
:103D9000BB78A3F10D0213469B0013441F2202FAC5
:103DA00003F3BB60BB68DB43FA681340FB60F97840
:103DB000BB78A3F10D0213469B00134401FA03F3F1
:103DC000BB60FA68BB681343FB607B68FA68DA6221
:103DD0001437BD465DF8047B704700BF80B483B0E4
:103DE00000AF78607B689B6843F080427B689A6094
:103DF0000C37BD465DF8047B704700BF80B483B0CC
:103E000000AF78600B46FB70FB78002B06D07B6818
:103E10009B6843F480727B689A6005E07B689B68CE
:103E200023F480727B689A600C37BD465DF8047B92
:103E3000704700BF80B483B000AF78600B46FB7062
:103E4000FB78002B06D07B689B6843F400727B688C
:103E50009A6005E07B689B6823F400727B689A6037
:103E60000C37BD465DF8047B704700BF80B485B059
:103E700000AF78600B467B80FF23FB737A680023DA
:103E8000C4F202039A422FD17B88012B02D1002376
:103E9000FB7366E07B88022B02D10123FB7360E099
:103EA0007B88042B02D10223FB735AE07B88082B0A
:103EB00002D10323FB7354E07B88102B02D104232F
:103EC000FB734EE07B88202B02D10523FB7348E077
:103ED0007B88402B02D10623FB7342E07B88802B3A
:103EE0003FD10723FB733CE07A684FF48063C4F250
:103EF00002039A420BD17B88012B02D10823FB736A
:103F00002FE07B88022B2CD10923FB7329E07A68F0
:103F10004FF40063C4F202039A4222D17B88012B42
:103F200002D10A23FB731CE07B88022B02D10B23F6
:103F3000FB7316E07B88042B02D10C23FB7310E08B
:103F40007B88082B02D10D23FB730AE07B88102BA2
:103F500002D10E23FB7304E07B88082B01D10F23D1
:103F6000FB73FB7B18461437BD465DF8047B704736
:103F700090B5B5B002AF78600B467B800023A7F800
:103F8000C6300023A7F8C43007F1B40300221A603A
:103F9000043300221A60043300221A600433002222
:103FA0001A600433FF2387F8B43007F19C031846E6
:103FB000FFF7D4FD07F18C031846FFF719FE07F150
:103FC0005003184601F084FA4FF480700121FFF786
:103FD000D3FB4FF480000121FFF756FB7B880022C2
:103FE0000092032079681A460023FDF767FD7A885E
:103FF00007F10C031046194604F0D4FF46F21040B6
:10400000C4F2020001F0F6F800233B6542F24C03D3
:10401000C4F201037B6540F2A823C2F20003BB6532
:104020000023FB65BB8D3B6600237B664FF48063FA
:10403000BB664FF40063FB664FF400533B674FF4DD
:1040400080737B674FF40033BB670023FB6701235A
:10405000C7F880300023C7F884300023C7F88830C1
:1040600007F1500346F21040C4F20200194601F075
:10407000D7F946F21040C4F20200012101F05EFAC5
:10408000FFF708FD0023C7F88C300023C7F89030F5
:104090000023C7F894304FF47063C7F8983007F1E5
:1040A0008C031846FFF778FD0023C7F89C300123E6
:1040B00087F8A030012387F8A1300023C7F8A43087
:1040C0000023C7F8A8300023C7F8AC30BB8DDBB2A3
:1040D00087F8B03007F19C034FF40050C4F20100A0
:1040E0001946FFF7E5FC4FF40050C4F2010001212E
:1040F000FFF784FE0023A7F8C63024E0B7F8C630E7
:104100005B0007F1C802134433F8BC3C012B15D106
:10411000B7F8C640B7F8C63010335B0007F1C802E5
:10412000134433F8BA3C78681946FFF79FFE0346FC
:104130001A4607F1C803234403F8142CB7F8C63015
:104140000133A7F8C630B7F8C6300F2BD6D90023F5
:10415000A7F8C6302BE0B7F8C63007F1C802134401
:1041600013F8143CFF2B1DD0B7F8C4300133A7F867
:10417000C430BB8DB7F8C4209A4200D91BE0B7F811
:10418000C63007F1C802134413F8142CB7F8C43032
:10419000DBB24FF40050C4F2010011461A46072367
:1041A000FFF758FDB7F8C6300133A7F8C630B7F8A7
:1041B000C6300F2BCFD94FF40050C4F201000121BB
:1041C000FFF738FE4FF40050C4F201000121FFF761
:1041D00025FD4FF40050C4F20100FFF7FFFDCC377E
:1041E000BD4690BD80B582B000AF786078684FF46E
:1041F0004041C4F279410AF079F80346002B12D00D
:104200004FF48060C4F20200042100F0B9FC4FF4C6
:104210008050C4F202004FF4806100F0B1FC4FF016
:1042200000037B6046E078684FF000010AF086F8F2
:104230000346002B0FD04FF48060C4F2020004212B
:1042400000F090FC4FF48050C4F202004FF4806103
:1042500000F096FC2EE078684FF000010AF050F86C
:104260000346002B0FD04FF48060C4F202000421FB
:1042700000F086FC4FF48050C4F202004FF48061DD
:1042800000F070FC16E078684FF000010AF02EF89C
:104290000346002B0ED04FF48060C4F202000421CC
:1042A00000F06EFC4FF48050C4F202004FF48061C5
:1042B00000F066FC7B6823F000434FF00000C4F27E
:1042C000C8204FF000011A4602F0C2FE78604FF09D
:1042D0000000C4F2C820796809F06AFD0346184658
:1042E0004FF00001C4F2C82109F020FF034600206E
:1042F000C4F2010001211A46FBF746FF0837BD460C
:1043000080BD00BF80B582B000AF786078684FF4A0
:104310004041C4F2794109F0E9FF0346002B10D077
:104320004FF40060C4F20200102100F029FC0020CC
:10433000C4F20200802100F023FC4FF000037B60F8
:1043400044E078684FF0000109F0F8FF0346002BC5
:104350000DD04FF40060C4F20200102100F002FC06
:104360000020C4F20200802100F00AFC2EE07868F0
:104370004FF0000109F0C4FF0346002B11D04FF4A9
:104380000060C4F20200102100F0FAFB0020C4F229
:104390000200802100F0E6FB7B6883F000437B6035
:1043A00014E078684FF0000109F0A0FF0346002BED
:1043B0000CD04FF40060C4F20200102100F0E0FBCA
:1043C0000020C4F20200802100F0DAFB7B6823F0B9
:1043D00000434FF00000C4F2C8204FF000011A461D
:1043E00002F036FE78604FF00000C4F2C820796811
:1043F00009F0DEFC034618464FF00001C4F2C82164
:1044000009F094FE03464FF48060C4F200000421DA
:104410001A46FBF7B9FE0837BD4680BD80B582B0AD
:1044200000AF786078684FF44041C4F2794109F0F8
:104430005DFF0346002B13D04FF48060C4F20200EE
:104440004FF4805100F09CFB4FF48060C4F20200F6
:104450004FF4806100F094FB4FF000037B604DE06F
:1044600078684FF0000109F069FF0346002B10D077
:104470004FF48060C4F202004FF4805100F072FBF0
:104480004FF48060C4F202004FF4806100F078FBCA
:1044900034E078684FF0000109F032FF0346002B4A
:1044A00014D04FF48060C4F202004FF4805100F049
:1044B00067FB4FF48060C4F202004FF4806100F0AB
:1044C00051FB7B6883F000437B6017E078684FF016
:1044D000000109F00BFF0346002B0FD04FF4806062
:1044E000C4F202004FF4805100F04AFB4FF48060A8
:1044F000C4F202004FF4806100F042FB7B6823F0BD
:1045000000434FF00000C4F2C8204FF000011A46EB
:1045100002F09EFD78604FF00000C4F2C820796878
:1045200009F046FC034618464FF00001C4F2C821CA
:1045300009F0FCFD03460020C4F2010004211A46E4
:10454000FBF722FE0837BD4680BD00BF80B584B0B2
:1045500000AFF860B9607A60F868FFF743FEB868AA
:10456000FFF7D0FE7868FFF759FF1037BD4680BDD2
:1045700080B500AF4FF48060C4F202004FF4805168
:1045800000F0FEFA4FF48060C4F202004FF4806144
:1045900000F0F6FA4FF40060C4F20200102100F0BF
:1045A000EFFA0020C4F20200802100F0E9FA4FF493
:1045B0008060C4F20200042100F0E2FA4FF480505F
:1045C000C4F202004FF4806100F0DAFA4FF4406068
:1045D000C4F202004FF4006100F0D2FA4FF48060A0
:1045E000C4F202004FF4004100F0CAFA80BD00BFDF
:1045F00080B483B000AF03463960FB713B68122280
:104600001A8040F27803C2F2000318460C37BD4608
:104610005DF8047B704700BF80B483B000AF0346F1
:104620003960FB713B6804221A8040F29803C2F2A1
:10463000000318460C37BD465DF8047B704700BF89
:1046400080B582B000AF03463960FB71FB79002B67
:104650000BD14EF29C30C0F6000040F62831C2F279
:1046600000013A6801F058FF0AE04EF2C030C0F68F
:10467000000040F62831C2F200013A6801F04CFF18
:1046800040F62833C2F2000318460837BD4680BD05
:1046900080B582B000AF03463960FB714EF2E43062
:1046A000C0F6000040F62831C2F200013A6801F07D
:1046B00033FF40F62833C2F2000318460837BD46E0
:1046C00080BD00BF80B582B000AF03463960FB718A
:1046D000FB79002B0BD14EF2F830C0F6000040F60B
:1046E0002831C2F200013A6801F016FF0AE04EF2EA
:1046F0000840C0F6000040F62831C2F200013A68D6
:1047000001F00AFF40F62833C2F2000318460837CA
:10471000BD4680BD80B582B000AF03463960FB71F5
:10472000FB79002B0BD14EF21840C0F6000040F68A
:104730002831C2F200013A6801F0EEFE0AE04EF2C2
:104740001840C0F6000040F62831C2F200013A6875
:1047500001F0E2FE40F62833C2F2000318460837A3
:10476000BD4680BD80B582B000AF03463960FB71A5
:10477000FB79002B0BD14EF22440C0F6000040F62E
:104780002831C2F200013A6801F0C6FE0AE04EF29A
:104790002440C0F6000040F62831C2F200013A6819
:1047A00001F0BAFE40F62833C2F20003184608377B
:1047B000BD4680BD80B483B000AF03463960FB7155
:1047C00097F90730002B0EDA4FF46D43CEF2000359
:1047D000FA7902F00F02111F3A68D2B21201D2B276
:1047E0000B441A760CE04FF46143CEF2000397F9C4
:1047F00007103A68D2B21201D2B20B4483F80023F8
:104800000C37BD465DF8047B704700BF80B582B0B1
:1048100000AF78607B68B3F1807F01D301231AE099
:104820004EF21003CEF200037A6822F07F42013A82
:104830005A604FF0FF300F21FFF7BCFF4EF210031C
:10484000CEF2000300229A604EF21003CEF2000373
:1048500007221A60002318460837BD4680BD00BFF6
:1048600080B400AF40F2B823C2F200031B685A1CA8
:1048700040F2B823C2F200031A6040F2C023C2F231
:1048800000031B685A1C40F2C023C2F200031A60E6
:1048900040F2BC23C2F200031B685A1C40F2BC2346
:1048A000C2F200031A60BD465DF8047B704700BF8A
:1048B00080B582B000AF786000F034FB4FF0FF307D
:1048C0000121FFF777FF40F2B803C2F200031B6833
:1048D000184609F01FFB03461846796809F072FB79
:1048E0000346184609F034FD03461846FFF78EFFCD
:1048F0000837BD4680BD00BF80B500AF40F2C4237D
:10490000C2F200031B685A1C40F2C423C2F2000327
:104910001A604FF08040012105F08AFE80BD00BF83
:1049200080B483B000AF78607B68002B05D140F283
:10493000B823C2F200031B681BE07B68012B05D182
:1049400040F2BC23C2F200031B6812E07B68022B1A
:1049500005D140F2C423C2F200031B6809E07B6862
:10496000032B05D140F2C023C2F200031B6800E014
:10497000002318460C37BD465DF8047B704700BF26
:1049800080B483B000AF78607B68002B06D140F222
:10499000B823C2F2000300221A601CE07B68012BDE
:1049A00006D140F2BC23C2F2000300221A6012E0DA
:1049B0007B68022B06D140F2C423C2F2000300221E
:1049C0001A6008E07B68032B05D140F2C023C2F2D5
:1049D000000300221A600C37BD465DF8047B704767
:1049E00080B487B000AF7860396000237B6100231A
:1049F0003B610023FB6000237B6176E07B69012241
:104A000002FA03F33B613B681A683B691340FB60A1
:104A1000FA683B699A4265D17B681A687B695B00DA
:104A2000032101FA03F3DB431A407B681A607B68B9
:104A30001A683B681B7919467B695B0001FA03F32E
:104A40001A437B681A603B681B79012B03D03B68D3
:104A50001B79022B2ED17B689A687B695B0003214E
:104A600001FA03F3DB431A407B689A607B689A681B
:104A70003B685B7919467B695B0001FA03F31A43D3
:104A80007B689A607B685A687B699BB2012101FA56
:104A900003F3DB431A407B685A607B685A683B68C3
:104AA0009B7919467B699BB201FA03F39BB21A43C7
:104AB0007B685A607B68DA687B699BB25B00032184
:104AC00001FA03F3DB431A407B68DA607B68DA683B
:104AD0003B68DB7919467B695B0001FA03F31A43F3
:104AE0007B68DA607B6901337B617B690F2B85D939
:104AF0001C37BD465DF8047B704700BF80B483B0AF
:104B000000AF78607B684FF6FF721A607B68002206
:104B10001A717B6800225A717B6800229A717B6847
:104B20000022DA710C37BD465DF8047B704700BF88
:104B300080B485B000AF78600B467B800023FB73A8
:104B40007B681A697B881340002B02D00123FB731A
:104B500001E00023FB73FB7B18461437BD465DF86C
:104B6000047B704780B483B000AF78600B467B80D5
:104B70007B687A881A830C37BD465DF8047B7047E2
:104B800080B483B000AF78600B467B807B687A8806
:104B90005A830C37BD465DF8047B704780B485B0FE
:104BA00000AF786013460A467A807B700023FB6072
:104BB0000023BB607A787B8803F007039B0002FA2E
:104BC00003F3FB607B88DB089BB21A467B88DB081B
:104BD0009BB219467B68083153F821107B8803F09B
:104BE00007039B000F2000FA03F3DB4319407B68A7
:104BF000083243F822107B88DB089BB21A467B6898
:104C0000083253F82220FB681343BB607B88DB0823
:104C10009BB21A467B680832B96843F822101437F1
:104C2000BD465DF8047B704780B400AF0023184692
:104C3000BD465DF8047B704780B400AF0023184682
:104C4000BD465DF8047B704780B485B000AFF86066
:104C5000B9607A60FB68232B00F28B8001A252F8C6
:104C600023F000BF734D0008734D0008734D00081A
:104C7000734D0008734D0008734D0008734D000814
:104C8000734D0008734D0008734D0008734D000804
:104C9000734D0008734D0008734D0008734D0008F4
:104CA000734D0008734D0008734D0008734D0008E4
:104CB000734D0008734D0008734D0008734D0008D4
:104CC000734D0008734D0008734D0008734D0008C4
:104CD000734D0008734D0008734D0008734D0008B4
:104CE000734D0008734D0008F54C0008734D000823
:104CF000734D000840F29C03C2F200031B68DAB255
:104D0000BB681A70BB685A1C40F29C03C2F20003D5
:104D10001B681B0ADBB21370BB689A1C40F29C0331
:104D2000C2F200031B681B0CDBB21370BB68DA1CF9
:104D300040F29C03C2F200031B681B0EDBB213702F
:104D4000BB681A1D40F29C03C2F200031B7913706A
:104D5000BB685A1D40F29C03C2F200035B791370DA
:104D6000BB689A1D40F29C03C2F200039B7913704A
:104D700000E000BF002318461437BD465DF8047BF1
:104D8000704700BF80B485B000AF78603960002301
:104D9000FB6029E040F27C33C2F200031A687968B4
:104DA000FB680B44197840F6E833C2F200039954CB
:104DB00040F27C33C2F200031B685A1C40F27C3381
:104DC000C2F200031A60FB680133FB6040F27C33DF
:104DD000C2F200031B68B3F5006F05D140F27C33CB
:104DE000C2F2000300221A60FA683B689A42D1D3EB
:104DF000002318461437BD465DF8047B704700BF9A
:104E000080B485B000AF786039600023FB6036E085
:104E100040F62433C2F200031A687968FB680B4439
:104E2000197840F69023C2F20003995440F62433D7
:104E3000C2F200031B685A1C40F62433C2F200037E
:104E40001A6040F62433C2F200031B68802B05D1A0
:104E500040F62433C2F2000300221A6040F62433E5
:104E6000C2F200031A6840F61033C2F200031B6856
:104E70009A4201D1022307E0FB680133FB60FA6824
:104E80003B689A42C4D3002318461437BD465DF8E8
:104E9000047B704780B500AF4FF46053C4F2020347
:104EA0004FF46052C4F20202126842F001021A602A
:104EB0004FF46053C4F2020300229A604FF460532F
:104EC000C4F202034FF46052C4F20202126822F0EC
:104ED000847222F480321A604FF46053C4F20203E9
:104EE00043F21002C2F200425A604FF46053C4F21F
:104EF00002034FF46052C4F20202126822F48022CC
:104F00001A604FF46053C4F202030022DA6000F02A
:104F1000B3F84FF46D43CEF200034FF000629A6095
:104F200080BD00BF80B487B000AF00233B61002389
:104F30007B610223FB600023BB6002237B604FF494
:104F40006053C4F202039B6803F00C033B613B69AE
:104F5000042B0DD0082B15D0002B63D140F2B803E1
:104F6000C2F200034FF41052C0F2F4021A6063E080
:104F700040F2B803C2F200034FF49052C0F27A023A
:104F80001A6059E04FF46053C4F202035B6803F403
:104F900080039B0DBB604FF46053C4F202035B6857
:104FA00003F03F037B60BB68002B13D04FF490539A
:104FB000C0F27A037A68B3FBF2F24FF46053C4F2A2
:104FC0000203596847F6C0730B409B0903FB02F3C9
:104FD0007B6112E04FF41053C0F2F4037A68B3FB24
:104FE000F2F24FF46053C4F20203596847F6C073FB
:104FF0000B409B0903FB02F37B614FF46053C4F247
:1050000002035B6803F440331B0C01335B00FB605D
:105010007A69FB68B2FBF3F240F2B803C2F2000314
:105020001A6009E040F2B803C2F200034FF41052D4
:10503000C0F2F4021A6000BF4FF46053C4F20203DE
:105040009B6803F0F0031A0940F2BC03C2F20003AC
:105050009B5CDBB23B6140F2B803C2F200031A680A
:105060003B69DA4040F2B803C2F200031A601C3711
:10507000BD465DF8047B704780B483B000AF002369
:105080007B6000233B604FF46053C4F202034FF493
:105090006052C4F20202126842F480321A604FF485
:1050A0006053C4F202031B6803F400333B607B6867
:1050B00001337B603B68002B03D17B68B3F5A06FA5
:1050C000EDD14FF46053C4F202031B6803F40033C4
:1050D000002B02D001233B6001E000233B603B68D2
:1050E000012B40F082804FF46053C4F202034FF46E
:1050F0006052C4F20202126C42F080521A644FF401
:10510000E043C4F200034FF4E042C4F2000212682C
:1051100042F480421A604FF46053C4F202034FF429
:105120006052C4F2020292689A604FF46053C4F273
:1051300002034FF46052C4F20202926842F4004249
:105140009A604FF46053C4F202034FF46052C4F209
:105150000202926842F4A0529A604FF46053C4F283
:10516000020345F20842C0F240725A604FF46053A5
:10517000C4F202034FF46052C4F20202126842F019
:1051800080721A6000BF4FF46053C4F202031B68C0
:1051900003F00073002BF6D04FF47053C4F20203F7
:1051A00040F205621A604FF46053C4F202034FF4F8
:1051B0006052C4F20202926822F003029A604FF435
:1051C0006053C4F202034FF46052C4F202029268C8
:1051D00042F002029A6000BF4FF46053C4F202032F
:1051E0009B6803F00C03082BF6D10C37BD465DF825
:1051F000047B704780B483B000AF78607B681B6825
:1052000023F001027B681A607B6800221A607B68C9
:1052100000225A607B6800229A607B680022DA6074
:105220007B6800221A617B6821225A617A6846F203
:105230001003C4F202039A4206D14FF4C043C4F2F1
:1052400002033D229A60E6E07A6846F22803C4F23F
:1052500002039A4207D14FF4C043C4F202034FF451
:1052600074629A60D7E07A6846F24003C4F202039F
:105270009A4207D14FF4C043C4F202034FF47412B0
:105280009A60C8E07A6846F25803C4F202039A4270
:1052900007D14FF4C043C4F202034FF074629A6026
:1052A000B9E07A6846F27003C4F202039A4208D168
:1052B0004FF4C043C4F202033D22C2F20002DA609E
:1052C000A9E07A6846F28803C4F202039A4209D13F
:1052D0004FF4C043C4F202034FF47462C2F20002FE
:1052E000DA6098E07A6846F2A003C4F202039A42B8
:1052F00008D14FF4C043C4F202030022C2F23D02BF
:10530000DA6088E07A6846F2B803C4F202039A428F
:1053100007D14FF4C043C4F202034FF03D52DA60AC
:1053200079E07A6846F21043C4F202039A4206D149
:105330004FF4C843C4F202033D229A606BE07A68DE
:1053400046F22843C4F202039A4207D14FF4C843FD
:10535000C4F202034FF474629A605CE07A6846F229
:105360004043C4F202039A4207D14FF4C843C4F247
:1053700002034FF474129A604DE07A6846F2584383
:10538000C4F202039A4207D14FF4C843C4F20203A5
:105390004FF074629A603EE07A6846F27043C4F25D
:1053A00002039A4208D14FF4C843C4F202033D22DB
:1053B000C2F20002DA602EE07A6846F28843C4F254
:1053C00002039A4209D14FF4C843C4F202034FF4D6
:1053D0007462C2F20002DA601DE07A6846F2A0430D
:1053E000C4F202039A4208D14FF4C843C4F2020344
:1053F0000022C2F23D02DA600DE07A6846F2B8435C
:10540000C4F202039A4206D14FF4C843C4F2020325
:105410004FF03D52DA600C37BD465DF8047B7047B3
:1054200080B485B000AF786039600023FB607B6892
:105430001B68FB60FA6848F23F03CFF21C0313407D
:10544000FB603B681A683B68DB681A433B685B6932
:105450001A433B689B691A433B68DB691A433B6804
:105460001B6A1A433B685B6A1A433B689B6A1A4390
:105470003B685B6B1A433B689B6B1343FA681343AF
:10548000FB607B68FA681A607B685B69FB60FB689D
:1054900023F00703FB603B68DA6A3B681B6B13432E
:1054A000FA681343FB607B68FA685A613B681A69C3
:1054B0007B685A603B685A687B689A603B689A6868
:1054C0007B68DA601437BD465DF8047B704700BF27
:1054D00080B483B000AF78607B6800221A607B687C
:1054E00000225A607B6800229A607B680022DA60A2
:1054F0007B6800221A617B6800225A617B68002267
:105500009A617B680022DA617B6800221A627B68FC
:1055100000225A627B6800229A627B680022DA626B
:105520007B6800221A637B6800225A637B68002232
:105530009A630C37BD465DF8047B704780B483B036
:1055400000AF78600B46FB70FB78002B06D07B68C1
:105550001B6843F001027B681A6005E07B681B68EA
:1055600023F001027B681A600C37BD465DF8047BAE
:10557000704700BF80B584B000AF78600120012182
:10558000FEF782F84FF4D853BB6003237B730223EA
:105590003B730023BB730023FB7307F10803002058
:1055A000C4F202001946FFF71BFA0020C4F2020001
:1055B00008210A22FFF7F2FA0020C4F202000921B2
:1055C0000A22FFF7EBFA0020C4F202000B210A22A4
:1055D000FFF7E4FA0020C4F202000C210A22FFF7D0
:1055E000DDFA4FF48063BB600123BB730123FB73BF
:1055F00003237B7307F108030020C4F2020019465D
:10560000FFF7EEF90020C4F202000A210A22FFF798
:10561000C5FA4FF480400121FEF7AEF88020012149
:10562000FEF75AF84FF080500121FEF7CDF8012027
:1056300003F0A8FC1037BD4680BD00BF80B584B024
:1056400000AF78604FF4C06004F0C6F843233B73AA
:1056500001237B730323BB730123FB7307F10C034B
:10566000184604F0CDF81037BD4680BD80B485B033
:1056700000AF78600023FB607A6813461B019B1A19
:10568000DB001A4644F62513C2F29243A3FB021331
:10569000D21A520813449B08BB60FB680133FB60BD
:1056A000FA68BB689A4200D900E0F6E71437BD46B5
:1056B0005DF8047B704700BF80B582B000AF7860B2
:1056C0007B684FF47A7202FB03F31846FFF7CEFFB4
:1056D0000837BD4680BD00BFB0B582B000AF78606E
:1056E0003960032003F03CFC02467B689A6004208A
:1056F00003F036FC02467B68DA60052003F030FCDC
:1057000002467B681A61062003F02AFC02467B6889
:105710005A617B689B6818464FF0000108F0E6FD6F
:105720000346002B28D07B68DB6818464FF0000149
:1057300008F0DCFD0346002B1ED07B681B69184671
:105740004FF0000108F0D2FD0346002B14D07B6817
:105750005B6918464FF0000108F0C8FD0346002BB6
:105760000AD0FEF723F94FF44060C4F202004FF470
:105770008041FFF7F7F94DE27B689B6818464FF0D0
:105780000001CBF6807108F0B1FD0346002B38D044
:105790007B68DB6818464FF00001CBF6807108F09B
:1057A000A5FD0346002B2CD07B681B6918464FF0E3
:1057B0000001CBF6807108F099FD0346002B20D044
:1057C0007B685B6918464FF00001CBF6807108F0EA
:1057D0008DFD0346002B14D04FF44060C4F202004C
:1057E0004FF48041FFF7CCF97B684FF47052C4F25C
:1057F0001C621A607B684FF47052C4F21C625A60DB
:1058000008E27B689B6818464FF00001CBF6807178
:1058100008F06CFD0346002B00F0A4807B68DB6879
:1058200018464FF00001CBF6807108F05FFD03468B
:10583000002B00F097804FF44060C4F202004FF458
:105840008041FFF79DF97B685B6918464FF00001C6
:10585000C4F2C00108F06AFC0346184607F01EFFB8
:1058600002460B469AA1D1E9000107F0B7FD0246B6
:105870000B461046194608F047FA0346184607F04B
:105880000DFF02460B461046194693A3D3E90023A9
:1058900007F058FF02460B461046194604F068FF11
:1058A00002460B46104619468DA3D3E9002307F0A4
:1058B00049FF02460B46104619464FF000024FF4CE
:1058C0000043C4F2560307F08BFD02460B46104618
:1058D000194608F019FA02467B681A607B681B6952
:1058E000184607F0DBFE02460B464FF000004FF073
:1058F0000001C4F2640107F071FD02460B46104638
:1059000019464FF000024FF00003C4F2640308F0A0
:1059100043F802460B4614461D467B681B68184632
:105920004FF0804108F002FC0346184607F0B6FE2F
:1059300002460B462046294607F004FF02460B4666
:10594000104619464FF000024FF0000307F048FDE3
:1059500002460B461046194608F0D6F902467B6807
:105960005A6057E17B681B6918464FF00001CBF67F
:10597000807108F0BBFC0346002B00F0B5807B680B
:105980005B6918464FF00001CBF6807108F0AEFC61
:105990000346002B00F0A8804FF44060C4F20200E0
:1059A0004FF48041FFF7ECF87B68DB6818464FF056
:1059B0000001C4F2C00108F0B9FB0346184607F025
:1059C0006DFE02460B4642A1D1E9000107F006FD3B
:1059D00002460B461046194608F096F9034618464B
:1059E00007F05CFE02460B46104619463AA3D3E97F
:1059F000002307F0A7FE02460B461046194604F0A6
:105A0000B7FE02460B46104619464FF000024FF013
:105A10000003C4F25E0307F095FE02460B461046F3
:105A200019464FF000024FF00003C4F2590307F08B
:105A3000D7FC02460B461046194608F065F90246A7
:105A40007B681A607B689B68184607F027FE024651
:105A50000B464FF000004FF00001C4F2640107F064
:105A6000BDFC02460B46104619464FF000024FF0AF
:105A70000003C4F2740307F08FFF02460B4614467E
:105A80001D467B681B6818464FF0804108F04EFBAE
:105A90000346184607F002FE02460B4620462946FA
:105AA00007F050FE02460B46104619464FF0000222
:105AB0004FF0000307F094FC02460B4610461946CF
:105AC00008F022F902467B685A60A3E0AFF3008039
:105AD0000000000000C05240113444A246DF913F54
