:020000040800F2
:10000000B8110020091C0008E1120008ED120008D8
:10001000F912000805130008111300080000000081
:100020000000000000000000000000001D13000898
:100030002913000800000000351300086944000877
:10004000691C0008691C0008691C0008691C00087C
:10005000691C0008691C0008691C0008691C00086C
:10006000691C0008691C0008691C0008691C00085C
:10007000691C0008691C0008691C0008691C00084C
:10008000691C0008691C0008691C0008691C00083C
:10009000691C0008691C0008691C0008691C00082C
:1000A000691C000899130008691C0008691C0008F5
:1000B00001450008FD13000869140008691C0008C8
:1000C000691C0008691C0008691C0008691C0008FC
:1000D000691C0008E5900008F1900008FD900008F8
:1000E000691C0008691C000855130008691C0008F9
:1000F00041150008691C0008691C0008691C0008FB
:10010000691C0008691C0008D5140008691C000857
:10011000691C0008691C0008691C0008691C0008AB
:10012000691C0008691C0008691C0008691C00089B
:10013000691C0008691C0008691C0008691C00088B
:10014000691C0008691C0008691C000841130008AC
:10015000691C0008691C0008691C0008691C00086B
:10016000691C0008691C0008691C0008691C00085B
:10017000691C0008691C0008691C0008691C00084B
:10018000691C0008691C000880B584B000AFF860E5
:100190000B467A60FB72FB7A013B032B52D801A21B
:1001A00052F823F0B5010008D9010008FD0100084C
:1001B00021020008FB68DB6A18460DF077FE034653
:1001C000184679680DF0CAFE034618460EF0B2F8DC
:1001D0000246FB685A6336E0FB68DB6A18460DF09E
:1001E00065FE0346184679680DF0B8FE03461846CA
:1001F0000EF0A0F80246FB689A6324E0FB68DB6A15
:1002000018460DF053FE0346184679680DF0A6FE19
:10021000034618460EF08EF80246FB68DA6312E0D9
:10022000FB68DB6A18460DF041FE03461846796804
:100230000DF094FE034618460EF07CF80246FB686B
:100240001A6400E000BF1037BD4680BD90B5ADB068
:1002500002AFF860B9603B601346FB800023C7F82B
:10026000A4300023C7F8A0300023C7F89C30012336
:10027000C7F898300023A7F8963004F021FB07F167
:100280004403184602F0B4FFFB68B3F1804F06D375
:10029000FA684FF4A053C4F200039A420DD9FA68E9
:1002A00041F2FF73C4F200039A4217D9FA684FF47F
:1002B0000053C4F200039A4210D8FA6C4FF4605312
:1002C000C4F20203D3F88C301B0E03F00103013398
:1002D00003FB02F35B00C7F8A4300FE03A6D4FF464
:1002E0006053C4F20203D3F88C301B0E03F00103F9
:1002F000013303FB02F35B00C7F8A4303B68002B1B
:100300000DDDD7F8A42048F21F53C5F2EB1383FB91
:1003100002135911D317CA1A3B689A4201DA012312
:10032000F4E01FE0D7F8A0300133C7F8A030D7F8C9
:10033000A420D7F8A03092FBF3F23B6892FBF3F3D2
:10034000C7F89C30D7F89C30B3F5803F02DA002321
:10035000C7F89830D7F8A0204FF6FE739A4201DD17
:100360000123D3E0D7F89830002BDBD1D7F8A420B5
:10037000D7F8A03092FBF3F2D7F89C3092FBF3F35E
:100380003B60F86808F08AF9FB880022009202209E
:10039000B9681A46002300F015FFD7F89C30013BDE
:1003A000FB63D7F8A0309BB2013B9BB23B87002395
:1003B000A7F8403000237B87002387F8423007F1FD
:1003C0003803F868194608F00DFF6023BB8400234A
:1003D0003B8608237B860123FB8404233B854FF463
:1003E0008073BB864FF40073FB8607F12403F86823
:1003F000194608F0ADFFF868002109F099F907F1F6
:100400002403F868194609F01DF8F868002109F07E
:10041000ABF907F12403F868194609F09BF8F8686E
:10042000002109F0BFF907F12403F868194609F023
:1004300017F9F868002109F0D1F9FA680023C4F22D
:1004400001039A4206D0FA684FF48063C4F20103B4
:100450009A4211D107F11403184609F005FA4FF436
:1004600080433B8407F11403F868194609F0D4F976
:10047000F868012109F016FAFA8807F154031046CA
:10048000194607F0C7FF0023A7F8963025E0B7F814
:1004900096305B0007F1A802134433F8543C012B5B
:1004A00016D1B7F8963010335B0007F1A8010B4462
:1004B00033F8523C184608F0EFFA03461C46F86839
:1004C00008F060FB0346B86821461A4604F06AF952
:1004D000B7F896300133A7F89630B7F896300F2B5F
:1004E000D5D9FB6800225A63FB6800229A63FB6837
:1004F0000022DA63FB6800221A64F868012108F020
:10050000E7FEF868012108F003FF00231846AC3726
:10051000BD4690BD80B489B000AFF860B960FA7193
:10052000BB800023FB76FB68DB78002B23D1002304
:100530007B610023FB61BB880333DA1C002BB8BF4F
:1005400013469B107B61FB79FA6832339B0013449E
:100550009B683B610023FB6109E0BB681A683B694B
:100560001A60FB690133FB61BB680433BB60FA6945
:100570007B699A42F1D3FB7E18462437BD465DF86D
:10058000047B704780B489B000AFF860B96013464F
:10059000FB800023FB61FB880333DA1C002BB8BF10
:1005A00013469B10BB61FB68D3F8D0307B610023FE
:1005B000FB6109E07B691A68BB681A60FB6901335B
:1005C000FB61BB680433BB60FA69BB699A42F1D333
:1005D000BB6818462437BD465DF8047B704700BFF2
:1005E00080B586B000AF786039600023FB740023CB
:1005F0007B610023FB60FB6843F02003FB603B68EA
:10060000DBB203F01F03DAB2FB6862F38A13FB600C
:100610007B68DB68FA681A617B68DB681B69FB60D2
:100620007B6901337B617A694FF45463C0F2030341
:100630009A4200D905E0FB68C3F34013DBB2012BFB
:10064000EAD0032004F064FCFB7C18461837BD4652
:1006500080BD00BF80B483B000AF78607B68DB688A
:100660005B6903F0010318460C37BD465DF8047B57
:10067000704700BF80B582B000AF78607868FFF740
:10068000E9FF0346012B0CBF00230123DBB2184610
:100690000837BD4680BD00BF80B485B000AF78602C
:1006A0000023FB607B68DB685B69FB607B68DB6861
:1006B0009B69FA681340FB60FB6818461437BD4617
:1006C0005DF8047B704700BF80B485B000AF7860F0
:1006D0000023FB737B681B699B68BB603B7AC3F399
:1006E0004103DBB2022B09D0032B04D0012B02D033
:1006F0000323FB7305E00223FB7302E00123FB737A
:1007000000BFFB7B18461437BD465DF8047B70477D
:1007100080B487B000AF78600023FB750023BB6016
:100720007B681B699B683B617B689B691B68FB60FE
:100730003B7CC3F34103DBB2022B04D0BB896FF3D4
:100740000A03BB8105E0BB89032262F30A03BB8174
:1007500000BF7B689B69FA681A607B7A43F00103EB
:100760007B727B681B697A6812695168BA68D243E8
:100770001140BA680A435A60FB7D18461C37BD46D3
:100780005DF8047B704700BF80B487B000AF78602D
:1007900039600023FB740023FB600023BB603B68CF
:1007A0005B78012B0FD13B681B787A6804339B0080
:1007B00013449B687B613B681B78012202FA03F3B8
:1007C0009BB23B810EE03B681B787A6814339B0038
:1007D00013445B687B613B681B78012202FA03F3D8
:1007E0009BB27B817B691B68FB607B7BC3F3C0137F
:1007F000DBB2002B27D13B689B689BB2C3F30A0393
:100800009AB2BB8962F30A03BB813B68DB7803F0D1
:100810000303DAB2BB7B62F38303BB733B68DB8801
:10082000DBB203F00F03DAB2FB8962F38913FB81B9
:10083000FB7B43F01003FB737B7B43F080037B73F4
:10084000FA687B691A607B681B697A681269D169EA
:10085000BA680A43DA61FB7C18461C37BD465DF86E
:10086000047B704780B588B000AF786039600023A2
:10087000FB770023BB6100237B6100233B613B6866
:100880005B78012B40F0AB803B681B787A680433BF
:100890009B0013449B681B687B613B681B787A68EC
:1008A00004339B0013449B681B693B613B685B6995
:1008B000002B09D13B696FF312033B617B8A012254
:1008C00062F3CC037B8222E03B685B69C3F31202D4
:1008D0003B6962F312033B613B685A693B689B6862
:1008E00013445A1E3B689B68B2FBF3F39BB2C3F3FD
:1008F00009039AB27B8A62F3CC037B823B68DB7884
:10090000012B04D1FB7C012262F34613FB743B688C
:100910001B787A6804339B0013449B683A691A6118
:100920007B68DB78012B0AD13B681B787A6804333B
:100930009B0013449B683A6812695A6115E03B6852
:10094000DB78012B11D03B685B69002B0DD03B6835
:100950001B78012202FA03F3BB617B681B697A688A
:100960001269516BBA690A435A633B68DB78012B01
:1009700014D17B681B699B68FB60FB68C3F30D2384
:100980009BB203F00103002B04D1FB7D43F0200355
:10099000FB7503E0FB7D43F01003FB75FB7D43F02B
:1009A0000403FB75FB7D43F08003FB753B681B78FC
:1009B0007A6804339B0013449B687A691A603B6829
:1009C000DB78012B40F088803B68D9683B681A7857
:1009D0003B685B699BB27868FFF79CFD7CE03B68F5
:1009E0001B787A6814339B0013445B681B687B6137
:1009F0003B681B787A6814339B0013445B681B695F
:100A00003B613B685B69002B0DD13B689B68C3F37E
:100A100012023B6962F312033B617B8A012262F39B
:100A2000CC037B821FE03B685A693B689B68134498
:100A30005A1E3B689B68B2FBF3F39BB2C3F30903F6
:100A40009AB27B8A62F3CC037B827B8AC3F3C903AD
:100A50009BB23A68926802FB03F3C3F312023B694C
:100A600062F312033B613B681B787A6814339B0086
:100A700013445B683A691A617B68DB78012B09D102
:100A80003B681B787A6814339B0013445B683A68B0
:100A900012695A613B68DB78012B0CD13B685B79AA
:100AA000002B04D0FB7D43F02003FB7503E0FB7DAE
:100AB00043F01003FB75FB7D43F00403FB75FB7DE6
:100AC00043F08003FB753B681B787A6814339B0006
:100AD00013445B687A691A60FB7F18462037BD466D
:100AE00080BD00BF80B489B000AF7860396000235A
:100AF000FB770023BB6100233B610023BB603B68A5
:100B00005B78012B6FD17B689B697B617B691B687C
:100B10003B617B691B69BB603B685B69002B09D14A
:100B20003B7A6FF306033B72BB7A012262F3C40384
:100B3000BB7223E03B685A693B689B689A420ED9B6
:100B40003B689A683B685A613B689B68DBB203F07C
:100B50007F03DAB23B7A62F306033B7209E03B683B
:100B60005B69DBB203F07F03DAB23B7A62F3060320
:100B70003B72BB7A012262F3C403BB72BA687B6921
:100B80001A617B68DB78012B09D13B681B787A6896
:100B900004339B0013449B683A6812695A61FB7CDA
:100BA00043F00403FB74FB7C43F08003FB743A695D
:100BB0007B691A607B68DB78002B75D13B685B69C9
:100BC000002B71D03B681B78012202FA03F3BA694B
:100BD0001343BB617B681B697A681269516BBA6900
:100BE0000A435A6360E03B681B787A6814339B00C1
:100BF00013445B681B683B613B681B787A6814335D
:100C00009B0013445B681B69BB603B685B69002BFE
:100C10000FD13B689B68DBB203F07F03DAB23B7A0B
:100C200062F306033B72BB7A012262F3C403BB7218
:100C300012E03B689A683B685A613B689B68DBB28C
:100C400003F07F03DAB23B7A62F306033B72BB7AAE
:100C5000012262F3C403BB723B681B787A681433C9
:100C60009B0013445B68BA681A617B68DB78012BD0
:100C700009D13B681B787A6814339B0013445B6886
:100C80003A6812695A61FB7C43F00403FB74FB7CF5
:100C900043F08003FB743B681B787A6814339B0035
:100CA00013445B683A691A60FB7F18462437BD46D7
:100CB0005DF8047B704700BF80B487B000AF7860F8
:100CC00039600023FB750023FB603B685B78012BD8
:100CD0001CD13B681B787A6804339B0013449B68E3
:100CE0003B613B691B68FB60FB7BC3F3C013DBB25A
:100CF000002B03D0FB7B43F04003FB73BB7B43F033
:100D00002003BB73FA683B691A6011E03B681B78EB
:100D10007A6814339B0013445B683B613B691B6832
:100D2000FB60BB7B43F02003BB73FA683B691A602E
:100D3000FB7D18461C37BD465DF8047B704700BF3D
:100D400080B487B000AF786039600023FB74002363
:100D5000FB603B685B78012B08D13B681B787A68A5
:100D600004339B0013449B687B6107E03B681B785E
:100D70007A6814339B0013445B687B617B691B6852
:100D8000FB60BB7B6FF34513BB733B68DB78032BC6
:100D900003D03B68DB78022B03D1FB7B43F01003CD
:100DA000FB73FA687B691A60FB7C18461C37BD46EA
:100DB0005DF8047B704700BF80B485B000AF7860F9
:100DC0007B681B699B69FB607B681B69DB69FA6850
:100DD0001340FB60FB681B0C18461437BD465DF8DA
:100DE000047B704780B485B000AF78600B46FB7021
:100DF000FB787A6814339B0013445B689B68FB6044
:100E00007B681B695B69FA681340FB60FB681846E6
:100E10001437BD465DF8047B704700BF80B485B0D1
:100E200000AF78607B681B699B69FB607B681B690E
:100E3000DB69FA681340FB60FB689BB21846143705
:100E4000BD465DF8047B704780B487B000AF786022
:100E500000233B61FB7C43F0C003FB74BB7C01229D
:100E600062F3C403BB743B7C182262F306033B7439
:100E70007B685B6D3A691A617B68DB78012B16D160
:100E80000023FB607B685B6D7A6802F5B9625A618A
:100E90007B685B6D1B68FB60FB7B43F08003FB732F
:100EA0004FF08023FB607B685B6DFA681A601C372B
:100EB000BD465DF8047B704780B485B000AF7860B4
:100EC0007B689B7A002B1BD07B681B699B68FB604F
:100ED0003B7BC3F30003DBB2012B11D17B6803F52D
:100EE00086731B68BB603B7A6FF341033B723B7AAE
:100EF0006FF300033B727B68D3F80C31BA681A6059
:100F00001437BD465DF8047B704700BF80B483B0E2
:100F100000AF7860396040F25012C2F200023968C6
:100F20000B465B000B449B0013440833188840F2C7
:100F30005012C2F2000239680B465B000B449B0062
:100F400013440A3302461A8040F25012C2F20002E1
:100F500039680B465B000B449B001344063318882A
:100F600040F25012C2F2000239680B465B000B449B
:100F70009B001344083302461A8040F25012C2F21A
:100F8000000239680B465B000B449B00134404339A
:100F9000188840F25012C2F2000239680B465B001A
:100FA0000B449B001344063302461A8040F2501251
:100FB000C2F2000239680B465B000B449B001344ED
:100FC0000233188840F25012C2F2000239680B4610
:100FD0005B000B449B001344043302461A8040F22A
:100FE0005012C2F2000239680B465B000B449B00B2
:100FF0001344188840F25012C2F2000239680B46BE
:101000005B000B449B001344023302461A807B684A
:1010100098B240F25012C2F2000239680B465B00EF
:101020000B449B00134402461A8040F25012C2F255
:10103000000239680B465B000B449B0013441B887D
:10104000012B47D140F25012C2F2000239680B4620
:101050005B000B449B00134402331B88012B39D1E6
:1010600040F25012C2F2000239680B465B000B449A
:101070009B00134404331B88012B2BD140F25012E8
:10108000C2F2000239680B465B000B449B0013441C
:1010900006331B88012B1DD140F25012C2F2000210
:1010A00039680B465B000B449B00134408331B88D4
:1010B000012B0FD140F25012C2F2000239680B46E8
:1010C0005B000B449B0013440A331B88002B01D1A7
:1010D0000B2355E040F25012C2F2000239680B4671
:1010E0005B000B449B0013441B88002B47D140F24C
:1010F0005012C2F2000239680B465B000B449B00A1
:10110000134402331B88002B39D140F25012C2F233
:10111000000239680B465B000B449B001344043308
:101120001B88002B2BD140F25012C2F2000239680A
:101130000B465B000B449B00134406331B88002BBB
:101140001DD140F25012C2F2000239680B465B001A
:101150000B449B00134408331B88002B0FD140F233
:101160005012C2F2000239680B465B000B449B0030
:1011700013440A331B88012B01D1632300E00023B1
:1011800018460C37BD465DF8047B704780B582B0C9
:1011900000AF0346FB7100BF4FF48840C4F200006B
:1011A000802100F051FB0346002BF5D0FB799BB268
:1011B0004FF48840C4F20000194600F0DBFA08370B
:1011C000BD4680BD80B584B000AF39600146F9717D
:1011D000BA80BB713A680023C4F202039A4204D178
:1011E0000120012102F0D8F82EE03A684FF4806324
:1011F000C4F202039A4204D10220012102F0CCF889
:1012000022E03A684FF40063C4F202039A4204D128
:101210000420012102F0C0F816E03A684FF4406360
:10122000C4F202039A4204D10820012102F0B4F86A
:101230000AE03A684FF48053C4F202039A4203D1A1
:101240001020012102F0A8F807F10803184603F066
:1012500059FABB88BB60FB793B733B7EBB73BB79A0
:10126000FB7303237B7307F108033868194603F007
:10127000BBF9FB79012B04D1BB883868194603F010
:1012800083FA1037BD4680BD80B582B000AF012320
:10129000FB8000233B6000BF3A68531C3B604AF26E
:1012A0001F13C0F207039A42F6D94FF44063C4F209
:1012B0000203FA88120392B25A83FB885B00FB8018
:1012C000FB880F2B01D90123FB804FF44063C4F24C
:1012D0000203FA88120392B21A8302F0FDF8D8E7EB
:1012E00080B400AFBD465DF8047B704780B500AFA9
:1012F000FFF7CAFF80BD00BF80B500AFFFF7C4FF96
:1013000080BD00BF80B500AFFFF7BEFF80BD00BF4E
:1013100080B500AFFFF7B8FF80BD00BF80B400AF5D
:10132000BD465DF8047B704780B400AFBD465DF8F4
:10133000047B704780B400AFBD465DF8047B704706
:1013400080B500AF40F2C430C2F2000004F088FC67
:1013500080BD00BF80B500AF40F2C433C2F20003CD
:101360009B7A002B13D04EF61053CEF200034EF6AC
:101370001052CEF20002126822F006021A6003F048
:1013800057FA40F2C430C2F20000FFF795FD4FF467
:10139000802007F02FF880BD80B500AF0023C4F295
:1013A00001031B889BB21B099BB2002B0BD040F2A0
:1013B0008413C2F200031B685A1C40F28413C2F269
:1013C00000031A6013E00023C4F201031B889BB2E0
:1013D0001B099BB2002B0AD140F28013C2F200031A
:1013E0001B685A1C40F28013C2F200031A600020EE
:1013F000C4F20100012108F07BFA80BD80B500AF86
:101400004FF48063C4F200031B889BB21B099BB29C
:10141000002B0BD040F29413C2F200031B685A1C3D
:1014200040F29413C2F200031A6014E04FF4806398
:10143000C4F200031B889BB21B099BB2002B0AD18C
:1014400040F29013C2F200031B685A1C40F2901342
:10145000C2F200031A604FF48060C4F20000012160
:1014600008F046FA80BD00BF80B500AF4FF40063BE
:10147000C4F200031B889BB21B099BB2002B0BD04C
:1014800040F29C13C2F200031B685A1C40F29C13EA
:10149000C2F200031A6014E04FF40063C4F20003C8
:1014A0001B889BB21B099BB2002B0AD140F29813F8
:1014B000C2F200031B685A1C40F29813C2F20003E8
:1014C0001A604FF40060C4F20000012108F010FA25
:1014D00080BD00BF80B500AF4FF44063C4F200038D
:1014E0001B889BB21B099BB2002B0BD040F2A413AC
:1014F000C2F200031B685A1C40F2A413C2F200039C
:101500001A6014E04FF44063C4F200031B889BB2DE
:101510001B099BB2002B0AD140F2A013C2F20003B8
:101520001B685A1C40F2A013C2F200031A604FF469
:101530004060C4F20000012108F0DAF980BD00BF6C
:1015400080B500AF4FF48063C4F201031B889BB2E7
:101550001B099BB2002B0BD040F2AC13C2F200036C
:101560001B685A1C40F2AC13C2F200031A6014E06C
:101570004FF48063C4F201031B889BB21B099BB22A
:10158000002B0AD140F2A813C2F200031B685A1CB8
:1015900040F2A813C2F200031A604FF48060C4F254
:1015A0000100012108F0A4F980BD00BF80B58AB018
:1015B00000AF7860396000237B6200233B62002328
:1015C000FB610023BB617B681B8A9BB27B627B6AE9
:1015D00023F440537B623B68DB887A6A13437B6267
:1015E0007B6A9AB27B681A827B689B899BB27B621A
:1015F0007B6A23F4B05323F00C037B623B689A8828
:101600003B681B8913439AB23B685B8913439BB2C7
:101610007A6A13437B627B6A9AB27B689A817B68A1
:101620009B8A9BB27B627B6A23F440737B623B683C
:101630009B897A6A13437B627B6A9AB27B689A823F
:1016400007F10803184601F0D3FD7A684FF4805380
:10165000C4F201039A4206D07A684FF4A053C4F250
:1016600001039A4202D17B693B6201E03B693B6224
:101670007B689B899BB29BB21BB2002B0CDA3A6A47
:1016800013469B0013449A001A443B681B685B0096
:10169000B2FBF3F3FB610BE03A6A13469B00134481
:1016A0009A001A443B681B689B00B2FBF3F3FB6192
:1016B000FA6948F21F53C5F2EB13A3FB02135B094F
:1016C0001B017B627B6A1B09642202FB03F3FA693C
:1016D000D31ABB617B689B899BB29BB21BB2002B68
:1016E00010DABB69DB0003F1320248F21F53C5F286
:1016F000EB13A3FB02135B0903F007037A6A13439E
:101700007B620FE0BB691B0103F1320248F21F53F9
:10171000C5F2EB13A3FB02135B0903F00F037A6A14
:1017200013437B627B6A9AB27B681A812837BD4675
:1017300080BD00BF80B483B000AF78600B46FB7003
:10174000FB78002B08D07B689B899BB243F4005345
:101750009AB27B689A8107E07B689B899BB223F4ED
:1017600000539AB27B689A810C37BD465DF8047BC2
:10177000704700BF80B483B000AF78600B467B80B9
:101780007B88C3F308039AB27B689A800C37BD4606
:101790005DF8047B704700BF80B483B000AF786011
:1017A0007B689B889BB2C3F308039BB218460C3737
:1017B000BD465DF8047B704780B487B000AF7860A9
:1017C00013460A467A807B7000233B610023FB604E
:1017D0000023BB6000237B617B687B617B88DBB27D
:1017E0005B09DBB23B617B8803F01F03FB60FB6896
:1017F000012202FA03F3BB603B69012B03D17B6931
:101800000C337B6109E03B69022B03D17B69103308
:101810007B6102E07B6914337B617B78002B06D00F
:101820007B697A691168BA680A431A6006E07B69C5
:101830007A691168BA68D2430A401A601C37BD46FB
:101840005DF8047B704700BF80B485B000AF78605E
:101850000B467B800023FB737B681B889AB27B88D6
:1018600013409BB2002B02D00123FB7301E0002345
:10187000FB73FB7B18461437BD465DF8047B70474D
:1018800080B487B000AF78600B467B800023FB609C
:1018900000237B610023BB600023FB747B88DBB2E9
:1018A0005B09DBB2BB607B8803F01F037B617B6954
:1018B000012202FA03F37B61BB68012B06D17B682E
:1018C0009B899BB27A6913407B610FE0BB68022B56
:1018D00006D17B681B8A9BB27A6913407B6105E065
:1018E0007B689B8A9BB27A6913407B617B881B0A69
:1018F0009BB2FB60FB68012202FA03F3FB607B688A
:101900001B889BB2FA681340FB607B69002B05D0F3
:10191000FB68002B02D00123FB7401E00023FB7461
:10192000FB7C18461C37BD465DF8047B704700BF42
:1019300080B588B000AF786039600023FB6107F1A3
:10194000080300221A60043300221A6004330022C4
:101950001A60043300221A60043300221A60043330
:101960003B68002B03D17B683020984750E0002370
:10197000FB6129E039684CF6CD43CCF6CC43A3FBA0
:101980000123DA0813469B0013445B00CA1AD2B243
:1019900007F10801FB690B441A7038680BF028FE48
:1019A00002460B46104619461BA3D3E900230BF051
:1019B00095FE02460B46104619460CF051F90346B7
:1019C0003B60FB690133FB613B68002B0CBF0023CC
:1019D0000123DAB2FB69132BCCBF00230123DBB256
:1019E0001340DBB2002BC5D1FB69013BFB610CE06E
:1019F00007F10802FB6913441B783033DAB27B68C5
:101A000010469847FB69013BFB61FB69002BEFDA4D
:101A10002037BD4680BD00BF9A9999999999B93FE1
:101A200080B582B000AF786039603B68002B09DA7E
:101A30007B682D2098473B685B4278681946FFF722
:101A400077FF04E03B6878681946FFF771FF0837B5
:101A5000BD4680BDB0B588B000AF78603960032363
:101A6000BB610023FB6100237B614FF00003FB603F
:101A70004FF000033B6107F10C033868194608F08A
:101A800009F83861FB6818460CF02EFC03467868AC
:101A90001946FFF7C5FF7B682E2098473B6923F066
:101AA0000044B8690CF006FA03464FF00000C4F297
:101AB0002010194608F030FA0346204619460CF06B
:101AC0004DFA0346184608F009F8034618460CF08C
:101AD0000BFC03467B610123FB6105E07B68302042
:101AE0009847FB690133FB61BA69FB69D31A184651
:101AF0000BF08EFD02460B464FF000004FF0000148
:101B0000C4F2240108F012F804460D4678690BF07F
:101B10007FFD02460B46204629460CF06FF803462F
:101B2000002B03D0FA69BB699A42D7DB78687969E0
:101B3000FFF776FF2037BD46B0BD00BF80B584B04B
:101B400000AF786039600023FB600023FB6009E090
:101B5000FB683A6813441A787B6810469847FB681C
:101B60000133FB60FB683A6813441B78002B02D0FA
:101B7000FB68132BECDD1037BD4680BD80B582B00D
:101B800000AF78607B680D2098477B680A209847F3
:101B90000837BD4680BD00BF80B584B000AFF86097
:101BA000B9607A60F868B968FFF7C8FFFB682C2055
:101BB0009847F8687968FFF74DFFFB682C20984735
:101BC0001037BD4680BD00BF80B584B000AFF8605F
:101BD000B9607A603B60F868B968FFF7AFFFFB68EF
:101BE0002C209847F8687968FFF734FFFB682C20B1
:101BF0009847F8683968FFF72DFFFB682C20984755
:101C00001037BD4680BD00BF80B582B000AF4EF238
:101C1000FC53C0F600037B6040F20003C2F20003F5
:101C20003B6007E03B681A1D3A607A68111D7960D5
:101C300012681A603A6840F25013C2F200039A42E6
:101C4000F0D3074807494FF000028842B8BF40F878
:101C5000042BFADB00F0E4FA0837BD4680BD000033
:101C600050010020B409002080B400AFFEE700BF9F
:101C700080B584B000AF786007F108037868194632
:101C800003F084FF3B7A03F01F03012B0AD0022BE1
:101C90000FD0002B14D107F108037868194603F020
:101CA0006FFB16E007F108037868194603F0B8FBEC
:101CB0000FE007F108037868194603F0E5FB08E038
:101CC0003B7A23F07F03DBB27868194607F000F90E
:101CD00000BF002318461037BD4680BD80B584B0D4
:101CE00000AF78600B46FB70FB78002B45D17B681A
:101CF00003F55C73FB607B6893F81131032B4FD1C4
:101D0000FB68DA69FB689B689A4221D9FB68DA694B
:101D1000FB689B68D21AFB68DA617B68DB78012B71
:101D200006D1FB68DA68FB689B681A44FB68DA60D6
:101D3000FB68DA68FB689968FB68DB69994238BF21
:101D40000B469BB2786811461A4607F087F927E0E0
:101D50007B68D3F8E0351B69002B0AD07B6893F8C9
:101D60001231032B05D17B68D3F8E0351B69786805
:101D70009847786807F086F912E07B68D3F8E03579
:101D80009B69002B0CD07B6893F81231032B07D191
:101D90007B68D3F8E0359B69FA78786811469847F4
:101DA000002318461037BD4680BD00BF80B584B003
:101DB00000AF78600B46FB70FB78002B60D17B682E
:101DC00003F58C73FB607B6893F81131022B6AD1A9
:101DD000FB68DA69FB689B689A421CD9FB68DA6980
:101DE000FB689B68D21AFB68DA617B68DB78012BA1
:101DF00006D1FB68DA68FB689B681A44FB68DA6006
:101E0000FB68DA68FB68DB699BB2786811461A46A2
:101E100007F010F947E0FB681B6AFA689268B3FBA9
:101E2000F2F102FB01F29B1A002B14D1FB681A6A33
:101E3000FB689B689A420ED3FB681A6AFB685B6A70
:101E40009A4208D278680021002207F0F3F8FB6874
:101E500000225A6227E07B68D3F8E035DB68002B6C
:101E60000AD07B6893F81231032B05D17B68D3F835
:101E7000E035DB6878689847786807F01BF912E06E
:101E80007B68D3F8E0355B69002B0CD07B6893F856
:101E90001231032B07D17B68D3F8E0355B69FA7800
:101EA000786811469847002318461037BD4680BD14
:101EB00080B582B000AF78607868002140220023AE
:101EC00006F03CFF786880214022002306F036FFB0
:101ED0007B68012283F812217B68D3F8E4355B68C4
:101EE0007A68927810469847002318460837BD460E
:101EF00080BD00BF80B582B000AF78607B68D3F84A
:101F0000E4351B6998477B68032283F8122100237C
:101F100018460837BD4680BD80B582B000AF7860F6
:101F20007B68042283F812217B68D3F8E435DB68F0
:101F30009847002318460837BD4680BD80B582B05B
:101F400000AF78607B68D3F8E035DB69002B05D003
:101F50007B68D3F8E035DB6978689847002318463A
:101F60000837BD4680BD00BF80B582B000AF786045
:101F70000B46FB707B68D3F8E0351B68FA7878680D
:101F8000114698477B68D3F8E4359B68984700234F
:101F900018460837BD4680BD80B582B000AF786076
:101FA0000B46FB707B68D3F8E0355B68FA7878689D
:101FB00011469847002318460837BD4680BD00BF2C
:101FC00080B582B000AF78607B68D3F8E0351B6ADB
:101FD00078689847002318460837BD4680BD00BF83
:101FE00080B582B000AF78607B68D3F8E0355B6A7B
:101FF00078689847002318460837BD4680BD00BF63
:1020000080B582B002AF02F013FC41F26F20C3F63C
:10201000832002F051FA4FF40060C4F20200012163
:1020200001F0D6FD0020C4F201004FF48051C4F24B
:1020300002014FF4804242F21073FEF707F90020CC
:10204000C4F201004FF48051C4F202014FF48072D7
:1020500042F21073FEF7FAF80020C4F201004FF4C8
:102060008051C4F202014FF4006242F21073FEF795
:10207000EDF80020C4F201004FF48051C4F20201D7
:102080004FF4005242F21073FEF7E0F84FF4406351
:10209000C4F202030093402301934FF48840C4F23A
:1020A00000004FF4E1314FF44062C4F202022023F9
:1020B00007F02AF84FF44063C4F2020300934FF490
:1020C000007301934FF49040C4F200004FF4E131EB
:1020D0004FF44062C4F202024FF4807307F014F828
:1020E000BD4680BD80B582B002AF002300930120C1
:1020F0004FF44061C4F202014FF440420123FFF764
:1021000061F80023009300204FF40061C4F2020143
:102110004FF400520223FFF755F8002300930020EC
:102120004FF40061C4F202014FF400420023FFF7B4
:1021300049F80023009301204FF48051C4F20201BA
:1021400002220123FFF73EF8002300930120002123
:10215000C4F2020120220123FFF734F80023009388
:1021600001204FF48061C4F202014FF48052002339
:10217000FFF728F80023009301204FF48061C4F298
:1021800002014FF480620023FFF71CF80023009344
:1021900001204FF48061C4F2020104220023FFF702
:1021A00011F80023009301204FF48051C4F2020182
:1021B0004FF480620023FFF705F80023009301200D
:1021C0004FF48051C4F2020110220023FEF7FAFFFF
:1021D0000023009301204FF48051C4F202014FF418
:1021E00000720023FEF7EEFF0023009301204FF45E
:1021F0008051C4F202014FF400420023FEF7E2FFD7
:102200000023009301204FF44061C4F202014FF417
:1022100080520023FEF7D6FFBD4680BD00000000BF
:10222000B0B5B4B002AF07F11C0300221A6004334A
:1022300000221A60043300221A60043300221A605C
:10224000043300221A60043300221A6004333B4630
:1022500000221A60043300221A60043300221A603C
:10226000043300221A60043300221A60043300226F
:102270001A60043300221A6004334FF00003C7F8D9
:10228000A8304FF00003C7F8C4304FF00003C7F880
:10229000C0304FF00003C7F8A4304FF00003C7F878
:1022A000BC300023A7F8A2300023A7F8BA300023DF
:1022B000A7F8B8300023A7F8A0300023A7F8B6305D
:1022C0000023A7F8B4300023A7F8B2300023A7F802
:1022D000B0300023A7F8AE30FFF792FEFFF702FF01
:1022E00007F15C0207F134031046194601F0A0F92A
:1022F00007F15C03184605F0B7FB01F0EDF800208C
:1023000002F012F9034618460BF072F902460B462A
:10231000104619464FF000024FF00003C4F21403B8
:102320000BF062FC0346002B00D1E8E7002002F02E
:102330002BF9B7F8B03018460BF06AF902460B4695
:10234000104619464FF000024FF00003C4F2140388
:102350000BF012F802460B46104619460BF080FCB3
:102360000346A7F8B03007F15C03184604F00CFFF1
:1023700007F15C03184605F043FD4FF40060C4F21A
:1023800002004FF4005102F0D7F90346184600212D
:10239000FEF7BCFD0346A7F8A230B7F8A230632BC6
:1023A00002D10123A7F89630B7F896301BB2012B63
:1023B00008D007F15C0207F134031046194601F01A
:1023C00037F905E00020C4F20200202102F0DCF918
:1023D000B7F8B030132B10D90023A7F8B03007F1AD
:1023E0001C0207F15C031046194602F0B9FDFB69B7
:1023F000C7F8C4303B6AC7F8C030B7F8B630062B10
:1024000000F2E28501A252F823F000BF292400085F
:102410009527000879290008A12A0008FF2A00084A
:10242000792D0008B32E0008FB6918464FF470514F
:10243000C4F21C610BF026FF0346002B00F0CC8099
:102440003B6A18464FF47051C4F21C610BF01AFF3E
:102450000346002B00F0C080B7F8BA30012B0BD038
:10246000022B0FD0002B15D1FB6D7B634FF00003C7
:10247000C4F2AF33BB630DE0FB6D7B634FF0000331
:10248000BB6307E0FB6D7B634FF00003CCF2AF331F
:10249000BB6300BF01F0B8F80023A7F8A0307A6B47
:1024A000FB6D104619460BF04FFC03461C46BA6BF9
:1024B0003B6E104619460BF047FC03462046194672
:1024C00004F022FC0346BB654FF00003C7F8A430BC
:1024D0007A6BFB6D104619460BF036FC03461C4622
:1024E000BA6B3B6E104619460BF02EFC0346204695
:1024F000194604F035FC03467B64BA6D3B6D4FF022
:102500000001C4F291310091104619464FF00002CB
:10251000C4F248424FF00003C4F2FA3304F064FC02
:102520000346BB64BA6CBB6F104619460BF00CFC3B
:102530000346184604F08CF9C7F8A800D7F8A8009D
:10254000D7F8A4100BF002FC03461A467B6C104629
:10255000194604F035FD03463B61D7F8A800D7F8CB
:10256000A4100BF0F3FB03461A467B6C1046194689
:1025700004F07EFD03467B61D7F89C300022009278
:1025800018464FF00001C4F20C314FF080424CF677
:10259000CD43C4F24C0304F00FF90346BB61BB6D9D
:1025A00018464FF00001C4F2A0110BF075FE03466F
:1025B000002B00F0ED80B7F8BA300133A7F8BA303D
:1025C000B7F8BA30022B06D90223A7F8B630002399
:1025D000A7F8BA30DCE0DBE0FB6918464FF4604155
:1025E000C4F20A610BF04EFE0346002B0ED03B6A8C
:1025F00018464FF46041C4F20A610BF043FE0346F3
:10260000002B03D00123A7F8B630C1E00023A7F8C0
:10261000B430B7F8B230002B1FD1FB6D4FF48040BF
:10262000C4F29C4019460BF08FFB03461A463B6EE2
:102630001046194604F094FB034683F000437B6484
:10264000FB6D7B633A6A3B6E104619460BF07EFBCE
:102650000346BB630123A7F8B2300123A7F8A030DB
:102660007A6BFB6D104619460BF06EFB03461C4659
:10267000BA6B3B6E104619460BF066FB03462046CC
:10268000194604F041FB0346BB654FF00003C7F851
:10269000A4307A6BFB6D104619460BF055FB0346D0
:1026A0001C46BA6B3B6E104619460BF04DFB0346B9
:1026B0002046194604F054FB03467B64BA6D3B6D1B
:1026C0004FF00001C4F291310091104619464FF0CD
:1026D0000002C4F248424FF00003C4F2FA3304F09F
:1026E00083FB0346BB64BA6CBB6F104619460BF004
:1026F0002BFB0346184604F0ABF8C7F8A800D7F840
:10270000A800D7F8A4100BF021FB03461A467B6CF7
:102710001046194604F054FC03463B61D7F8A80064
:10272000D7F8A4100BF012FB03461A467B6C104638
:10273000194604F09DFC03467B61D7F89C300122CA
:10274000009218464FF00001C4F20C314FF0804265
:102750004CF6CD43C4F24C0304F02EF80346BB61A3
:102760004FF40040C4F2BB4000F0D8FEBB6D1846E9
:102770004FF00001C4F2A0110BF08EFD0346002BB8
:1027800001D100F022BC0323A7F8B63000F01DBC35
:1027900000F01BBCB7F8B830012B68D0FB6D1846B1
:1027A0000AF048FF04460D467B6F18460AF042FFC8
:1027B00002460B46104619466DA3D3E900230AF0E2
:1027C0008DFF02460B461046194607F0A1F8024657
:1027D0000B46104619464FF000024FF00003C4F2BA
:1027E00034030AF07BFF02460B46204629460AF0D6
:1027F000C3FD02460B46104619460BF051FA03463C
:102800007B633B6E18460AF015FF04460D467B6F4E
:1028100018460AF00FFF02460B461046194654A30D
:10282000D3E900230AF05AFF02460B461046194628
:1028300007F0B2F802460B46104619464FF0000268
:102840004FF00003C4F234030AF048FF02460B467F
:10285000204629460AF090FD02460B4610461946CE
:102860000BF01EFA0346BB630123A7F8B8307A6B5E
:10287000FB6D104619460BF067FA03461C46BA6B0F
:102880003B6E104619460BF05FFA03462046194688
:1028900004F066FA03467B647A6BFB6D10461946BA
:1028A0000BF052FA03461C46BA6B3B6E10461946B3
:1028B0000BF04AFA03462046194604F025FA03466F
:1028C000BB65BA6D3B6D4FF00001C4F291310091D0
:1028D000104619464FF00002C4F2FA324FF00003DE
:1028E000C4F2C83304F080FA0346BB64BA6CBB6F11
:1028F000104619460BF028FA0346184603F0A8FFC5
:10290000C7F8A8007B6CD7F8A800194604F058FB5C
:1029100003463B617B6CD7F8A800194604F0A8FB7E
:1029200003467B61D7F89C300222009218464FF094
:102930000001C4F20C314FF080424CF6CD43C4F29A
:102940004C0303F039FF0346BB61BB6D18464FF0E3
:102950000001C4F2A0110BF09FFC0346002B00D134
:1029600033E30023A7F8B6300023A7F8B8302CE3F0
:10297000113444A246DF913FB7F8B830022B0ED095
:10298000FB6D18464FF00001C4F2C8210BF0DCF9D2
:1029900003467B633B6EBB630223A7F8B8307A6BB8
:1029A000FB6D104619460BF0CFF903461C46BA6B77
:1029B0003B6E104619460BF0C7F9034620461946F0
:1029C00004F0CEF903467B647A6BFB6D1046194622
:1029D0000BF0BAF903461C46BA6B3B6E104619461B
:1029E0000BF0B2F903462046194604F08DF9034670
:1029F000BB65BA6D3B6D4FF00001C4F2913100919F
:102A0000104619464FF00002C4F2FA324FF00003AC
:102A1000C4F2C83304F0E8F90346BB64BA6CBB6F78
:102A2000104619460BF090F90346184603F010FFC4
:102A3000C7F8A8007B6CD7F8A800194604F0C0FAC4
:102A400003463B617B6CD7F8A800194604F010FBE5
:102A500003467B61D7F89C300222009218464FF063
:102A60000001C4F20C314FF080424CF6CD43C4F269
:102A70004C0303F0A1FE0346BB61BB6D18464FF04B
:102A80000001C4F2A0110BF007FC0346002B00D19B
:102A90009BE20023A7F8B6300023A7F8B83094E2F1
:102AA000D7F8C0004FF00001CCF2C0010BF008FCD9
:102AB0000346002B18D0D7F8C0004FF00001C4F235
:102AC000C0010BF0F3FB0346002B0DD0B7F8B43078
:102AD0000133A7F8B430B7F8B430C72B03D90423B7
:102AE000A7F8B6300AE009E00023A7F8B4300023C5
:102AF000A7F8B6300023A7F8B23066E265E2B7F86F
:102B0000B230012B40F09180FB6D4FF48040C4F255
:102B10009C4019460BF018F903461A463B6E1046C6
:102B2000194604F01DF9034683F000437B64FB6DF6
:102B30001846D7F8C4100BF009F9034618460AF0F6
:102B400079FD04460D467B6F18460AF073FD024678
:102B50000B461046194684A3D3E900230AF0BEFDB4
:102B600002460B461046194606F0D2FE02460B46B8
:102B7000104619464FF000024FF00003C4F24E0316
:102B80000AF0ACFD02460B46204629460AF0F4FB4B
:102B900002460B461046194675A3D3E900230AF0F6
:102BA000E9FB02460B46104619460BF079F803463E
:102BB0007B633B6E1846D7F8C0100BF0C7F803468E
:102BC00018460AF037FD04460D467B6F18460AF09A
:102BD00031FD02460B461046194663A3D3E9002394
:102BE0000AF07CFD02460B461046194606F0D4FE5C
:102BF00002460B46104619464FF000024FF0000304
:102C0000C4F24E030AF06AFD02460B4620462946EE
:102C10000AF0B2FB02460B46104619460BF040F88C
:102C20000346BB630223A7F8B2300323A7F8A03002
:102C30007A6BFB6D104619460BF086F803461C466E
:102C4000BA6B3B6E104619460BF07EF803462046E1
:102C5000194604F059F80346BB657A6BFB6D1046C4
:102C600019460BF071F803461C46BA6B3B6E1046D2
:102C700019460BF069F803462046194604F070F82F
:102C800003467B644FF00003C7F8A430BA6D3B6D78
:102C90004FF00001C4F291310091104619464FF0F7
:102CA0000002C4F2FA324FF00003C4F2C83304F059
:102CB0009BF80346BB64BA6CBB6F104619460BF019
:102CC00043F80346184603F0C3FDC7F8A800D7F839
:102CD000A800D7F8A4100BF039F803461A467B6C0D
:102CE0001046194604F06CF903463B61D7F8A8007A
:102CF000D7F8A4100BF02AF803461A467B6C10464E
:102D0000194604F0B5F903467B61D7F89C300322DD
:102D1000009218464FF00001C4F287314FF0804214
:102D20004CF6CD43C4F24C0303F046FD0346BB61B1
:102D30004FF00000C4F2484000F0F0FBBB6D1846B5
:102D40004FF00001C4F2A0110BF0A6FA0346002BCD
:102D500000D13AE10223A7F8B630FB6DFB663B6E6B
:102D60003B6732E1AFF30080113444A246DF913F6C
:102D70000000000000C06240B7F8B230022B0ED154
:102D8000FB6E18464FF00001C4F2C8210AF0DCFFC8
:102D900003467B633B6FBB630323A7F8B230042376
:102DA000A7F8A0304FF00000C4F2C83000F0B6FB26
:102DB0007A6BFB6D104619460AF0C6FF03461C46A7
:102DC000BA6B3B6E104619460AF0BEFF034620461A
:102DD000194603F099FF0346BB657A6BFB6D1046FD
:102DE00019460AF0B1FF03461C46BA6B3B6E10460B
:102DF00019460AF0A9FF03462046194603F0B0FF22
:102E000003467B64BA6D3B6D4FF00001C4F2C831DC
:102E10000091104619464FF40042C4F2BB424FF0F5
:102E20000003C4F2FA3303F0DFFF0346BB64BA6C5D
:102E3000BB6F104619460AF087FF0346184603F099
:102E400007FDC7F8A8007B6CD7F8A800194604F066
:102E5000B7F803463B617B6CD7F8A800194604F02D
:102E600007F903467B61D7F89C300422009218468C
:102E70004FF00001C4F20C314FF080424CF6CD43CC
:102E8000C4F24C0303F098FC0346BB61BB6D1846CB
:102E90004FF00001C4F2A0110BF0FEF90346002B25
:102EA00000D192E00023A7F8B6300023A7F8B23093
:102EB0008BE04FF000037B634FF00003BB637A6B42
:102EC000FB6D104619460AF03FFF03461C46BA6BDD
:102ED0003B6E104619460AF037FF03462046194656
:102EE00003F012FF0346BB657A6BFB6D1046194673
:102EF0000AF02AFF03461C46BA6B3B6E1046194681
:102F00000AF022FF03462046194603F029FF034634
:102F10007B64BA6D3B6D4FF00001C4F27A410091C1
:102F2000104619464FF48042C4F21C624FF48043AD
:102F3000C4F21C6303F058FF0346BB64BA6CBB6F5A
:102F4000104619460AF000FF0346184603F080FCBD
:102F5000C7F8A8007B6CD7F8A800194604F030F831
:102F600003463B617B6CD7F8A800194604F080F853
:102F700003467B61D7F89C300522009218464FF03B
:102F80000001C4F20C314FF080424CF6CD43C4F244
:102F90004C0303F011FC0346BB61BB6D18464FF0B8
:102FA0000001C4F2A0110BF077F90346002B00D109
:102FB0000BE00723A7F8B6300123A7F8AE30FB6D6E
:102FC000FB663B6E3B6700E000BF7B6E4FF48040CA
:102FD000C4F29C4019460AF0B7FE03461C46BB6E7D
:102FE0004FF0000019460AF0AFFE0346204619468E
:102FF00003F08AFE034618464FF00001C4F2A00118
:103000000BF04AF90346002B02D00623A7F8B6308E
:10301000B7F896301BB2012B40F09B80B7F8983080
:103020001BB2012B05D007F15C03184604F0B0FE7B
:103030008FE0BB69184601F0D5F8B7F8AE30012B28
:103040003BD0FB6D4FF48040C4F29C4019460AF01F
:103050007BFE03461A463B6E1046194603F080FE7F
:10306000034683F000437B6439697A697B6C0846C8
:1030700011461A464FF00003CCF2F02303F040FC57
:1030800003463B6039697A697B6C084611461A46EB
:103090004FF00003C4F2F02303F0DEFC03467B6034
:1030A00039697A697B6C084611461A464FF000036D
:1030B00003F07EFD0346BB600CE007F15C023B467B
:1030C0001046194604F078FD4FF00000C4F2963027
:1030D00000F024FAFB6D4FF48040C4F29C40194686
:1030E0000AF032FE03461A463B6E1046194603F0BC
:1030F00037FE034683F000437B647A6F7B6C104697
:1031000019464FF00002C4F220124FF00003C4F23F
:10311000701303F009FB0346FB603A68FB68104636
:1031200019460AF013FE03461D467A68FB681046EE
:1031300019460AF00BFE03461C46BA68FB681046A7
:1031400019460AF003FE0346284621461A4601F0B6
:10315000E1F8BB6F1846D7F8BC100BF0BBF803467C
:10316000002B02D0BB6FC7F8BC30012001F0DCF9A6
:103170000346C72B3AD9012001F006FAFB6D41F254
:103180008D10C0F600004EF28031C0F600011A46E4
:10319000FEF702FD3B6E41F28D10C0F600004EF2CC
:1031A0008431C0F600011A46FEF7F6FC7A6EBB6E5B
:1031B00041F28D10C0F600004EF28831C0F60001D9
:1031C000FEF702FD7B6F41F28D10C0F600004EF25B
:1031D0008C31C0F600011A46FEF7DEFC41F28D107C
:1031E000C0F60000FEF7CAFCFFF789B8FFF787B802
:1031F00080B489B000AF78600023BB6100237B619D
:103200000023FB6102233B610023FB600223BB60C0
:103210004FF46053C4F202039B6803F00C03BB61DC
:10322000BB69042B0AD0082B0FD0002B5AD17A6827
:103230004FF41053C0F2F40313605AE07A684FF46D
:103240009053C0F27A03136053E04FF46053C4F21A
:1032500002035B6803F480039B0DFB604FF4605333
:10326000C4F202035B6803F03F03BB60FB68002B02
:1032700013D04FF49053C0F27A03BA68B3FBF2F262
:103280004FF46053C4F20203596847F6C0730B4011
:103290009B0903FB02F3FB6112E04FF41053C0F2F1
:1032A000F403BA68B3FBF2F24FF46053C4F20203C2
:1032B000596847F6C0730B409B0903FB02F3FB619F
:1032C0004FF46053C4F202035B6803F440331B0CF9
:1032D00001335B003B61FA693B69B2FBF3F27B6847
:1032E0001A6006E07A684FF41053C0F2F4031360DA
:1032F00000BF4FF46053C4F202039B6803F0F00375
:10330000BB61BB691B09BB6140F23003C2F2000321
:10331000BA6913441B78DBB27B617B681A687B69EE
:10332000DA407B685A604FF46053C4F202039B6832
:1033300003F4E053BB61BB699B0ABB6140F23003FD
:10334000C2F20003BA6913441B78DBB27B617B686D
:103350005A687B69DA407B689A604FF46053C4F224
:1033600002039B6803F46043BB61BB695B0BBB61F9
:1033700040F23003C2F20003BA6913441B78DBB297
:103380007B617B685A687B69DA407B68DA60243746
:10339000BD465DF8047B704780B483B000AF7860B1
:1033A0000B46FB70FB78002B0CD04FF46053C4F23B
:1033B00002034FF46052C4F20202116B7A680A43AE
:1033C0001A630CE04FF46053C4F202034FF46052EE
:1033D000C4F20202116B7A68D2430A401A630C37B6
:1033E000BD465DF8047B704780B483B000AF786061
:1033F0000B46FB70FB78002B0CD04FF46053C4F2EB
:1034000002034FF46052C4F20202116C7A680A435C
:103410001A640CE04FF46053C4F202034FF460529C
:10342000C4F20202116C7A68D2430A401A640C3763
:10343000BD465DF8047B704780B483B000AF786010
:103440000B46FB70FB78002B0CD04FF46053C4F29A
:1034500002034FF46052C4F20202516C7A680A43CC
:103460005A640CE04FF46053C4F202034FF460520C
:10347000C4F20202516C7A68D2430A405A640C3793
:10348000BD465DF8047B704780B483B000AF7860C0
:103490000B46FB70FB78002B0CD04FF46053C4F24A
:1034A00002034FF46052C4F20202516A7A680A437E
:1034B0005A620CE04FF46053C4F202034FF46052BE
:1034C000C4F20202516A7A68D2430A405A620C3747
:1034D000BD465DF8047B704780B582B000AF002325
:1034E0007B6009E04FF48050C4F20200022101F039
:1034F0003DF97B6801337B607A6844F23F23C0F278
:103500000F039A42EED94FF48050C4F20200022118
:1035100001F03AF90837BD4680BD00BF80B582B0E2
:1035200000AF786040F2B013C2F200031B68184687
:103530004FF00001C4F2A0010AF008FC03461A464D
:1035400040F2B013C2F200031A6040F2B013C2F2AC
:1035500000031B68184679680AF0A8FE0346002B92
:1035600007D04FF48050C4F20200022101F0FEF8AF
:1035700005E040F2B413C2F2000301221A6040F2E7
:10358000B413C2F200031B68012B19D140F2B81327
:10359000C2F200031B6818464FF00001C4F2A001FC
:1035A0000AF0D4FB03461A4640F2B813C2F20003F5
:1035B0001A604FF48050C4F20200022101F0E4F8D6
:1035C00040F2B813C2F200031B68184679680AF08B
:1035D00077FE0346002B13D040F2B013C2F2000373
:1035E0004FF000021A6040F2B813C2F200034FF02D
:1035F00000021A6040F2B413C2F2000300221A6003
:103600000837BD4680BD00BF80B500AF4FF4805085
:10361000C4F20200022101F0B7F880BD80B500AF0E
:103620004FF48050C4F20200022101F09FF880BDE7
:1036300080B582B000AF786039600020C4F202002B
:10364000202101F093F87B684FF000029A617B68BB
:103650004FF000021A607B684FF000025A607B68EE
:103660004FF000021A617B684FF000025A617B68DC
:103670004FF000025A627B684FF00002DA627B680A
:103680004FF000029A627B684FF00002DA617B68BB
:103690004FF000021A627B684FF000025A637B68A9
:1036A00000225A877B6800229A873B684FF000020D
:1036B0001A613B684FF000021A603B684FF000024D
:1036C0005A603B684FF000025A623B684FF00002BC
:1036D0001A623B684FF00002DA613B684FF000026B
:1036E0005A613B684FF000029A6100F025FE0837EE
:1036F000BD4680BD80B500AF4FF480700121FFF75B
:10370000C3FE4FF480700021FFF7BEFE80BD00BFF6
:1037100080B485B000AF786039600023FB6000237F
:10372000FB727B685B68FB60FB6823F0407323F4EB
:103730008073FB603B681B791A023B681B6813436C
:10374000FA681343FB607B68FA685A607B689B6881
:10375000FB60FA684FF2FD73CCF2FF031340FB608D
:103760003B681A693B68DB681A433B689B681A43ED
:103770003B685B795B001343FA681343FB607B682B
:10378000FA689A607B68DB6AFB60FB6823F470036D
:10379000FB603B681B7D013BDAB2FB7A1343FB7293
:1037A000FB7A1B05FA681343FB607B68FA68DA62F0
:1037B0001437BD465DF8047B704700BF80B483B00A
:1037C00000AF78607B6800221A607B6800221A7163
:1037D0007B6800225A717B6800229A607B68002215
:1037E000DA607B6800221A617B6801221A750C3747
:1037F000BD465DF8047B704780B485B000AF78604B
:103800000023FB604FF40C53C4F201035B68FB60C0
:10381000FA6843F2E003CFF6FC731340FB607B6869
:103820001A687B685B681A437B689B681A437B68ED
:10383000DB681343FA681343FB604FF40C53C4F284
:103840000103FA685A601437BD465DF8047B70477F
:1038500080B483B000AF78607B6800221A607B6818
:1038600000225A607B6800229A607B680022DA603E
:103870000C37BD465DF8047B704700BF80B483B051
:1038800000AF78600B46FB70FB78002B06D07B689E
:103890009B6843F001027B689A6005E07B689B6847
:1038A00023F001027B689A600C37BD465DF8047B0B
:1038B000704700BF80B485B000AF7860F970BA700F
:1038C0007B700023FB600023BB60FB78092B23D9AE
:1038D0007B68DB68FB60FB78A3F10A0213465B00A0
:1038E0001344072202FA03F3BB60BB68DB43FA68A8
:1038F0001340FB607978FB78A3F10A0213465B0062
:10390000134401FA03F3BB60FA68BB681343FB601E
:103910007B68FA68DA601EE07B681B69FB60FA78F6
:1039200013465B001344072202FA03F3BB60BB6833
:10393000DB43FA681340FB607978FA7813465B0042
:10394000134401FA03F3BB60FA68BB681343FB60DE
:103950007B68FA681A61BB78062B21D87B685B6BA1
:10396000FB60BB785A1E13469B0013441F2202FAC9
:1039700003F3BB60BB68DB43FA681340FB60F97874
:10398000BB785A1E13469B00134401FA03F3BB6035
:10399000FA68BB681343FB607B68FA685A6347E0C8
:1039A000BB780C2B21D87B681B6BFB60BB78DA1FC4
:1039B00013469B0013441F2202FA03F3BB60BB684B
:1039C000DB43FA681340FB60F978BB78DA1F1346D3
:1039D0009B00134401FA03F3BB60FA68BB6813430E
:1039E000FB607B68FA681A6322E07B68DB6AFB6035
:1039F000BB78A3F10D0213469B0013441F2202FA69
:103A000003F3BB60BB68DB43FA681340FB60F978E3
:103A1000BB78A3F10D0213469B00134401FA03F394
:103A2000BB60FA68BB681343FB607B68FA68DA62C4
:103A30001437BD465DF8047B704700BF80B483B087
:103A400000AF78607B689B6843F080427B689A6037
:103A50000C37BD465DF8047B704700BF80B483B06F
:103A600000AF78600B46FB70FB78002B06D07B68BC
:103A70009B6843F480727B689A6005E07B689B6872
:103A800023F480727B689A600C37BD465DF8047B36
:103A9000704700BF80B483B000AF78600B46FB7006
:103AA000FB78002B06D07B689B6843F400727B6830
:103AB0009A6005E07B689B6823F400727B689A60DB
:103AC0000C37BD465DF8047B704700BF80B485B0FD
:103AD00000AF78600B467B80FF23FB737A6800237E
:103AE000C4F202039A422FD17B88012B02D100231A
:103AF000FB7366E07B88022B02D10123FB7360E03D
:103B00007B88042B02D10223FB735AE07B88082BAD
:103B100002D10323FB7354E07B88102B02D10423D2
:103B2000FB734EE07B88202B02D10523FB7348E01A
:103B30007B88402B02D10623FB7342E07B88802BDD
:103B40003FD10723FB733CE07A684FF48063C4F2F3
:103B500002039A420BD17B88012B02D10823FB730D
:103B60002FE07B88022B2CD10923FB7329E07A6894
:103B70004FF40063C4F202039A4222D17B88012BE6
:103B800002D10A23FB731CE07B88022B02D10B239A
:103B9000FB7316E07B88042B02D10C23FB7310E02F
:103BA0007B88082B02D10D23FB730AE07B88102B46
:103BB00002D10E23FB7304E07B88082B01D10F2375
:103BC000FB73FB7B18461437BD465DF8047B7047DA
:103BD00090B5B5B002AF78600B467B800023A7F8A4
:103BE000C6300023A7F8C43007F1B40300221A60DE
:103BF000043300221A60043300221A6004330022C6
:103C00001A600433FF2387F8B43007F19C03184689
:103C1000FFF7D4FD07F18C031846FFF719FE07F1F3
:103C20005003184601F022F94FF480700121FFF78C
:103C300003FC4FF480000121FFF7AEFB7B880022DC
:103C40000092032079681A460023FDF7BBFA7A88B0
:103C500007F10C031046194604F0DCFB46F2104055
:103C6000C4F2020000F094FF00233B6542F24C03D3
:103C7000C4F201037B6540F2BC13C2F20003BB65D2
:103C80000023FB65BB8D3B6600237B664FF480639E
:103C9000BB664FF40063FB664FF400533B674FF481
:103CA00080737B674FF40033BB670023FB670123FE
:103CB000C7F880300023C7F884300023C7F8883065
:103CC00007F1500346F21040C4F20200194601F019
:103CD00075F846F21040C4F20200012101F0FCF830
:103CE000FFF708FD0023C7F88C300023C7F8903099
:103CF0000023C7F894304FF47063C7F8983007F189
:103D00008C031846FFF778FD0023C7F89C30012389
:103D100087F8A030012387F8A1300023C7F8A4302A
:103D20000023C7F8A8300023C7F8AC30BB8DDBB246
:103D300087F8B03007F19C034FF40050C4F2010043
:103D40001946FFF7E5FC4FF40050C4F201000121D1
:103D5000FFF784FE0023A7F8C63024E0B7F8C6308A
:103D60005B0007F1C802134433F8BC3C012B15D1AA
:103D7000B7F8C640B7F8C63010335B0007F1C80289
:103D8000134433F8BA3C78681946FFF79FFE0346A0
:103D90001A4607F1C803234403F8142CB7F8C630B9
:103DA0000133A7F8C630B7F8C6300F2BD6D9002399
:103DB000A7F8C6302BE0B7F8C63007F1C8021344A5
:103DC00013F8143CFF2B1DD0B7F8C4300133A7F80B
:103DD000C430BB8DB7F8C4209A4200D91BE0B7F8B5
:103DE000C63007F1C802134413F8142CB7F8C430D6
:103DF000DBB24FF40050C4F2010011461A4607230B
:103E0000FFF758FDB7F8C6300133A7F8C630B7F84A
:103E1000C6300F2BCFD94FF40050C4F2010001215E
:103E2000FFF738FE4FF40050C4F201000121FFF704
:103E300025FD4FF40050C4F20100FFF7FFFDCC3721
:103E4000BD4690BD80B483B000AF0346FB80FA88C6
:103E500040F2BC13C2F2000333F812301BB2184612
:103E60000C37BD465DF8047B704700BF80B582B05B
:103E700000AF786078684FF44041C4F279410AF0AD
:103E800001FA0346002B12D04FF48060C4F2020006
:103E9000042100F079FC4FF48050C4F202004FF48A
:103EA000806100F071FC4FF000037B6046E07868B1
:103EB0004FF000010AF00EFA0346002B0FD04FF42A
:103EC0008060C4F20200042100F050FC4FF48050E6
:103ED000C4F202004FF4806100F056FC2EE07868D6
:103EE0004FF000010AF0D8F90346002B0FD04FF431
:103EF0008060C4F20200042100F046FC4FF48050C0
:103F0000C4F202004FF4806100F030FC16E07868E3
:103F10004FF000010AF0B6F90346002B0ED04FF423
:103F20008060C4F20200042100F02EFC4FF48050A7
:103F3000C4F202004FF4806100F026FC7B6823F09D
:103F400000434FF00000C4F2C8204FF000011A46B1
:103F500002F0CCFB78604FF00000C4F2C820796812
:103F600009F0F2FE034618464FF00001C4F2C821E2
:103F70000AF0A8F803460020C4F2010001211A4605
:103F8000FCF702F90837BD4680BD00BF80B582B09E
:103F900000AF786078684FF44041C4F279410AF08C
:103FA00071F90346002B13D04FF48060C4F2020075
:103FB0004FF4805100F0E8FB4FF48060C4F202003F
:103FC0004FF4806100F0E0FB4FF000037B604DE0B8
:103FD00078684FF000010AF07DF90346002B10D0FD
:103FE0004FF48060C4F202004FF4805100F0BEFB39
:103FF0004FF48060C4F202004FF4806100F0C4FB13
:1040000034E078684FF000010AF046F90346002BCF
:1040100014D04FF48060C4F202004FF4805100F0DD
:10402000B3FB4FF48060C4F202004FF4806100F0F3
:104030009DFB7B6883F000437B6017E078684FF05E
:1040400000010AF01FF90346002B0FD04FF48060E7
:10405000C4F202004FF4805100F096FB4FF48060F0
:10406000C4F202004FF4806100F08EFB7B6823F005
:1040700000434FF00000C4F2C8204FF000011A4680
:1040800002F034FB78604FF00000C4F2C820796879
:1040900009F05AFE034618464FF00001C4F2C82149
:1040A0000AF010F803460020C4F2010004211A4669
:1040B000FCF76AF80837BD4680BD00BF80B582B006
:1040C00000AF786078684FF44041C4F279410AF05B
:1040D000D9F80346002B12D04FF48050C4F20200EE
:1040E000102100F051FB4FF48050C4F202004FF455
:1040F000007100F049FB4FF000037B604AE07868F4
:104100004FF000010AF0E6F80346002B0FD04FF401
:104110008050C4F20200102100F028FB4FF48050C0
:10412000C4F202004FF4007100F02EFB32E0786818
:104130004FF000010AF0B0F80346002B13D04FF403
:104140008050C4F20200102100F01EFB4FF480509A
:10415000C4F202004FF4007100F008FB7B6883F0AA
:1041600000437B6016E078684FF000010AF08AF89F
:104170000346002B0ED04FF48050C4F202001021F1
:1041800000F002FB4FF48050C4F202004FF40071C3
:1041900000F0FAFA7B6823F000434FF00000C4F20D
:1041A000C8204FF000011A4602F0A0FA78604FF0E4
:1041B0000000C4F2C820796809F0C6FD034618461D
:1041C0004FF00001C4F2C82109F07CFF0346002033
:1041D000C4F2010002211A46FBF7D6FF0837BD469C
:1041E00080BD00BF80B582B000AF786078684FF4C2
:1041F0004041C4F279410AF045F80346002B13D040
:104200004FF48050C4F202004FF4004100F0BCFAB9
:104210004FF44060C4F202004FF4805100F0B4FA51
:104220004FF000037B604DE078684FF000010AF02A
:1042300051F80346002B10D04FF48050C4F2020016
:104240004FF4004100F092FA4FF44060C4F20200D3
:104250004FF4805100F098FA34E078684FF0000194
:104260000AF01AF80346002B14D04FF48050C4F221
:1042700002004FF4004100F087FA4FF44060C4F2AE
:1042800002004FF4805100F071FA7B6883F0004324
:104290007B6017E078684FF0000109F0F3FF0346F8
:1042A000002B0FD04FF48050C4F202004FF40041B5
:1042B00000F06AFA4FF44060C4F202004FF48051FB
:1042C00000F062FA7B6823F000434FF00000C4F274
:1042D000C8204FF000011A4602F008FA78604FF04B
:1042E0000000C4F2C820796809F02EFD0346184684
:1042F0004FF00001C4F2C82109F0E4FE034600209B
:10430000C4F2010003211A46FBF73EFF0837BD4601
:1043100080BD00BF80B584B000AFF860B9607A603E
:10432000F868FFF7A3FDB868FFF730FE7868FFF77D
:10433000C5FE1037BD4680BD80B500AF4FF480503C
:10434000C4F20200102100F01FFA4FF48050C4F2B2
:1043500002004FF4007100F017FA4FF48060C4F2CD
:1043600002004FF4805100F00FFA4FF48060C4F265
:1043700002004FF4806100F007FA4FF48060C4F24D
:104380000200042100F000FA4FF48050C4F2020051
:104390004FF4806100F0F8F94FF48050C4F202004D
:1043A0004FF4004100F0F0F94FF44060C4F2020015
:1043B0004FF4805100F0E8F980BD00BF80B483B0B5
:1043C00000AF03463960FB7197F90730002B0EDA16
:1043D0004FF46D43CEF20003FA7902F00F02111F81
:1043E0003A68D2B21201D2B20B441A760CE04FF402
:1043F0006143CEF2000397F907103A68D2B2120176
:10440000D2B20B4483F800230C37BD465DF8047B21
:10441000704700BF80B582B000AF78607B68B3F1B1
:10442000807F01D301231AE04EF21003CEF2000385
:104430007A6822F07F42013A5A604FF0FF300F2134
:10444000FFF7BCFF4EF21003CEF2000300229A6089
:104450004EF21003CEF2000307221A600023184622
:104460000837BD4680BD00BF80B400AF40F2CC131A
:10447000C2F200031B685A1C40F2CC13C2F20003C4
:104480001A6040F2D413C2F200031B685A1C40F2B7
:10449000D413C2F200031A6040F2D013C2F2000338
:1044A0001B685A1C40F2D013C2F200031A60BD46CA
:1044B0005DF8047B704700BF80B582B000AF7860C4
:1044C00000F0FEF94FF0FF300121FFF777FF40F2D7
:1044D0004003C2F200031B68184609F0E7FC0346DC
:1044E0001846796809F03AFD0346184609F022FF9C
:1044F00003461846FFF78EFF0837BD4680BD00BF54
:1045000080B500AF40F2D813C2F200031B685A1CFA
:1045100040F2D813C2F200031A604FF0804001212C
:1045200005F0E6F980BD00BF80B483B000AF7860CD
:104530007B68002B05D140F2CC13C2F200031B684C
:104540001BE07B68012B05D140F2D013C2F20003BF
:104550001B6812E07B68022B05D140F2D813C2F22F
:1045600000031B6809E07B68032B05D140F2D413DC
:10457000C2F200031B6800E0002318460C37BD465A
:104580005DF8047B704700BF80B483B000AF7860F3
:104590007B68002B06D140F2CC13C2F2000300224C
:1045A0001A601CE07B68012B06D140F2D013C2F2E6
:1045B000000300221A6012E07B68022B06D140F251
:1045C000D813C2F2000300221A6008E07B68032BB4
:1045D00005D140F2D413C2F2000300221A600C3756
:1045E000BD465DF8047B704780B487B000AF78604B
:1045F000396000237B6100233B610023FB600023C3
:104600007B6176E07B69012202FA03F33B613B6840
:104610001A683B691340FB60FA683B699A4265D1AE
:104620007B681A687B695B00032101FA03F3DB43B3
:104630001A407B681A607B681A683B681B791946C8
:104640007B695B0001FA03F31A437B681A603B68DD
:104650001B79012B03D03B681B79022B2ED17B6881
:104660009A687B695B00032101FA03F3DB431A407C
:104670007B689A607B689A683B685B7919467B69BE
:104680005B0001FA03F31A437B689A607B685A68FF
:104690007B699BB2012101FA03F3DB431A407B687B
:1046A0005A607B685A683B689B7919467B699BB264
:1046B00001FA03F39BB21A437B685A607B68DA689D
:1046C0007B699BB25B00032101FA03F3DB431A40D1
:1046D0007B68DA607B68DA683B68DB7919467B695E
:1046E0005B0001FA03F31A437B68DA607B690133EC
:1046F0007B617B690F2B85D91C37BD465DF8047B38
:10470000704700BF80B483B000AF78607B684FF61D
:10471000FF721A607B6800221A717B6800225A714E
:104720007B6800229A717B680022DA710C37BD46E3
:104730005DF8047B704700BF80B485B000AF78603F
:104740000B467B800023FB737B681A697B881340D0
:10475000002B02D00123FB7301E00023FB73FB7BE2
:1047600018461437BD465DF8047B704780B483B0AB
:1047700000AF78600B467B807B687A881A830C37A1
:10478000BD465DF8047B704780B483B000AF7860AD
:104790000B467B807B687A885A830C37BD465DF870
:1047A000047B704780B485B000AF786013460A463A
:1047B0007A807B700023FB600023BB607A787B8863
:1047C00003F007039B0002FA03F3FB607B88DB081E
:1047D0009BB21A467B88DB089BB219467B6808317E
:1047E00053F821107B8803F007039B000F2000FA89
:1047F00003F3DB4319407B68083243F822107B88BF
:10480000DB089BB21A467B68083253F82220FB680B
:104810001343BB607B88DB089BB21A467B68083277
:10482000B96843F822101437BD465DF8047B704721
:1048300080B500AF4FF46053C4F202034FF46052EE
:10484000C4F20202126842F001021A604FF460538F
:10485000C4F2020300229A604FF46053C4F20203D0
:104860004FF46052C4F20202126822F0847222F401
:1048700080321A604FF46053C4F2020343F2100214
:10488000C2F200425A604FF46053C4F202034FF484
:104890006052C4F20202126822F480221A604FF4BD
:1048A0006053C4F202030022DA6000F0B3F84FF460
:1048B0006D43CEF200034FF000629A6080BD00BFEE
:1048C00080B487B000AF00233B6100237B610223EB
:1048D000FB600023BB6002237B604FF46053C4F293
:1048E00002039B6803F00C033B613B69042B0DD072
:1048F000082B15D0002B63D140F24003C2F2000315
:104900004FF41052C0F2F4021A6063E040F2400328
:10491000C2F200034FF49052C0F27A021A6059E0DA
:104920004FF46053C4F202035B6803F480039B0DF1
:10493000BB604FF46053C4F202035B6803F03F03B3
:104940007B60BB68002B13D04FF49053C0F27A0306
:104950007A68B3FBF2F24FF46053C4F20203596871
:1049600047F6C0730B409B0903FB02F37B6112E027
:104970004FF41053C0F2F4037A68B3FBF2F24FF431
:104980006053C4F20203596847F6C0730B409B0999
:1049900003FB02F37B614FF46053C4F202035B68D4
:1049A00003F440331B0C01335B00FB607A69FB6846
:1049B000B2FBF3F240F24003C2F200031A6009E0D6
:1049C00040F24003C2F200034FF41052C0F2F4026E
:1049D0001A6000BF4FF46053C4F202039B6803F0F7
:1049E000F0031A0940F24403C2F200039B5CDBB2FD
:1049F0003B6140F24003C2F200031A683B69DA40AF
:104A000040F24003C2F200031A601C37BD465DF855
:104A1000047B704780B483B000AF00237B60002329
:104A20003B604FF46053C4F202034FF46052C4F28F
:104A30000202126842F480321A604FF46053C4F2EA
:104A400002031B6803F400333B607B6801337B6027
:104A50003B68002B03D17B68B3F5A06FEDD14FF419
:104A60006053C4F202031B6803F40033002B02D02E
:104A700001233B6001E000233B603B68012B40F0D9
:104A800082804FF46053C4F202034FF46052C4F2C8
:104A90000202126C42F080521A644FF4E043C4F2F6
:104AA00000034FF4E042C4F20002126842F4804274
:104AB0001A604FF46053C4F202034FF46052C4F220
:104AC000020292689A604FF46053C4F202034FF4FA
:104AD0006052C4F20202926842F400429A604FF4BB
:104AE0006053C4F202034FF46052C4F202029268AF
:104AF00042F4A0529A604FF46053C4F2020345F2AC
:104B00000842C0F240725A604FF46053C4F202038C
:104B10004FF46052C4F20202126842F080721A60CE
:104B200000BF4FF46053C4F202031B6803F000732C
:104B3000002BF6D04FF47053C4F2020340F205622A
:104B40001A604FF46053C4F202034FF46052C4F28F
:104B50000202926822F003029A604FF46053C4F29A
:104B600002034FF46052C4F20202926842F0020261
:104B70009A6000BF4FF46053C4F202039B6803F0D5
:104B80000C03082BF6D10C37BD465DF8047B70474B
:104B900080B483B000AF78607B681B6823F00102AB
:104BA0007B681A607B6800221A607B6800225A606A
:104BB0007B6800229A607B680022DA607B680022B2
:104BC0001A617B6821225A617A6846F21003C4F2A6
:104BD00002039A4206D14FF4C043C4F202033D22BD
:104BE0009A60E6E07A6846F22803C4F202039A4229
:104BF00007D14FF4C043C4F202034FF474629A60C9
:104C0000D7E07A6846F24003C4F202039A4207D121
:104C10004FF4C043C4F202034FF474129A60C8E028
:104C20007A6846F25803C4F202039A4207D14FF45D
:104C3000C043C4F202034FF074629A60B9E07A682C
:104C400046F27003C4F202039A4208D14FF4C04303
:104C5000C4F202033D22C2F20002DA60A9E07A68DF
:104C600046F28803C4F202039A4209D14FF4C043CA
:104C7000C4F202034FF47462C2F20002DA6098E0F8
:104C80007A6846F2A003C4F202039A4208D14FF4B4
:104C9000C043C4F202030022C2F23D02DA6088E09F
:104CA0007A6846F2B803C4F202039A4207D14FF47D
:104CB000C043C4F202034FF03D52DA6079E07A68F3
:104CC00046F21043C4F202039A4206D14FF4C8439D
:104CD000C4F202033D229A606BE07A6846F22843F0
:104CE000C4F202039A4207D14FF4C843C4F202034C
:104CF0004FF474629A605CE07A6846F24043C4F212
:104D000002039A4207D14FF4C843C4F202034FF49E
:104D100074129A604DE07A6846F25843C4F2020376
:104D20009A4207D14FF4C843C4F202034FF07462B1
:104D30009A603EE07A6846F27043C4F202039A42F7
:104D400008D14FF4C843C4F202033D22C2F200026C
:104D5000DA602EE07A6846F28843C4F202039A428F
:104D600009D14FF4C843C4F202034FF47462C2F293
:104D70000002DA601DE07A6846F2A043C4F2020342
:104D80009A4208D14FF4C843C4F202030022C2F28F
:104D90003D02DA600DE07A6846F2B843C4F20203DD
:104DA0009A4206D14FF4C843C4F202034FF03D5279
:104DB000DA600C37BD465DF8047B704780B485B07F
:104DC00000AF786039600023FB607B681B68FB6084
:104DD000FA6848F23F03CFF21C031340FB603B68C4
:104DE0001A683B68DB681A433B685B691A433B6897
:104DF0009B691A433B68DB691A433B681B6A1A4389
:104E00003B685B6A1A433B689B6A1A433B685B6B6F
:104E10001A433B689B6B1343FA681343FB607B6840
:104E2000FA681A607B685B69FB60FB6823F0070324
:104E3000FB603B68DA6A3B681B6B1343FA681343F9
:104E4000FB607B68FA685A613B681A697B685A6044
:104E50003B685A687B689A603B689A687B68DA604E
:104E60001437BD465DF8047B704700BF80B483B043
:104E700000AF78607B6800221A607B6800225A606D
:104E80007B6800229A607B680022DA607B680022DF
:104E90001A617B6800225A617B6800229A617B68F4
:104EA0000022DA617B6800221A627B6800225A6263
:104EB0007B6800229A627B680022DA627B680022AB
:104EC0001A637B6800225A637B6800229A630C375E
:104ED000BD465DF8047B704780B483B000AF786056
:104EE0000B46FB70FB78002B06D07B681B6843F0F9
:104EF00001027B681A6005E07B681B6823F00102F1
:104F00007B681A600C37BD465DF8047B704700BFB4
:104F100080B485B000AF78600023FB607A681346E8
:104F20001B019B1ADB001A4644F62513C2F292437A
:104F3000A3FB0213D21A520813449B08BB60FB6800
:104F40000133FB60FA68BB689A4200D900E0F6E7DB
:104F50001437BD465DF8047B704700BF00000000B9
:104F6000B0B582B000AF78603960052003F030FA48
:104F700002467B681A61062003F02AFA02467B6823
:104F80005A61032003F024FA02467B689A600420E9
:104F900003F01EFA02467B68DA607B689B6818465D
:104FA0004FF0000109F06EF90346002B20D07B681A
:104FB000DB6818464FF0000109F064F90346002B46
:104FC00016D07B681B6918464FF0000109F05AF9AA
:104FD0000346002B0CD07B685B6918464FF000013C
:104FE00009F050F90346002B02D0FEF717FBB8E199
:104FF0007B689B6818464FF00001CBF6807109F082
:1050000041F90346002B38D07B68DB6818464FF027
:105010000001CBF6807109F035F90346002B2CD046
:105020007B681B6918464FF00001CBF6807109F0D0
:1050300029F90346002B20D07B685B6918464FF0A6
:105040000001CBF6807109F01DF90346002B14D046
:105050004FF44060C4F202004FF48041FFF786FB3A
:105060007B684FF47052C4F21C621A607B684FF484
:105070007052C4F21C625A6073E17B681B69184667
:105080004FF00001CBF6807109F0FCF80346002BCD
:1050900000F0A4807B685B6918464FF00001CBF6F6
:1050A000807109F0EFF80346002B00F097804FF471
:1050B0004060C4F202004FF48041FFF757FB7B6869
:1050C000DB6818464FF00001C4F2C00108F0FAFF97
:1050D0000346184608F0AEFA02460B46A2A1D1E9F3
:1050E000000108F047F902460B461046194608F041
:1050F000D7FD0346184608F09DFA02460B461046B7
:1051000019469BA3D3E9002308F0E8FA02460B46B0
:105110001046194604F08CFC02460B461046194610
:105120004FF000024FF40043C4F25B0308F0D6FADC
:1051300002460B46104619468FA3D3E9002308F018
:105140001BF902460B461046194608F0A9FD024617
:105150007B681A607B689B68184608F06BFA024609
:105160000B464FF000004FF00001C4F2640108F05C
:1051700001F902460B46104619464FF000024FF067
:105180000003C4F2740308F0D3FB02460B46144636
:105190001D467B681B6818464FF0804108F092FF5F
:1051A0000346184608F046FA02460B4620462946B2
:1051B00008F094FA02460B46104619464FF00002DA
:1051C0004FF0000308F0D8F802460B461046194687
:1051D00008F066FD02467B685A60C2E07B689B6807
:1051E00018464FF00001CBF6807109F04BF80346EA
:1051F000002B20D07B68DB6818464FF00001CBF60F
:10520000807109F03FF80346002B14D04FF4406042
:10521000C4F202004FF48041FFF7A8FA7B684FF414
:105220006042C4F20A621A607B684FF46042C4F2C2
:105230000A625A6095E04FF44060C4F202004FF4F5
:105240008041FFF793FA7B68DB6818464FF0000156
:10525000C4F2C00108F036FF0346184608F0EAF928
:1052600002460B4640A1D1E9000108F083F802464E
:105270000B461046194608F013FD0346184608F081
:10528000D9F902460B461046194639A3D3E9002343
:1052900008F024FA02460B461046194604F0C8FBF3
:1052A00002460B46104619464FF000024FF40043E9
:1052B000C4F25B0308F012FA02460B461046194688
:1052C0002DA3D3E9002308F057F802460B461046F9
:1052D000194608F0E5FC02467B681A607B689B680B
:1052E000184608F0A7F902460B464FF000004FF0B1
:1052F0000001C4F2640108F03DF802460B46104676
:1053000019464FF000024FF00003C4F2640308F0A6
:105310000FFB02460B4614461D467B681B68184669
:105320004FF0804108F0CEFE0346184608F082F99F
:1053300002460B462046294608F0D0F902460B46A5
:10534000104619464FF000024FF0000308F014F821
:1053500002460B461046194608F0A2FC02467B683E
:105360005A600837BD46B0BD0000000000C0524082
:10537000113444A246DF913F0000000000C05740B6
:1053800080B584B000AF786039600023FB733B6860
:105390005B78092B39D801A252F823F0ED530008AD
:1053A000015400080B540008F75300080B54000880
:1053B000CF530008C55300080B540008E3530008FE
:1053C000D95300087868396800F042F922E078681B
:1053D000396800F019FA1DE07868396800F052FA6F
:1053E00018E07868396800F0E5FA13E07868396801
:1053F00000F010FB0EE07868396800F039FB09E036
:105400007868396800F09AFB04E07868396800F041
:1054100003FC00BFFB7B18461037BD4680BD00BFB4
:1054200080B584B000AF786039600023FB737B687F
:1054300093F81231032B1CD13B689B88DBB2012B04
:1054400011D87B68D3F8E0359B687868396898474D
:105450003B68DB88002B0BD1FB7B002B08D17868E5
:1054600003F010FE0AE07868396800F0D5FB05E02B
:1054700004E07868396800F0CFFB00BFFB7B18467A
:105480001037BD4680BD00BF80B584B000AF7860E6
:1054900039600023FB733B689B88BB733B685B7878
:1054A000012B39D0032B02D0002B6BD0CBE07B68D3
:1054B00093F81231022B02D0032B0DD026E0BB7BD8
:1054C000002B08D0BB7B802B05D0BB7B78681946AE
:1054D00003F0FEFC1FE01EE03B685B88002B0AD156
:1054E000BB7B002B07D0BB7B802B04D0BB7B7868B9
:1054F000194603F0EDFC7B68D3F8E0359B687868CB
:1055000039689847786803F0BDFD04E07868396829
:1055100000F082FB00BF96E07B6893F81231022B0B
:1055200002D0032B0DD027E0BB7B002B08D0BB7B28
:10553000802B05D0BB7B7868194603F0C9FC20E0BE
:105540001FE03B685B88002B15D1BB7B002B0ED086
:10555000BB7B802B0BD0BB7B7868194603F0F2FC39
:105560007B68D3F8E0359B68786839689847786835
:1055700003F088FD05E004E07868396800F04CFB32
:1055800000BF60E07B6893F81231022B02D0032B3E
:105590000DD052E0BB7B002B08D0BB7B802B05D00D
:1055A000BB7B7868194603F093FC4BE04AE0BB7B79
:1055B0005BB2002B1BDABB7B03F07F0279681346DA
:1055C0009B001344DB000B4403F58C739B78002B8A
:1055D00006D040F2DC13C2F2000301221A6023E07D
:1055E00040F2DC13C2F2000300221A601CE0BB7B15
:1055F0005BB2002B18DBBA7B796813469B0013441F
:10560000DB000B4403F55C739B78002B06D040F263
:10561000DC13C2F2000301221A6005E040F2DC1341
:10562000C2F2000300221A60786840F2DC11C2F274
:105630000001022203F0DEFC04E07868396800F023
:10564000EBFA00BF00BFFB7B18461037BD4680BD9C
:1056500080B584B000AF786039603B685B881B0A16
:105660009BB2013B062B00F2B18001A252F823F05D
:105670008D560008BF560008E9560008CD570008AF
:10568000CD570008B9570008C35700087B68D3F806
:10569000E8351B687A68917807F10A0208461146D6
:1056A0009847F8603B68DB88402B04D07B6893F810
:1056B0001231012B02D108237B818CE08BE07B68C7
:1056C000D3F8E0359B6A7A68917807F10A020846B8
:1056D00011469847F860FB68013302221A707B6814
:1056E000FA68C3F8EC2576E03B685B88DBB2052BF3
:1056F0005CD801A252F823F0115700082B5700087C
:10570000455700085F57000879570008935700086D
:105710007B68D3F8E8355B687A68917807F10A020C
:10572000084611469847F86045E07B68D3F8E835AD
:105730009B687A68917807F10A02084611469847F3
:10574000F86038E07B68D3F8E835DB687A689178F0
:1057500007F10A02084611469847F8602BE07B687B
:10576000D3F8E8351B697A68917807F10A02084690
:1057700011469847F8601EE07B68D3F8E8355B690E
:105780007A68917807F10A02084611469847F8604E
:1057900011E07B68D3F8E8359B697A68917807F166
:1057A0000A02084611469847F86004E078683968AC
:1057B00000F032FA24E00EE07868396800F02CFA44
:1057C0001EE07868396800F027FA19E078683968CF
:1057D00000F022FA14E07B89002B11D03B68DB88B3
:1057E000002B0DD03B68DA887B899A4238BF13467C
:1057F0009BB27B817B897868F9681A4603F0FAFBD3
:105800001037BD4680BD00BF80B584B000AF786062
:1058100039603B689B88002B2DD13B68DB88002BCF
:1058200029D13B685B88DBB203F07F03FB737B68A5
:1058300093F81231032B04D17868396800F0ECF941
:1058400018E07B68FA7B83F81321FB7B78681946A4
:1058500003F0B2FB786803F015FCFB7B002B04D04F
:105860007B68022283F8122104E07B68012283F81E
:10587000122104E003E07868396800F0CDF91037B0
:10588000BD4680BD80B582B000AF786039603B68AE
:105890005B88DAB240F2E813C2F200031A7040F2F9
:1058A000E813C2F200031B78012B04D97868396829
:1058B00000F0B2F97BE07B6893F81231022B02D042
:1058C000032B24D06EE040F2E813C2F200031B78F1
:1058D000002B18D040F2E813C2F200031A787B685C
:1058E00083F810217B68032283F8122140F2E81329
:1058F000C2F200031B7878681946FCF735FB78681C
:1059000003F0C0FB53E0786803F0BCFB4FE040F2CB
:10591000E813C2F200031B78002B18D17B68022227
:1059200083F8122140F2E813C2F200031A787B6870
:1059300083F8102140F2E813C2F200031B78786864
:105940001946FCF729FB786803F09CFB29E07B688B
:1059500093F8102140F2E813C2F200031B789A4238
:105960001BD07B6893F8103178681946FCF714FB5C
:1059700040F2E813C2F200031A787B6883F8102122
:1059800040F2E813C2F200031B7878681946FCF76E
:10599000EBFA786803F076FB03E0786803F072FBBB
:1059A00005E004E07868396800F036F900BF083790
:1059B000BD4680BD80B582B000AF786039603B687D
:1059C000DB88012B04D07868396800F025F91EE0E7
:1059D0007B6893F81231022B02D0032B09D011E01F
:1059E000786840F2E011C2F20001012203F002FBEC
:1059F0000DE07B6803F5887378681946012203F08F
:105A0000F9FA04E07868396800F006F900BF083751
:105A1000BD4680BD80B582B000AF786039607B68DC
:105A200093F81231023B012B1AD87B68D3F814315A
:105A3000002B06D040F2E413C2F2000303221A60E6
:105A400005E040F2E413C2F2000301221A60786814
:105A500040F2E411C2F20001012203F0CBFA04E0AB
:105A60007868396800F0D8F800BF0837BD4680BDB7
:105A700080B584B000AF786039600023FB733B6869
:105A80005B88012B0ED17B680122C3F814217B684F
:105A9000D3F8E0359B68786839689847786803F0F0
:105AA000F1FA48E03B685B88022B44D13B689B8855
:105AB000DBB2002B3FD17B681B695B68BB603B6836
:105AC0009B881B0A9BB2FB73FB7B013B042B2BD8EF
:105AD00001A252F823F000BFED5A0008F95A00085D
