:020000040800F2
:10000000A0100020C11300082510000831100008BE
:100010003D100008491000085510000800000000BD
:100020000000000000000000000000006110000857
:100030006D1000080000000079100008DD1B0008AA
:1000400021140008211400082114000821140008BC
:1000500021140008211400082114000821140008AC
:10006000211400082114000821140008211400089C
:10007000211400082114000821140008211400088C
:10008000211400082114000821140008211400087C
:10009000211400082114000821140008211400086C
:1000A00021140008DD1000082114000821140008A4
:1000B000751C000841110008AD110008211400084A
:1000C000211400082114000821140008211400083C
:1000D00021140008094000081540000821400008CC
:1000E00021140008211400089910000821140008A8
:1000F00085120008211400082114000821140008AA
:100100002114000821140008191200082114000805
:1001100021140008211400082114000821140008EB
:1001200021140008211400082114000821140008DB
:1001300021140008211400082114000821140008CB
:10014000211400082114000821140008851000085B
:1001500021140008211400082114000821140008AB
:10016000211400082114000821140008211400089B
:10017000211400082114000821140008211400088B
:10018000211400082114000880B584B000AFF86085
:100190000B467A60FB72FB7A013B032B52D801A21B
:1001A00052F823F0B5010008D9010008FD0100084C
:1001B00021020008FB68DB6A184606F063F9034673
:1001C0001846796806F0B6F90346184606F078FB3B
:1001D0000246FB685A6336E0FB68DB6A184606F0A5
:1001E00051F903461846796806F0A4F90346184603
:1001F00006F066FB0246FB689A6324E0FB68DB6A54
:10020000184606F03FF903461846796806F092F959
:100210000346184606F054FB0246FB68DA6312E018
:10022000FB68DB6A184606F02DF903461846796824
:1002300006F080F90346184606F042FB0246FB68CA
:100240001A6400E000BF1037BD4680BD90B5ADB068
:1002500002AFF860B9603B601346FB800023C7F82B
:10026000A4300023C7F8A0300023C7F89C30012336
:10027000C7F898300023A7F8963001F0B3FE07F1D5
:100280004403184601F008FBFB68B3F1804F06D326
:10029000FA684FF4A053C4F200039A420DD9FA68E9
:1002A00041F2FF73C4F200039A4217D9FA684FF47F
:1002B0000053C4F200039A4210D8FA6C4FF4605312
:1002C000C4F20203D3F88C301B0E03F00103013398
:1002D00003FB02F35B00C7F8A4300FE03A6D4FF464
:1002E0006053C4F20203D3F88C301B0E03F00103F9
:1002F000013303FB02F35B00C7F8A4303B68002B1B
:100300000DDDD7F8A42048F21F53C5F2EB1383FB91
:1003100002135911D317CA1A3B689A4201DA012312
:10032000F4E01FE0D7F8A0300133C7F8A030D7F8C9
:10033000A420D7F8A03092FBF3F23B6892FBF3F3D2
:10034000C7F89C30D7F89C30B3F5803F02DA002321
:10035000C7F89830D7F8A0204FF6FE739A4201DD17
:100360000123D3E0D7F89830002BDBD1D7F8A420B5
:10037000D7F8A03092FBF3F2D7F89C3092FBF3F35E
:100380003B60F86803F066FAFB88002200920220C6
:10039000B9681A46002300F0B9FDD7F89C30013B3C
:1003A000FB63D7F8A0309BB2013B9BB23B87002395
:1003B000A7F8403000237B87002387F8423007F1FD
:1003C0003803F868194603F031FE6023BB8400232C
:1003D0003B8608237B860123FB8404233B854FF463
:1003E0008073BB864FF40073FB8607F12403F86823
:1003F000194603F0D1FEF868002104F0BDF807F1BA
:100400002403F868194603F041FFF868002104F05E
:10041000CFF807F12403F868194603F0BFFFF86826
:10042000002104F0E3F807F12403F868194604F00A
:100430003BF8F868002104F0F5F8FA680023C4F2EC
:1004400001039A4206D0FA684FF48063C4F20103B4
:100450009A4211D107F11403184604F029F94FF418
:1004600080433B8407F11403F868194604F0F8F858
:10047000F868012104F03AF9FA8807F154031046AC
:10048000194603F033F90023A7F8963025E0B7F8B2
:1004900096305B0007F1A802134433F8543C012B5B
:1004A00016D1B7F8963010335B0007F1A8010B4462
:1004B00033F8523C184603F0FBFA03461C46F86832
:1004C00003F06CFB0346B86821461A4601F0FCFCB9
:1004D000B7F896300133A7F89630B7F896300F2B5F
:1004E000D5D9FB6800225A63FB6800229A63FB6837
:1004F0000022DA63FB6800221A64F868012103F025
:100500000BFEF868012103F027FE00231846AC37E4
:10051000BD4690BD80B489B000AFF860B960FA7193
:10052000BB800023FB76FB68DB78002B23D1002304
:100530007B610023FB61BB880333DA1C002BB8BF4F
:1005400013469B107B61FB79FA6832339B0013449E
:100550009B683B610023FB6109E0BB681A683B694B
:100560001A60FB690133FB61BB680433BB60FA6945
:100570007B699A42F1D3FB7E18462437BD465DF86D
:10058000047B704780B489B000AFF860B96013464F
:10059000FB800023FB61FB880333DA1C002BB8BF10
:1005A00013469B10BB61FB68D3F8D0307B610023FE
:1005B000FB6109E07B691A68BB681A60FB6901335B
:1005C000FB61BB680433BB60FA69BB699A42F1D333
:1005D000BB6818462437BD465DF8047B704700BFF2
:1005E00080B586B000AF786039600023FB740023CB
:1005F0007B610023FB60FB6843F02003FB603B68EA
:10060000DBB203F01F03DAB2FB6862F38A13FB600C
:100610007B68DB68FA681A617B68DB681B69FB60D2
:100620007B6901337B617A694FF45463C0F2030341
:100630009A4200D905E0FB68C3F34013DBB2012BFB
:10064000EAD0032001F036FEFB7C18461837BD4681
:1006500080BD00BF80B483B000AF78607B68DB688A
:100660005B6903F0010318460C37BD465DF8047B57
:10067000704700BF80B582B000AF78607868FFF740
:10068000E9FF0346012B0CBF00230123DBB2184610
:100690000837BD4680BD00BF80B485B000AF78602C
:1006A0000023FB607B68DB685B69FB607B68DB6861
:1006B0009B69FA681340FB60FB6818461437BD4617
:1006C0005DF8047B704700BF80B485B000AF7860F0
:1006D0000023FB737B681B699B68BB603B7AC3F399
:1006E0004103DBB2022B09D0032B04D0012B02D033
:1006F0000323FB7305E00223FB7302E00123FB737A
:1007000000BFFB7B18461437BD465DF8047B70477D
:1007100080B487B000AF78600023FB750023BB6016
:100720007B681B699B683B617B689B691B68FB60FE
:100730003B7CC3F34103DBB2022B04D0BB896FF3D4
:100740000A03BB8105E0BB89032262F30A03BB8174
:1007500000BF7B689B69FA681A607B7A43F00103EB
:100760007B727B681B697A6812695168BA68D243E8
:100770001140BA680A435A60FB7D18461C37BD46D3
:100780005DF8047B704700BF80B487B000AF78602D
:1007900039600023FB740023FB600023BB603B68CF
:1007A0005B78012B0FD13B681B787A6804339B0080
:1007B00013449B687B613B681B78012202FA03F3B8
:1007C0009BB23B810EE03B681B787A6814339B0038
:1007D00013445B687B613B681B78012202FA03F3D8
:1007E0009BB27B817B691B68FB607B7BC3F3C0137F
:1007F000DBB2002B27D13B689B689BB2C3F30A0393
:100800009AB2BB8962F30A03BB813B68DB7803F0D1
:100810000303DAB2BB7B62F38303BB733B68DB8801
:10082000DBB203F00F03DAB2FB8962F38913FB81B9
:10083000FB7B43F01003FB737B7B43F080037B73F4
:10084000FA687B691A607B681B697A681269D169EA
:10085000BA680A43DA61FB7C18461C37BD465DF86E
:10086000047B704780B588B000AF786039600023A2
:10087000FB770023BB6100237B6100233B613B6866
:100880005B78012B40F0AB803B681B787A680433BF
:100890009B0013449B681B687B613B681B787A68EC
:1008A00004339B0013449B681B693B613B685B6995
:1008B000002B09D13B696FF312033B617B8A012254
:1008C00062F3CC037B8222E03B685B69C3F31202D4
:1008D0003B6962F312033B613B685A693B689B6862
:1008E00013445A1E3B689B68B2FBF3F39BB2C3F3FD
:1008F00009039AB27B8A62F3CC037B823B68DB7884
:10090000012B04D1FB7C012262F34613FB743B688C
:100910001B787A6804339B0013449B683A691A6118
:100920007B68DB78012B0AD13B681B787A6804333B
:100930009B0013449B683A6812695A6115E03B6852
:10094000DB78012B11D03B685B69002B0DD03B6835
:100950001B78012202FA03F3BB617B681B697A688A
:100960001269516BBA690A435A633B68DB78012B01
:1009700014D17B681B699B68FB60FB68C3F30D2384
:100980009BB203F00103002B04D1FB7D43F0200355
:10099000FB7503E0FB7D43F01003FB75FB7D43F02B
:1009A0000403FB75FB7D43F08003FB753B681B78FC
:1009B0007A6804339B0013449B687A691A603B6829
:1009C000DB78012B40F088803B68D9683B681A7857
:1009D0003B685B699BB27868FFF79CFD7CE03B68F5
:1009E0001B787A6814339B0013445B681B687B6137
:1009F0003B681B787A6814339B0013445B681B695F
:100A00003B613B685B69002B0DD13B689B68C3F37E
:100A100012023B6962F312033B617B8A012262F39B
:100A2000CC037B821FE03B685A693B689B68134498
:100A30005A1E3B689B68B2FBF3F39BB2C3F30903F6
:100A40009AB27B8A62F3CC037B827B8AC3F3C903AD
:100A50009BB23A68926802FB03F3C3F312023B694C
:100A600062F312033B613B681B787A6814339B0086
:100A700013445B683A691A617B68DB78012B09D102
:100A80003B681B787A6814339B0013445B683A68B0
:100A900012695A613B68DB78012B0CD13B685B79AA
:100AA000002B04D0FB7D43F02003FB7503E0FB7DAE
:100AB00043F01003FB75FB7D43F00403FB75FB7DE6
:100AC00043F08003FB753B681B787A6814339B0006
:100AD00013445B687A691A60FB7F18462037BD466D
:100AE00080BD00BF80B489B000AF7860396000235A
:100AF000FB770023BB6100233B610023BB603B68A5
:100B00005B78012B6FD17B689B697B617B691B687C
:100B10003B617B691B69BB603B685B69002B09D14A
:100B20003B7A6FF306033B72BB7A012262F3C40384
:100B3000BB7223E03B685A693B689B689A420ED9B6
:100B40003B689A683B685A613B689B68DBB203F07C
:100B50007F03DAB23B7A62F306033B7209E03B683B
:100B60005B69DBB203F07F03DAB23B7A62F3060320
:100B70003B72BB7A012262F3C403BB72BA687B6921
:100B80001A617B68DB78012B09D13B681B787A6896
:100B900004339B0013449B683A6812695A61FB7CDA
:100BA00043F00403FB74FB7C43F08003FB743A695D
:100BB0007B691A607B68DB78002B75D13B685B69C9
:100BC000002B71D03B681B78012202FA03F3BA694B
:100BD0001343BB617B681B697A681269516BBA6900
:100BE0000A435A6360E03B681B787A6814339B00C1
:100BF00013445B681B683B613B681B787A6814335D
:100C00009B0013445B681B69BB603B685B69002BFE
:100C10000FD13B689B68DBB203F07F03DAB23B7A0B
:100C200062F306033B72BB7A012262F3C403BB7218
:100C300012E03B689A683B685A613B689B68DBB28C
:100C400003F07F03DAB23B7A62F306033B72BB7AAE
:100C5000012262F3C403BB723B681B787A681433C9
:100C60009B0013445B68BA681A617B68DB78012BD0
:100C700009D13B681B787A6814339B0013445B6886
:100C80003A6812695A61FB7C43F00403FB74FB7CF5
:100C900043F08003FB743B681B787A6814339B0035
:100CA00013445B683A691A60FB7F18462437BD46D7
:100CB0005DF8047B704700BF80B487B000AF7860F8
:100CC00039600023FB750023FB603B685B78012BD8
:100CD0001CD13B681B787A6804339B0013449B68E3
:100CE0003B613B691B68FB60FB7BC3F3C013DBB25A
:100CF000002B03D0FB7B43F04003FB73BB7B43F033
:100D00002003BB73FA683B691A6011E03B681B78EB
:100D10007A6814339B0013445B683B613B691B6832
:100D2000FB60BB7B43F02003BB73FA683B691A602E
:100D3000FB7D18461C37BD465DF8047B704700BF3D
:100D400080B487B000AF786039600023FB74002363
:100D5000FB603B685B78012B08D13B681B787A68A5
:100D600004339B0013449B687B6107E03B681B785E
:100D70007A6814339B0013445B687B617B691B6852
:100D8000FB60BB7B6FF34513BB733B68DB78032BC6
:100D900003D03B68DB78022B03D1FB7B43F01003CD
:100DA000FB73FA687B691A60FB7C18461C37BD46EA
:100DB0005DF8047B704700BF80B485B000AF7860F9
:100DC0007B681B699B69FB607B681B69DB69FA6850
:100DD0001340FB60FB681B0C18461437BD465DF8DA
:100DE000047B704780B485B000AF78600B46FB7021
:100DF000FB787A6814339B0013445B689B68FB6044
:100E00007B681B695B69FA681340FB60FB681846E6
:100E10001437BD465DF8047B704700BF80B485B0D1
:100E200000AF78607B681B699B69FB607B681B690E
:100E3000DB69FA681340FB60FB689BB21846143705
:100E4000BD465DF8047B704780B487B000AF786022
:100E500000233B61FB7C43F0C003FB74BB7C01229D
:100E600062F3C403BB743B7C182262F306033B7439
:100E70007B685B6D3A691A617B68DB78012B16D160
:100E80000023FB607B685B6D7A6802F5B9625A618A
:100E90007B685B6D1B68FB60FB7B43F08003FB732F
:100EA0004FF08023FB607B685B6DFA681A601C372B
:100EB000BD465DF8047B704780B485B000AF7860B4
:100EC0007B689B7A002B1BD07B681B699B68FB604F
:100ED0003B7BC3F30003DBB2012B11D17B6803F52D
:100EE00086731B68BB603B7A6FF341033B723B7AAE
:100EF0006FF300033B727B68D3F80C31BA681A6059
:100F00001437BD465DF8047B704700BF80B584B0E0
:100F100000AF39600146F971BA80BB713A680023AD
:100F2000C4F202039A4204D10120012100F088FD9D
:100F30002EE03A684FF48063C4F202039A4204D16F
:100F40000220012100F07CFD22E03A684FF40063AA
:100F5000C4F202039A4204D10420012100F070FD82
:100F600016E03A684FF44063C4F202039A4204D197
:100F70000820012100F064FD0AE03A684FF4805334
:100F8000C4F202039A4203D11020012100F058FD5F
:100F900007F10803184600F06FFFBB88BB60FB79C0
:100FA0003B733B7EBB73BB79FB7303237B7307F1FE
:100FB00008033868194600F0D1FEFB79012B04D1F3
:100FC000BB883868194600F071FF1037BD4680BDF8
:100FD00080B483B000AF0123FB8000233B6000BFDF
:100FE0003A68531C3B604AF21F13C0F207039A424F
:100FF000F6D94FF44063C4F20203FA88120392B2A6
:101000005A83FB885B00FB80FB880F2B01D90123EF
:10101000FB804FF44063C4F20203FA88120392B2D9
:101020001A83DAE780B400AFBD465DF8047B7047F1
:1010300080B500AFFFF7CCFF80BD00BF80B500AF2B
:10104000FFF7C6FF80BD00BF80B500AFFFF7C0FF50
:1010500080BD00BF80B500AFFFF7BAFF80BD00BF05
:1010600080B400AFBD465DF8047B704780B400AF2C
:10107000BD465DF8047B704780B400AFBD465DF8A7
:10108000047B704780B500AF40F2AC20C2F2000094
:1010900001F0A6FD80BD00BF80B500AF40F2AC23DB
:1010A000C2F200039B7A002B13D04EF61053CEF2FF
:1010B00000034EF61052CEF20002126822F0060231
:1010C0001A6000F047FF40F2AC20C2F20000FFF7C8
:1010D000F3FE4FF4802002F0F9FA80BD80B500AF36
:1010E0000023C4F201031B889BB21B099BB2002B97
:1010F0000BD040F25013C2F200031B685A1C40F29E
:101100005013C2F200031A6013E00023C4F201037B
:101110001B889BB21B099BB2002B0AD140F24C13D7
:10112000C2F200031B685A1C40F24C13C2F20003C7
:101130001A600020C4F20100012103F0FDFA80BD15
:1011400080B500AF4FF48063C4F200031B889BB2EC
:101150001B099BB2002B0BD040F26013C2F20003BC
:101160001B685A1C40F26013C2F200031A6014E0BC
:101170004FF48063C4F200031B889BB21B099BB22F
:10118000002B0AD140F25C13C2F200031B685A1C08
:1011900040F25C13C2F200031A604FF48060C4F2A4
:1011A0000000012103F0C8FA80BD00BF80B500AF88
:1011B0004FF40063C4F200031B889BB21B099BB26F
:1011C000002B0BD040F26813C2F200031B685A1CBC
:1011D00040F26813C2F200031A6014E04FF4006397
:1011E000C4F200031B889BB21B099BB2002B0AD1DF
:1011F00040F26413C2F200031B685A1C40F26413ED
:10120000C2F200031A604FF40060C4F20000012132
:1012100003F092FA80BD00BF80B500AF4FF4406389
:10122000C4F200031B889BB21B099BB2002B0BD09E
:1012300040F27013C2F200031B685A1C40F2701394
:10124000C2F200031A6014E04FF44063C4F20003DA
:101250001B889BB21B099BB2002B0AD140F26C1376
:10126000C2F200031B685A1C40F26C13C2F2000366
:101270001A604FF44060C4F20000012103F05CFAF0
:1012800080BD00BF80B500AF4FF48063C4F201039E
:101290001B889BB21B099BB2002B0BD040F278132A
:1012A000C2F200031B685A1C40F27813C2F200031A
:1012B0001A6014E04FF48063C4F201031B889BB2F0
:1012C0001B099BB2002B0AD140F27413C2F2000337
:1012D0001B685A1C40F27413C2F200031A604FF4E8
:1012E0008060C4F20100012103F026FA80BD00BF36
:1012F00080B483B000AF78607B689B889BB2C3F3F7
:1013000008039BB218460C37BD465DF8047B704756
:1013100080B487B000AF78600B467B800023FB6011
:1013200000237B610023BB600023FB747B88DBB25E
:101330005B09DBB2BB607B8803F01F037B617B69C9
:10134000012202FA03F37B61BB68012B06D17B68A3
:101350009B899BB27A6913407B610FE0BB68022BCB
:1013600006D17B681B8A9BB27A6913407B6105E0DA
:101370007B689B8A9BB27A6913407B617B881B0ADE
:101380009BB2FB60FB68012202FA03F3FB607B68FF
:101390001B889BB2FA681340FB607B69002B05D069
:1013A000FB68002B02D00123FB7401E00023FB74D7
:1013B000FB7C18461C37BD465DF8047B704700BFB8
:1013C00080B582B000AF46F65C13C0F600037B60C8
:1013D00040F20003C2F200033B6007E03B681A1DC5
:1013E0003A607A68111D796012681A603A6840F2B2
:1013F0004C13C2F200039A42F0D3074807494FF05A
:1014000000028842B8BF40F8042BFADB00F018FA5B
:101410000837BD4680BD00004C0100209C0800201C
:1014200080B400AFFEE700BF80B584B000AF786045
:1014300007F108037868194601F068FB3B7A03F06E
:101440001F03012B0AD0022B0FD0002B14D107F160
:1014500008037868194600F053FF16E007F1080307
:101460007868194600F09CFF0FE007F108037868E0
:10147000194600F0C9FF08E03B7A23F07F03DBB296
:101480007868194602F0B6FC00BF002318461037F2
:10149000BD4680BD80B584B000AF78600B46FB7060
:1014A000FB78002B45D17B6803F55C73FB607B68A0
:1014B00093F81131032B4FD1FB68DA69FB689B6805
:1014C0009A4221D9FB68DA69FB689B68D21AFB68EB
:1014D000DA617B68DB78012B06D1FB68DA68FB6890
:1014E0009B681A44FB68DA60FB68DA68FB689968F5
:1014F000FB68DB69994238BF0B469BB2786811469E
:101500001A4602F03DFD27E07B68D3F8E0351B6901
:10151000002B0AD07B6893F81231032B05D17B682E
:10152000D3F8E0351B6978689847786802F03CFD8D
:1015300012E07B68D3F8E0359B69002B0CD07B6808
:1015400093F81231032B07D17B68D3F8E0359B6900
:10155000FA78786811469847002318461037BD4638
:1015600080BD00BF80B584B000AF78600B46FB70D3
:10157000FB78002B60D17B6803F58C73FB607B6884
:1015800093F81131022B6AD1FB68DA69FB689B681A
:101590009A421CD9FB68DA69FB689B68D21AFB681F
:1015A000DA617B68DB78012B06D1FB68DA68FB68BF
:1015B0009B681A44FB68DA60FB68DA68FB68DB69E1
:1015C0009BB2786811461A4602F0C6FC47E0FB68F9
:1015D0001B6AFA689268B3FBF2F102FB01F29B1AF4
:1015E000002B14D1FB681A6AFB689B689A420ED3E1
:1015F000FB681A6AFB685B6A9A4208D27868002125
:10160000002202F0A9FCFB6800225A6227E07B68F6
:10161000D3F8E035DB68002B0AD07B6893F81231F1
:10162000032B05D17B68D3F8E035DB6878689847F1
:10163000786802F0D1FC12E07B68D3F8E0355B6992
:10164000002B0CD07B6893F81231032B07D17B68F9
:10165000D3F8E0355B69FA7878681146984700233B
:1016600018461037BD4680BD80B582B000AF7860A7
:10167000786800214022002302F0F2FA7868802185
:101680004022002302F0ECFA7B68012283F8122149
:101690007B68D3F8E4355B687A689278104698479F
:1016A000002318460837BD4680BD00BF80B582B014
:1016B00000AF78607B68D3F8E4351B6998477B6896
:1016C000032283F81221002318460837BD4680BD47
:1016D00080B582B000AF78607B68042283F8122165
:1016E0007B68D3F8E435DB68984700231846083751
:1016F000BD4680BD80B582B000AF78607B68D3F80E
:10170000E035DB69002B05D07B68D3F8E035DB6979
:1017100078689847002318460837BD4680BD00BF4B
:1017200080B582B000AF78600B46FB707B68D3F861
:10173000E0351B68FA787868114698477B68D3F8DB
:10174000E4359B689847002318460837BD4680BD9E
:1017500080B582B000AF78600B46FB707B68D3F831
:10176000E0355B68FA787868114698470023184698
:101770000837BD4680BD00BF80B582B000AF78603D
:101780007B68D3F8E0351B6A7868984700231846D1
:101790000837BD4680BD00BF80B582B000AF78601D
:1017A0007B68D3F8E0355B6A786898470023184671
:1017B0000837BD4680BD00BF80B582B002AF00F0E3
:1017C000C9FB41F26F20C3F6832000F02FFA0020FE
:1017D000C4F201004FF48051C4F202014FF40052F0
:1017E0003223FEF733FD0023009301204FF44061C4
:1017F000C4F202014FF440420123FFF787FBBD46CC
:1018000080BD00BF80B582B000AF7860002000F0DE
:1018100075FA002000F042FA0346184604F032FE42
:1018200003461846796805F037F80346002B00D1C7
:10183000EFE7002000F062FA00BF0837BD4680BD28
:1018400080B584B000AF0023FB600023BB607B2326
:10185000FB71FFF7B1FF0020C4F20100032145F640
:101860002942C3F60F52FEF78FFC4FF48040C4F2BA
:101870009C60FFF7C7FF0020C4F20100032149F676
:101880009A12C3F69952FEF77FFC4FF48040C4F2DF
:101890009C60FFF7B7FFDEE780B489B000AF7860E7
:1018A0000023BB6100237B610023FB6102233B61BA
:1018B0000023FB600223BB604FF46053C4F20203B9
:1018C0009B6803F00C03BB61BB69042B0AD0082B97
:1018D0000FD0002B5AD17A684FF41053C0F2F403A2
:1018E00013605AE07A684FF49053C0F27A031360A1
:1018F00053E04FF46053C4F202035B6803F48003C7
:101900009B0DFB604FF46053C4F202035B6803F06D
:101910003F03BB60FB68002B13D04FF49053C0F221
:101920007A03BA68B3FBF2F24FF46053C4F20203D5
:10193000596847F6C0730B409B0903FB02F3FB6138
:1019400012E04FF41053C0F2F403BA68B3FBF2F2A2
:101950004FF46053C4F20203596847F6C0730B405A
:101960009B0903FB02F3FB614FF46053C4F20203D3
:101970005B6803F440331B0C01335B003B61FA6985
:101980003B69B2FBF3F27B681A6006E07A684FF4B9
:101990001053C0F2F403136000BF4FF46053C4F25D
:1019A00002039B6803F0F003BB61BB691B09BB61C9
:1019B00040F23003C2F20003BA6913441B78DBB271
:1019C0007B617B681A687B69DA407B685A604FF4F8
:1019D0006053C4F202039B6803F4E053BB61BB692C
:1019E0009B0ABB6140F23003C2F20003BA691344A0
:1019F0001B78DBB27B617B685A687B69DA407B6865
:101A00009A604FF46053C4F202039B6803F460438E
:101A1000BB61BB695B0BBB6140F23003C2F20003E8
:101A2000BA6913441B78DBB27B617B685A687B69B7
:101A3000DA407B68DA602437BD465DF8047B704786
:101A400080B483B000AF78600B46FB70FB78002B4E
:101A50000CD04FF46053C4F202034FF46052C4F24E
:101A60000202116B7A680A431A630CE04FF4605368
:101A7000C4F202034FF46052C4F20202116B7A689E
:101A8000D2430A401A630C37BD465DF8047B7047A9
:101A900080B483B000AF78600B46FB70FB78002BFE
:101AA0000CD04FF46053C4F202034FF46052C4F2FE
:101AB0000202116C7A680A431A640CE04FF4605316
:101AC000C4F202034FF46052C4F20202116C7A684D
:101AD000D2430A401A640C37BD465DF8047B704758
:101AE00080B483B000AF78600B46FB70FB78002BAE
:101AF0000CD04FF46053C4F202034FF46052C4F2AE
:101B00000202516C7A680A435A640CE04FF4605345
:101B1000C4F202034FF46052C4F20202516C7A68BC
:101B2000D2430A405A640C37BD465DF8047B7047C7
:101B300080B483B000AF03463960FB7197F907307A
:101B4000002B0EDA4FF46D43CEF20003FA7902F067
:101B50000F02111F3A68D2B21201D2B20B441A76A8
:101B60000CE04FF46143CEF2000397F907103A6896
:101B7000D2B21201D2B20B4483F800230C37BD4617
:101B80005DF8047B704700BF80B582B000AF78601D
:101B90007B68B3F1807F01D301231AE04EF210037A
:101BA000CEF200037A6822F07F42013A5A604FF089
:101BB000FF300F21FFF7BCFF4EF21003CEF20003FF
:101BC00000229A604EF21003CEF2000307221A6040
:101BD000002318460837BD4680BD00BF80B400AF63
:101BE00040F27C13C2F200031B685A1C40F27C13C3
:101BF000C2F200031A6040F28413C2F200031B68B1
:101C00005A1C40F28413C2F200031A6040F280139F
:101C1000C2F200031B685A1C40F28013C2F2000398
:101C20001A60BD465DF8047B704700BF80B582B086
:101C300000AF786000F0D6F94FF0FF300121FFF7D8
:101C400077FF40F24003C2F200031B68184604F01D
:101C500019FC03461846796804F06CFC03461846E4
:101C600004F02EFE03461846FFF78EFF0837BD46E8
:101C700080BD00BF80B500AF40F28813C2F2000300
:101C80001B685A1C40F28813C2F200031A604FF01E
:101C90008040012102F050FD80BD00BF80B483B0C0
:101CA00000AF78607B68002B05D140F27C13C2F254
:101CB00000031B681BE07B68012B05D140F28013F9
:101CC000C2F200031B6812E07B68022B05D140F2D0
:101CD0008813C2F200031B6809E07B68032B05D15F
:101CE00040F28413C2F200031B6800E00023184690
:101CF0000C37BD465DF8047B704700BF80B483B0ED
:101D000000AF78607B68002B06D140F27C13C2F2F2
:101D1000000300221A601CE07B68012B06D140F210
:101D20008013C2F2000300221A6012E07B68022BCB
:101D300006D140F28813C2F2000300221A6008E0C4
:101D40007B68032B05D140F28413C2F2000300220A
:101D50001A600C37BD465DF8047B704780B487B0CD
:101D600000AF7860396000237B6100233B61002372
:101D7000FB6000237B6176E07B69012202FA03F3BA
:101D80003B613B681A683B691340FB60FA683B693A
:101D90009A4265D17B681A687B695B00032101FA6E
:101DA00003F3DB431A407B681A607B681A683B6860
:101DB0001B7919467B695B0001FA03F31A437B68C0
:101DC0001A603B681B79012B03D03B681B79022BFF
:101DD0002ED17B689A687B695B00032101FA03F3CB
:101DE000DB431A407B689A607B689A683B685B7942
:101DF00019467B695B0001FA03F31A437B689A601A
:101E00007B685A687B699BB2012101FA03F3DB43CB
:101E10001A407B685A607B685A683B689B79194610
:101E20007B699BB201FA03F39BB21A437B685A6049
:101E30007B68DA687B699BB25B00032101FA03F3DC
:101E4000DB431A407B68DA607B68DA683B68DB79E1
:101E500019467B695B0001FA03F31A437B68DA6079
:101E60007B6901337B617B690F2B85D91C37BD46AC
:101E70005DF8047B704700BF80B483B000AF78602A
:101E80007B684FF6FF721A607B6800221A717B68CC
:101E900000225A717B6800229A717B680022DA71F5
:101EA0000C37BD465DF8047B704700BF80B483B03B
:101EB00000AF78600B467B807B687A885A830C374A
:101EC000BD465DF8047B704780B485B000AF786094
:101ED00013460A467A807B700023FB600023BB60B8
:101EE0007A787B8803F007039B0002FA03F3FB6018
:101EF0007B88DB089BB21A467B88DB089BB21946BD
:101F00007B68083153F821107B8803F007039B009E
:101F10000F2000FA03F3DB4319407B68083243F8D3
:101F200022107B88DB089BB21A467B68083253F884
:101F30002220FB681343BB607B88DB089BB21A46F8
:101F40007B680832B96843F822101437BD465DF843
:101F5000047B704780B500AF4FF46053C4F20203B6
:101F60004FF46052C4F20202126842F001021A6099
:101F70004FF46053C4F2020300229A604FF460539E
:101F8000C4F202034FF46052C4F20202126822F05B
:101F9000847222F480321A604FF46053C4F2020358
:101FA00043F21002C2F200425A604FF46053C4F28E
:101FB00002034FF46052C4F20202126822F480223B
:101FC0001A604FF46053C4F202030022DA6000F09A
:101FD000B3F84FF46D43CEF200034FF000629A6005
:101FE00080BD00BF80B487B000AF00233B610023F9
:101FF0007B610223FB600023BB6002237B604FF404
:102000006053C4F202039B6803F00C033B613B691D
:10201000042B0DD0082B15D0002B63D140F24003C8
:10202000C2F200034FF41052C0F2F4021A6063E0EF
:1020300040F24003C2F200034FF49052C0F27A0221
:102040001A6059E04FF46053C4F202035B6803F472
:1020500080039B0DBB604FF46053C4F202035B68C6
:1020600003F03F037B60BB68002B13D04FF4905309
:10207000C0F27A037A68B3FBF2F24FF46053C4F211
:102080000203596847F6C0730B409B0903FB02F338
:102090007B6112E04FF41053C0F2F4037A68B3FB93
:1020A000F2F24FF46053C4F20203596847F6C0736A
:1020B0000B409B0903FB02F37B614FF46053C4F2B6
:1020C00002035B6803F440331B0C01335B00FB60CD
:1020D0007A69FB68B2FBF3F240F24003C2F20003FC
:1020E0001A6009E040F24003C2F200034FF41052BC
:1020F000C0F2F4021A6000BF4FF46053C4F202034E
:102100009B6803F0F0031A0940F24403C2F2000393
:102110009B5CDBB23B6140F24003C2F200031A68F1
:102120003B69DA4040F24003C2F200031A601C37F8
:10213000BD465DF8047B704780B483B000AF0023D8
:102140007B6000233B604FF46053C4F202034FF402
:102150006052C4F20202126842F480321A604FF4F4
:102160006053C4F202031B6803F400333B607B68D6
:1021700001337B603B68002B03D17B68B3F5A06F14
:10218000EDD14FF46053C4F202031B6803F4003333
:10219000002B02D001233B6001E000233B603B6841
:1021A000012B40F082804FF46053C4F202034FF4DD
:1021B0006052C4F20202126C42F080521A644FF470
:1021C000E043C4F200034FF4E042C4F2000212689C
:1021D00042F480421A604FF46053C4F202034FF499
:1021E0006052C4F2020292689A604FF46053C4F2E3
:1021F00002034FF46052C4F20202926842F40042B9
:102200009A604FF46053C4F202034FF46052C4F278
:102210000202926842F4A0529A604FF46053C4F2F2
:10222000020345F20842C0F240725A604FF4605314
:10223000C4F202034FF46052C4F20202126842F088
:1022400080721A6000BF4FF46053C4F202031B682F
:1022500003F00073002BF6D04FF47053C4F2020366
:1022600040F205621A604FF46053C4F202034FF467
:102270006052C4F20202926822F003029A604FF4A4
:102280006053C4F202034FF46052C4F20202926837
:1022900042F002029A6000BF4FF46053C4F202039E
:1022A0009B6803F00C03082BF6D10C37BD465DF894
:1022B000047B704780B485B000AF78600023FB607A
:1022C0007A6813461B019B1ADB001A4644F6251355
:1022D000C2F29243A3FB0213D21A520813449B0882
:1022E000BB60FB680133FB60FA68BB689A4200D9A7
:1022F00000E0F6E71437BD465DF8047B704700BF89
:1023000080B584B000AF786039600023FB733B6810
:102310005B78092B39D801A252F823F06D2300080D
:10232000812300088B230008772300088B230008F3
:102330004F230008452300088B230008632300086F
:10234000592300087868396800F042F922E078687B
:10235000396800F019FA1DE07868396800F052FA1F
:1023600018E07868396800F0E5FA13E078683968B1
:1023700000F010FB0EE07868396800F039FB09E0E6
:102380007868396800F09AFB04E07868396800F0F2
:1023900003FC00BFFB7B18461037BD4680BD00BF65
:1023A00080B584B000AF786039600023FB737B6830
:1023B00093F81231032B1CD13B689B88DBB2012BB5
:1023C00011D87B68D3F8E0359B68786839689847FE
:1023D0003B68DB88002B0BD1FB7B002B08D1786896
:1023E00001F0E2FD0AE07868396800F0D5FB05E00D
:1023F00004E07868396800F0CFFB00BFFB7B18462B
:102400001037BD4680BD00BF80B584B000AF786096
:1024100039600023FB733B689B88BB733B685B7828
:10242000012B39D0032B02D0002B6BD0CBE07B6883
:1024300093F81231022B02D0032B0DD026E0BB7B88
:10244000002B08D0BB7B802B05D0BB7B786819465E
:1024500001F0D0FC1FE01EE03B685B88002B0AD136
:10246000BB7B002B07D0BB7B802B04D0BB7B786869
:10247000194601F0BFFC7B68D3F8E0359B687868AB
:1024800039689847786801F08FFD04E0786839680A
:1024900000F082FB00BF96E07B6893F81231022BBC
:1024A00002D0032B0DD027E0BB7B002B08D0BB7BD9
:1024B000802B05D0BB7B7868194601F09BFC20E09F
:1024C0001FE03B685B88002B15D1BB7B002B0ED037
:1024D000BB7B802B0BD0BB7B7868194601F0C4FC1A
:1024E0007B68D3F8E0359B687868396898477868E6
:1024F00001F05AFD05E004E07868396800F04CFB13
:1025000000BF60E07B6893F81231022B02D0032BEE
:102510000DD052E0BB7B002B08D0BB7B802B05D0BD
:10252000BB7B7868194601F065FC4BE04AE0BB7B59
:102530005BB2002B1BDABB7B03F07F02796813468A
:102540009B001344DB000B4403F58C739B78002B3A
:1025500006D040F28C13C2F2000301221A6023E07D
:1025600040F28C13C2F2000300221A601CE0BB7B15
:102570005BB2002B18DBBA7B796813469B001344CF
:10258000DB000B4403F55C739B78002B06D040F214
:102590008C13C2F2000301221A6005E040F28C1392
:1025A000C2F2000300221A60786840F28C11C2F275
:1025B0000001022201F0B0FC04E07868396800F004
:1025C000EBFA00BF00BFFB7B18461037BD4680BD4D
:1025D00080B584B000AF786039603B685B881B0AC7
:1025E0009BB2013B062B00F2B18001A252F823F00E
:1025F0000D2600083F260008692600084D27000820
:102600004D27000839270008432700087B68D3F8C6
:10261000E8351B687A68917807F10A020846114686
:102620009847F8603B68DB88402B04D07B6893F8C0
:102630001231012B02D108237B818CE08BE07B6877
:10264000D3F8E0359B6A7A68917807F10A02084668
:1026500011469847F860FB68013302221A707B68C4
:10266000FA68C3F8EC2576E03B685B88DBB2052BA3
:102670005CD801A252F823F091260008AB2600088E
:10268000C5260008DF260008F926000813270008E1
:102690007B68D3F8E8355B687A68917807F10A02BD
:1026A000084611469847F86045E07B68D3F8E8355E
:1026B0009B687A68917807F10A02084611469847A4
:1026C000F86038E07B68D3F8E835DB687A689178A1
:1026D00007F10A02084611469847F8602BE07B682C
:1026E000D3F8E8351B697A68917807F10A02084641
:1026F00011469847F8601EE07B68D3F8E8355B69BF
:102700007A68917807F10A02084611469847F860FE
:1027100011E07B68D3F8E8359B697A68917807F116
:102720000A02084611469847F86004E0786839685C
:1027300000F032FA24E00EE07868396800F02CFAF4
:102740001EE07868396800F027FA19E0786839687F
:1027500000F022FA14E07B89002B11D03B68DB8863
:10276000002B0DD03B68DA887B899A4238BF13462C
:102770009BB27B817B897868F9681A4601F0CCFBB3
:102780001037BD4680BD00BF80B584B000AF786013
:1027900039603B689B88002B2DD13B68DB88002B80
:1027A00029D13B685B88DBB203F07F03FB737B6856
:1027B00093F81231032B04D17868396800F0ECF9F2
:1027C00018E07B68FA7B83F81321FB7B7868194655
:1027D00001F084FB786801F0E7FBFB7B002B04D061
:1027E0007B68022283F8122104E07B68012283F8CF
:1027F000122104E003E07868396800F0CDF9103761
:10280000BD4680BD80B582B000AF786039603B685E
:102810005B88DAB240F29813C2F200031A7040F2F9
:102820009813C2F200031B78012B04D97868396829
:1028300000F0B2F97BE07B6893F81231022B02D0F2
:10284000032B24D06EE040F29813C2F200031B78F1
:10285000002B18D040F29813C2F200031A787B685C
:1028600083F810217B68032283F8122140F2981329
:10287000C2F200031B7878681946FEF751FF7868AA
:1028800001F092FB53E0786801F08EFB4FE040F2DC
:102890009813C2F200031B78002B18D17B68022228
:1028A00083F8122140F29813C2F200031A787B6871
:1028B00083F8102140F29813C2F200031B78786865
:1028C0001946FEF745FF786801F06EFB29E07B684A
:1028D00093F8102140F29813C2F200031B789A4239
:1028E0001BD07B6893F8103178681946FEF730FFEB
:1028F00040F29813C2F200031A787B6883F8102123
:1029000040F29813C2F200031B7878681946FEF76C
:1029100007FF786801F048FB03E0786801F044FBAA
:1029200005E004E07868396800F036F900BF083740
:10293000BD4680BD80B582B000AF786039603B682D
:10294000DB88012B04D07868396800F025F91EE097
:102950007B6893F81231022B02D0032B09D011E0CF
:10296000786840F29011C2F20001012201F0D4FA1D
:102970000DE07B6803F5887378681946012201F041
:10298000CBFA04E07868396800F006F900BF083730
:10299000BD4680BD80B582B000AF786039607B688D
:1029A00093F81231023B012B1AD87B68D3F814310B
:1029B000002B06D040F29413C2F2000303221A60E7
:1029C00005E040F29413C2F2000301221A60786815
:1029D00040F29411C2F20001012201F09DFA04E0DC
:1029E0007868396800F0D8F800BF0837BD4680BD68
:1029F00080B584B000AF786039600023FB733B681A
:102A00005B88012B0ED17B680122C3F814217B68FF
:102A1000D3F8E0359B68786839689847786801F0A2
:102A2000C3FA48E03B685B88022B44D13B689B8833
:102A3000DBB2002B3FD17B681B695B68BB603B68E6
:102A40009B881B0A9BB2FB73FB7B013B042B2BD89F
:102A500001A252F823F000BF6D2A0008792A00086D
:102A6000852A0008912A00089D2A00083B7A012245
:102A700062F306133B7217E03B7A022262F30613FD
:102A80003B7211E03B7A032262F306133B720BE0C8
:102A90003B7A042262F306133B7205E03B7A05227F
:102AA00062F306133B7200BF7B681B69BA685A6009
:102AB000786801F079FA1037BD4680BD80B582B0E4
:102AC00000AF786039607B6893F81231023B012BCC
:102AD00013D83B685B88012B0ED17B680022C3F8BA
:102AE00014217B68D3F8E0359B687868396898478B
:102AF000786801F059FA05E004E07868396800F078
:102B00004BF800BF0837BD4680BD00BF80B483B01E
:102B100000AF786039607B6893F8C8253B681A700D
:102B20007B6893F8C9253B685A707B6893F8CA356F
:102B30001A467B6893F8CB351B029BB213449AB2BA
:102B40003B685A807B6893F8CC351A467B6893F8CB
:102B5000CD351B029BB213449AB23B689A807B68C6
:102B600093F8CE351A467B6893F8CF351B029BB29B
:102B700013449AB23B68DA803B68DB881A467B686C
:102B8000C3F83C217B68012283F811210C37BD4634
:102B90005DF8047B704700BF80B582B000AF7860FD
:102BA00039603B681B78DBB25BB2002B04DA7868D3
:102BB000802101F01FF90CE03B68DB88002B04D179
:102BC0007868802101F016F903E07868002101F0AF
:102BD00011F97868FEF738F90837BD4680BD00BFA7
:102BE00080B586B000AF786000237B617868FDF720
:102BF00041FD0346002B00F09C807868FDF74CFDFA
:102C000003463B613B69002B01D1002392E0BB7C72
:102C1000C3F3C003DBB2002B06D0786800F018FACB
:102C200003467A6913437B61BB7CC3F38003DBB249
:102C3000002B06D0786800F015F903467A69134333
:102C40007B613B7CC3F34003DBB2002B09D0002344
:102C5000FB603B7B43F002033B737B68DB68FA68F5
:102C60005A61FB7CC3F3C013DBB2002B06D078683B
:102C700000F064F803467A6913437B617B7CC3F3FD
:102C8000C003DBB2002B06D0786800F097F803464B
:102C90007A6913437B613B7CC3F3C003DBB2002B37
:102CA00006D0786800F094FA03467A6913437B6192
:102CB0003B7CC3F30013DBB2002B06D0786800F036
:102CC000A3FA03467A6913437B617B7CC3F3001349
:102CD000DBB2002B06D0786800F08AFB03467A69E5
:102CE00013437B617B7CC3F34013DBB2002B06D024
:102CF000786800F01FFC03467A6913437B61BB7C54
:102D0000C3F30013DBB2002B06D0786800F04EFC52
:102D100003467A6913437B61BB7CC3F34013DBB288
:102D2000002B06D0786800F05DFC03467A691343F7
:102D30007B617B6918461837BD4680BD80B586B07B
:102D400000AF78607B689B7A002B11D07B6803F51D
:102D500086731B68FB603B7B6FF341033B733B7BDC
:102D60006FF300033B737B68D3F80C31FA681A6089
:102D700000233B613B7C43F001033B747B681B6990
:102D80007A68126951683A69D2430A405A6040F23F
:102D90002C03C2F200031B689B69786898470023E4
:102DA0007B61FB7D43F08003FB757B68DB687A69A0
:102DB0005A61012318461837BD4680BD80B586B0DC
:102DC00000AF786040F22C03C2F200031B685B691D
:102DD000786898477B681B699B68FB6000237B6170
:102DE0007B7D43F008037B757B68DB687A695A61F9
:102DF0007B689B7A002B2FD03B7BC3F30003DBB2B5
:102E0000012B29D100233B613B7C43F001033B7440
:102E10007B68D3F80C317A68D2F80C2111683A69D2
:102E20000A431A603B7C43F002033B747B68D3F88F
:102E30000C317A68D2F80C2111683A690A431A6099
:102E40004FF46D43CEF200034FF46D42CEF2000218
:102E5000126942F006021A61012318461837BD466E
:102E600080BD00BF80B586B000AF786000233B61B5
:102E70000023BB607868FDF7D1FF7861DFE07B69F4
:102E800003F00103002B00F0D4803B69DBB27868CB
:102E9000194600F0C3FB0346BB603B7AC3F3000353
:102EA000DBB2002B35D03B69012202FA03F3FB6051
:102EB0007B681B697A681269516BFA68D2430A40D1
:102EC0005A630023BB603B7A43F001033B727A688C
:102ED0003B6904339B0013449B68BA689A6040F2D4
:102EE0002C03C2F200031B685B683A69D2B27868AF
:102EF000114698477B68DB78012B0AD13B69002B90
:102F000007D17B6893F81131042B02D17868FDF763
:102F10009BFF3B7AC3F38003DBB2002B0DD0002371
:102F2000BB603B7A43F004033B727A683B6904332D
:102F30009B0013449B68BA689A603B7AC3F3C00352
:102F4000DBB2002B0DD00023BB603B7A43F00803BB
:102F50003B727A683B6904339B0013449B68BA68F0
:102F60009A603B7AC3F30013DBB2002B0DD0002331
:102F7000BB603B7A43F010033B727A683B690433D1
:102F80009B0013449B68BA689A603B7AC3F3401372
:102F9000DBB2002B0DD00023BB603B7A43F0200353
:102FA0003B727A683B6904339B0013449B68BA68A0
:102FB0009A603B7AC3F38013DBB2002B0DD0002361
:102FC000BB603B7A43F040033B727A683B69043351
:102FD0009B0013449B68BA689A603B7AC3F3400332
:102FE000DBB2002B0DD00023BB603B7A43F0020321
:102FF0003B727A683B6904339B0013449B68BA6850
:103000009A603B7AC3F3C013DBB2002B11D078680F
:10301000396900F07BF90023BB603B7A43F0800301
:103020003B727A683B6904339B0013449B68BA681F
:103030009A603B6901333B617B695B087B617B691B
:10304000002B7FF41CAF012318461837BD4680BD06
:1030500080B586B000AF786000233B610023FB6041
:103060007868FDF7A9FE7861A9E07B6903F00103A8
:10307000002B00F09E803B69DBB278681946FDF7B3
:10308000B1FE0346FB603B7BC3F30003DBB2002BC6
:103090004BD00023FB603B7B43F001033B737A681A
:1030A0003B6914339B0013445B68FA689A607B6841
:1030B000DB78012B1FD17A683B6914339B001344E2
:1030C0005B681B69BB6079683A6913469B001344CF
:1030D000DB000B4403F55E731A68BB68C3F312038D
:1030E000D11A78683A6913469B001344DB00034405
:1030F00003F56273196040F22C03C2F200031B68EF
:103100001B683A69D2B27868114698477B68DB78C9
:10311000012B0AD13B69002B07D17B6893F8113151
:10312000052B02D17868FDF78FFE3B7BC3F340038C
:10313000DBB2002B0DD00023FB603B7B43F002038E
:103140003B737A683B6914339B0013445B68FA68ED
:103150009A603B7BC3F38003DBB2002B0DD00023CE
:10316000FB603B7B43F004033B737A683B69143399
:103170009B0013445B68FA689A603B7BC3F3C0030F
:10318000DBB2002B15D040F22C03C2F200031B6807
:103190009B68786898470023FB603B7B43F00803FB
:1031A0003B737A683B6914339B0013445B68FA688D
:1031B0009A603B6901333B617B695B087B617B699A
:1031C000002B7FF452AF012318461837BD4680BD4F
:1031D00080B584B000AF786040F22C03C2F20003E7
:1031E0001B68DB68786898470023FB603B7B43F0F3
:1031F00008033B737B68DB68FA685A610123184651
:103200001037BD4680BD00BF80B586B000AF786086
:1032100000233B613B7C43F010033B747B68DB681D
:103220007A68D26891693A69D2430A409A617B68A8
:10323000DB681B6AFB603B7BC3F30303DBB21A460C
:1032400013469B001344DB0003F55C737A68134458
:103250007B61BB7BC3F34303DBB2013B052B46D849
:1032600001A252F823F000BFEF32000881320008BB
:10327000EF320008EF320008EF320008CB320008CE
:10328000BB89C3F30A139BB2002B1DD07B69DA689C
:10329000BB89C3F30A139BB2786811461A46FDF73F
:1032A00071F97B69DA68BB89C3F30A139BB21A44CC
:1032B0007B69DA607B699A69BB89C3F30A139BB2A5
:1032C0001A447B699A6113E012E07B6803F5B963E5
:1032D000786819460822FDF755F97B699A69BB8918
:1032E000C3F30A139BB21A447B699A6100E000BFE2
:1032F0007B68DB687A68D26891693A690A439A61A7
:10330000012318461837BD4680BD00BF80B586B082
:1033100000AF7860396000237B610023BB603A68AE
:1033200013469B001344DB0003F58C737A68134447
:10333000FB60FB685A69FB689B69D31A7B61FB6879
:103340009A687B699A4202D2FB689B687B617B69C1
:1033500003339B083B617A683B6804339B0013444A
:103360009B689B69BB602EE0FB685A69FB689B69A0
:10337000D31A7B61FB689A687B699A4202D2FB6828
:103380009B687B617B6903339B083B61FB68D96861
:103390003B68DAB27B699BB27868FDF7BBF8FB68E3
:1033A000DA687B691A44FB68DA60FB689A697B69B2
:1033B0001A44FB689A617A683B6804339B001344A3
:1033C0009B689B69BB603B891A463B699A4209D955
:1033D000FB689A69FB685B699A4203D2FB685B6988
:1033E000002BC1D1012318461837BD4680BD00BF50
:1033F00080B58AB000AF786000233B6100233B6258
:103400000023FB610023BB6100237B610023FB6081
:103410003B7C43F001033B747B681B697A6812694B
:1034200051683A69D2430A405A6078680021FDF732
:10343000D7F800237B6212E07A687B6A04339B0032
:1034400013449B68FF229A607A687B6A14339B005E
:1034500013445B68FF229A607B6A01337B627B685E
:103460005B781A467B6A9A42E6D87B681B694FF004
:10347000FF329A613B8C012262F30F033B847B8C09
:10348000012262F30F037B847B681B693A6ADA616D
:103490003B7F43F008033B773B7F43F001033B77DF
:1034A0003B7F43F004033B773B7F43F002033B77D2
:1034B0007B681B69FA695A613B7E43F001033B76E6
:1034C0003B7E43F008033B763B7E43F002033B76B2
:1034D0003B7E43F004033B763B7E43F020033B7688
:1034E0007B681B69BA691A617B681B691B687B6111
:1034F000BB8A6FF30A13BB827B681B697A691A6007
:103500007868FDF7A1FC0023FB607B7B43F0100390
:103510007B737B68DB68FA685A6140F22C03C2F265
:1035200000031B681B6978689847012318462837F1
:10353000BD4680BD80B584B000AF78607868FDF787
:10354000E7F87B68DB68DB68BB607868FDF7BCF890
:103550000346032B0CD17B6800229A707B684FF4E2
:1035600000729A807B7A092262F385037B720AE0FB
:103570007B6801229A707B6840229A807B7A0522C0
:1035800062F385037B727B68DB68BA68DA600023CC
:10359000FB607B7B43F020037B737B68DB68FA680E
:1035A0005A61012318461037BD4680BD80B584B0EE
:1035B00000AF78600023FB6040F22C03C2F20003EE
:1035C0001B68DB6978689847BB7B43F01003BB73CB
:1035D0007B68DB68FA685A61012318461037BD46DC
:1035E00080BD00BF80B584B000AF78600023FB6071
:1035F00040F22C03C2F200031B681B6A78689847EC
:10360000BB7B43F02003BB737B68DB68FA685A61BD
:10361000012318461037BD4680BD00BF80B487B077
:1036200000AF78600B46FB707B681B691B697B6190
:103630007B681B695B6B3B61FB783A6922FA03F399
:10364000DB01DBB27A6913437B61FB787A68043370
:103650009B0013449B689A687B691340FB60FB687E
:1036600018461C37BD465DF8047B704780B582B0B4
:1036700000AF0023FB7100F00BF803461A4640F23E
:103680006C23C2F200031A700837BD4680BD00BF2C
:1036900080B582B000AF0023FB714FF49040C4F2BC
:1036A000000040F22551FDF733FE0346012B07D100
:1036B0004FF49040C4F20000FDF71AFE0346FB7180
:1036C000FB7918460837BD4680BD00BF80B483B083
:1036D00000AF78604FF47053C4F201037A685A6106
:1036E0000C37BD465DF8047B704700BF90B585B0D0
:1036F00000AF03463960FB800023FB813B6800225A
:103700001A84FB8803F001039AB23B681A80FB8895
:1037100003F002035B109AB23B685A80FB8803F007
:1037200004039B109AB23B689A80FB8803F008035D
:10373000DB109AB23B68DA80FB8803F010031B11A0
:103740009AB23B681A81FB8803F020035B119AB29E
:103750003B685A81FB8803F040039B119AB23B6897
:103760009A81FB8803F08003DB119AB23B68DA810F
:10377000FB8803F480731B129AB23B681A82FB88A1
:1037800003F400735B129AB23B685A82FB8803F41D
:1037900080639B129AB23B689A82FB8803F40063B1
:1037A000DB129AB23B68DA82FB8803F480531B1366
:1037B0009AB23B681A83FB8803F400535B139AB2F6
:1037C0003B685A83FB8803F480439B139AB23B689F
:1037D0009A83FB88DB0B9AB23B68DA830023FB8178
:1037E00031E0FA893B6833F81230012B21D1FC8992
:1037F000FB89184602F060FA02460B464FF00000C3
:103800004FF0804100F0A8FF02460B4610461946D3
:1038100002F062FD03469AB2396804F110035B00BE
:103820000B445A803B681B8C01339AB23B681A8464
:1038300006E0FB893A6810335B00134400225A808B
:10384000FB890133FB81FB890F2BCAD91437BD4695
:1038500090BD00BF80B582B000AF78607A68002369
:10386000C4F201039A4219D140F2A423C2F2000328
:103870001B6803F00103002B10D101200121FEF78A
:103880002FF940F2A423C2F200031B6843F00102A7
:1038900040F2A423C2F200031A6006E17B68B3F190
:1038A000804F19D140F2A423C2F200031B6803F039
:1038B0000203002B10D101200121FEF7E9F840F2AC
:1038C000A423C2F200031B6843F0020240F2A423C7
:1038D000C2F200031A60E8E07A684FF48063C4F231
:1038E00000039A4219D140F2A423C2F200031B68DC
:1038F00003F00403002B10D102200121FEF7C8F8C9
:1039000040F2A423C2F200031B6843F0040240F219
:10391000A423C2F200031A60C7E07A684FF4006380
:10392000C4F200039A4219D140F2A423C2F2000368
:103930001B6803F00803002B10D104200121FEF7BF
:10394000A7F840F2A423C2F200031B6843F0080268
:1039500040F2A423C2F200031A60A6E07A684FF492
:103960004063C4F200039A4219D140F2A423C2F288
:1039700000031B6803F01003002B10D10820012165
:10398000FEF786F840F2A423C2F200031B6843F05E
:10399000100240F2A423C2F200031A6085E07A68A4
:1039A0004FF48063C4F201039A4219D140F2A42378
:1039B000C2F200031B6803F02003002B10D1022089
:1039C0000121FEF78DF840F2A423C2F200031B6828
:1039D00043F0200240F2A423C2F200031A6064E024
:1039E0007A684FF48043C4F201039A421AD140F23C
:1039F000A423C2F200031B6803F04003002B11D183
:103A00004FF480300121FEF76BF840F2A423C2F29C
:103A100000031B6843F0400240F2A423C2F20003FB
:103A20001A6042E07A684FF48843C4F201039A4274
:103A30001AD140F2A423C2F200031B6803F08003F2
:103A4000002B11D14FF400300121FEF749F840F26C
:103A5000A423C2F200031B6843F0800240F2A423B7
:103A6000C2F200031A6020E07A684FF49043C4F277
:103A700001039A4219D140F2A423C2F200031B6849
:103A800003F48073002B10D14FF480200121FEF746
:103A900027F840F2A423C2F200031B6843F48072AB
:103AA00040F2A423C2F200031A600837BD4680BD6D
:103AB00080B485B000AF0346FB800023FB73FB8816
:103AC000802B49D0802B11DC082B39D0082B06DC49
:103AD000022B2FD0042B30D0012B28D057E0202BE5
:103AE00034D0402B35D0102B2DD050E0B3F5006FE3
:103AF0003ED0B3F5006F09DCB3F5007F32D0B3F5EB
:103B0000806F32D0B3F5807F29D040E0B3F5005FFD
:103B100034D0B3F5005F03DCB3F5805F2BD036E023
:103B2000B3F5804F2DD0B3F5004F2DD02FE00023FB
:103B3000FB732CE00123FB7329E00223FB7326E0D7
:103B40000323FB7323E00423FB7320E00523FB73B3
:103B50001DE00623FB731AE00723FB7317E008231D
:103B6000FB7314E00923FB7311E00A23FB730EE0DF
:103B70000B23FB730BE00C23FB7308E00D23FB739B
:103B800005E00E23FB7302E00F23FB7300BFFB7BFA
:103B900018461437BD465DF8047B704780B485B085
:103BA00000AF78600023FB737A680023C4F201033E
:103BB0009A4202D10123FB734BE07B68B3F1804F43
:103BC00002D10123FB7344E07A684FF48063C4F2AE
:103BD00000039A4202D10223FB733AE07A684FF461
:103BE0000063C4F200039A4202D10223FB7330E067
:103BF0007A684FF44063C4F200039A4202D1022370
:103C0000FB7326E07A684FF48063C4F201039A42A2
:103C100002D10323FB731CE07A684FF48043C4F2A3
:103C200001039A4202D10323FB7312E07A684FF436
:103C30008843C4F201039A4202D10323FB7308E0D4
:103C40007A684FF49043C4F201039A4201D10323EE
:103C5000FB73FB7B18461437BD465DF8047B704749
:103C600080B584B000AF7860F9703A80BB70FB78A3
:103C70005BB2002B0CDAFB7803F07F0213469B004B
:103C80001344DB0003F58C737A681344FB600BE08C
:103C9000FB7803F07F0213469B001344DB0003F51F
:103CA0005C737A681344FB60FB7803F07F03DAB23D
:103CB000FB681A70FB78DB09DBB21A46FB685A70A6
:103CC0003A88FB689A60FB68BA78DA70FB685B78C0
:103CD000002B04D0FB681B781A46FB68DA80BB789F
:103CE000022B02D1FB6800221A717868F968FCF790
:103CF0004BFD002318461037BD4680BD80B586B009
:103D000000AFF8607A600A46FA723B81FB7A03F0F2
:103D10007F0213469B001344DB0003F55C73FA68D3
:103D200013447B617B697A68DA603A897B695A61FE
:103D30007B6900229A617B6900225A70FB7A03F04A
:103D40007F03DAB27B691A70FB68DB78012B02D142
:103D50007A687B691A617B691B78002B04D1F8684B
:103D60007969FCF7BFFE03E0F8687969FCF77AFD32
:103D7000002318461837BD4680BD00BF80B586B009
:103D800000AFF8607A603B600B46FB72FB7A03F091
:103D90007F0213469B001344DB0003F58C73FA6823
:103DA00013447B617B6901225A70FB7A03F07F0325
:103DB000DAB27B691A707B697A68DA607A687B6943
:103DC0001A617B6900229A617B693A685A617B6952
:103DD0001B78002B04D1F8687969FCF783FE03E0B7
:103DE000F8687969FCF73EFD002318461837BD4690
:103DF00080BD00BF80B584B000AF78600B46FB701B
:103E0000FB785BB2002B0CDAFB7803F07F021346E1
:103E10009B001344DB0003F58C737A681344FB604A
:103E200009E0FA7813469B001344DB0003F55C734A
:103E30007A681344FB60FB6801229A70FB7803F0F8
:103E40007F03DAB2FB681A70FB78DB09DBB21A4633
:103E5000FB685A707868F968FCF72EFF0023184653
:103E60001037BD4680BD00BF80B584B000AF78601C
:103E70000B46FB70FB785BB2002B0CDAFB7803F08F
:103E80007F0213469B001344DB0003F58C737A68B2
:103E90001344FB6009E0FA7813469B001344DB00EF
:103EA00003F55C737A681344FB60FB6800229A7028
:103EB000FB7803F07F03DAB2FB681A70FB78DB094A
:103EC000DBB21A46FB685A707868F968FCF738FF6D
:103ED000002318461037BD4680BD00BF80B485B0B2
:103EE00000AF78600B46FB700023FB60FB7803F0AB
:103EF0007F03DAB2BB8962F30A13BB817B681B695B
:103F00007A6812691168FA680A431A601437BD4664
:103F10005DF8047B704700BF80B586B000AFF860E5
:103F2000B9601346FB800023FB75FA88FB68C3F871
:103F30003821FA88FB68C3F83421FB68022283F831
:103F40001121FB88F8680021BA68FFF717FFFB7D95
:103F500018461837BD4680BD80B586B000AFF86002
:103F6000B9601346FB800023FB75FB88F8680021CD
:103F7000BA68FFF703FFFB7D18461837BD4680BDC2
:103F800080B586B000AFF860B9601346FB800023AF
:103F9000FB75FB88F8680021BA68FFF7AFFEFB7D70
:103FA00018461837BD4680BD80B584B000AF786034
:103FB0000023FB737B68042283F8112178680021B9
:103FC00000220023FFF7DAFE7868FCF73DFFFB7B59
:103FD00018461037BD4680BD80B584B000AF78600C
:103FE0000023FB737B68052283F811217868002188
:103FF00000220023FFF782FE7868FCF725FFFB7B99
:1040000018461037BD4680BD80B400AFBD465DF890
:10401000047B704780B400AFBD465DF8047B7047F9
:1040200080B500AFFFF722FB80BD00BF80B485B034
:1040300000AF786039600023FB817B681B88FB81BF
:104040007A680023C4F201039A421FD07A684FF4C1
:104050008063C4F201039A4218D07B68B3F1804FA9
:1040600014D07A684FF48063C4F200039A420DD0F2
:104070007A684FF40063C4F200039A4206D07A686B
:104080004FF44063C4F200039A4208D1FB8923F045
:104090007003FB813B685A88FB891343FB817A6874
:1040A0004FF48053C4F200039A420FD07A684FF461
:1040B000A053C4F200039A4208D0FB8923F4407352
:1040C000FB813B681A89FB891343FB817B68FA8972
:1040D0001A803B685A687B68DA623B681A887B689A
:1040E0001A857A680023C4F201039A4206D07A68DE
:1040F0004FF48063C4F201039A4204D13B689B7A77
:104100001A467B681A867B6801229A821437BD465C
:104110005DF8047B704700BF80B483B000AF786067
:104120000B46FB70FB78002B08D07B681B889BB28A
:1041300043F080039AB27B681A8007E07B681B8893
:104140009BB223F080039AB27B681A800C37BD467D
:104150005DF8047B704700BF80B483B000AF786027
:104160000B46FB70FB78002B08D07B681B889BB24A
:1041700043F001039AB27B681A8007E07B681B88D2
:104180009BB223F001039AB27B681A800C37BD46BC
:104190005DF8047B704700BF80B485B000AF7860E5
:1041A000396000237B810023FB810023BB817B6876
:1041B0001B8C9BB223F001039AB27B681A847B6844
:1041C0001B8CFB817B689B88BB817B681B8B7B8105
:1041D0007B8923F070037B817B8923F003037B8140
:1041E0003B681A887B8913437B81FB8923F0020398
:1041F000FB813B689A89FB891343FB813B685A88A2
:10420000FB891343FB817A680023C4F201039A42BD
:1042100006D07A684FF48063C4F201039A4223D136
:10422000FB8923F00803FB813B68DA89FB89134390
:10423000FB81FB8923F00403FB813B689A88FB899F
:104240001343FB81BB8923F48073BB81BB8923F4B7
:104250000073BB813B681A8ABB891343BB813B68EF
:104260005A8ABB891343BB817B68BA899A807B6871
:104270007A891A833B689A687B685A637B68FA89F3
:104280001A841437BD465DF8047B704780B485B04E
:1042900000AF7860396000237B810023FB8100231D
:1042A000BB817B681B8C9BB223F010039AB27B68A6
:1042B0001A847B681B8CFB817B689B88BB817B6835
:1042C0001B8B7B817B8923F4E0437B817B8923F4F7
:1042D00040737B813B681B881B029AB27B89134326
:1042E0007B81FB8923F02003FB813B689B891B01B9
:1042F0009AB2FB891343FB813B685B881B019AB22E
:10430000FB891343FB817A680023C4F201039A42BC
:1043100006D07A684FF48063C4F201039A422BD12D
:10432000FB8923F08003FB813B68DB891B019AB288
:10433000FB891343FB81FB8923F04003FB813B682E
:104340009B881B019AB2FB891343FB81BB8923F431
:104350008063BB81BB8923F40063BB813B681B8AFC
:104360009B009AB2BB891343BB813B685B8A9B006D
:104370009AB2BB891343BB817B68BA899A807B68F8
:104380007A891A833B689A687B689A637B68FA89A2
:104390001A841437BD465DF8047B704780B485B03D
:1043A00000AF7860396000237B810023FB8100230C
:1043B000BB817B681B8C9BB223F480739AB27B68B1
:1043C0001A847B681B8CFB817B689B88BB817B6824
:1043D0009B8B7B817B8923F070037B817B8923F01E
:1043E00003037B813B681A887B8913437B81FB89AC
:1043F00023F40073FB813B689B891B029AB2FB8903
:104400001343FB813B685B881B029AB2FB89134311
:10441000FB817A680023C4F201039A4206D07A68CD
:104420004FF48063C4F201039A422BD1FB8923F439
:104430000063FB813B68DB891B029AB2FB89134353
:10444000FB81FB8923F48063FB813B689B881B0213
:104450009AB2FB891343FB81BB8923F48053BB8150
:10446000BB8923F40053BB813B681B8A1B019AB2B2
:10447000BB891343BB813B685B8A1B019AB2BB8932
:104480001343BB817B68BA899A807B687A899A8357
:104490003B689A687B68DA637B68FA891A84143708
:1044A000BD465DF8047B704780B485B000AF78608E
:1044B00039600023BB8100237B810023FB817B6863
:1044C0001B8C9BB223F480539AB27B681A847B685E
:1044D0001B8C7B817B689B88FB817B689B8BBB8172
:1044E000BB8923F4E043BB81BB8923F44073BB81C8
:1044F0003B681B881B029AB2BB891343BB817B8933
:1045000023F400537B813B689B891B039AB27B8910
:1045100013437B813B685B881B039AB27B891343FF
:104520007B817A680023C4F201039A4206D07A683C
:104530004FF48063C4F201039A420AD1FB8923F449
:104540008043FB813B681B8A9B019AB2FB89134322
:10455000FB817B68FA899A807B68BA899A833B6879
:104560009A687B681A647B687A891A841437BD4616
:104570005DF8047B704700BF80B485B000AF786001
:104580000B467B800023FB817B681B8BFB81FB89B7
:1045900023F00803FB81FA897B881343FB817B6846
:1045A000FA891A831437BD465DF8047B704700BF53
:1045B00080B485B000AF78600B467B800023FB8120
:1045C0007B681B8BFB81FB8923F40063FB817B8869
:1045D0001B029AB2FB891343FB817B68FA891A8319
:1045E0001437BD465DF8047B704700BF80B485B0CA
:1045F00000AF78600B467B800023FB817B689B8B40
:10460000FB81FB8923F00803FB81FA897B88134334
:10461000FB817B68FA899A831437BD465DF8047B79
:10462000704700BF80B485B000AF78600B467B80D8
:104630000023FB817B689B8BFB81FB8923F4006358
:10464000FB817B881B029AB2FB891343FB817B6849
:10465000FA899A831437BD465DF8047B704700BF22
:1046600080B483B000AF786039603B681A883B68DB
:104670005B8813439AB23B689B8813439AB23B68AA
:10468000DB8813439AB23B681B8913439AB23B6899
:104690005B8913439AB23B689B8913439AB27B6848
:1046A000A3F844200C37BD465DF8047B704700BF7B
:1046B00080B483B000AF78607B6800221A807B688A
:1046C00000225A807B6800229A807B680022DA8070
:1046D0007B6800221A817B6800225A817B68002255
:1046E0009A810C37BD465DF8047B704780B483B077
:1046F00000AF78600B46FB70FB78002B0CD07B681A
:10470000B3F844309BB26FEA43436FEA53439AB223
:104710007B68A3F8442009E07B68B3F844309BB27F
:10472000C3F30E039AB27B68A3F844200C37BD464E
:104730005DF8047B704700BF80B483B000AF786041
:104740000B467B807B88DB439AB27B681A820C37EE
:10475000BD465DF8047B70472DE9F04F8BB01D46D8
:1047600080468946144600F093F940F2540AC2F29A
:10477000000A9AF90030013306460F4604D020465D
:10478000294601F001F820B9304639460BB0BDE8A2
:10479000F08F4046494600F0F7FF834640BB204675
:1047A00029460022002301F065FD0028ECD09AF98B
:1047B000000046F60C110023C0F60001B0F1FF3FE7
:1047C00018BF02284FF001064FF00002C3F6F07345
:1047D000CDF820B0CDE90289CDE9044501910096DC
:1047E000CDE9062330D1DDE906010BB0BDE8F08F3D
:1047F000404649460022002301F03CFD002830D00D
:10480000204629460022002301F034FD834600287B
:1048100068D09AF9002046F60C13CDE90445C0F69D
:1048200000030120002400250021CDE90289CDE903
:1048300006458DE80900089132B100230022C3F635
:10484000F073CDE90623CEE7684600F0C5FF0028E7
:1048500077D0089B002BC6D002F052F8089B03606B
:10486000C1E73046394600F089FF834600286DD005
:10487000304639460022002301F0FCFC002883D09A
:104880004046494600F07AFF00283FF47DAF2046BD
:10489000294600F073FF00283FF476AF9AF9002014
:1048A00046F60C13CDE90445C0F60003022A4FF08A
:1048B00004004FF000044FF000054FF00001CDE977
:1048C0000289CDE906458DE80900089100F0908045
:1048D000684600F081FF002800F08A80089B002BCA
:1048E00081D0B9E72046294600F048FF00283FF470
:1048F0004BAF204629460022002301F0C5FC0028CA
:104900003FF442AF9AF8001046F60C13C0F60003CD
:104910000122CDF820B08DE80C000022CDE90289FB
:104920000023CDE90445002936D1CDE906236846A8
:1049300000F052FF0028D1D101F0E2FF21230360F3
:10494000CCE701F0DDFF2123036082E740464946C2
:1049500000F014FF00288BD02046294600F00EFFFF
:10496000002885D03046394600F00EFFD8B99AF8B5
:10497000006046F60C13C0F6000301220890CDE952
:104980000289CDE904458DE80C00002E35D10024C4
:104990000025CDE90645CAE70229CFF6F073CDE937
:1049A0000623C9D0C3E79AF9002046F60C13032169
:1049B000C0F60003CDF820B040468DE80A00494615
:1049C000CDE90289CDE9044512BB4FF6FF770022FD
:1049D00000234FF06046C4F2EF77CDE9066701F09F
:1049E00053FC002839D19AF90030022B7FF470AFC4
:1049F00001F086FF2223036070E7002000210246B9
:104A00000B4601F0F9FA022ECDE9060194D08EE7AB
:104A10000027002200230026C7F6F077CDE90667BD
:104A200001F032FC0028DED000230022C3F6E07340
:104A30002046294601F0B6F904460D4600F0D4FEA2
:104A400022462B4601F016FC0028CCD10023002280
:104A5000CFF6F073CDE90623C5E700230022C3F6A5
:104A6000E0732046294601F09DF904460D4600F00A
:104A7000BBFE22462B4601F0FDFB0028B3D14FF6CA
:104A8000FF734FF06042CCF2EF73CDE90623AAE743
:104A90002DE9F04F23F0004B814606465BEA020009
:104AA00093B090469C4614461D468A460F4600F039
:104AB0008A80002221F00040C7F6F07202909042F6
:104AC00012DDDDF808A00AF1404C0CF5801C5CEA10
:104AD000060640F082804FF0000AC3F6F07A3046B6
:104AE000514613B0BDE8F08F14BF00230123B9F184
:104AF000000F0CBF002103F001010029E1D1934513
:104B0000DFDC14BF00210121B8F1000F0CBF00222F
:104B100001F00102002AD4D1002F67DB0692A4B96C
:104B2000002940F088800022C3F6F072934500F01F
:104B3000B280B5F1804F04BF484651463CD00022B8
:104B4000C3F6E072954200F0F78348465146019360
:104B5000CDF800C000F00EFE019BDDF800C004910E
:104B600056B90299002908BF43F00103002B7BD1FD
:104B7000C3F6F073994277D0FB0F0699013B0A9375
:104B800019437BD00023C4F2E0139B4540F3A0807F
:104B90000023C4F2F0339B4540F34E844FF6FF737D
:104BA000DDF808A0C3F6EF739A4540F3E083002DCB
:104BB00057DD45A1D1E9000102460B4601F0F2F8AC
:104BC00006468A468BE74FF0000A0646C3F6F07A9F
:104BD0003046514613B0BDE8F08F46F64010C0F69F
:104BE000000013B0BDE8F04F00F0F8BD4FF6FF70C5
:104BF000C4F23F3083455EDC4FF6FF70C3F6EF70C2
:104C000083458BDD4FEA2B5240F21340824240F342
:104C1000B284C2F58662033228FA02F000FA02F288
:104C2000424502BF00F00100C0F1020006903FF4CF
:104C300076AF002272E7DDF808A00AF1404303F5E1
:104C400080131E433FF447AF4FF6FF73C3F6EF7375
:104C50009A4540F3BE83002DA4BF4646E246BFF608
:104C60003EAF0026B2463AE7002DC0F25F84002F27
:104C7000C0F26C830646DDF810A030E74846514686
:104C80004A46534600F0DAFE02460B4601F0B4F9FC
:104C900006468A4623E7002DA8BF4E46BFF61FAF43
:104CA000002153464A460020C3F6F07101F0A4F9F2
:104CB00006468A4613E702200690002C3FF430AFE8
:104CC00043E700BFAFF300809C7500883CE4377E6B
:104CD000DDF808B0BBF5801FA8BF002110DA049DE5
:104CE0000023C4F2403300222946CDF800C001F071
:104CF00059F8DDF800C00B4604916FF034010293BF
:104D0000DDF808A049F68E02C0F20302CAF31303CD
:104D10004FEA2A549342A4F2FF3543F07F540D44E6
:104D20001195D8BF002544F44014D8BFA94614DD1E
:104D30004BF27962C0F20B029342C1BF0025A4F589
:104D40008014DDF844B0A946D9BF4FF480254FF058
:104D500001090BF1010BCDF844B046F610110246E3
:104D6000C0F60001234601EBC909CDE9082321461D
:104D7000CDF800C0D9E900AB52465B46CDE90CAB9B
:104D800000F05CFEDDE90C2306460F46DDE9080174
:104D900000F056FE0B4600210246C3F6F0710020DB
:104DA00001F02AF9CDE90E013046DDE90E2339463E
:104DB00000F0F8FF0022CDE904016110DDE904AB49
:104DC000002041F00051144601F50021CDE902AB6D
:104DD0006B1802901D46DDE902AB5046594600F0C3
:104DE000E1FF02460B463046394600F027FEDDE97A
:104DF0000C2306460F462046294600F01FFE0246B9
:104E00000B46DDE9080100F019FE02460B4650464C
:104E1000594600F0C7FF02460B463046394600F0BF
:104E20000DFEDDE90E2300F0BDFF06460F46DDE96D
:104E3000040102460B4600F0B5FF02460B4604464D
:104E40000D4600F0AFFF7AA3D3E90023CDE90801B6
:104E50002046294600F0A6FF77A3D3E9002300F0FF
:104E6000EFFD22462B4600F09DFF75A3D3E90023FA
:104E700000F0E6FD22462B4600F094FF72A3D3E932
:104E8000002300F0DDFD22462B4600F08BFF70A3CF
:104E9000D3E9002300F0D4FD22462B4600F082FF28
:104EA0006DA3D3E9002300F0CBFD02460B46DDE9FC
:104EB000080100F077FFDDE9042304460D46504663
:104EC000594600F0BDFD32463B4600F06BFF2246DE
:104ED0002B4600F0B5FD52465B46CDE90801504631
:104EE000594600F05FFF00230022C4F20803CDE919
:104EF0000C0100F0A5FDDDE9082300F0A1FD029CF6
:104F0000504622460D4659462B4600F04BFF22469E
:104F10002B4682468B463046394600F043FF00233D
:104F20000022C4F2080306460F462046294600F038
:104F300085FDDDE90C2300F081FD02460B46DDE92D
:104F4000080100F07BFDDDE9042300F02BFF0246A1
:104F50000B463046394600F073FD06460F46324692
:104F60003B465046594600F06BFD02983CA3D3E9FE
:104F7000002304460D4600F015FF3BA3D3E90023B0
:104F8000CDE908012046294600F00CFF52465B4659
:104F9000CDE904012046294600F050FD02460B46AB
:104FA0003046394600F04AFD31A3D3E9002300F032
:104FB000F9FE02460B46DDE9040100F041FDD9E9A6
:104FC000042300F03DFD824611988B4600F084FEDC
:104FD000D9E90823CDE9042352465B4604460D4631
:104FE000DDE9080100F02CFDDDE9042300F028FDD7
:104FF00022462B4600F024FD029822462B46064608
:105000000F4600F01BFDDDE9042300F017FDDDE98C
:10501000082300F013FD02460B465046594600F0A7
:105020000DFDCDE90401DDF800C025E0AFF30080FF
:10503000EF4E454A287ECA3F65DBC9934A86CD3F7D
:1050400001411DA96074D13F4D268F515555D53F63
:10505000FFAB6FDBB66DDB3F033333333333E33FFB
:10506000000000E009C7EE3FF5015B14E02F3EBEF3
:10507000FD033ADC09C7EE3FDDF818A00022DDF899
:1050800028B061460AF1FF334FF0000A53EA0B0BD8
:105090004FF0000B0CBFCBF6F07BC3F6F07BCDE9F5
:1050A0000AABE346C246CDE902AB02924046DDE9D7
:1050B00002ABCDF800C052465B4600F0BFFC3B4659
:1050C000324600F06FFEDDF800C0DDE9042304463F
:1050D0000D464046614600F065FE02460B462046FE
:1050E000294600F0ADFC3B463246CDE9060150466C
:1050F000594600F057FE04460D462B46DDE90601F1
:10510000224600F09DFC4FF6FF73C4F28F039942D4
:1051100082468B460F4640F32E8101F13F4303F553
:10512000E003034340F00D82AFA3D3E90023DDE9A0
:10513000060100F085FC22462B46804689465046F3
:10514000594600F07BFC02460B464046494601F0BA
:10515000B9F8D846002840F0F4814FEA28534FF4BC
:105160008011A3F2FE334FF6FF701941C0F20F0019
:105170003944002FC1F30A56C1F3130AA6F2FF3EC9
:105180004AF4801AC6F5826640FA0EF006F103066C
:1051900021EA00034FF000024AFA06FA20462946A7
:1051A000B8BFCAF1000A00F049FC4FEA0A5B0446A6
:1051B0000D462246DDE906012B4600F041FC0026A3
:1051C0008BA3D3E9002330460F4600F0EBFD2246C7
:1051D0002B46804689463046394600F02FFC024671
:1051E0000B46DDE9060100F029FC83A3D3E9002387
:1051F00000F0D8FD82A3D3E9002304460D463046D3
:10520000394600F0CFFD02460B462046294600F005
:1052100017FC04460D4622462B464046494600F000
:105220000FFC42464B4606460F4600F007FC02467E
:105230000B462046294600F001FC32463B4680469C
:1052400089463046394600F0ADFD6FA3D3E900230F
:1052500004460D4600F0A6FD6DA3D3E9002300F03F
:10526000EDFB22462B4600F09DFD6BA3D3E9002306
:1052700000F0E6FB22462B4600F094FD68A3D3E93C
:10528000002300F0DBFB22462B4600F08BFD66A3DB
:10529000D3E9002300F0D4FB22462B4600F082FD28
:1052A00002460B463046394600F0C8FB04460D4620
:1052B00022462B463046394600F074FD00224FF05E
:1052C0008043CDE902012046294600F0B7FB0246A3
:1052D0000B46DDE9020100F08FFE42464B460446D4
:1052E0000D463046394600F05DFD42464B4600F023
:1052F000A7FB02460B462046294600F09FFB32469C
:105300003B4600F09BFB0B4600210246C3F6F071C2
:10531000002000F093FB8B440B46BBF5801F024638
:10532000A8BF5B46C0F24781DDE90A0100F03AFD03
:1053300006468A46FFF7D3BB002FFFF606AC484669
:10534000514613B0BDE8F04F00F056B9DDF808A0A3
:10535000DDF818B00AF1404303F580135BEA030B54
:1053600040F01781049D02462B4629468AE4002D11
:10537000BFF677AC1DE44CF6FF3321F00048C4F2D1
:105380009003984540F3ED8001F17D5303F53C1304
:1053900003F5505303430CD122462B4600F04EFB3D
:1053A00002460B46DDE9060100F078FF00283FF4D5
:1053B000D4AE1FA3D3E90023DDE90A0100F0F2FC1B
:1053C0001BA3D3E9002300F0EDFC06468A46FFF755
:1053D00086BB002DBCBF46460CF1004ABFF641AC6F
:1053E000FFF77DBBAFF30080FE822B654715973C2E
:1053F00000000000432EE63FEF39FAFE422EE63F62
:10540000396CA80C615C20BED0A4BE726937663EC0
:10541000F16BD2C541BDBB3E2CDE25AF6A56113FB4
:1054200093BDBE166CC1663F3E5555555555C53F9B
:1054300059F3F8C21F6EA5014FF6FE73DDF808B0F0
:10544000C3F6EF739B4592DD0023DDF808A0C3F699
:10545000F0739A453FF7ABAB049D00230022C3F6DF
:10546000F0732946CDF800C000F0E8FA58A3D3E95C
:10547000002304460D4600F095FC57A3D3E9002312
:1054800082468B462046294600F08CFC22462B465D
:10549000CDE902012046294600F084FC00230022C9
:1054A000C3F6D07306460F462046294600F07AFC24
:1054B00002460B464AA1D1E9000100F0BFFA22469C
:1054C0002B4600F06FFC0B4600210246C3F6E0714C
:1054D000002000F0B3FA02460B463046394600F091
:1054E00061FC41A3D3E9002300F05CFC02460B46BB
:1054F000DDE9020100F0A2FA04460D4622462B46E1
:105500005046594600F09CFA002052465B4606463B
:105510000F4600F093FA02460B462046294600F05B
:105520008DFADDF800C0CDE90401A5E500210246B1
:10553000049B0020C3F6F07100F05EFD0491FFF7BC
:1055400096BB2BA3D3E90023DDE90A0100F02AFC76
:1055500027A3D3E9002300F025FC06468A46FFF77F
:10556000BEBA0023C3F6E07398453FF7F6ADDDF809
:1055700008B0DA4623E6D4B9C2F5826203324BFAA8
:1055800002F000FA02F25A451BD000200690FFF705
:10559000C7BA06990646012904BFDDF810B00BF121
:1055A000004A3FF49CAADDF810A0FFF798BA00204B
:1055B0000690FFF7CABA524600F0A6F902460B461B
:1055C000B2E600F00100C0F102000690FFF7A8BAB1
:1055D000000000604715F73F44DF5DF80BAE543E16
:1055E000555555555555D53FFE822B654715F73F07
:1055F0009C7500883CE4377E21F0004C02462DE982
:10560000F8434FEA1C5C4FF000080646C7F6F078F6
:105610004FEA0C5CC4450F460B4600F09080002911
:1056200071DD0F157AD0A7F2FF37C3F31303F90723
:1056300043F4801342BFD10F520001EB43034FF0FC
:10564000000CD10F7F1001EB43035200604616247B
:105650004FF400114518D60F9D424FEA4202DEBFBB
:10566000C5EB030368188C44013C06EB43034FEA87
:105670005101EFD12026A0464FF0004112E08146B3
:105680001B1A954288BF03F1FF33521B0C44484656
:10569000013E4FEAD2754FEA510105EB43034FEA51
:1056A000420215D0984201EB080503DB954298BFF2
:1056B0008342EDD105F0004905EB0108B9F1004F37
:1056C000DDD1B8F1000FA8BF00F10109D8DAD6E7A3
:1056D000134307D0631C08BF0CF1010C03D004F086
:1056E00001031C4466084FEA6C031CF0010F03F130
:1056F0007F5318BF46F0004603F50013304603EB16
:105700000751BDE8F88321F00043034321D031BBAA
:105710000F46D30A153F5205002BFAD013F480111F
:1057200019D15B000131D802FBD5C1F10104C1F1EF
:10573000200022FA00F0274403438A4073E7024620
:105740000B4600F02FFB32463B4600F079F9BDE8EE
:10575000F883BDE8F883202001240021E9E7024610
:105760000B4600F06BF902460B4600F045FCBDE825
:10577000F88300BF21F00041704700BF41F00041B5
:1057800001F58010C00F704750EA010301D10220DB
:105790007047D0F1010338BF0023B1F1004F08BFBB
:1057A0000028F4D021F000414FF6FF72A1F58010DF
:1057B000C7F6DF72904201D804207047B1F5801F10
:1057C00001D2032070470020C7F6F070814214BF59
:1057D000002003F0010070470020704700210020E6
:1057E000C7F6F871704700BFC1F30A5C02462DE9A5
:1057F000F043ACF2FF37132F83B00B468946804647
:105800004FEAD17637DC002F53DB4FF6FF71C0F241
:105810000F01394101EA0300104331D0490801EA80
:10582000030858EA02080DD04FF4802923EA010149
:10583000132F0CBF4FF000484FF0000849FA07F74C
:1058400041EA070946F648114B46C0F600014246B8
:1058500001EBC606D6E900452046294600F0F0F8DF
:1058600022462B46CDE90001DDE9000100F0E6F813
:1058700003B0BDE8F083332F07DDB7F5806F40D06C
:105880001046194603B0BDE8F0834FF0FF31ACF28B
:10589000134C21FA0CF10142F2D0490801421FBF1A
:1058A0004FF0804820EA010148FA0CFC41EA0C085C
:1058B000C8E721F000410143E2D0C3F3130046F6EC
:1058C00048111043C0F60001444201EBC6012043D9
:1058D0005F0CD1E90045000B00F40020294640EAA6
:1058E0004743204600F0ACF82B462246CDE90001A4
:1058F000DDE9000100F0A2F821F0004343EAC6719F
:10590000C0E700F09DF8BDE7C1F30A532DE9F0416F
:10591000904606460F460A4643BB21F00043034328
:1059200039D000230022C4F2503300F03BFA43F692
:10593000B043CFF6FF73984506460F463BDBC1F3F5
:105940000A530A46363B40F2FE7143448B4216DD51
:1059500032463B462EA1D1E9000100F061F82CA3AC
:10596000D3E9002300F01EFABDE8F08140F2FF7495
:10597000A34227D0434440F2FE718B42E8DC002B67
:105980000BDD22F0FF42304622F4E00242EA0357E8
:105990003946BDE8F081BDE8F08113F1350F17DA23
:1059A0004CF25033324698453B4622DC1AA1D1E9ED
:1059B000000100F035F818A3D3E9002300F0F2F954
:1059C000BDE8F08102460B4600F03AF8BDE8F081F0
:1059D000363322F0FF4222F4E002304642EA035717
:1059E00000230022C3F69043394600F0DBF9BDE8FE
:1059F000F08107A1D1E9000100F012F804A3D3E976
:105A0000002300F0CFF9BDE8F08100BFAFF30080C4
:105A10009C7500883CE4377E59F3F8C21F6EA501DF
:105A200010B421F0004203F0004444EA02015DF8A2
:105A3000044B704781F0004102E000BF83F0004357
:105A400030B54FEA41044FEA430594EA050F08BF19
:105A500090EA020F1FBF54EA000C55EA020C7FEADD
:105A6000645C7FEA655C00F0E2804FEA5454D4EB5A
:105A70005555B8BF6D420CDD2C4480EA020281EA24
:105A8000030382EA000083EA010180EA020281EA5C
:105A90000303362D88BF30BD11F0004F4FEA0131AE
:105AA0004FF4801C4CEA113102D0404261EB4101BD
:105AB00013F0004F4FEA03334CEA133302D0524243
:105AC00063EB430394EA050F00F0A780A4F10104FF
:105AD000D5F1200E0DDB02FA0EFC22FA05F2801839
