:020000040800F2
:1000000008110020B11C0008A9120008B512000850
:10001000C1120008CD120008D9120008000000002B
:10002000000000000000000000000000E5120008D1
:10003000F112000800000000FD120008B9260008B7
:10004000111D0008111D0008111D0008111D0008D8
:10005000111D0008111D0008111D0008111D0008C8
:10006000111D0008111D0008111D0008111D0008B8
:10007000111D0008111D0008111D0008111D0008A8
:10008000111D0008111D0008111D0008111D000898
:10009000A9200008111D0008111D0008111D0008ED
:1000A000111D000841100008111D0008111D000855
:1000B00065270008A510000811110008111D00088F
:1000C000111D0008111D0008111D0008111D000858
:1000D000111D00082953000835530008415300083A
:1000E000111D0008111D00081D130008111D000836
:1000F000E9110008111D0008111D0008111D00085C
:10010000111D0008111D00087D110008111D0008B7
:10011000111D0008111D0008111D0008111D000807
:10012000111D0008111D0008111D0008111D0008F7
:10013000111D0008111D0008111D0008111D0008E7
:10014000111D0008111D0008111D000809130008E9
:10015000111D0008111D0008111D0008111D0008C7
:10016000111D0008111D0008111D0008111D0008B7
:10017000111D0008111D0008111D0008111D0008A7
:10018000111D0008111D000880B584B000AFF86093
:100190000B467A60FB72FB7A013B032B52D801A21B
:1001A00052F823F0B5010008D9010008FD0100084C
:1001B00021020008FB68DB6A184608F027FA0346AC
:1001C0001846796808F07AFA0346184608F062FC87
:1001D0000246FB685A6336E0FB68DB6A184608F0A3
:1001E00015FA03461846796808F068FA0346184677
:1001F00008F050FC0246FB689A6324E0FB68DB6A67
:10020000184608F003FA03461846796808F056FACB
:100210000346184608F03EFC0246FB68DA6312E02B
:10022000FB68DB6A184608F0F1F90346184679685E
:1002300008F044FA0346184608F02CFC0246FB6816
:100240001A6400E000BF1037BD4680BD90B5ADB068
:1002500002AFF860B9603B601346FB800023C7F82B
:10026000A4300023C7F8A0300023C7F89C30012336
:10027000C7F898300023A7F8963002F04BFC07F13E
:100280004403184602F076F8FB68B3F1804F06D3BA
:10029000FA684FF4A053C4F200039A420DD9FA68E9
:1002A00041F2FF73C4F200039A4217D9FA684FF47F
:1002B0000053C4F200039A4210D8FA6C4FF4605312
:1002C000C4F20203D3F88C301B0E03F00103013398
:1002D00003FB02F35B00C7F8A4300FE03A6D4FF464
:1002E0006053C4F20203D3F88C301B0E03F00103F9
:1002F000013303FB02F35B00C7F8A4303B68002B1B
:100300000DDDD7F8A42048F21F53C5F2EB1383FB91
:1003100002135911D317CA1A3B689A4201DA012312
:10032000F4E01FE0D7F8A0300133C7F8A030D7F8C9
:10033000A420D7F8A03092FBF3F23B6892FBF3F3D2
:10034000C7F89C30D7F89C30B3F5803F02DA002321
:10035000C7F89830D7F8A0204FF6FE739A4201DD17
:100360000123D3E0D7F89830002BDBD1D7F8A420B5
:10037000D7F8A03092FBF3F2D7F89C3092FBF3F35E
:100380003B60F86804F0ACFAFB880022009202207F
:10039000B9681A46002300F0D5FDD7F89C30013B20
:1003A000FB63D7F8A0309BB2013B9BB23B87002395
:1003B000A7F8403000237B87002387F8423007F1FD
:1003C0003803F868194605F02FF86023BB84002332
:1003D0003B8608237B860123FB8404233B854FF463
:1003E0008073BB864FF40073FB8607F12403F86823
:1003F000194605F0CFF8F868002105F0BBFA07F1BF
:100400002403F868194605F03FF9F868002105F063
:10041000CDFA07F12403F868194605F0BDF9F8682C
:10042000002105F0E1FA07F12403F868194605F008
:1004300039FAF868002105F0F3FAFA680023C4F2EB
:1004400001039A4206D0FA684FF48063C4F20103B4
:100450009A4211D107F11403184605F027FB4FF417
:1004600080433B8407F11403F868194605F0F6FA57
:10047000F868012105F038FBFA8807F154031046AB
:10048000194604F0E9F80023A7F8963025E0B7F8FC
:1004900096305B0007F1A802134433F8543C012B5B
:1004A00016D1B7F8963010335B0007F1A8010B4462
:1004B00033F8523C184604F011FC03461C46F86819
:1004C00004F082FC0346B86821461A4602F094FA0A
:1004D000B7F896300133A7F89630B7F896300F2B5F
:1004E000D5D9FB6800225A63FB6800229A63FB6837
:1004F0000022DA63FB6800221A64F868012105F023
:1005000009F8F868012105F025F800231846AC37F2
:10051000BD4690BD80B489B000AFF860B960FA7193
:10052000BB800023FB76FB68DB78002B23D1002304
:100530007B610023FB61BB880333DA1C002BB8BF4F
:1005400013469B107B61FB79FA6832339B0013449E
:100550009B683B610023FB6109E0BB681A683B694B
:100560001A60FB690133FB61BB680433BB60FA6945
:100570007B699A42F1D3FB7E18462437BD465DF86D
:10058000047B704780B489B000AFF860B96013464F
:10059000FB800023FB61FB880333DA1C002BB8BF10
:1005A00013469B10BB61FB68D3F8D0307B610023FE
:1005B000FB6109E07B691A68BB681A60FB6901335B
:1005C000FB61BB680433BB60FA69BB699A42F1D333
:1005D000BB6818462437BD465DF8047B704700BFF2
:1005E00080B586B000AF786039600023FB740023CB
:1005F0007B610023FB60FB6843F02003FB603B68EA
:10060000DBB203F01F03DAB2FB6862F38A13FB600C
:100610007B68DB68FA681A617B68DB681B69FB60D2
:100620007B6901337B617A694FF45463C0F2030341
:100630009A4200D905E0FB68C3F34013DBB2012BFB
:10064000EAD0032002F0CEFBFB7C18461837BD46EB
:1006500080BD00BF80B483B000AF78607B68DB688A
:100660005B6903F0010318460C37BD465DF8047B57
:10067000704700BF80B582B000AF78607868FFF740
:10068000E9FF0346012B0CBF00230123DBB2184610
:100690000837BD4680BD00BF80B485B000AF78602C
:1006A0000023FB607B68DB685B69FB607B68DB6861
:1006B0009B69FA681340FB60FB6818461437BD4617
:1006C0005DF8047B704700BF80B485B000AF7860F0
:1006D0000023FB737B681B699B68BB603B7AC3F399
:1006E0004103DBB2022B09D0032B04D0012B02D033
:1006F0000323FB7305E00223FB7302E00123FB737A
:1007000000BFFB7B18461437BD465DF8047B70477D
:1007100080B487B000AF78600023FB750023BB6016
:100720007B681B699B683B617B689B691B68FB60FE
:100730003B7CC3F34103DBB2022B04D0BB896FF3D4
:100740000A03BB8105E0BB89032262F30A03BB8174
:1007500000BF7B689B69FA681A607B7A43F00103EB
:100760007B727B681B697A6812695168BA68D243E8
:100770001140BA680A435A60FB7D18461C37BD46D3
:100780005DF8047B704700BF80B487B000AF78602D
:1007900039600023FB740023FB600023BB603B68CF
:1007A0005B78012B0FD13B681B787A6804339B0080
:1007B00013449B687B613B681B78012202FA03F3B8
:1007C0009BB23B810EE03B681B787A6814339B0038
:1007D00013445B687B613B681B78012202FA03F3D8
:1007E0009BB27B817B691B68FB607B7BC3F3C0137F
:1007F000DBB2002B27D13B689B689BB2C3F30A0393
:100800009AB2BB8962F30A03BB813B68DB7803F0D1
:100810000303DAB2BB7B62F38303BB733B68DB8801
:10082000DBB203F00F03DAB2FB8962F38913FB81B9
:10083000FB7B43F01003FB737B7B43F080037B73F4
:10084000FA687B691A607B681B697A681269D169EA
:10085000BA680A43DA61FB7C18461C37BD465DF86E
:10086000047B704780B588B000AF786039600023A2
:10087000FB770023BB6100237B6100233B613B6866
:100880005B78012B40F0AB803B681B787A680433BF
:100890009B0013449B681B687B613B681B787A68EC
:1008A00004339B0013449B681B693B613B685B6995
:1008B000002B09D13B696FF312033B617B8A012254
:1008C00062F3CC037B8222E03B685B69C3F31202D4
:1008D0003B6962F312033B613B685A693B689B6862
:1008E00013445A1E3B689B68B2FBF3F39BB2C3F3FD
:1008F00009039AB27B8A62F3CC037B823B68DB7884
:10090000012B04D1FB7C012262F34613FB743B688C
:100910001B787A6804339B0013449B683A691A6118
:100920007B68DB78012B0AD13B681B787A6804333B
:100930009B0013449B683A6812695A6115E03B6852
:10094000DB78012B11D03B685B69002B0DD03B6835
:100950001B78012202FA03F3BB617B681B697A688A
:100960001269516BBA690A435A633B68DB78012B01
:1009700014D17B681B699B68FB60FB68C3F30D2384
:100980009BB203F00103002B04D1FB7D43F0200355
:10099000FB7503E0FB7D43F01003FB75FB7D43F02B
:1009A0000403FB75FB7D43F08003FB753B681B78FC
:1009B0007A6804339B0013449B687A691A603B6829
:1009C000DB78012B40F088803B68D9683B681A7857
:1009D0003B685B699BB27868FFF79CFD7CE03B68F5
:1009E0001B787A6814339B0013445B681B687B6137
:1009F0003B681B787A6814339B0013445B681B695F
:100A00003B613B685B69002B0DD13B689B68C3F37E
:100A100012023B6962F312033B617B8A012262F39B
:100A2000CC037B821FE03B685A693B689B68134498
:100A30005A1E3B689B68B2FBF3F39BB2C3F30903F6
:100A40009AB27B8A62F3CC037B827B8AC3F3C903AD
:100A50009BB23A68926802FB03F3C3F312023B694C
:100A600062F312033B613B681B787A6814339B0086
:100A700013445B683A691A617B68DB78012B09D102
:100A80003B681B787A6814339B0013445B683A68B0
:100A900012695A613B68DB78012B0CD13B685B79AA
:100AA000002B04D0FB7D43F02003FB7503E0FB7DAE
:100AB00043F01003FB75FB7D43F00403FB75FB7DE6
:100AC00043F08003FB753B681B787A6814339B0006
:100AD00013445B687A691A60FB7F18462037BD466D
:100AE00080BD00BF80B489B000AF7860396000235A
:100AF000FB770023BB6100233B610023BB603B68A5
:100B00005B78012B6FD17B689B697B617B691B687C
:100B10003B617B691B69BB603B685B69002B09D14A
:100B20003B7A6FF306033B72BB7A012262F3C40384
:100B3000BB7223E03B685A693B689B689A420ED9B6
:100B40003B689A683B685A613B689B68DBB203F07C
:100B50007F03DAB23B7A62F306033B7209E03B683B
:100B60005B69DBB203F07F03DAB23B7A62F3060320
:100B70003B72BB7A012262F3C403BB72BA687B6921
:100B80001A617B68DB78012B09D13B681B787A6896
:100B900004339B0013449B683A6812695A61FB7CDA
:100BA00043F00403FB74FB7C43F08003FB743A695D
:100BB0007B691A607B68DB78002B75D13B685B69C9
:100BC000002B71D03B681B78012202FA03F3BA694B
:100BD0001343BB617B681B697A681269516BBA6900
:100BE0000A435A6360E03B681B787A6814339B00C1
:100BF00013445B681B683B613B681B787A6814335D
:100C00009B0013445B681B69BB603B685B69002BFE
:100C10000FD13B689B68DBB203F07F03DAB23B7A0B
:100C200062F306033B72BB7A012262F3C403BB7218
:100C300012E03B689A683B685A613B689B68DBB28C
:100C400003F07F03DAB23B7A62F306033B72BB7AAE
:100C5000012262F3C403BB723B681B787A681433C9
:100C60009B0013445B68BA681A617B68DB78012BD0
:100C700009D13B681B787A6814339B0013445B6886
:100C80003A6812695A61FB7C43F00403FB74FB7CF5
:100C900043F08003FB743B681B787A6814339B0035
:100CA00013445B683A691A60FB7F18462437BD46D7
:100CB0005DF8047B704700BF80B487B000AF7860F8
:100CC00039600023FB750023FB603B685B78012BD8
:100CD0001CD13B681B787A6804339B0013449B68E3
:100CE0003B613B691B68FB60FB7BC3F3C013DBB25A
:100CF000002B03D0FB7B43F04003FB73BB7B43F033
:100D00002003BB73FA683B691A6011E03B681B78EB
:100D10007A6814339B0013445B683B613B691B6832
:100D2000FB60BB7B43F02003BB73FA683B691A602E
:100D3000FB7D18461C37BD465DF8047B704700BF3D
:100D400080B487B000AF786039600023FB74002363
:100D5000FB603B685B78012B08D13B681B787A68A5
:100D600004339B0013449B687B6107E03B681B785E
:100D70007A6814339B0013445B687B617B691B6852
:100D8000FB60BB7B6FF34513BB733B68DB78032BC6
:100D900003D03B68DB78022B03D1FB7B43F01003CD
:100DA000FB73FA687B691A60FB7C18461C37BD46EA
:100DB0005DF8047B704700BF80B485B000AF7860F9
:100DC0007B681B699B69FB607B681B69DB69FA6850
:100DD0001340FB60FB681B0C18461437BD465DF8DA
:100DE000047B704780B485B000AF78600B46FB7021
:100DF000FB787A6814339B0013445B689B68FB6044
:100E00007B681B695B69FA681340FB60FB681846E6
:100E10001437BD465DF8047B704700BF80B485B0D1
:100E200000AF78607B681B699B69FB607B681B690E
:100E3000DB69FA681340FB60FB689BB21846143705
:100E4000BD465DF8047B704780B487B000AF786022
:100E500000233B61FB7C43F0C003FB74BB7C01229D
:100E600062F3C403BB743B7C182262F306033B7439
:100E70007B685B6D3A691A617B68DB78012B16D160
:100E80000023FB607B685B6D7A6802F5B9625A618A
:100E90007B685B6D1B68FB60FB7B43F08003FB732F
:100EA0004FF08023FB607B685B6DFA681A601C372B
:100EB000BD465DF8047B704780B485B000AF7860B4
:100EC0007B689B7A002B1BD07B681B699B68FB604F
:100ED0003B7BC3F30003DBB2012B11D17B6803F52D
:100EE00086731B68BB603B7A6FF341033B723B7AAE
:100EF0006FF300033B727B68D3F80C31BA681A6059
:100F00001437BD465DF8047B704700BF80B582B0E2
:100F100000AF0346FB7100BF4FF48840C4F20000ED
:100F2000802100F06BFB0346002BF5D0FB799BB2D0
:100F30004FF48840C4F20000194600F0F5FA083773
:100F4000BD4680BD80B584B000AF39600146F971FF
:100F5000BA80BB713A680023C4F202039A4204D1FA
:100F60000120012101F0DAFA2EE03A684FF48063A3
:100F7000C4F202039A4204D10220012101F0CEFA08
:100F800022E03A684FF40063C4F202039A4204D1AB
:100F90000420012101F0C2FA16E03A684FF44063E0
:100FA000C4F202039A4204D10820012101F0B6FAEA
:100FB0000AE03A684FF48053C4F202039A4203D124
:100FC0001020012101F0AAFA07F10803184601F0E8
:100FD000DDFCBB88BB60FB793B733B7EBB73BB799D
:100FE000FB7303237B7307F108033868194601F08C
:100FF0003FFCFB79012B04D1BB883868194601F00E
:10100000EDFC1037BD4680BD80B582B000AF786082
:1010100013460A467A803B803B88012B05D17B88AA
:101020007868194601F0CCFC07E03B88002B04D11E
:101030007B887868194601F0D1FC0837BD4680BD31
:1010400080B500AF0023C4F201031B889BB21B09CB
:101050009BB2002B0BD040F25413C2F200031B686A
:101060005A1C40F25413C2F200031A6013E000232A
:10107000C4F201031B889BB21B099BB2002B0AD14F
:1010800040F25013C2F200031B685A1C40F2501386
:10109000C2F200031A600020C4F20100012104F032
:1010A00049FD80BD80B500AF4FF48063C4F20003FA
:1010B0001B889BB21B099BB2002B0BD040F2641320
:1010C000C2F200031B685A1C40F26413C2F2000310
:1010D0001A6014E04FF48063C4F200031B889BB2D3
:1010E0001B099BB2002B0AD140F26013C2F200032D
:1010F0001B685A1C40F26013C2F200031A604FF4DE
:101100008060C4F20000012104F014FD80BD00BF26
:1011100080B500AF4FF40063C4F200031B889BB29C
:101120001B099BB2002B0BD040F26C13C2F20003E0
:101130001B685A1C40F26C13C2F200031A6014E0E0
:101140004FF40063C4F200031B889BB21B099BB2DF
:10115000002B0AD140F26813C2F200031B685A1C2C
:1011600040F26813C2F200031A604FF40060C4F248
:101170000000012104F0DEFC80BD00BF80B500AF9F
:101180004FF44063C4F200031B889BB21B099BB25F
:10119000002B0BD040F27413C2F200031B685A1CE0
:1011A00040F27413C2F200031A6014E04FF440637B
:1011B000C4F200031B889BB21B099BB2002B0AD10F
:1011C00040F27013C2F200031B685A1C40F2701305
:1011D000C2F200031A604FF44060C4F20000012123
:1011E00004F0A8FC80BD00BF80B500AF4FF4806361
:1011F000C4F201031B889BB21B099BB2002B0BD0CE
:1012000040F27C13C2F200031B685A1C40F27C13AC
:10121000C2F200031A6014E04FF48063C4F20103C9
:101220001B889BB21B099BB2002B0AD140F278139A
:10123000C2F200031B685A1C40F27813C2F200038A
:101240001A604FF48060C4F20100012104F072FCC6
:1012500080BD00BF80B483B000AF0123FB800023BA
:101260003B6000BF3A68531C3B604AF21F13C0F258
:1012700007039A42F6D94FF44063C4F20203FA8896
:10128000120392B25A83FB885B00FB80FB880F2B12
:1012900001D90123FB804FF44063C4F20203FA88B2
:1012A000120392B21A83DAE780B400AFBD465DF84C
:1012B000047B704780B500AFFFF7CCFF80BD00BF57
:1012C00080B500AFFFF7C6FF80BD00BF80B500AF9F
:1012D000FFF7C0FF80BD00BF80B500AFFFF7BAFFCA
:1012E00080BD00BF80B400AFBD465DF8047B704791
:1012F00080B400AFBD465DF8047B704780B400AF9A
:10130000BD465DF8047B704780B500AF40F2B82061
:10131000C2F2000002F0FCF980BD00BF80B500AF52
:1013200040F2B823C2F200039B7A002B13D04EF692
:101330001053CEF200034EF61052CEF200021268A5
:1013400022F006021A6001F09DFB40F2B820C2F2C2
:101350000000FFF7B1FD4FF4802003F06DF980BD70
:1013600080B58AB000AF7860396000237B620023CB
:101370003B620023FB610023BB617B681B8A9BB23D
:101380007B627B6A23F440537B623B68DB887A6A2A
:1013900013437B627B6A9AB27B681A827B689B8963
:1013A0009BB27B627B6A23F4B05323F00C037B6215
:1013B0003B689A883B681B8913439AB23B685B89F8
:1013C00013439BB27A6A13437B627B6A9AB27B684F
:1013D0009A817B689B8A9BB27B627B6A23F4407311
:1013E0007B623B689B897A6A13437B627B6A9AB211
:1013F0007B689A8207F10803184600F0BBFF7A6801
:101400004FF48053C4F201039A4206D07A684FF435
:10141000A053C4F201039A4202D17B693B6201E00E
:101420003B693B627B689B899BB29BB21BB2002BE2
:101430000CDA3A6A13469B0013449A001A443B683C
:101440001B685B00B2FBF3F3FB610BE03A6A1346E7
:101450009B0013449A001A443B681B689B00B2FB34
:10146000F3F3FB61FA6948F21F53C5F2EB13A3FBD8
:1014700002135B091B017B627B6A1B09642202FB6E
:1014800003F3FA69D31ABB617B689B899BB29BB259
:101490001BB2002B10DABB69DB0003F1320248F209
:1014A0001F53C5F2EB13A3FB02135B0903F0070301
:1014B0007A6A13437B620FE0BB691B0103F13202BE
:1014C00048F21F53C5F2EB13A3FB02135B0903F0B1
:1014D0000F037A6A13437B627B6A9AB27B681A8134
:1014E0002837BD4680BD00BF80B483B000AF7860B0
:1014F0000B46FB70FB78002B08D07B689B899BB266
:1015000043F400539AB27B689A8107E07B689B8919
:101510009BB223F400539AB27B689A810C37BD4684
:101520005DF8047B704700BF80B483B000AF786083
:101530000B467B807B88C3F308039AB27B689A8052
:101540000C37BD465DF8047B704700BF80B483B0A4
:1015500000AF78607B689B889BB2C3F308039BB2A3
:1015600018460C37BD465DF8047B704780B487B0E1
:1015700000AF786013460A467A807B7000233B6197
:101580000023FB600023BB6000237B617B687B61E1
:101590007B88DBB25B09DBB23B617B8803F01F0316
:1015A000FB60FB68012202FA03F3BB603B69012B7D
:1015B00003D17B690C337B6109E03B69022B03D1CA
:1015C0007B6910337B6102E07B6914337B617B783C
:1015D000002B06D07B697A691168BA680A431A60E1
:1015E00006E07B697A691168BA68D2430A401A60DA
:1015F0001C37BD465DF8047B704700BF80B485B0E2
:1016000000AF78600B467B800023FB737B681B88F0
:101610009AB27B8813409BB2002B02D00123FB734C
:1016200001E00023FB73FB7B18461437BD465DF8D1
:10163000047B704780B487B000AF78600B467B8036
:101640000023FB6000237B610023BB600023FB744D
:101650007B88DBB25B09DBB2BB607B8803F01F03D6
:101660007B617B69012202FA03F37B61BB68012B7A
:1016700006D17B689B899BB27A6913407B610FE03E
:10168000BB68022B06D17B681B8A9BB27A69134028
:101690007B6105E07B689B8A9BB27A6913407B6122
:1016A0007B881B0A9BB2FB60FB68012202FA03F3F2
:1016B000FB607B681B889BB2FA681340FB607B6908
:1016C000002B05D0FB68002B02D00123FB7401E046
:1016D0000023FB74FB7C18461C37BD465DF8047B79
:1016E000704700BF80B485B000AFF8600B467A60E9
:1016F000FB72FB7AFA681B331B0113441B68DBB2D5
:1017000003F00403DAB27B681A727B681B7A002B41
:1017100009D1FB7AFA681B331B0113441B685A0D6D
:101720007B681A6008E0FB7AFA681B331B011344DC
:101730001B68DA087B685A60FB7AFA681B331B0166
:1017400013441B68DBB203F00203DAB27B685A72FF
:10175000FB7AFA681B331B0113445B68DBB203F0AE
:101760000F03DAB27B689A72FB7AFA681B331B01AB
:1017700013445B681B0ADAB27B68DA74FB7AFA6896
:101780001B01134403F5DC731B68DAB27B68DA7261
:10179000FB7AFA681B01134403F5DC731B681B0A10
:1017A000DAB27B681A73FB7AFA681B01134403F5FB
:1017B000DC731B681B0CDAB27B685A73FB7AFA681D
:1017C0001B01134403F5DC731B681B0EDAB27B6844
:1017D0009A73FB7AFA681B01134403F5DC735B68A8
:1017E000DAB27B68DA73FB7AFA681B01134403F5FB
:1017F000DC735B681B0ADAB27B681A74FB7AFA68DE
:101800001B01134403F5DC735B681B0CDAB27B68C5
:101810005A74FB7AFA681B01134403F5DC735B68A6
:101820001B0EDAB27B689A74FB7A002B06D1FB6838
:10183000DB6843F02002FB68DA6005E0FB681B69A7
:1018400043F02002FB681A611437BD465DF8047B43
:10185000704700BF80B584B000AF78603960002366
:10186000FB737B685A693B681340002B00F0B5801E
:101870003B68402B65D0402B0FD8042B3DD0042B68
:1018800004D8012B24D0022B2ED0A2E0102B46D05E
:10189000202B4DD0082B39D09BE0B3F5006F00F022
:1018A0008680B3F5006F09D8B3F5007F6DD0B3F52E
:1018B000806F73D0B3F5807F5ED08AE0B3F5803F50
:1018C00048D0B3F5003F4ED0B3F5004F78D080E05C
:1018D0007B689B68184640F20111C0F2010100F0DC
:1018E00083F80346FB7377E07B68DB6818460321C7
:1018F00000F07AF80346FB736EE07B68DB681846FD
:10190000082100F071F80346FB7365E07B68DB6833
:101910001846102100F068F80346FB735CE07B6812
:101920001B691846032100F05FF80346FB7353E080
:101930007B681B691846082100F056F80346FB73C4
:101940004AE07B681B691846102100F04DF80346F9
:10195000FB7341E07B685B681846082100F044F89F
:101960000346FB7338E07B685B681846102100F083
:101970003BF80346FB732FE07B689B691846012107
:1019800000F032F80346FB7326E07B689B6918463B
:10199000022100F029F80346FB731DE07B689B6978
:1019A0001846042100F020F80346FB7314E07B681E
:1019B0009B691846702100F017F80346FB730BE093
:1019C0007B685B681846042100F00EF80346FB7341
:1019D00002E00023FB7300BF01E00023FB73FB7BED
:1019E00018461037BD4680BD80B485B000AF786022
:1019F00039600023FB737A683B681340002B02D0E8
:101A00000123FB7301E00023FB73FB7B18461437B3
:101A1000BD465DF8047B704780B588B000AF786044
:101A200039600023FB6107F1080300221A600433C8
:101A300000221A60043300221A60043300221A6064
:101A4000043300221A6004333B68002B03D17B6807
:101A50003020984750E00023FB6129E039684CF6BC
:101A6000CD43CCF6CC43A3FB0123DA0813469B00FD
:101A700013445B00CA1AD2B207F10801FB690B4498
:101A80001A70386806F08CF902460B461046194663
:101A90001BA3D3E9002306F0F9F902460B461046D2
:101AA000194606F08DFC03463B60FB690133FB6180
:101AB0003B68002B0CBF00230123DAB2FB69132B18
:101AC000CCBF00230123DBB21340DBB2002BC5D116
:101AD000FB69013BFB610CE007F10802FB69134461
:101AE0001B783033DAB27B6810469847FB69013BBC
:101AF000FB61FB69002BEFDA2037BD4680BD00BFDC
:101B00009A9999999999B93F80B582B000AF786058
:101B100039603B68002B09DA7B682D2098473B68C9
:101B20005B4278681946FFF777FF04E03B68786806
:101B30001946FFF771FF0837BD4680BDB0B588B0C4
:101B400000AF786039600323BB610023FB61002391
:101B50007B614FF00003FB604FF000033B6107F136
:101B60000C033868194603F0F5FF3861FB68184626
:101B700006F06AFF034678681946FFF7C5FF7B68E1
:101B80002E2098473B6923F00044B86906F042FDD7
:101B900003464FF00000C4F22010194604F0C2F9C9
:101BA00003462046194606F089FD0346184603F011
:101BB000F5FF0346184606F047FF03467B61012305
:101BC000FB6105E07B6830209847FB690133FB61CE
:101BD000BA69FB69D31A184606F0F2F802460B46BA
:101BE0004FF000004FF00001C4F2240103F0FEFFAB
:101BF00004460D46786906F0E3F802460B46204697
:101C0000294606F0D3FB0346002B03D0FA69BB69D3
:101C10009A42D7DB78687969FFF776FF2037BD46AF
:101C2000B0BD00BF80B584B000AF786039600023DC
:101C3000FB600023FB6009E0FB683A6813441A78F4
:101C40007B6810469847FB680133FB60FB683A6885
:101C500013441B78002B02D0FB68132BECDD1037EC
:101C6000BD4680BD80B582B000AF78607B680D2036
:101C700098477B680A2098470837BD4680BD00BF5B
:101C800080B584B000AFF860B9607A60F868B96870
:101C9000FFF7C8FFFB682C209847F8687968FFF7C2
:101CA0004DFFFB682C2098471037BD4680BD00BF14
:101CB00080B582B000AF48F66433C0F600037B60A5
:101CC00040F20003C2F200033B6007E03B681A1DCC
:101CD0003A607A68111D796012681A603A6840F2B9
:101CE0005013C2F200039A42F0D3074807494FF05D
:101CF00000028842B8BF40F8042BFADB00F0D0FAAB
:101D00000837BD4680BD00005001002008090020B2
:101D100080B400AFFEE700BF80B584B000AF78604C
:101D200007F108037868194601F088FC3B7A03F054
:101D30001F03012B0AD0022B0FD0002B14D107F167
:101D400008037868194601F073F816E007F10803F4
:101D50007868194601F0BCF80FE007F108037868CD
:101D6000194601F0E9F808E03B7A23F07F03DBB283
:101D70007868194603F0CEF900BF002318461037E3
:101D8000BD4680BD80B584B000AF78600B46FB7067
:101D9000FB78002B45D17B6803F55C73FB607B68A7
:101DA00093F81131032B4FD1FB68DA69FB689B680C
:101DB0009A4221D9FB68DA69FB689B68D21AFB68F2
:101DC000DA617B68DB78012B06D1FB68DA68FB6897
:101DD0009B681A44FB68DA60FB68DA68FB689968FC
:101DE000FB68DB69994238BF0B469BB278681146A5
:101DF0001A4603F055FA27E07B68D3F8E0351B69F3
:101E0000002B0AD07B6893F81231032B05D17B6835
:101E1000D3F8E0351B6978689847786803F054FA7E
:101E200012E07B68D3F8E0359B69002B0CD07B680F
:101E300093F81231032B07D17B68D3F8E0359B6907
:101E4000FA78786811469847002318461037BD463F
:101E500080BD00BF80B584B000AF78600B46FB70DA
:101E6000FB78002B60D17B6803F58C73FB607B688B
:101E700093F81131022B6AD1FB68DA69FB689B6821
:101E80009A421CD9FB68DA69FB689B68D21AFB6826
:101E9000DA617B68DB78012B06D1FB68DA68FB68C6
:101EA0009B681A44FB68DA60FB68DA68FB68DB69E8
:101EB0009BB2786811461A4603F0DEF947E0FB68EA
:101EC0001B6AFA689268B3FBF2F102FB01F29B1AFB
:101ED000002B14D1FB681A6AFB689B689A420ED3E8
:101EE000FB681A6AFB685B6A9A4208D2786800212C
:101EF000002203F0C1F9FB6800225A6227E07B68E8
:101F0000D3F8E035DB68002B0AD07B6893F81231F8
:101F1000032B05D17B68D3F8E035DB6878689847F8
:101F2000786803F0E9F912E07B68D3F8E0355B6983
:101F3000002B0CD07B6893F81231032B07D17B6800
:101F4000D3F8E0355B69FA78786811469847002342
:101F500018461037BD4680BD80B582B000AF7860AE
:101F6000786800214022002303F00AF87868802175
:101F70004022002303F004F87B68012283F8122139
:101F80007B68D3F8E4355B687A68927810469847A6
:101F9000002318460837BD4680BD00BF80B582B01B
:101FA00000AF78607B68D3F8E4351B6998477B689D
:101FB000032283F81221002318460837BD4680BD4E
:101FC00080B582B000AF78607B68042283F812216C
:101FD0007B68D3F8E435DB68984700231846083758
:101FE000BD4680BD80B582B000AF78607B68D3F815
:101FF000E035DB69002B05D07B68D3F8E035DB6981
:1020000078689847002318460837BD4680BD00BF52
:1020100080B582B000AF78600B46FB707B68D3F868
:10202000E0351B68FA787868114698477B68D3F8E2
:10203000E4359B689847002318460837BD4680BDA5
:1020400080B582B000AF78600B46FB707B68D3F838
:10205000E0355B68FA78786811469847002318469F
:102060000837BD4680BD00BF80B582B000AF786044
:102070007B68D3F8E0351B6A7868984700231846D8
:102080000837BD4680BD00BF80B582B000AF786024
:102090007B68D3F8E0355B6A786898470023184678
:1020A0000837BD4680BD00BF80B500AF4FF4C840C3
:1020B000C4F200000221FFF7CDFB0346002B1AD02B
:1020C0004FF4C840C4F20000002140F6A802C2F25A
:1020D0000002FFF707FB084840F6BC01C2F200010E
:1020E00002F0FEF94FF44060C4F202004FF4804168
:1020F0000122FEF789FF80BDB30800200000000028
:1021000080B584B000AF78604FF00003FB60786862
:102110004FF0000106F084FC0346002B27D07868BE
:102120004FF00001C4F2873106F070FC0346002B2B
:102130001DD0786805F056FE02460B46104619463B
:1021400017A3D3E9002305F0A1FE02460B46104673
:10215000194615A3D3E9002305F0E6FC02460B4619
:102160001046194606F04CF90346FB6005E040F2C4
:102170008013C2F200031B68FB6040F28013C2F2BE
:102180000003FA681A600020C4F201000321FA6813
:10219000FDF7FAFF1037BD4680BD00BFAFF30080EA
:1021A00021740BE7066B333FEC51B81E85EBA13F62
:1021B00080B582B002AF00F065FC41F26F20C3F63B
:1021C000832000F0ABFA0020C4F201004FF48051EC
:1021D000C4F202014FF400523223FEF737F84FF4F5
:1021E0004063C4F202030093402301934FF48840FC
:1021F000C4F200004FF4E1314FF44062C4F2020235
:10220000202303F0A3F80023009301204FF4406142
:10221000C4F202014FF440420123FEF793FE002373
:10222000009300200021C4F2020101220023FEF7E6
:1022300089FE0023009301204FF44061C4F20201A3
:1022400001220023FEF77EFE0023009301200021DF
:10225000C4F2020180220023FEF774FE00230093E3
:1022600001204FF40061C4F2020110220023FEF7A6
:1022700069FE0023009301200021C4F202014022E4
:102280000023FEF75FFE0023009301204FF400615E
:10229000C4F2020120220023FEF754FEBD4680BD99
:1022A00080B582B000AF0023BB800023FB804FF0DD
:1022B00000033B60FFF77CFF4FF00000C4F2B42046
:1022C000FFF71EFF002000F099FA002000F05EFAF0
:1022D0000346B3F5487F16D3002000F08FFAB7F914
:1022E0000630B3F5877F01DB0023FB80B7F90630AA
:1022F000184606F08FF903461846FFF701FFFB88E2
:102300000A339BB2FB80B7F90630184606F082F913
:10231000034640F60D70C0F6000048F6E021C0F616
:1023200000011A46FFF7ACFC40F60D70C0F6000045
:1023300048F6E821C0F600013A68FFF7A1FC00204A
:1023400000F024FA0346184606F060F9034640F60A
:102350000D70C0F6000048F6F021C0F600011A46E4
:10236000FFF78EFC40F60D70C0F60000FFF77AFC18
:10237000ABE700BF80B489B000AF78600023BB61D9
:1023800000237B610023FB6102233B610023FB6090
:102390000223BB604FF46053C4F202039B6803F056
:1023A0000C03BB61BB69042B0AD0082B0FD0002B98
:1023B0005AD17A684FF41053C0F2F40313605AE014
:1023C0007A684FF49053C0F27A03136053E04FF4ED
:1023D0006053C4F202035B6803F480039B0DFB604F
:1023E0004FF46053C4F202035B6803F03F03BB6029
:1023F000FB68002B13D04FF49053C0F27A03BA68F5
:10240000B3FBF2F24FF46053C4F20203596847F68B
:10241000C0730B409B0903FB02F3FB6112E04FF416
:102420001053C0F2F403BA68B3FBF2F24FF46053F6
:10243000C4F20203596847F6C0730B409B0903FBC3
:1024400002F3FB614FF46053C4F202035B6803F4D0
:1024500040331B0C01335B003B61FA693B69B2FB03
:10246000F3F27B681A6006E07A684FF41053C0F20A
:10247000F403136000BF4FF46053C4F202039B687F
:1024800003F0F003BB61BB691B09BB6140F2300381
:10249000C2F20003BA6913441B78DBB27B617B682C
:1024A0001A687B69DA407B685A604FF46053C4F263
:1024B00002039B6803F4E053BB61BB699B0ABB61E9
:1024C00040F23003C2F20003BA6913441B78DBB256
:1024D0007B617B685A687B69DA407B689A604FF45D
:1024E0006053C4F202039B6803F46043BB61BB69A1
:1024F0005B0BBB6140F23003C2F20003BA691344C4
:102500001B78DBB27B617B685A687B69DA407B6849
:10251000DA602437BD465DF8047B704780B483B031
:1025200000AF78600B46FB70FB78002B0CD04FF4AB
:102530006053C4F202034FF46052C4F20202116B02
:102540007A680A431A630CE04FF46053C4F2020342
:102550004FF46052C4F20202116B7A68D2430A400F
:102560001A630C37BD465DF8047B704780B483B0B6
:1025700000AF78600B46FB70FB78002B0CD04FF45B
:102580006053C4F202034FF46052C4F20202116CB1
:102590007A680A431A640CE04FF46053C4F20203F1
:1025A0004FF46052C4F20202116C7A68D2430A40BE
:1025B0001A640C37BD465DF8047B704780B483B065
:1025C00000AF78600B46FB70FB78002B0CD04FF40B
:1025D0006053C4F202034FF46052C4F20202516C21
:1025E0007A680A435A640CE04FF46053C4F2020361
:1025F0004FF46052C4F20202516C7A68D2430A402E
:102600005A640C37BD465DF8047B704780B483B0D4
:1026100000AF03463960FB7197F90730002B0EDAE3
:102620004FF46D43CEF20003FA7902F00F02111F4E
:102630003A68D2B21201D2B20B441A760CE04FF4CF
:102640006143CEF2000397F907103A68D2B2120143
:10265000D2B20B4483F800230C37BD465DF8047BEF
:10266000704700BF80B582B000AF78607B68B3F17F
:10267000807F01D301231AE04EF21003CEF2000353
:102680007A6822F07F42013A5A604FF0FF300F2102
:10269000FFF7BCFF4EF21003CEF2000300229A6057
:1026A0004EF21003CEF2000307221A6000231846F0
:1026B0000837BD4680BD00BF80B400AF40F2841330
:1026C000C2F200031B685A1C40F28413C2F20003DA
:1026D0001A6040F28C13C2F200031B685A1C40F2CD
:1026E0008C13C2F200031A6040F28813C2F2000396
:1026F0001B685A1C40F28813C2F200031A6040F2B1
:102700009013C2F200031B685A1C40F29013C2F2ED
:1027100000031A60BD465DF8047B704780B582B047
:1027200000AF786000F0F6F94FF0FF300121FFF7BD
:102730006DFF40F24003C2F200031B68184605F02B
:1027400065FF03461846796805F0B8FF034618464A
:1027500006F0A0F903461846FFF784FF0837BD4688
:1027600080BD00BF80B500AF40F29413C2F20003F9
:102770001B685A1C40F29413C2F200031A604FF017
:102780008040012103F0D6F980BD00BF80B483B042
:1027900000AF78607B68002B05D140F28413C2F251
:1027A00000031B6824E07B68012B05D140F28813ED
:1027B000C2F200031B681BE07B68022B05D140F2CC
:1027C0009413C2F200031B6812E07B68032B05D14F
:1027D00040F28C13C2F200031B6809E07B68042BF3
:1027E00005D140F29013C2F200031B6800E0002301
:1027F00018460C37BD465DF8047B704780B483B043
:1028000000AF78607B68002B06D140F28413C2F2DF
:10281000000300221A6026E07B68012B06D140F2FB
:102820008813C2F2000300221A601CE07B68022BAE
:1028300006D140F29413C2F2000300221A6012E0A3
:102840007B68032B06D140F28C13C2F200030022F6
:102850001A6008E07B68042B05D140F29013C2F2A5
:10286000000300221A600C37BD465DF8047B7047F8
:1028700080B487B000AF7860396000237B610023AB
:102880003B610023FB6000237B6176E07B690122D2
:1028900002FA03F33B613B681A683B691340FB6033
:1028A000FA683B699A4265D17B681A687B695B006C
:1028B000032101FA03F3DB431A407B681A607B684B
:1028C0001A683B681B7919467B695B0001FA03F3C0
:1028D0001A437B681A603B681B79012B03D03B6865
:1028E0001B79022B2ED17B689A687B695B000321E0
:1028F00001FA03F3DB431A407B689A607B689A68AD
:102900003B685B7919467B695B0001FA03F31A4364
:102910007B689A607B685A687B699BB2012101FAE7
:1029200003F3DB431A407B685A607B685A683B6854
:102930009B7919467B699BB201FA03F39BB21A4358
:102940007B685A607B68DA687B699BB25B00032115
:1029500001FA03F3DB431A407B68DA607B68DA68CC
:102960003B68DB7919467B695B0001FA03F31A4384
:102970007B68DA607B6901337B617B690F2B85D9CA
:102980001C37BD465DF8047B704700BF80B483B040
:1029900000AF78607B684FF6FF721A607B68002298
:1029A0001A717B6800225A717B6800229A717B68D9
:1029B0000022DA710C37BD465DF8047B704700BF1A
:1029C00080B483B000AF78600B467B807B687A88E8
:1029D0001A830C37BD465DF8047B704780B483B022
:1029E00000AF78600B467B807B687A885A830C370F
:1029F000BD465DF8047B704780B485B000AF786059
:102A000013460A467A807B700023FB600023BB607C
:102A10007A787B8803F007039B0002FA03F3FB60DC
:102A20007B88DB089BB21A467B88DB089BB2194681
:102A30007B68083153F821107B8803F007039B0063
:102A40000F2000FA03F3DB4319407B68083243F898
:102A500022107B88DB089BB21A467B68083253F849
:102A60002220FB681343BB607B88DB089BB21A46BD
:102A70007B680832B96843F822101437BD465DF808
:102A8000047B704780B500AF4FF46053C4F202037B
:102A90004FF46052C4F20202126842F001021A605E
:102AA0004FF46053C4F2020300229A604FF4605363
:102AB000C4F202034FF46052C4F20202126822F020
:102AC000847222F480321A604FF46053C4F202031D
:102AD00043F21002C2F200425A604FF46053C4F253
:102AE00002034FF46052C4F20202126822F4802200
:102AF0001A604FF46053C4F202030022DA6000F05F
:102B0000B3F84FF46D43CEF200034FF000629A60C9
:102B100080BD00BF80B487B000AF00233B610023BD
:102B20007B610223FB600023BB6002237B604FF4C8
:102B30006053C4F202039B6803F00C033B613B69E2
:102B4000042B0DD0082B15D0002B63D140F240038D
:102B5000C2F200034FF41052C0F2F4021A6063E0B4
:102B600040F24003C2F200034FF49052C0F27A02E6
:102B70001A6059E04FF46053C4F202035B6803F437
:102B800080039B0DBB604FF46053C4F202035B688B
:102B900003F03F037B60BB68002B13D04FF49053CE
:102BA000C0F27A037A68B3FBF2F24FF46053C4F2D6
:102BB0000203596847F6C0730B409B0903FB02F3FD
:102BC0007B6112E04FF41053C0F2F4037A68B3FB58
:102BD000F2F24FF46053C4F20203596847F6C0732F
:102BE0000B409B0903FB02F37B614FF46053C4F27B
:102BF00002035B6803F440331B0C01335B00FB6092
:102C00007A69FB68B2FBF3F240F24003C2F20003C0
:102C10001A6009E040F24003C2F200034FF4105280
:102C2000C0F2F4021A6000BF4FF46053C4F2020312
:102C30009B6803F0F0031A0940F24403C2F2000358
:102C40009B5CDBB23B6140F24003C2F200031A68B6
:102C50003B69DA4040F24003C2F200031A601C37BD
:102C6000BD465DF8047B704780B483B000AF00239D
:102C70007B6000233B604FF46053C4F202034FF4C7
:102C80006052C4F20202126842F480321A604FF4B9
:102C90006053C4F202031B6803F400333B607B689B
:102CA00001337B603B68002B03D17B68B3F5A06FD9
:102CB000EDD14FF46053C4F202031B6803F40033F8
:102CC000002B02D001233B6001E000233B603B6806
:102CD000012B40F082804FF46053C4F202034FF4A2
:102CE0006052C4F20202126C42F080521A644FF435
:102CF000E043C4F200034FF4E042C4F20002126861
:102D000042F480421A604FF46053C4F202034FF45D
:102D10006052C4F2020292689A604FF46053C4F2A7
:102D200002034FF46052C4F20202926842F400427D
:102D30009A604FF46053C4F202034FF46052C4F23D
:102D40000202926842F4A0529A604FF46053C4F2B7
:102D5000020345F20842C0F240725A604FF46053D9
:102D6000C4F202034FF46052C4F20202126842F04D
:102D700080721A6000BF4FF46053C4F202031B68F4
:102D800003F00073002BF6D04FF47053C4F202032B
:102D900040F205621A604FF46053C4F202034FF42C
:102DA0006052C4F20202926822F003029A604FF469
:102DB0006053C4F202034FF46052C4F202029268FC
:102DC00042F002029A6000BF4FF46053C4F2020363
:102DD0009B6803F00C03082BF6D10C37BD465DF859
:102DE000047B704780B485B000AF78600023FB603F
:102DF0007A6813461B019B1ADB001A4644F625131A
:102E0000C2F29243A3FB0213D21A520813449B0846
:102E1000BB60FB680133FB60FA68BB689A4200D96B
:102E200000E0F6E71437BD465DF8047B704700BF4D
:102E300080B584B000AF786039600023FB733B68D5
:102E40005B78092B39D801A252F823F09D2E000897
:102E5000B12E0008BB2E0008A72E0008BB2E0008CC
:102E60007F2E0008752E0008BB2E0008932E000848
:102E7000892E00087868396800F042F922E0786805
:102E8000396800F019FA1DE07868396800F052FAE4
:102E900018E07868396800F0E5FA13E07868396876
:102EA00000F010FB0EE07868396800F039FB09E0AB
:102EB0007868396800F09AFB04E07868396800F0B7
:102EC00003FC00BFFB7B18461037BD4680BD00BF2A
:102ED00080B584B000AF786039600023FB737B68F5
:102EE00093F81231032B1CD13B689B88DBB2012B7A
:102EF00011D87B68D3F8E0359B68786839689847C3
:102F00003B68DB88002B0BD1FB7B002B08D178685A
:102F100002F0DAF90AE07868396800F0D5FB05E0DC
:102F200004E07868396800F0CFFB00BFFB7B1846EF
:102F30001037BD4680BD00BF80B584B000AF78605B
:102F400039600023FB733B689B88BB733B685B78ED
:102F5000012B39D0032B02D0002B6BD0CBE07B6848
:102F600093F81231022B02D0032B0DD026E0BB7B4D
:102F7000002B08D0BB7B802B05D0BB7B7868194623
:102F800002F0C8F81FE01EE03B685B88002B0AD106
:102F9000BB7B002B07D0BB7B802B04D0BB7B78682E
:102FA000194602F0B7F87B68D3F8E0359B6878687B
:102FB00039689847786802F087F904E078683968DA
:102FC00000F082FB00BF96E07B6893F81231022B81
:102FD00002D0032B0DD027E0BB7B002B08D0BB7B9E
:102FE000802B05D0BB7B7868194602F093F820E06F
:102FF0001FE03B685B88002B15D1BB7B002B0ED0FC
:10300000BB7B802B0BD0BB7B7868194602F0BCF8E9
:103010007B68D3F8E0359B687868396898477868AA
:1030200002F052F905E004E07868396800F04CFBE2
:1030300000BF60E07B6893F81231022B02D0032BB3
:103040000DD052E0BB7B002B08D0BB7B802B05D082
:10305000BB7B7868194602F05DF84BE04AE0BB7B29
:103060005BB2002B1BDABB7B03F07F02796813464F
:103070009B001344DB000B4403F58C739B78002BFF
:1030800006D040F29813C2F2000301221A6023E036
:1030900040F29813C2F2000300221A601CE0BB7BCE
:1030A0005BB2002B18DBBA7B796813469B00134494
:1030B000DB000B4403F55C739B78002B06D040F2D9
:1030C0009813C2F2000301221A6005E040F298133F
:1030D000C2F2000300221A60786840F29811C2F22E
:1030E0000001022202F0A8F804E07868396800F0D4
:1030F000EBFA00BF00BFFB7B18461037BD4680BD12
:1031000080B584B000AF786039603B685B881B0A8B
:103110009BB2013B062B00F2B18001A252F823F0D2
:103120003D3100086F310008993100087D320008F8
:103130007D32000869320008733200087B68D3F8DA
:10314000E8351B687A68917807F10A02084611464B
:103150009847F8603B68DB88402B04D07B6893F885
:103160001231012B02D108237B818CE08BE07B683C
:10317000D3F8E0359B6A7A68917807F10A0208462D
:1031800011469847F860FB68013302221A707B6889
:10319000FA68C3F8EC2576E03B685B88DBB2052B68
:1031A0005CD801A252F823F0C1310008DB310008DD
:1031B000F53100080F3200082932000843320008B8
:1031C0007B68D3F8E8355B687A68917807F10A0282
:1031D000084611469847F86045E07B68D3F8E83523
:1031E0009B687A68917807F10A0208461146984769
:1031F000F86038E07B68D3F8E835DB687A68917866
:1032000007F10A02084611469847F8602BE07B68F0
:10321000D3F8E8351B697A68917807F10A02084605
:1032200011469847F8601EE07B68D3F8E8355B6983
:103230007A68917807F10A02084611469847F860C3
:1032400011E07B68D3F8E8359B697A68917807F1DB
:103250000A02084611469847F86004E07868396821
:1032600000F032FA24E00EE07868396800F02CFAB9
:103270001EE07868396800F027FA19E07868396844
:1032800000F022FA14E07B89002B11D03B68DB8828
:10329000002B0DD03B68DA887B899A4238BF1346F1
:1032A0009BB27B817B897868F9681A4601F0C4FF7C
:1032B0001037BD4680BD00BF80B584B000AF7860D8
:1032C00039603B689B88002B2DD13B68DB88002B45
:1032D00029D13B685B88DBB203F07F03FB737B681B
:1032E00093F81231032B04D17868396800F0ECF9B7
:1032F00018E07B68FA7B83F81321FB7B786819461A
:1033000001F07CFF786801F0DFFFFB7B002B04D02D
:103310007B68022283F8122104E07B68012283F893
:10332000122104E003E07868396800F0CDF9103725
:10333000BD4680BD80B582B000AF786039603B6823
:103340005B88DAB240F2A413C2F200031A7040F2B2
:10335000A413C2F200031B78012B04D978683968E2
:1033600000F0B2F97BE07B6893F81231022B02D0B7
:10337000032B24D06EE040F2A413C2F200031B78AA
:10338000002B18D040F2A413C2F200031A787B6815
:1033900083F810217B68032283F8122140F2A413E2
:1033A000C2F200031B7878681946FEF731FE786890
:1033B00001F08AFF53E0786801F086FF4FE040F2A9
:1033C000A413C2F200031B78002B18D17B680222E1
:1033D00083F8122140F2A413C2F200031A787B682A
:1033E00083F8102140F2A413C2F200031B7878681E
:1033F0001946FEF725FE786801F066FF29E07B6834
:1034000093F8102140F2A413C2F200031B789A42F1
:103410001BD07B6893F8103178681946FEF710FED0
:1034200040F2A413C2F200031A787B6883F81021DB
:1034300040F2A413C2F200031B7878681946FEF725
:10344000E7FD786801F040FF03E0786801F03CFF99
:1034500005E004E07868396800F036F900BF083705
:10346000BD4680BD80B582B000AF786039603B68F2
:10347000DB88012B04D07868396800F025F91EE05C
:103480007B6893F81231022B02D0032B09D011E094
:10349000786840F29C11C2F20001012201F0CCFEDA
:1034A0000DE07B6803F5887378681946012201F006
:1034B000C3FE04E07868396800F006F900BF0837F9
:1034C000BD4680BD80B582B000AF786039607B6852
:1034D00093F81231023B012B1AD87B68D3F81431D0
:1034E000002B06D040F2A013C2F2000303221A60A0
:1034F00005E040F2A013C2F2000301221A607868CE
:1035000040F2A011C2F20001012201F095FE04E098
:103510007868396800F0D8F800BF0837BD4680BD2C
:1035200080B584B000AF786039600023FB733B68DE
:103530005B88012B0ED17B680122C3F814217B68C4
:10354000D3F8E0359B68786839689847786801F067
:10355000BBFE48E03B685B88022B44D13B689B88FC
:10356000DBB2002B3FD17B681B695B68BB603B68AB
:103570009B881B0A9BB2FB73FB7B013B042B2BD864
:1035800001A252F823F000BF9D350008A9350008BC
:10359000B5350008C1350008CD3500083B7A012259
:1035A00062F306133B7217E03B7A022262F30613C2
:1035B0003B7211E03B7A032262F306133B720BE08D
:1035C0003B7A042262F306133B7205E03B7A052244
:1035D00062F306133B7200BF7B681B69BA685A60CE
:1035E000786801F071FE1037BD4680BD80B582B0AD
:1035F00000AF786039607B6893F81231023B012B91
:1036000013D83B685B88012B0ED17B680022C3F87E
:1036100014217B68D3F8E0359B687868396898474F
:10362000786801F051FE05E004E07868396800F040
:103630004BF800BF0837BD4680BD00BF80B483B0E3
:1036400000AF786039607B6893F8C8253B681A70D2
:103650007B6893F8C9253B685A707B6893F8CA3534
:103660001A467B6893F8CB351B029BB213449AB27F
:103670003B685A807B6893F8CC351A467B6893F890
:10368000CD351B029BB213449AB23B689A807B688B
:1036900093F8CE351A467B6893F8CF351B029BB260
:1036A00013449AB23B68DA803B68DB881A467B6831
:1036B000C3F83C217B68012283F811210C37BD46F9
:1036C0005DF8047B704700BF80B582B000AF7860C2
:1036D00039603B681B78DBB25BB2002B04DA786898
:1036E000802101F017FD0CE03B68DB88002B04D142
:1036F0007868802101F00EFD03E07868002101F078
:1037000009FD7868FDF7A0FB0837BD4680BD00BF06
:1037100080B586B000AF786000237B617868FCF7E5
:10372000A9FF0346002B00F09C807868FCF7B4FFEB
:1037300003463B613B69002B01D1002392E0BB7C37
:10374000C3F3C003DBB2002B06D0786800F018FA90
:1037500003467A6913437B61BB7CC3F38003DBB20E
:10376000002B06D0786800F015F903467A691343F8
:103770007B613B7CC3F34003DBB2002B09D0002309
:10378000FB603B7B43F002033B737B68DB68FA68BA
:103790005A61FB7CC3F3C013DBB2002B06D0786800
:1037A00000F064F803467A6913437B617B7CC3F3C2
:1037B000C003DBB2002B06D0786800F097F8034610
:1037C0007A6913437B613B7CC3F3C003DBB2002BFC
:1037D00006D0786800F094FA03467A6913437B6157
:1037E0003B7CC3F30013DBB2002B06D0786800F0FB
:1037F000A3FA03467A6913437B617B7CC3F300130E
:10380000DBB2002B06D0786800F08AFB03467A69A9
:1038100013437B617B7CC3F34013DBB2002B06D0E8
:10382000786800F01FFC03467A6913437B61BB7C18
:10383000C3F30013DBB2002B06D0786800F04EFC17
:1038400003467A6913437B61BB7CC3F34013DBB24D
:10385000002B06D0786800F05DFC03467A691343BC
:103860007B617B6918461837BD4680BD80B586B040
:1038700000AF78607B689B7A002B11D07B6803F5E2
:1038800086731B68FB603B7B6FF341033B733B7BA1
:103890006FF300033B737B68D3F80C31FA681A604E
:1038A00000233B613B7C43F001033B747B681B6955
:1038B0007A68126951683A69D2430A405A6040F204
:1038C0002C03C2F200031B689B69786898470023A9
:1038D0007B61FB7D43F08003FB757B68DB687A6965
:1038E0005A61012318461837BD4680BD80B586B0A1
:1038F00000AF786040F22C03C2F200031B685B69E2
:10390000786898477B681B699B68FB6000237B6134
:103910007B7D43F008037B757B68DB687A695A61BD
:103920007B689B7A002B2FD03B7BC3F30003DBB279
:10393000012B29D100233B613B7C43F001033B7405
:103940007B68D3F80C317A68D2F80C2111683A6997
:103950000A431A603B7C43F002033B747B68D3F854
:103960000C317A68D2F80C2111683A690A431A605E
:103970004FF46D43CEF200034FF46D42CEF20002DD
:10398000126942F006021A61012318461837BD4633
:1039900080BD00BF80B586B000AF786000233B617A
:1039A0000023BB607868FDF739FA7861DFE07B6956
:1039B00003F00103002B00F0D4803B69DBB2786890
:1039C000194600F0C3FB0346BB603B7AC3F3000318
:1039D000DBB2002B35D03B69012202FA03F3FB6016
:1039E0007B681B697A681269516BFA68D2430A4096
:1039F0005A630023BB603B7A43F001033B727A6851
:103A00003B6904339B0013449B68BA689A6040F298
:103A10002C03C2F200031B685B683A69D2B2786873
:103A2000114698477B68DB78012B0AD13B69002B54
:103A300007D17B6893F81131042B02D17868FDF728
:103A400003FA3B7AC3F38003DBB2002B0DD00023D3
:103A5000BB603B7A43F004033B727A683B690433F2
:103A60009B0013449B68BA689A603B7AC3F3C00317
:103A7000DBB2002B0DD00023BB603B7A43F0080380
:103A80003B727A683B6904339B0013449B68BA68B5
:103A90009A603B7AC3F30013DBB2002B0DD00023F6
:103AA000BB603B7A43F010033B727A683B69043396
:103AB0009B0013449B68BA689A603B7AC3F3401337
:103AC000DBB2002B0DD00023BB603B7A43F0200318
:103AD0003B727A683B6904339B0013449B68BA6865
:103AE0009A603B7AC3F38013DBB2002B0DD0002326
:103AF000BB603B7A43F040033B727A683B69043316
:103B00009B0013449B68BA689A603B7AC3F34003F6
:103B1000DBB2002B0DD00023BB603B7A43F00203E5
:103B20003B727A683B6904339B0013449B68BA6814
:103B30009A603B7AC3F3C013DBB2002B11D07868D4
:103B4000396900F07BF90023BB603B7A43F08003C6
:103B50003B727A683B6904339B0013449B68BA68E4
:103B60009A603B6901333B617B695B087B617B69E0
:103B7000002B7FF41CAF012318461837BD4680BDCB
:103B800080B586B000AF786000233B610023FB6006
:103B90007868FDF711F97861A9E07B6903F001030A
:103BA000002B00F09E803B69DBB278681946FDF778
:103BB00019F90346FB603B7BC3F30003DBB2002B28
:103BC0004BD00023FB603B7B43F001033B737A68DF
:103BD0003B6914339B0013445B68FA689A607B6806
:103BE000DB78012B1FD17A683B6914339B001344A7
:103BF0005B681B69BB6079683A6913469B00134494
:103C0000DB000B4403F55E731A68BB68C3F3120351
:103C1000D11A78683A6913469B001344DB000344C9
:103C200003F56273196040F22C03C2F200031B68B3
:103C30001B683A69D2B27868114698477B68DB788E
:103C4000012B0AD13B69002B07D17B6893F8113116
:103C5000052B02D17868FDF7F7F83B7BC3F34003EF
:103C6000DBB2002B0DD00023FB603B7B43F0020353
:103C70003B737A683B6914339B0013445B68FA68B2
:103C80009A603B7BC3F38003DBB2002B0DD0002393
:103C9000FB603B7B43F004033B737A683B6914335E
:103CA0009B0013445B68FA689A603B7BC3F3C003D4
:103CB000DBB2002B15D040F22C03C2F200031B68CC
:103CC0009B68786898470023FB603B7B43F00803C0
:103CD0003B737A683B6914339B0013445B68FA6852
:103CE0009A603B6901333B617B695B087B617B695F
:103CF000002B7FF452AF012318461837BD4680BD14
:103D000080B584B000AF786040F22C03C2F20003AB
:103D10001B68DB68786898470023FB603B7B43F0B7
:103D200008033B737B68DB68FA685A610123184615
:103D30001037BD4680BD00BF80B586B000AF78604B
:103D400000233B613B7C43F010033B747B68DB68E2
:103D50007A68D26891693A69D2430A409A617B686D
:103D6000DB681B6AFB603B7BC3F30303DBB21A46D1
:103D700013469B001344DB0003F55C737A6813441D
:103D80007B61BB7BC3F34303DBB2013B052B46D80E
:103D900001A252F823F000BF1F3E0008B13D000809
:103DA0001F3E00081F3E00081F3E0008FB3D0008A4
:103DB000BB89C3F30A139BB2002B1DD07B69DA6861
:103DC000BB89C3F30A139BB2786811461A46FCF705
:103DD000D9FB7B69DA68BB89C3F30A139BB21A4427
:103DE0007B69DA607B699A69BB89C3F30A139BB26A
:103DF0001A447B699A6113E012E07B6803F5B963AA
:103E0000786819460822FCF7BDFB7B699A69BB8973
:103E1000C3F30A139BB21A447B699A6100E000BFA6
:103E20007B68DB687A68D26891693A690A439A616B
:103E3000012318461837BD4680BD00BF80B586B047
:103E400000AF7860396000237B610023BB603A6873
:103E500013469B001344DB0003F58C737A6813440C
:103E6000FB60FB685A69FB689B69D31A7B61FB683E
:103E70009A687B699A4202D2FB689B687B617B6986
:103E800003339B083B617A683B6804339B0013440F
:103E90009B689B69BB602EE0FB685A69FB689B6965
:103EA000D31A7B61FB689A687B699A4202D2FB68ED
:103EB0009B687B617B6903339B083B61FB68D96826
:103EC0003B68DAB27B699BB27868FCF723FBFB683E
:103ED000DA687B691A44FB68DA60FB689A697B6977
:103EE0001A44FB689A617A683B6804339B00134468
:103EF0009B689B69BB603B891A463B699A4209D91A
:103F0000FB689A69FB685B699A4203D2FB685B694C
:103F1000002BC1D1012318461837BD4680BD00BF14
:103F200080B58AB000AF786000233B6100233B621C
:103F30000023FB610023BB6100237B610023FB6046
:103F40003B7C43F001033B747B681B697A68126910
:103F500051683A69D2430A405A6078680021FCF7F8
:103F60003FFB00237B6212E07A687B6A04339B008C
:103F700013449B68FF229A607A687B6A14339B0023
:103F800013445B68FF229A607B6A01337B627B6823
:103F90005B781A467B6A9A42E6D87B681B694FF0C9
:103FA000FF329A613B8C012262F30F033B847B8CCE
:103FB000012262F30F037B847B681B693A6ADA6132
:103FC0003B7F43F008033B773B7F43F001033B77A4
:103FD0003B7F43F004033B773B7F43F002033B7797
:103FE0007B681B69FA695A613B7E43F001033B76AB
:103FF0003B7E43F008033B763B7E43F002033B7677
:104000003B7E43F004033B763B7E43F020033B764C
:104010007B681B69BA691A617B681B691B687B61D5
:10402000BB8A6FF30A13BB827B681B697A691A60CB
:104030007868FCF709FF0023FB607B7B43F01003EB
:104040007B737B68DB68FA685A6140F22C03C2F22A
:1040500000031B681B6978689847012318462837B6
:10406000BD4680BD80B584B000AF78607868FCF74D
:104070004FFB7B68DB68DB68BB607868FCF724FB80
:104080000346032B0CD17B6800229A707B684FF4A7
:1040900000729A807B7A092262F385037B720AE0C0
:1040A0007B6801229A707B6840229A807B7A052285
:1040B00062F385037B727B68DB68BA68DA60002391
:1040C000FB607B7B43F020037B737B68DB68FA68D3
:1040D0005A61012318461037BD4680BD80B584B0B3
:1040E00000AF78600023FB6040F22C03C2F20003B3
:1040F0001B68DB6978689847BB7B43F01003BB7390
:104100007B68DB68FA685A61012318461037BD46A0
:1041100080BD00BF80B584B000AF78600023FB6035
:1041200040F22C03C2F200031B681B6A78689847B0
:10413000BB7B43F02003BB737B68DB68FA685A6182
:10414000012318461037BD4680BD00BF80B487B03C
:1041500000AF78600B46FB707B681B691B697B6155
:104160007B681B695B6B3B61FB783A6922FA03F35E
:10417000DB01DBB27A6913437B61FB787A68043335
:104180009B0013449B689A687B691340FB60FB6843
:1041900018461C37BD465DF8047B704780B582B079
:1041A00000AF0023FB7100F07DF90346FB71FB7942
:1041B000184600F059F80837BD4680BD00000000E1
:1041C000B0B586B000AFF860B9607A603B604FF080
:1041D00000037B61B86800F021F978617B68012BEE
:1041E00003D17B6983F000437B61786903F0FAFDBA
:1041F00004460D46386803F0E3FD02460B4618A15D
:10420000D1E9000101F0F2FC02460B4620462946A6
:1042100003F03CFE02460B461046194604F0F0F847
:1042200003467B61FB68002B16DBFB68192B13DC54
:10423000BB6A002B08D140F2A813C2F20003FA684F
:10424000796943F8221007E040F21023C2F200031C
:10425000FA68796943F822101837BD46B0BD00BF2F
:104260009A9999999999B93F90B587B002AF034649
:10427000FB710023FB602323FB72FA79FB7A9A42DD
:1042800036D140F27823C2F200031A6840F27C2350
:10429000C2F200030021995440F25403C2F2000319
:1042A000196840F29C23C2F200031A6840F2A0236E
:1042B000C2F200031C6840F2A423C2F200031B6890
:1042C0000093084640F27C21C2F200012346FFF72A
:1042D00077FF0123FB6040F25403C2F20003FF2288
:1042E0001A6040F2A423C2F2000300221A6070E0B8
:1042F000FB792F2B2CD9FB79392B29D840F2782345
:10430000C2F200031A6840F27C23C2F20003F9797A
:10431000995440F27823C2F200031B685A1C40F201
:104320007823C2F200031A6040F2A823C2F200030D
:104330001B68012B0BD140F2A023C2F200031B68C3
:104340005A1C40F2A023C2F200031A6041E040E090
:10435000FB79602B13D9FB797A2B10D80123FB60F2
:10436000FB79A3F1610240F25403C2F200031A6028
:1043700040F2A423C2F2000300221A6029E0FB7974
:10438000402B13D9FB795A2B10D80123FB60FB7902
:10439000A3F1410240F25403C2F200031A6040F25A
:1043A000A423C2F2000301221A6012E0FB792D2B34
:1043B00006D140F29C23C2F2000301221A6008E0F9
:1043C000FB792E2B05D140F2A823C2F20003012273
:1043D0001A60FB68012B1DD1002240F27C23C2F23F
:1043E00000031A7040F27823C2F2000300221A6020
:1043F00040F29C23C2F2000300221A6040F2A8237C
:10440000C2F2000300221A6040F2A023C2F20003AD
:1044100000221A601437BD4690BD00BF90B585B02C
:1044200000AF78604FF00003FB600023BB602DE01D
:10443000BB687A6813441B782F2B2DD9BB687A6828
:1044400013441B78392B27D8F8684FF00001C4F2C9
:10445000201104F033F903461C46BB687A68134404
:104460001B78184604F0D6F803462046194604F097
:104470001DF8034618464FF00001C4F2402104F035
:1044800013F80346FB60BB680133BB60BB687A6806
:1044900013441B78002BCBD1FB6818461437BD465C
:1044A00090BD00BF80B582B000AF0023FB714FF418
:1044B0009040C4F2000040F22551FDF7BBF80346DE
:1044C000012B07D14FF49040C4F20000FDF73EF8F5
:1044D0000346FB71FB7918460837BD4680BD00BF17
:1044E00080B483B000AF7860396040F2AC23C2F290
:1044F00000031B881BB2012B40F08B807B681B786C
:10450000012B40F086807B6801331B7803F00103A8
:104510009AB23B681A827B6801331B7803F001036F
:104520009AB23B689A827B6801331B7803F00103DF
:104530009AB23B68DA827B6801331B7803F001038F
:104540009AB23B685A827B6801331B7803F00103FF
:104550009AB23B681A837B6801331B7803F001032E
:104560009AB23B685A837B6801331B7803F00103DE
:104570009AB23B689A837B6801331B7803F001038E
:104580009AB23B68DA837B6802331B7803F001033D
:104590009AB23B685A857B6802331B7803F00103AB
:1045A0009AB23B689A857B6802331B7803F001035B
:1045B0009AB23B68DA857B6802331B7803F001030B
:1045C0009AB23B681A867B6802331B7803F00103BA
:1045D0009AB23B681A847B6802331B7803F00103AC
:1045E0009AB23B685A847B6802331B7803F001035C
:1045F0009AB23B689A867B6802331B7803F001030A
:104600009AB23B685A8640F2AC23C2F20003012200
:104610001A8040F2AC23C2F200031B881BB2012BAC
:1046200005DD40F2AC23C2F2000301221A800C37F0
:10463000BD465DF8047B704780B483B000AF7860FE
:104640004FF47053C4F201037A685A610C37BD46C7
:104650005DF8047B704700BF90B585B000AF03469E
:104660003960FB800023FB813B6800221A84FB88B1
:1046700003F001039AB23B681A80FB8803F002033F
:104680005B109AB23B685A80FB8803F004039B10CE
:104690009AB23B689A80FB8803F00803DB109AB259
:1046A0003B68DA80FB8803F010031B119AB23B6869
:1046B0001A81FB8803F020035B119AB23B685A8190
:1046C000FB8803F040039B119AB23B689A81FB88F8
:1046D00003F08003DB119AB23B68DA81FB8803F4B4
:1046E00080731B129AB23B681A82FB8803F4007332
:1046F0005B129AB23B685A82FB8803F480639B1278
:104700009AB23B689A82FB8803F40063DB129AB288
:104710003B68DA82FB8803F480531B139AB23B6830
:104720001A83FB8803F400535B139AB23B685A83E5
:10473000FB8803F480439B139AB23B689A83FB88FF
:10474000DB0B9AB23B68DA830023FB8131E0FA8904
:104750003B6833F81230012B21D1FC89FB891846C4
:1047600003F01EFB02460B464FF000004FF0804165
:1047700001F03CFA02460B461046194603F020FEB3
:1047800003469AB2396804F110035B000B445A8067
:104790003B681B8C01339AB23B681A8406E0FB89A4
:1047A0003A6810335B00134400225A80FB890133BE
:1047B000FB81FB890F2BCAD91437BD4690BD00BFC2
:1047C00080B485B000AF78600023FB737A684FF443
:1047D0008053C4F201039A4202D10723FB7330E0F5
:1047E0007A684FF48843C4F200039A4202D1072347
:1047F000FB7326E07A684FF49043C4F200039A42B8
:1048000002D10723FB731CE07A684FF49843C4F28B
:1048100000039A4202D10823FB7312E07A684FF436
:10482000A043C4F200039A4202D10823FB7308E0BC
:104830007A684FF4A053C4F201039A4201D10823CD
:10484000FB73FB7B18461437BD465DF8047B70474D
:1048500080B485B000AF78600023FB607A684FF4C5
:104860008053C4F201039A4202D12523FB6030E059
:104870007A684FF48843C4F200039A4202D1262397
:10488000FB6026E07A684FF49043C4F200039A423A
:1048900002D12723FB601CE07A684FF49843C4F2EE
:1048A00000039A4202D13423FB6012E07A684FF48D
:1048B000A043C4F200039A4202D13523FB6008E012
:1048C0007A684FF4A053C4F201039A4201D14723FE
:1048D000FB60FB6818461437BD465DF8047B7047E3
:1048E00080B582B000AF78607A680023C4F201031B
:1048F0009A4219D140F2B023C2F200031B6803F0C0
:104900000103002B10D101200121FDF757FE40F2D9
:10491000B023C2F200031B6843F0010240F2B0234F
:10492000C2F200031A6006E17B68B3F1804F19D12F
:1049300040F2B023C2F200031B6803F00203002B15
:1049400010D101200121FDF711FE40F2B023C2F287
:1049500000031B6843F0020240F2B023C2F20003DE
:104960001A60E8E07A684FF48063C4F200039A4268
:1049700019D140F2B023C2F200031B6803F0040314
:10498000002B10D102200121FDF7F0FD40F2B023F1
:10499000C2F200031B6843F0040240F2B023C2F2EB
:1049A00000031A60C7E07A684FF40063C4F20003A2
:1049B0009A4219D140F2B023C2F200031B6803F0FF
:1049C0000803002B10D104200121FDF7CFFD40F298
:1049D000B023C2F200031B6843F0080240F2B02388
:1049E000C2F200031A60A6E07A684FF44063C4F292
:1049F00000039A4219D140F2B023C2F200031B68AF
:104A000003F01003002B10D108200121FDF7AEFDAB
:104A100040F2B023C2F200031B6843F0100240F2E0
:104A2000B023C2F200031A6085E07A684FF4806315
:104A3000C4F201039A4219D140F2B023C2F200033A
:104A40001B6803F02003002B10D102200121FDF789
:104A5000B5FD40F2B023C2F200031B6843F0200210
:104A600040F2B023C2F200031A6064E07A684FF4A7
:104A70008043C4F201039A421AD140F2B023C2F239
:104A800000031B6803F04003002B11D14FF480306A
:104A90000121FDF793FD40F2B023C2F200031B6831
:104AA00043F0400240F2B023C2F200031A6042E039
:104AB0007A684FF48843C4F201039A421AD140F253
:104AC000B023C2F200031B6803F08003002B11D156
:104AD0004FF400300121FDF771FD40F2B023C2F226
:104AE00000031B6843F0800240F2B023C2F20003CF
:104AF0001A6020E07A684FF49043C4F201039A42AE
:104B000019D140F2B023C2F200031B6803F4807392
:104B1000002B10D14FF480200121FDF74FFD40F212
:104B2000B023C2F200031B6843F4807240F2B0234A
:104B3000C2F200031A600837BD4680BD80B582B05E
:104B400000AF78607A684FF48053C4F201039A4250
:104B500019D140F2B423C2F200031B6803F0010331
:104B6000002B10D110200121FDF728FD40F2B423C5
:104B7000C2F200031B6843F0010240F2B423C2F208
:104B800000031A60A7E07A684FF48843C4F2000378
:104B90009A421AD140F2B423C2F200031B6803F018
:104BA0000203002B11D14FF400300121FDF7DEFC90
:104BB00040F2B423C2F200031B6843F0020240F249
:104BC000B423C2F200031A6085E07A684FF4904380
:104BD000C4F200039A421AD140F2B423C2F2000395
:104BE0001B6803F00403002B11D14FF48020012136
:104BF000FDF7BCFC40F2B423C2F200031B6843F093
:104C0000040240F2B423C2F200031A6063E07A683F
:104C10004FF49843C4F200039A421AD140F2B423ED
:104C2000C2F200031B6803F00803002B11D14FF4FC
:104C300000200121FDF79AFC40F2B423C2F20003E8
:104C40001B6843F0080240F2B423C2F200031A606A
:104C500041E07A684FF4A043C4F200039A421AD1AB
:104C600040F2B423C2F200031B6803F01003002BD0
:104C700011D14FF480100121FDF778FC40F2B423EC
:104C8000C2F200031B6843F0100240F2B423C2F2E8
:104C900000031A601FE07A684FF4A053C4F20103C6
:104CA0009A4218D140F2B423C2F200031B6803F009
:104CB0002003002B0FD120200121FDF77FFC40F2C3
:104CC000B423C2F200031B6843F0200240F2B42375
:104CD000C2F200031A600837BD4680BD80B485B0BB
:104CE00000AF0346FB800023FB73FB88802B49D079
:104CF000802B11DC082B39D0082B06DC022B2FD09F
:104D0000042B30D0012B28D057E0202B34D0402B5F
:104D100035D0102B2DD050E0B3F5006F3ED0B3F559
:104D2000006F09DCB3F5007F32D0B3F5806F32D06D
:104D3000B3F5807F29D040E0B3F5005F34D0B3F500
:104D4000005F03DCB3F5805F2BD036E0B3F5804F16
:104D50002DD0B3F5004F2DD02FE00023FB732CE0B6
:104D60000123FB7329E00223FB7326E00323FB737B
:104D700023E00423FB7320E00523FB731DE00623DF
:104D8000FB731AE00723FB7317E00823FB7314E09F
:104D90000923FB7311E00A23FB730EE00B23FB7363
:104DA0000BE00C23FB7308E00D23FB7305E00E23DF
:104DB000FB7302E00F23FB7300BFFB7B1846143725
:104DC000BD465DF8047B704780B485B000AF786065
:104DD0000023FB737A680023C4F201039A4202D1D4
:104DE0000123FB734BE07B68B3F1804F02D10123B9
:104DF000FB7344E07A684FF48063C4F200039A4284
:104E000002D10223FB733AE07A684FF40063C4F2E4
:104E100000039A4202D10223FB7330E07A684FF418
:104E20004063C4F200039A4202D10223FB7326E0DE
:104E30007A684FF48063C4F201039A4202D10323DB
:104E4000FB731CE07A684FF48043C4F201039A427A
:104E500002D10323FB7312E07A684FF48843C4F253
:104E600001039A4202D10323FB7308E07A684FF4EE
:104E70009043C4F201039A4201D10323FB73FB7BED
:104E800018461437BD465DF8047B704780B483B084
:104E900000AF78604FF46D43CEF200037A6842F0C1
:104EA000BF6242F40032DA600C37BD465DF8047B25
:104EB000704700BF80B485B000AF78600023FB73FB
:104EC0000023BB730F237B737B68DB78002B40D000
:104ED0004FF46D43CEF20003DB68DB4303F4E06381
:104EE0001B0AFB73FB7BC3F10403BB737A7BFB7B65
:104EF00042FA03F37B737B685B781A46BB7B02FA4A
:104F000003F3FB737B689A787B7B1340DAB2FB7BFD
:104F10001343FB73FB7B1B01FB734FF46143CEF226
:104F200000037A6812781344FA7B83F800234FF465
:104F30006143CEF200037A6812785209D2B27968DE
:104F4000097801F01F01012000FA01F143F8221055
:104F500011E04FF46143CEF200037A6812785209EF
:104F6000D2B27968097801F01F01012000FA01F13D
:104F7000203243F822101437BD465DF8047B704799
:104F800080B584B000AF7860F9703A80BB70FB7870
:104F90005BB2002B0CDAFB7803F07F0213469B0018
:104FA0001344DB0003F58C737A681344FB600BE059
:104FB000FB7803F07F0213469B001344DB0003F5EC
:104FC0005C737A681344FB60FB7803F07F03DAB20A
:104FD000FB681A70FB78DB09DBB21A46FB685A7073
:104FE0003A88FB689A60FB68BA78DA70FB685B788D
:104FF000002B04D0FB681B781A46FB68DA80BB786C
:10500000022B02D1FB6800221A717868F968FBF75D
:10501000BBFB002318461037BD4680BD80B586B067
:1050200000AFF8607A600A46FA723B81FB7A03F0BF
:105030007F0213469B001344DB0003F55C73FA68A0
:1050400013447B617B697A68DA603A897B695A61CB
:105050007B6900229A617B6900225A70FB7A03F017
:105060007F03DAB27B691A70FB68DB78012B02D10F
:105070007A687B691A617B691B78002B04D1F86818
:105080007969FBF72FFD03E0F8687969FBF7EAFB24
:10509000002318461837BD4680BD00BF80B586B0D6
:1050A00000AFF8607A603B600B46FB72FB7A03F05E
:1050B0007F0213469B001344DB0003F58C73FA68F0
:1050C00013447B617B6901225A70FB7A03F07F03F2
:1050D000DAB27B691A707B697A68DA607A687B6910
:1050E0001A617B6900229A617B693A685A617B691F
:1050F0001B78002B04D1F8687969FBF7F3FC03E017
:10510000F8687969FBF7AEFB002318461837BD46EF
:1051100080BD00BF80B584B000AF78600B46FB70E7
:10512000FB785BB2002B0CDAFB7803F07F021346AE
:105130009B001344DB0003F58C737A681344FB6017
:1051400009E0FA7813469B001344DB0003F55C7317
:105150007A681344FB60FB6801229A70FB7803F0C5
:105160007F03DAB2FB681A70FB78DB09DBB21A4600
:10517000FB685A707868F968FBF79EFD00231846B3
:105180001037BD4680BD00BF80B584B000AF7860E9
:105190000B46FB70FB785BB2002B0CDAFB7803F05C
:1051A0007F0213469B001344DB0003F58C737A687F
:1051B0001344FB6009E0FA7813469B001344DB00BC
:1051C00003F55C737A681344FB60FB6800229A70F5
:1051D000FB7803F07F03DAB2FB681A70FB78DB0917
:1051E000DBB21A46FB685A707868F968FBF7A8FDCD
:1051F000002318461037BD4680BD00BF80B485B07F
:1052000000AF78600B46FB700023FB60FB7803F077
:105210007F03DAB2BB8962F30A13BB817B681B6927
:105220007A6812691168FA680A431A601437BD4631
:105230005DF8047B704700BF80B586B000AFF860B2
:10524000B9601346FB800023FB75FA88FB68C3F83E
:105250003821FA88FB68C3F83421FB68022283F8FE
:105260001121FB88F8680021BA68FFF717FFFB7D62
:1052700018461837BD4680BD80B586B000AFF860CF
:10528000B9601346FB800023FB75FB88F86800219A
:10529000BA68FFF703FFFB7D18461837BD4680BD8F
:1052A00080B586B000AFF860B9601346FB8000237C
:1052B000FB75FB88F8680021BA68FFF7AFFEFB7D3D
:1052C00018461837BD4680BD80B584B000AF786001
:1052D0000023FB737B68042283F811217868002186
:1052E00000220023FFF7DAFE7868FBF7ADFDFB7BB9
:1052F00018461037BD4680BD80B584B000AF7860D9
:105300000023FB737B68052283F811217868002154
:1053100000220023FFF782FE7868FBF795FDFB7BF8
:1053200018461037BD4680BD80B400AFBD465DF85D
:10533000047B704780B400AFBD465DF8047B7047C6
:1053400080B500AFFEF72AFF80BD00BF90B58DB0DD
:1053500002AFF860B9607A607B80F868FFF7EEFB17
:105360007B8800220092022079681A460023FBF70E
:10537000E9FDBB8F002200920220B96B1A46002380
:10538000FBF7E0FD7B881846FFF7A8FC03461C46A8
:10539000F868FFF715FA0346786821461A46FDF7C4
:1053A0002BFBBB8F1846FFF799FC03461C46F86899
:1053B000FFF706FA0346B86B21461A46FDF71CFBB9
:1053C000BB68BB610023BB830023FB8300233B84BA
:1053D0000023BB840C237B8407F11803F86819466B
:1053E000FBF7BEFFF8680121FCF77EF8F86840F291
:1053F00025510122FCF7BAF84FF4C060FFF746FDD3
:10540000F868FFF725FA0346DBB23B7502237B758C
:105410000023BB750123FB7507F114031846FFF742
:1054200049FD2C37BD4690BD80B485B000AF786093
:1054300039600023FB817B681B88FB817A6800232D
:10544000C4F201039A421FD07A684FF48063C4F219
:1054500001039A4218D07B68B3F1804F14D07A6868
:105460004FF48063C4F200039A420DD07A684FF47F
:105470000063C4F200039A4206D07A684FF4406396
:10548000C4F200039A4208D1FB8923F07003FB8128
:105490003B685A88FB891343FB817A684FF4805339
:1054A000C4F200039A420FD07A684FF4A053C4F2BA
:1054B00000039A4208D0FB8923F44073FB813B68C8
:1054C0001A89FB891343FB817B68FA891A803B6840
:1054D0005A687B68DA623B681A887B681A857A6842
:1054E0000023C4F201039A4206D07A684FF4806325
:1054F000C4F201039A4204D13B689B7A1A467B6846
:105500001A867B6801229A821437BD465DF8047BB7
:10551000704700BF80B483B000AF78600B46FB706B
:10552000FB78002B08D07B681B889BB243F080037C
:105530009AB27B681A8007E07B681B889BB223F0D5
:1055400080039AB27B681A800C37BD465DF8047BF5
:10555000704700BF80B483B000AF78600B46FB702B
:10556000FB78002B08D07B681B889BB243F00103BB
:105570009AB27B681A8007E07B681B889BB223F095
:1055800001039AB27B681A800C37BD465DF8047B34
:10559000704700BF80B485B000AF786039600023E9
:1055A0007B810023FB810023BB817B681B8C9BB22A
:1055B00023F001039AB27B681A847B681B8CFB8101
:1055C0007B689B88BB817B681B8B7B817B8923F0FD
:1055D00070037B817B8923F003037B813B681A88FE
:1055E0007B8913437B81FB8923F00203FB813B68AA
:1055F0009A89FB891343FB813B685A88FB891343D3
:10560000FB817A680023C4F201039A4206D07A68CB
:105610004FF48063C4F201039A4223D1FB8923F043
:105620000803FB813B68DA89FB891343FB81FB8913
:1056300023F00403FB813B689A88FB891343FB81B9
:10564000BB8923F48073BB81BB8923F40073BB81C6
:105650003B681A8ABB891343BB813B685A8ABB8962
:105660001343BB817B68BA899A807B687A891A83E5
:105670003B689A687B685A637B68FA891A84143796
:10568000BD465DF8047B704780B485B000AF78609C
:10569000396000237B810023FB810023BB817B6871
:1056A0001B8C9BB223F010039AB27B681A847B6830
:1056B0001B8CFB817B689B88BB817B681B8B7B8100
:1056C0007B8923F4E0437B817B8923F440737B81D6
:1056D0003B681B881B029AB27B8913437B81FB8941
:1056E00023F02003FB813B689B891B019AB2FB8955
:1056F0001343FB813B685B881B019AB2FB89134310
:10570000FB817A680023C4F201039A4206D07A68CA
:105710004FF48063C4F201039A422BD1FB8923F03A
:105720008003FB813B68DB891B019AB2FB89134331
:10573000FB81FB8923F04003FB813B689B881B01B5
:105740009AB2FB891343FB81BB8923F48063BB813D
:10575000BB8923F40063BB813B681B8A9B009AB220
:10576000BB891343BB813B685B8A9B009AB2BB89B0
:105770001343BB817B68BA899A807B687A891A83D4
:105780003B689A687B689A637B68FA891A84143745
:10579000BD465DF8047B704780B485B000AF78608B
:1057A000396000237B810023FB810023BB817B6860
:1057B0001B8C9BB223F480739AB27B681A847B683B
:1057C0001B8CFB817B689B88BB817B689B8B7B816F
:1057D0007B8923F070037B817B8923F003037B812A
:1057E0003B681A887B8913437B81FB8923F4007310
:1057F000FB813B689B891B029AB2FB891343FB81A7
:105800003B685B881B029AB2FB891343FB817A6871
:105810000023C4F201039A4206D07A684FF48063F1
:10582000C4F201039A422BD1FB8923F40063FB816C
:105830003B68DB891B029AB2FB891343FB81FB891E
:1058400023F48063FB813B689B881B029AB2FB892F
:105850001343FB81BB8923F48053BB81BB8923F4B1
:105860000053BB813B681B8A1B019AB2BB8913435F
:10587000BB813B685B8A1B019AB2BB891343BB8126
:105880007B68BA899A807B687A899A833B689A6830
:105890007B68DA637B68FA891A841437BD465DF841
:1058A000047B704780B485B000AF78603960002316
:1058B000BB8100237B810023FB817B681B8C9BB217
:1058C00023F480539AB27B681A847B681B8C7B819B
:1058D0007B689B88FB817B689B8BBB81BB8923F4A6
:1058E000E043BB81BB8923F44073BB813B681B88C9
:1058F0001B029AB2BB891343BB817B8923F40053FB
:105900007B813B689B891B039AB27B8913437B8114
:105910003B685B881B039AB27B8913437B817A685F
:105920000023C4F201039A4206D07A684FF48063E0
:10593000C4F201039A420AD1FB8923F48043FB811C
:105940003B681B8A9B019AB2FB891343FB817B68EE
:10595000FA899A807B68BA899A833B689A687B68DF
:105960001A647B687A891A841437BD465DF8047B13
:10597000704700BF80B485B000AF78600B467B8075
:105980000023FB817B681B8BFB81FB8923F00803D1
:10599000FB81FA897B881343FB817B68FA891A8330
:1059A0001437BD465DF8047B704700BF80B485B0F6
:1059B00000AF78600B467B800023FB817B681B8BEC
:1059C000FB81FB8923F40063FB817B881B029AB275
:1059D000FB891343FB817B68FA891A831437BD4620
:1059E0005DF8047B704700BF80B485B000AF78607D
:1059F0000B467B800023FB817B689B8BFB81FB89B3
:105A000023F00803FB81FA897B881343FB817B68C1
:105A1000FA899A831437BD465DF8047B704700BF4E
:105A200080B485B000AF78600B467B800023FB819B
:105A30007B689B8BFB81FB8923F40063FB817B8864
:105A40001B029AB2FB891343FB817B68FA899A8314
:105A50001437BD465DF8047B704700BF80B483B047
:105A600000AF786039603B681A883B685B881343F5
:105A70009AB23B689B8813439AB23B68DB88134316
:105A80009AB23B681B8913439AB23B685B89134304
:105A90009AB23B689B8913439AB27B68A3F844206F
:105AA0000C37BD465DF8047B704700BF80B483B0FF
:105AB00000AF78607B6800221A807B6800225A80E1
:105AC0007B6800229A807B680022DA807B68002253
:105AD0001A817B6800225A817B6800229A810C37E8
