:020000040800F2
:10000000A0100020A5180008610F00086D0F00085F
:10001000790F0008850F0008910F0008000000000C
:100020000000000000000000000000009D0F00081C
:10003000A90F000800000000B50F00080D220008FD
:100040000519000805190008051900080519000818
:100050000519000805190008051900080519000808
:1000600005190008051900080519000805190008F8
:1000700005190008051900080519000805190008E8
:1000800005190008051900080519000805190008D8
:1000900005190008051900080519000805190008C8
:1000A00005190008191000080519000805190008AD
:1000B000A52200087D100008E910000805190008B5
:1000C0000519000805190008051900080519000898
:1000D00005190008114A00081D4A0008294A0008AD
:1000E0000519000805190008D50F000805190008B2
:1000F000C1110008051900080519000805190008B4
:10010000051900080519000855110008051900080F
:100110000519000805190008051900080519000847
:100120000519000805190008051900080519000837
:100130000519000805190008051900080519000827
:10014000051900080519000805190008C10F000865
:100150000519000805190008051900080519000807
:1001600005190008051900080519000805190008F7
:1001700005190008051900080519000805190008E7
:10018000051900080519000890B5ADB002AFF86078
:10019000B9603B601346FB800023C7F8A4300023FE
:1001A000C7F8A0300023C7F89C300123C7F8983067
:1001B0000023A7F8963002F02DFA07F14403184601
:1001C00001F0B8FDFB68B3F1804F06D3FA684FF435
:1001D000A053C4F200039A420DD9FA6841F2FF73AA
:1001E000C4F200039A4217D9FA684FF40053C4F2DC
:1001F00000039A4210D8FA6C4FF46053C4F2020321
:10020000D3F88C301B0E03F00103013303FB02F320
:100210005B00C7F8A4300FE03A6D4FF46053C4F2AE
:100220000203D3F88C301B0E03F00103013303FBF0
:1002300002F35B00C7F8A4303B68002B0DDDD7F854
:10024000A42048F21F53C5F2EB1383FB021359118C
:10025000D317CA1A3B689A4201DA0123F4E01FE07F
:10026000D7F8A0300133C7F8A030D7F8A420D7F8CA
:10027000A03092FBF3F23B6892FBF3F3C7F89C309B
:10028000D7F89C30B3F5803F02DA0023C7F89830E6
:10029000D7F8A0204FF6FE739A4201DD0123D3E088
:1002A000D7F89830002BDBD1D7F8A420D7F8A030AE
:1002B00092FBF3F2D7F89C3092FBF3F33B60F868C3
:1002C00003F052FFFB88002200920220B9681A4610
:1002D000002300F0B9FDD7F89C30013BFB63D7F851
:1002E000A0309BB2013B9BB23B870023A7F8403074
:1002F00000237B87002387F8423007F13803F86832
:10030000194604F097FB6023BB8400233B86082337
:100310007B860123FB8404233B854FF48073BB86DB
:100320004FF40073FB8607F12403F868194604F0C4
:1003300037FCF868002104F023FE07F12403F86875
:10034000194604F0A7FCF868002104F035FE07F117
:100350002403F868194604F025FDF868002104F02C
:1003600049FE07F12403F868194604F0A1FDF86876
:10037000002104F05BFEFA680023C4F201039A42F4
:1003800006D0FA684FF48063C4F201039A4211D197
:1003900007F11403184604F08FFE4FF480433B84AA
:1003A00007F11403F868194604F05EFEF8680121AD
:1003B00004F0A0FEFA8807F154031046194603F032
:1003C0001FFE0023A7F8963025E0B7F896305B00B3
:1003D00007F1A802134433F8543C012B16D1B7F8A7
:1003E000963010335B0007F1A8010B4433F8523C00
:1003F000184603F0E7FF03461C46F86804F058F877
:100400000346B86821461A4602F076F8B7F89630E7
:100410000133A7F89630B7F896300F2BD5D9FB6883
:1004200000225A63FB6800229A63FB680022DA63A9
:10043000FB6800221A64F868012104F071FBF86877
:10044000012104F08DFB00231846AC37BD4690BD5A
:1004500080B489B000AFF860B960FA71BB80002346
:10046000FB76FB68DB78002B23D100237B61002324
:10047000FB61BB880333DA1C002BB8BF13469B100B
:100480007B61FB79FA6832339B0013449B683B61C4
:100490000023FB6109E0BB681A683B691A60FB69CD
:1004A0000133FB61BB680433BB60FA697B699A4224
:1004B000F1D3FB7E18462437BD465DF8047B7047B8
:1004C00080B489B000AFF860B9601346FB800023A8
:1004D000FB61FB880333DA1C002BB8BF13469B106B
:1004E000BB61FB68D3F8D0307B610023FB6109E07E
:1004F0007B691A68BB681A60FB690133FB61BB68E2
:100500000433BB60FA69BB699A42F1D3BB681846F1
:100510002437BD465DF8047B704700BF80B586B0C8
:1005200000AF786039600023FB7400237B610023F7
:10053000FB60FB6843F02003FB603B68DBB203F029
:100540001F03DAB2FB6862F38A13FB607B68DB6827
:10055000FA681A617B68DB681B69FB607B690133A1
:100560007B617A694FF45463C0F203039A4200D965
:1005700005E0FB68C3F34013DBB2012BEAD0032094
:1005800002F0B0F9FB7C18461837BD4680BD00BFAD
:1005900080B483B000AF78607B68DB685B6903F090
:1005A000010318460C37BD465DF8047B704700BF59
:1005B00080B582B000AF78607868FFF7E9FF034646
:1005C000012B0CBF00230123DBB218460837BD46C0
:1005D00080BD00BF80B485B000AF78600023FB60B1
:1005E0007B68DB685B69FB607B68DB689B69FA683A
:1005F0001340FB60FB6818461437BD465DF8047B6A
:10060000704700BF80B485B000AF78600023FB73F3
:100610007B681B699B68BB603B7AC3F34103DBB219
:10062000022B09D0032B04D0012B02D00323FB7330
:1006300005E00223FB7302E00123FB7300BFFB7B99
:1006400018461437BD465DF8047B704780B487B008
:1006500000AF78600023FB750023BB607B681B69DB
:100660009B683B617B689B691B68FB603B7CC3F3B9
:100670004103DBB2022B04D0BB896FF30A03BB81B9
:1006800005E0BB89032262F30A03BB8100BF7B68DC
:100690009B69FA681A607B7A43F001037B727B687E
:1006A0001B697A6812695168BA68D2431140BA6806
:1006B0000A435A60FB7D18461C37BD465DF8047B33
:1006C000704700BF80B487B000AF78603960002306
:1006D000FB740023FB600023BB603B685B78012B4D
:1006E0000FD13B681B787A6804339B0013449B68E6
:1006F0007B613B681B78012202FA03F39BB23B81CA
:100700000EE03B681B787A6814339B0013445B68E7
:100710007B613B681B78012202FA03F39BB27B8169
:100720007B691B68FB607B7BC3F3C013DBB2002BD0
:1007300027D13B689B689BB2C3F30A039AB2BB897B
:1007400062F30A03BB813B68DB7803F00303DAB290
:10075000BB7B62F38303BB733B68DB88DBB203F0D4
:100760000F03DAB2FB8962F38913FB81FB7B43F051
:100770001003FB737B7B43F080037B73FA687B6918
:100780001A607B681B697A681269D169BA680A4382
:10079000DA61FB7C18461C37BD465DF8047B704768
:1007A00080B588B000AF786039600023FB77002304
:1007B000BB6100237B6100233B613B685B78012BBD
:1007C00040F0AB803B681B787A6804339B0013448D
:1007D0009B681B687B613B681B787A6804339B00CD
:1007E00013449B681B693B613B685B69002B09D123
:1007F0003B696FF312033B617B8A012262F3CC03F6
:100800007B8222E03B685B69C3F312023B6962F3BF
:1008100012033B613B685A693B689B6813445A1E4C
:100820003B689B68B2FBF3F39BB2C3F309039AB234
:100830007B8A62F3CC037B823B68DB78012B04D19B
:10084000FB7C012262F34613FB743B681B787A68D9
:1008500004339B0013449B683A691A617B68DB7818
:10086000012B0AD13B681B787A6804339B00134440
:100870009B683A6812695A6115E03B68DB78012B86
:1008800011D03B685B69002B0DD03B681B780122BF
:1008900002FA03F3BB617B681B697A681269516BCA
:1008A000BA690A435A633B68DB78012B14D17B6831
:1008B0001B699B68FB60FB68C3F30D239BB203F0CD
:1008C0000103002B04D1FB7D43F02003FB7503E003
:1008D000FB7D43F01003FB75FB7D43F00403FB75C8
:1008E000FB7D43F08003FB753B681B787A6804331B
:1008F0009B0013449B687A691A603B68DB78012B84
:1009000040F088803B68D9683B681A783B685B692F
:100910009BB27868FFF79CFD7CE03B681B787A68A7
:1009200014339B0013445B681B687B613B681B7836
:100930007A6814339B0013445B681B693B613B6816
:100940005B69002B0DD13B689B68C3F312023B69C6
:1009500062F312033B617B8A012262F3CC037B8248
:100960001FE03B685A693B689B6813445A1E3B680A
:100970009B68B2FBF3F39BB2C3F309039AB27B8A81
:1009800062F3CC037B827B8AC3F3C9039BB23A68D0
:10099000926802FB03F3C3F312023B6962F3120392
:1009A0003B613B681B787A6814339B0013445B6897
:1009B0003A691A617B68DB78012B09D13B681B78A7
:1009C0007A6814339B0013445B683A6812695A6171
:1009D0003B68DB78012B0CD13B685B79002B04D0A2
:1009E000FB7D43F02003FB7503E0FB7D43F0100328
:1009F000FB75FB7D43F00403FB75FB7D43F0800337
:100A0000FB753B681B787A6814339B0013445B6862
:100A10007A691A60FB7F18462037BD4680BD00BF4B
:100A200080B489B000AF786039600023FB77002381
:100A3000BB6100233B610023BB603B685B78012BFB
:100A40006FD17B689B697B617B691B683B617B69BC
:100A50001B69BB603B685B69002B09D13B7A6FF374
:100A600006033B72BB7A012262F3C403BB7223E02C
:100A70003B685A693B689B689A420ED93B689A6802
:100A80003B685A613B689B68DBB203F07F03DAB2D4
:100A90003B7A62F306033B7209E03B685B69DBB2B9
:100AA00003F07F03DAB23B7A62F306033B72BB7A50
:100AB000012262F3C403BB72BA687B691A617B6866
:100AC000DB78012B09D13B681B787A6804339B00E3
:100AD00013449B683A6812695A61FB7C43F0040333
:100AE000FB74FB7C43F08003FB743A697B691A60FA
:100AF0007B68DB78002B75D13B685B69002B71D07C
:100B00003B681B78012202FA03F3BA691343BB6105
:100B10007B681B697A681269516BBA690A435A6328
:100B200060E03B681B787A6814339B0013445B6871
:100B30001B683B613B681B787A6814339B00134445
:100B40005B681B69BB603B685B69002B0FD13B682E
:100B50009B68DBB203F07F03DAB23B7A62F30603F1
:100B60003B72BB7A012262F3C403BB7212E03B68A2
:100B70009A683B685A613B689B68DBB203F07F036D
:100B8000DAB23B7A62F306033B72BB7A012262F36C
:100B9000C403BB723B681B787A6814339B00134410
:100BA0005B68BA681A617B68DB78012B09D13B6806
:100BB0001B787A6814339B0013445B683A681269A7
:100BC0005A61FB7C43F00403FB74FB7C43F080031D
:100BD000FB743B681B787A6814339B0013445B6892
:100BE0003A691A60FB7F18462437BD465DF8047BDE
:100BF000704700BF80B487B000AF786039600023D1
:100C0000FB750023FB603B685B78012B1CD13B68C4
:100C10001B787A6804339B0013449B683B613B69F3
:100C20001B68FB60FB7BC3F3C013DBB2002B03D05C
:100C3000FB7B43F04003FB73BB7B43F02003BB73A0
:100C4000FA683B691A6011E03B681B787A681433D4
:100C50009B0013445B683B613B691B68FB60BB7B8B
:100C600043F02003BB73FA683B691A60FB7D1846AA
:100C70001C37BD465DF8047B704700BF80B487B069
:100C800000AF786039600023FB740023FB603B6891
:100C90005B78012B08D13B681B787A6804339B0092
:100CA00013449B687B6107E03B681B787A681433C8
:100CB0009B0013445B687B617B691B68FB60BB7BAB
:100CC0006FF34513BB733B68DB78032B03D03B68A2
:100CD000DB78022B03D1FB7B43F01003FB73FA6834
:100CE0007B691A60FB7C18461C37BD465DF8047BA7
:100CF000704700BF80B485B000AF78607B681B6927
:100D00009B69FB607B681B69DB69FA681340FB60C9
:100D1000FB681B0C18461437BD465DF8047B704712
:100D200080B485B000AF78600B46FB70FB787A68C2
:100D300014339B0013445B689B68FB607B681B69F2
:100D40005B69FA681340FB60FB6818461437BD46C0
:100D50005DF8047B704700BF80B485B000AF786059
:100D60007B681B699B69FB607B681B69DB69FA68B0
:100D70001340FB60FB689BB218461437BD465DF814
:100D8000047B704780B487B000AF786000233B617C
:100D9000FB7C43F0C003FB74BB7C012262F3C40301
:100DA000BB743B7C182262F306033B747B685B6D6B
:100DB0003A691A617B68DB78012B16D10023FB604E
:100DC0007B685B6D7A6802F5B9625A617B685B6D1E
:100DD0001B68FB60FB7B43F08003FB734FF08023B9
:100DE000FB607B685B6DFA681A601C37BD465DF876
:100DF000047B704780B485B000AF78607B689B7AD5
:100E0000002B1BD07B681B699B68FB603B7BC3F39B
:100E10000003DBB2012B11D17B6803F586731B68DD
:100E2000BB603B7A6FF341033B723B7A6FF3000385
:100E30003B727B68D3F80C31BA681A601437BD4630
:100E40005DF8047B704700BF80B584B000AF3960A7
:100E50000146F971BA80BB713A680023C4F20203FB
:100E60009A4204D10120012101F038F82EE03A68BD
:100E70004FF48063C4F202039A4204D1022001219C
:100E800001F02CF822E03A684FF40063C4F2020348
:100E90009A4204D10420012101F020F816E03A68BA
:100EA0004FF44063C4F202039A4204D108200121A6
:100EB00001F014F80AE03A684FF48053C4F20203D8
:100EC0009A4203D11020012101F008F807F108032C
:100ED000184601F0E9FABB88BB60FB793B733B7EA7
:100EE000BB73BB79FB7303237B7307F1080338687B
:100EF000194601F04BFAFB79012B04D1BB88386805
:100F0000194601F0EBFA1037BD4680BD80B483B0BE
:100F100000AF0123FB8000233B6000BF3A68531CF5
:100F20003B604AF21F13C0F207039A42F6D94FF40E
:100F30004063C4F20203FA88120392B25A83FB8818
:100F40005B00FB80FB880F2B01D90123FB804FF452
:100F50004063C4F20203FA88120392B21A83DAE7FA
:100F600080B400AFBD465DF8047B704780B500AF2C
:100F7000FFF7CCFF80BD00BF80B500AFFFF7C6FF15
:100F800080BD00BF80B500AFFFF7C0FF80BD00BFD0
:100F900080B500AFFFF7BAFF80BD00BF80B400AFDF
:100FA000BD465DF8047B704780B400AFBD465DF878
:100FB000047B704780B400AFBD465DF8047B70478A
:100FC00080B500AF40F2B020C2F2000002F020F97C
:100FD00080BD00BF80B500AF40F2B023C2F2000375
:100FE0009B7A002B13D04EF61053CEF200034EF630
:100FF0001052CEF20002126822F006021A6001F0CE
:10100000C1FA40F2B020C2F20000FFF7F3FE4FF445
:10101000802002F0E5FF80BD80B500AF0023C4F260
:1010200001031B889BB21B099BB2002B0BD040F223
:101030005413C2F200031B685A1C40F25413C2F24C
:1010400000031A6013E00023C4F201031B889BB263
:101050001B099BB2002B0AD140F25013C2F20003CD
:101060001B685A1C40F25013C2F200031A600020A1
:10107000C4F20100012104F063F880BD80B500AF27
:101080004FF48063C4F200031B889BB21B099BB220
:10109000002B0BD040F26413C2F200031B685A1CF1
:1010A00040F26413C2F200031A6014E04FF480634C
:1010B000C4F200031B889BB21B099BB2002B0AD110
:1010C00040F26013C2F200031B685A1C40F2601326
:1010D000C2F200031A604FF48060C4F200000121E4
:1010E00004F02EF880BD00BF80B500AF4FF4006360
:1010F000C4F200031B889BB21B099BB2002B0BD0D0
:1011000040F26C13C2F200031B685A1C40F26C13CD
:10111000C2F200031A6014E04FF40063C4F200034B
:101120001B889BB21B099BB2002B0AD140F26813AB
:10113000C2F200031B685A1C40F26813C2F200039B
:101140001A604FF40060C4F20000012103F0F8FFC0
:1011500080BD00BF80B500AF4FF44063C4F2000310
:101160001B889BB21B099BB2002B0BD040F274135F
:10117000C2F200031B685A1C40F27413C2F200034F
:101180001A6014E04FF44063C4F200031B889BB262
:101190001B099BB2002B0AD140F27013C2F200036C
:1011A0001B685A1C40F27013C2F200031A604FF41D
:1011B0004060C4F20000012103F0C2FF80BD00BF07
:1011C00080B500AF4FF48063C4F201031B889BB26B
:1011D0001B099BB2002B0BD040F27C13C2F2000320
:1011E0001B685A1C40F27C13C2F200031A6014E020
:1011F0004FF48063C4F201031B889BB21B099BB2AE
:10120000002B0AD140F27813C2F200031B685A1C6B
:1012100040F27813C2F200031A604FF48060C4F207
:101220000100012103F08CFF80BD00BF80B483B0BA
:1012300000AF78607B689B889BB2C3F308039BB2C6
:1012400018460C37BD465DF8047B704780B487B004
:1012500000AF78600B467B800023FB6000237B613E
:101260000023BB600023FB747B88DBB25B09DBB22D
:10127000BB607B8803F01F037B617B69012202FA5C
:1012800003F37B61BB68012B06D17B689B899BB212
:101290007A6913407B610FE0BB68022B06D17B6843
:1012A0001B8A9BB27A6913407B6105E07B689B8A4D
:1012B0009BB27A6913407B617B881B0A9BB2FB60FF
:1012C000FB68012202FA03F3FB607B681B889BB278
:1012D000FA681340FB607B69002B05D0FB68002B8C
:1012E00002D00123FB7401E00023FB74FB7C184651
:1012F0001C37BD465DF8047B704700BF80B582B0E7
:1013000000AF78607A684FF4C843C4F200039A4291
:101310000AD14FF00070012100F058FE4FF000702C
:10132000002100F053FE09E04FF08060012100F041
:101330004DFE4FF08060002100F048FE0837BD46AA
:1013400080BD00BF80B485B000AF786039600023F5
:10135000FB730023BB607B681B6823F002027B6881
:101360001A607B681B6843F001027B681A6002E028
:10137000BB680133BB607B685B6803F00103002B33
:1013800004D1BA684FF6FF739A42F1D17B685B686B
:1013900003F00103002B02D10023FB739CE03B68A8
:1013A0009B79012B06D17B681B6843F080027B6828
:1013B0001A6005E07B681B6823F080027B681A6076
:1013C0003B68DB79012B06D17B681B6843F0400248
:1013D0007B681A6005E07B681B6823F040027B682D
:1013E0001A603B681B7A012B06D17B681B6843F0AF
:1013F00020027B681A6005E07B681B6823F02002EE
:101400007B681A603B685B7A012B06D17B681B689E
:1014100043F010027B681A6005E07B681B6823F0CC
:1014200010027B681A603B689B7A012B06D17B68AF
:101430001B6843F008027B681A6005E07B681B6844
:1014400023F008027B681A603B68DB7A012B06D127
:101450007B681B6843F004027B681A6005E07B68C8
:101460001B6823F004027B681A603B689B789A072C
:101470003B68DB781B061A433B681B791B041A4345
:101480003B685B791B051A433B681B88013B1A4389
:101490007B68DA617B681B6823F001027B681A6055
:1014A0000023BB6002E0BB680133BB607B685B6804
:1014B00003F00103002B04D0BA684FF6FF739A4281
:1014C000F1D17B685B6803F00103002B02D000239D
:1014D000FB7301E00123FB73FB7B18461437BD4609
:1014E0005DF8047B704700BF80B485B000AF7860C2
:1014F0000023FB607B689B7A012202FA03F3FB6006
:101500004FF4C843C4F200034FF4C842C4F20002CF
:10151000D2F8002242F00102C3F800224FF4C8437F
:10152000C4F200034FF4C842C4F20002D2F81C1205
:10153000FA68D2430A40C3F81C227B681B7B002B4D
:101540002DD14FF4C843C4F200034FF4C842C4F293
:101550000002D2F80C12FA68D2430A40C3F80C22F7
:101560004FF4C843C4F200037A68927A7968C98854
:101570000804796849880143483243F832104FF42F
:10158000C842C4F200027B689B7A796889880804A3
:101590007968098801434833DB00134459607B684C
:1015A0001B7B012B2CD14FF4C843C4F200034FF432
:1015B000C842C4F20002D2F80C12FA680A43C3F817
:1015C0000C224FF4C843C4F200037A68927A796817
:1015D00009880804796849880143483243F8321081
:1015E0004FF4C842C4F200027B689B7A796889880C
:1015F00008047968C98801434833DB001344596003
:101600007B68DB7A002B0FD14FF4C843C4F2000390
:101610004FF4C842C4F20002D2F80412FA68D2436E
:101620000A40C3F804220DE04FF4C843C4F200039B
:101630004FF4C842C4F20002D2F80412FA680A4316
:10164000C3F804227B681B89002B0ED14FF4C843DA
:10165000C4F200034FF4C842C4F20002D2F81412DC
:10166000FA68D2430A40C3F814227B681B89012B15
:101670000DD14FF4C843C4F200034FF4C842C4F282
:101680000002D2F81412FA680A43C3F814227B68E5
:101690005B7B012B0DD14FF4C843C4F200034FF420
:1016A000C842C4F20002D2F81C12FA680A43C3F816
:1016B0001C224FF4C843C4F200034FF4C842C4F2E2
:1016C0000002D2F8002222F00102C3F800221437EF
:1016D000BD465DF8047B704780B485B000AF78608C
:1016E00039600023FB737B689B6803F08063002BE9
:1016F00002D00023FB7313E07B689B6803F0006358
:10170000002B02D00123FB730AE07B689B6803F087
:101710008053002B02D00223FB7301E00423FB73F0
:10172000FB7B042B00F09880FB7BFA7B79681832F6
:1017300012010A44126802F00102796818331B0191
:101740000B441A603B681B7A002B13D1FB7BFA7B9E
:101750007968183212010A4411683A681268500513
:101760003A68527A02430A43796818331B010B44E2
:101770001A6015E0FB7BFA7B7968183212010A4483
:1017800011683A685268D0003A68127A10433A6891
:10179000527A02430A43796818331B010B441A60DA
:1017A0003B689B7A03F00F03DAB23B689A72FB7BCB
:1017B000FA7B7968183212010A44526822F00F024B
:1017C000796818331B010B445A60FB7BFA7B7968FC
:1017D000183212010A4451683A68927A0A437968C9
:1017E00018331B010B445A60FB7B3A68927B11064D
:1017F0003A68527B120411433A68127B1202114379
:101800003A68D27A0A4379681B010B4403F5C47322
:101810001A60FB7B3A68927C11063A68527C12048B
:1018200011433A68127C120211433A68D27B0A4390
:1018300079681B010B4403F5C4735A60FB7BFA7B88
:101840007968183212010A44126842F0010279687C
:1018500018331B010B441A60FB7B18461437BD4636
:101860005DF8047B704700BF80B485B000AFF860BE
:10187000B9601346FB71FB79002B06D0FB685A69EF
:10188000BB681A43FB685A6106E0FB685A69BB688B
:10189000DB431A40FB685A611437BD465DF8047B90
:1018A000704700BF80B582B000AF47F21C33C0F66E
:1018B00000037B6040F20003C2F200033B6007E0DC
:1018C0003B681A1D3A607A68111D796012681A60C7
:1018D0003A6840F25013C2F200039A42F0D307482C
:1018E00007494FF000028842B8BF40F8042BFADBEA
:1018F00000F0FCF90837BD4680BD00005001002013
:10190000A008002080B400AFFEE700BF80B584B01F
:1019100000AF786007F108037868194601F00EFC03
:101920003B7A03F01F03012B0AD0022B0FD0002BB0
:1019300014D107F108037868194600F0F9FF16E0A2
:1019400007F108037868194601F042F80FE007F143
:1019500008037868194601F06FF808E03B7A23F035
:101960007F03DBB27868194602F048FF00BF00230E
:1019700018461037BD4680BD80B584B000AF786092
:101980000B46FB70FB78002B45D17B6803F55C733D
:10199000FB607B6893F81131032B4FD1FB68DA6948
:1019A000FB689B689A4221D9FB68DA69FB689B68EF
:1019B000D21AFB68DA617B68DB78012B06D1FB6801
:1019C000DA68FB689B681A44FB68DA60FB68DA68CF
:1019D000FB689968FB68DB69994238BF0B469BB28C
:1019E000786811461A4602F0CFFF27E07B68D3F8EB
:1019F000E0351B69002B0AD07B6893F81231032B6A
:101A000005D17B68D3F8E0351B697868984778681A
:101A100002F0CEFF12E07B68D3F8E0359B69002B23
:101A20000CD07B6893F81231032B07D17B68D3F875
:101A3000E0359B69FA787868114698470023184684
:101A40001037BD4680BD00BF80B584B000AF786060
:101A50000B46FB70FB78002B60D17B6803F58C7321
:101A6000FB607B6893F81131022B6AD1FB68DA695D
:101A7000FB689B689A421CD9FB68DA69FB689B6823
:101A8000D21AFB68DA617B68DB78012B06D1FB6830
:101A9000DA68FB689B681A44FB68DA60FB68DA68FE
:101AA000FB68DB699BB2786811461A4602F058FF62
:101AB00047E0FB681B6AFA689268B3FBF2F102FB2D
:101AC00001F29B1A002B14D1FB681A6AFB689B6811
:101AD0009A420ED3FB681A6AFB685B6A9A4208D284
:101AE00078680021002202F03BFFFB6800225A6266
:101AF00027E07B68D3F8E035DB68002B0AD07B68F1
:101B000093F81231032B05D17B68D3F8E035DB68FD
:101B100078689847786802F063FF12E07B68D3F832
:101B2000E0355B69002B0CD07B6893F81231032BF6
:101B300007D17B68D3F8E0355B69FA78786811469D
:101B40009847002318461037BD4680BD80B582B047
:101B500000AF7860786800214022002302F084FD05
:101B6000786880214022002302F07EFD7B680122FC
:101B700083F812217B68D3F8E4355B687A68927841
:101B800010469847002318460837BD4680BD00BF61
:101B900080B582B000AF78607B68D3F8E4351B690C
:101BA00098477B68032283F81221002318460837E0
:101BB000BD4680BD80B582B000AF78607B680422EE
:101BC00083F812217B68D3F8E435DB68984700235B
:101BD00018460837BD4680BD80B582B000AF78603A
:101BE0007B68D3F8E035DB69002B05D07B68D3F840
:101BF000E035DB6978689847002318460837BD460A
:101C000080BD00BF80B582B000AF78600B46FB702E
:101C10007B68D3F8E0351B68FA78786811469847F6
:101C20007B68D3F8E4359B6898470023184608374B
:101C3000BD4680BD80B582B000AF78600B46FB70BA
:101C40007B68D3F8E0355B68FA7878681146984786
:101C5000002318460837BD4680BD00BF80B582B05E
:101C600000AF78607B68D3F8E0351B6A78689847E6
:101C7000002318460837BD4680BD00BF80B582B03E
:101C800000AF78607B68D3F8E0355B6A7868984786
:101C9000002318460837BD4680BD00BF80B582B01E
:101CA00002AF00F06FFC41F26F20C3F6832000F01A
:101CB000D5FA00F0B3F90020C4F201004FF48051CE
:101CC000C4F202014FF400523223FEF75DFA002302
:101CD000009301204FF44061C4F202014FF44042EE
:101CE0000123FFF7B1F8BD4680BD00BF80B58AB0C3
:101CF00000AFFFF7D3FF002000F0E8FA0346092BFE
:101D000017D9002000F012FB0F233B6000237B60FB
:101D100000233B7200237B720123BB72AA23FB7258
:101D20003B464FF4C840C4F200001946FFF7D4FC0C
:101D3000E1E7E0E780B489B000AF78600023BB61E1
:101D400000237B610023FB6102233B610023FB60D6
:101D50000223BB604FF46053C4F202039B6803F09C
:101D60000C03BB61BB69042B0AD0082B0FD0002BDE
:101D70005AD17A684FF41053C0F2F40313605AE05A
:101D80007A684FF49053C0F27A03136053E04FF433
:101D90006053C4F202035B6803F480039B0DFB6095
:101DA0004FF46053C4F202035B6803F03F03BB606F
:101DB000FB68002B13D04FF49053C0F27A03BA683B
:101DC000B3FBF2F24FF46053C4F20203596847F6D2
:101DD000C0730B409B0903FB02F3FB6112E04FF45D
:101DE0001053C0F2F403BA68B3FBF2F24FF460533D
:101DF000C4F20203596847F6C0730B409B0903FB0A
:101E000002F3FB614FF46053C4F202035B6803F416
:101E100040331B0C01335B003B61FA693B69B2FB49
:101E2000F3F27B681A6006E07A684FF41053C0F250
:101E3000F403136000BF4FF46053C4F202039B68C5
:101E400003F0F003BB61BB691B09BB6140F23003C7
:101E5000C2F20003BA6913441B78DBB27B617B6872
:101E60001A687B69DA407B685A604FF46053C4F2A9
:101E700002039B6803F4E053BB61BB699B0ABB612F
:101E800040F23003C2F20003BA6913441B78DBB29C
:101E90007B617B685A687B69DA407B689A604FF4A3
:101EA0006053C4F202039B6803F46043BB61BB69E7
:101EB0005B0BBB6140F23003C2F20003BA6913440A
:101EC0001B78DBB27B617B685A687B69DA407B6890
:101ED000DA602437BD465DF8047B704780B483B078
:101EE00000AF78600B46FB70FB78002B0CD04FF4F2
:101EF0006053C4F202034FF46052C4F20202116B49
:101F00007A680A431A630CE04FF46053C4F2020388
:101F10004FF46052C4F20202116B7A68D2430A4055
:101F20001A630C37BD465DF8047B704780B483B0FC
:101F300000AF78600B46FB70FB78002B0CD04FF4A1
:101F40006053C4F202034FF46052C4F20202116CF7
:101F50007A680A431A640CE04FF46053C4F2020337
:101F60004FF46052C4F20202116C7A68D2430A4004
:101F70001A640C37BD465DF8047B704780B483B0AB
:101F800000AF78600B46FB70FB78002B0CD04FF451
:101F90006053C4F202034FF46052C4F20202516C67
:101FA0007A680A435A640CE04FF46053C4F20203A7
:101FB0004FF46052C4F20202516C7A68D2430A4074
:101FC0005A640C37BD465DF8047B704780B483B01B
:101FD00000AF78600B46FB70FB78002B0CD04FF401
:101FE0006053C4F202034FF46052C4F20202116A59
:101FF0007A680A431A620CE04FF46053C4F2020399
:102000004FF46052C4F20202116A7A68D2430A4065
:102010001A620C37BD465DF8047B704780B58AB004
:1020200000AF07F114031846FFF768F908200121F3
:10203000FFF754FF4FF000700121FFF777FF0323F4
:102040003B62022387F82430012387F825300023E0
:1020500087F82630012387F8273007F120034FF453
:102060004060C4F20200194600F090F94FF440605D
:10207000C4F202000021092200F03EFA4FF4406051
:10208000C4F202000121092200F036FA0123BB76D6
:102090000023FB7600233B7700237B770023BB776D
:1020A0000023FB770123BB750023FB7506233B76DA
:1020B00007237B760323BB8207F114034FF4C84048
:1020C000C4F200001946FFF73DF90023BB7301235A
:1020D000FB7300233B740023BB804FF4F073FB8041
:1020E00000233B8100237B810023BB8101237B7480
:1020F0003B1D1846FFF7F8F94FF4E06002F03AFA9A
:1021000014233B7000237B700023BB700123FB7002
:102110003B46184602F042FA4FF4E06002F02AFA19
:1021200013233B7000237B700023BB700123FB70E3
:102130003B46184602F032FA4FF4C840C4F20000A1
:1021400002210122FFF790FB4FF4C840C4F20000C7
:1021500001210122FFF788FB2837BD4680BD00BF63
:1021600080B483B000AF03463960FB7197F9073044
:10217000002B0EDA4FF46D43CEF20003FA7902F031
:102180000F02111F3A68D2B21201D2B20B441A7672
:102190000CE04FF46143CEF2000397F907103A6860
:1021A000D2B21201D2B20B4483F800230C37BD46E1
:1021B0005DF8047B704700BF80B582B000AF7860E7
:1021C0007B68B3F1807F01D301231AE04EF2100344
:1021D000CEF200037A6822F07F42013A5A604FF053
:1021E000FF300F21FFF7BCFF4EF21003CEF20003C9
:1021F00000229A604EF21003CEF2000307221A600A
:10220000002318460837BD4680BD00BF80B400AF2C
:1022100040F28013C2F200031B685A1C40F2801384
:10222000C2F200031A6040F28813C2F200031B6876
:102230005A1C40F28813C2F200031A6040F2841361
:10224000C2F200031B685A1C40F28413C2F200035E
:102250001A60BD465DF8047B704700BF80B582B050
:1022600000AF786000F0D6F94FF0FF300121FFF7A2
:1022700077FF40F24003C2F200031B68184604F0E7
:1022800055FE03461846796804F0A8FE0346184632
:1022900004F0F4FF03461846FFF78EFF0837BD46EB
:1022A00080BD00BF80B500AF40F28C13C2F20003C6
:1022B0001B685A1C40F28C13C2F200031A604FF0E4
:1022C0008040012102F03CFF80BD00BF80B483B09C
:1022D00000AF78607B68002B05D140F28013C2F21A
:1022E00000031B681BE07B68012B05D140F28413BF
:1022F000C2F200031B6812E07B68022B05D140F29A
:102300008C13C2F200031B6809E07B68032B05D124
:1023100040F28813C2F200031B6800E00023184655
:102320000C37BD465DF8047B704700BF80B483B0B6
:1023300000AF78607B68002B06D140F28013C2F2B8
:10234000000300221A601CE07B68012B06D140F2DA
:102350008413C2F2000300221A6012E07B68022B91
:1023600006D140F28C13C2F2000300221A6008E08A
:102370007B68032B05D140F28813C2F200030022D0
:102380001A600C37BD465DF8047B704780B487B097
:1023900000AF7860396000237B6100233B6100233C
:1023A000FB6000237B6176E07B69012202FA03F384
:1023B0003B613B681A683B691340FB60FA683B6904
:1023C0009A4265D17B681A687B695B00032101FA38
:1023D00003F3DB431A407B681A607B681A683B682A
:1023E0001B7919467B695B0001FA03F31A437B688A
:1023F0001A603B681B79012B03D03B681B79022BC9
:102400002ED17B689A687B695B00032101FA03F394
:10241000DB431A407B689A607B689A683B685B790B
:1024200019467B695B0001FA03F31A437B689A60E3
:102430007B685A687B699BB2012101FA03F3DB4395
:102440001A407B685A607B685A683B689B791946DA
:102450007B699BB201FA03F39BB21A437B685A6013
:102460007B68DA687B699BB25B00032101FA03F3A6
:10247000DB431A407B68DA607B68DA683B68DB79AB
:1024800019467B695B0001FA03F31A437B68DA6043
:102490007B6901337B617B690F2B85D91C37BD4676
:1024A0005DF8047B704700BF80B483B000AF7860F4
:1024B0007B684FF6FF721A607B6800221A717B6896
:1024C00000225A717B6800229A717B680022DA71BF
:1024D0000C37BD465DF8047B704700BF80B483B005
:1024E00000AF78600B467B807B687A885A830C3714
:1024F000BD465DF8047B704780B485B000AF78605E
:1025000013460A467A807B700023FB600023BB6081
:102510007A787B8803F007039B0002FA03F3FB60E1
:102520007B88DB089BB21A467B88DB089BB2194686
:102530007B68083153F821107B8803F007039B0068
:102540000F2000FA03F3DB4319407B68083243F89D
:1025500022107B88DB089BB21A467B68083253F84E
:102560002220FB681343BB607B88DB089BB21A46C2
:102570007B680832B96843F822101437BD465DF80D
:10258000047B704780B500AF4FF46053C4F2020380
:102590004FF46052C4F20202126842F001021A6063
:1025A0004FF46053C4F2020300229A604FF4605368
:1025B000C4F202034FF46052C4F20202126822F025
:1025C000847222F480321A604FF46053C4F2020322
:1025D00043F21002C2F200425A604FF46053C4F258
:1025E00002034FF46052C4F20202126822F4802205
:1025F0001A604FF46053C4F202030022DA6000F064
:10260000B3F84FF46D43CEF200034FF000629A60CE
:1026100080BD00BF80B487B000AF00233B610023C2
:102620007B610223FB600023BB6002237B604FF4CD
:102630006053C4F202039B6803F00C033B613B69E7
:10264000042B0DD0082B15D0002B63D140F2400392
:10265000C2F200034FF41052C0F2F4021A6063E0B9
:1026600040F24003C2F200034FF49052C0F27A02EB
:102670001A6059E04FF46053C4F202035B6803F43C
:1026800080039B0DBB604FF46053C4F202035B6890
:1026900003F03F037B60BB68002B13D04FF49053D3
:1026A000C0F27A037A68B3FBF2F24FF46053C4F2DB
:1026B0000203596847F6C0730B409B0903FB02F302
:1026C0007B6112E04FF41053C0F2F4037A68B3FB5D
:1026D000F2F24FF46053C4F20203596847F6C07334
:1026E0000B409B0903FB02F37B614FF46053C4F280
:1026F00002035B6803F440331B0C01335B00FB6097
:102700007A69FB68B2FBF3F240F24003C2F20003C5
:102710001A6009E040F24003C2F200034FF4105285
:10272000C0F2F4021A6000BF4FF46053C4F2020317
:102730009B6803F0F0031A0940F24403C2F200035D
:102740009B5CDBB23B6140F24003C2F200031A68BB
:102750003B69DA4040F24003C2F200031A601C37C2
:10276000BD465DF8047B704780B483B000AF0023A2
:102770007B6000233B604FF46053C4F202034FF4CC
:102780006052C4F20202126842F480321A604FF4BE
:102790006053C4F202031B6803F400333B607B68A0
:1027A00001337B603B68002B03D17B68B3F5A06FDE
:1027B000EDD14FF46053C4F202031B6803F40033FD
:1027C000002B02D001233B6001E000233B603B680B
:1027D000012B40F082804FF46053C4F202034FF4A7
:1027E0006052C4F20202126C42F080521A644FF43A
:1027F000E043C4F200034FF4E042C4F20002126866
:1028000042F480421A604FF46053C4F202034FF462
:102810006052C4F2020292689A604FF46053C4F2AC
:1028200002034FF46052C4F20202926842F4004282
:102830009A604FF46053C4F202034FF46052C4F242
:102840000202926842F4A0529A604FF46053C4F2BC
:10285000020345F20842C0F240725A604FF46053DE
:10286000C4F202034FF46052C4F20202126842F052
:1028700080721A6000BF4FF46053C4F202031B68F9
:1028800003F00073002BF6D04FF47053C4F2020330
:1028900040F205621A604FF46053C4F202034FF431
:1028A0006052C4F20202926822F003029A604FF46E
:1028B0006053C4F202034FF46052C4F20202926801
:1028C00042F002029A6000BF4FF46053C4F2020368
:1028D0009B6803F00C03082BF6D10C37BD465DF85E
:1028E000047B704780B485B000AF78600023FB6044
:1028F0007A6813461B019B1ADB001A4644F625131F
:10290000C2F29243A3FB0213D21A520813449B084B
:10291000BB60FB680133FB60FA68BB689A4200D970
:1029200000E0F6E71437BD465DF8047B704700BF52
:1029300080B584B000AF786039600023FB733B68DA
:102940005B78092B39D801A252F823F09D290008A1
:10295000B1290008BB290008A7290008BB290008E5
:102960007F29000875290008BB2900089329000861
:10297000892900087868396800F042F922E078680F
:10298000396800F019FA1DE07868396800F052FAE9
:1029900018E07868396800F0E5FA13E0786839687B
:1029A00000F010FB0EE07868396800F039FB09E0B0
:1029B0007868396800F09AFB04E07868396800F0BC
:1029C00003FC00BFFB7B18461037BD4680BD00BF2F
:1029D00080B584B000AF786039600023FB737B68FA
:1029E00093F81231032B1CD13B689B88DBB2012B7F
:1029F00011D87B68D3F8E0359B68786839689847C8
:102A00003B68DB88002B0BD1FB7B002B08D178685F
:102A100001F0CEFF0AE07868396800F0D5FB05E0E8
:102A200004E07868396800F0CFFB00BFFB7B1846F4
:102A30001037BD4680BD00BF80B584B000AF786060
:102A400039600023FB733B689B88BB733B685B78F2
:102A5000012B39D0032B02D0002B6BD0CBE07B684D
:102A600093F81231022B02D0032B0DD026E0BB7B52
:102A7000002B08D0BB7B802B05D0BB7B7868194628
:102A800001F0BCFE1FE01EE03B685B88002B0AD112
:102A9000BB7B002B07D0BB7B802B04D0BB7B786833
:102AA000194601F0ABFE7B68D3F8E0359B68786887
:102AB00039689847786801F07BFF04E078683968E6
:102AC00000F082FB00BF96E07B6893F81231022B86
:102AD00002D0032B0DD027E0BB7B002B08D0BB7BA3
:102AE000802B05D0BB7B7868194601F087FE20E07B
:102AF0001FE03B685B88002B15D1BB7B002B0ED001
:102B0000BB7B802B0BD0BB7B7868194601F0B0FEF5
:102B10007B68D3F8E0359B687868396898477868AF
:102B200001F046FF05E004E07868396800F04CFBEE
:102B300000BF60E07B6893F81231022B02D0032BB8
:102B40000DD052E0BB7B002B08D0BB7B802B05D087
:102B5000BB7B7868194601F051FE4BE04AE0BB7B35
:102B60005BB2002B1BDABB7B03F07F027968134654
:102B70009B001344DB000B4403F58C739B78002B04
:102B800006D040F29013C2F2000301221A6023E043
:102B900040F29013C2F2000300221A601CE0BB7BDB
:102BA0005BB2002B18DBBA7B796813469B00134499
:102BB000DB000B4403F55C739B78002B06D040F2DE
:102BC0009013C2F2000301221A6005E040F2901354
:102BD000C2F2000300221A60786840F29011C2F23B
:102BE0000001022201F09CFE04E07868396800F0E0
:102BF000EBFA00BF00BFFB7B18461037BD4680BD17
:102C000080B584B000AF786039603B685B881B0A90
:102C10009BB2013B062B00F2B18001A252F823F0D7
:102C20003D2C00086F2C0008992C00087D2D000811
:102C30007D2D0008692D0008732D00087B68D3F8EE
:102C4000E8351B687A68917807F10A020846114650
:102C50009847F8603B68DB88402B04D07B6893F88A
:102C60001231012B02D108237B818CE08BE07B6841
:102C7000D3F8E0359B6A7A68917807F10A02084632
:102C800011469847F860FB68013302221A707B688E
:102C9000FA68C3F8EC2576E03B685B88DBB2052B6D
:102CA0005CD801A252F823F0C12C0008DB2C0008EC
:102CB000F52C00080F2D0008292D0008432D0008D1
:102CC0007B68D3F8E8355B687A68917807F10A0287
:102CD000084611469847F86045E07B68D3F8E83528
:102CE0009B687A68917807F10A020846114698476E
:102CF000F86038E07B68D3F8E835DB687A6891786B
:102D000007F10A02084611469847F8602BE07B68F5
:102D1000D3F8E8351B697A68917807F10A0208460A
:102D200011469847F8601EE07B68D3F8E8355B6988
:102D30007A68917807F10A02084611469847F860C8
:102D400011E07B68D3F8E8359B697A68917807F1E0
:102D50000A02084611469847F86004E07868396826
:102D600000F032FA24E00EE07868396800F02CFABE
:102D70001EE07868396800F027FA19E07868396849
:102D800000F022FA14E07B89002B11D03B68DB882D
:102D9000002B0DD03B68DA887B899A4238BF1346F6
:102DA0009BB27B817B897868F9681A4601F0B8FD8F
:102DB0001037BD4680BD00BF80B584B000AF7860DD
:102DC00039603B689B88002B2DD13B68DB88002B4A
:102DD00029D13B685B88DBB203F07F03FB737B6820
:102DE00093F81231032B04D17868396800F0ECF9BC
:102DF00018E07B68FA7B83F81321FB7B786819461F
:102E000001F070FD786801F0D3FDFB7B002B04D04E
:102E10007B68022283F8122104E07B68012283F898
:102E2000122104E003E07868396800F0CDF910372A
:102E3000BD4680BD80B582B000AF786039603B6828
:102E40005B88DAB240F29C13C2F200031A7040F2BF
:102E50009C13C2F200031B78012B04D978683968EF
:102E600000F0B2F97BE07B6893F81231022B02D0BC
:102E7000032B24D06EE040F29C13C2F200031B78B7
:102E8000002B18D040F29C13C2F200031A787B6822
:102E900083F810217B68032283F8122140F29C13EF
:102EA000C2F200031B7878681946FEF7ABFE78681B
:102EB00001F07EFD53E0786801F07AFD4FE040F2CA
:102EC0009C13C2F200031B78002B18D17B680222EE
:102ED00083F8122140F29C13C2F200031A787B6837
:102EE00083F8102140F29C13C2F200031B7878682B
:102EF0001946FEF79FFE786801F05AFD29E07B68CD
:102F000093F8102140F29C13C2F200031B789A42FE
:102F10001BD07B6893F8103178681946FEF78AFE5B
:102F200040F29C13C2F200031A787B6883F81021E8
:102F300040F29C13C2F200031B7878681946FEF732
:102F400061FE786801F034FD03E0786801F030FD3F
:102F500005E004E07868396800F036F900BF08370A
:102F6000BD4680BD80B582B000AF786039603B68F7
:102F7000DB88012B04D07868396800F025F91EE061
:102F80007B6893F81231022B02D0032B09D011E099
:102F9000786840F29411C2F20001012201F0C0FCF5
:102FA0000DE07B6803F5887378681946012201F00B
:102FB000B7FC04E07868396800F006F900BF08370C
:102FC000BD4680BD80B582B000AF786039607B6857
:102FD00093F81231023B012B1AD87B68D3F81431D5
:102FE000002B06D040F29813C2F2000303221A60AD
:102FF00005E040F29813C2F2000301221A607868DB
:1030000040F29811C2F20001012201F089FC04E0B3
:103010007868396800F0D8F800BF0837BD4680BD31
:1030200080B584B000AF786039600023FB733B68E3
:103030005B88012B0ED17B680122C3F814217B68C9
:10304000D3F8E0359B68786839689847786801F06C
:10305000AFFC48E03B685B88022B44D13B689B880F
:10306000DBB2002B3FD17B681B695B68BB603B68B0
:103070009B881B0A9BB2FB73FB7B013B042B2BD869
:1030800001A252F823F000BF9D300008A9300008CB
:10309000B5300008C1300008CD3000083B7A01226D
:1030A00062F306133B7217E03B7A022262F30613C7
:1030B0003B7211E03B7A032262F306133B720BE092
:1030C0003B7A042262F306133B7205E03B7A052249
:1030D00062F306133B7200BF7B681B69BA685A60D3
:1030E000786801F065FC1037BD4680BD80B582B0C0
:1030F00000AF786039607B6893F81231023B012B96
:1031000013D83B685B88012B0ED17B680022C3F883
:1031100014217B68D3F8E0359B6878683968984754
:10312000786801F045FC05E004E07868396800F053
:103130004BF800BF0837BD4680BD00BF80B483B0E8
:1031400000AF786039607B6893F8C8253B681A70D7
:103150007B6893F8C9253B685A707B6893F8CA3539
:103160001A467B6893F8CB351B029BB213449AB284
:103170003B685A807B6893F8CC351A467B6893F895
:10318000CD351B029BB213449AB23B689A807B6890
:1031900093F8CE351A467B6893F8CF351B029BB265
:1031A00013449AB23B68DA803B68DB881A467B6836
:1031B000C3F83C217B68012283F811210C37BD46FE
:1031C0005DF8047B704700BF80B582B000AF7860C7
:1031D00039603B681B78DBB25BB2002B04DA78689D
:1031E000802101F00BFB0CE03B68DB88002B04D155
:1031F0007868802101F002FB03E07868002101F08B
:10320000FDFA7868FDF7BEFD0837BD4680BD00BFFA
:1032100080B586B000AF786000237B617868FDF7E9
:10322000C7F90346002B00F09C807868FDF7D2F9BF
:1032300003463B613B69002B01D1002392E0BB7C3C
:10324000C3F3C003DBB2002B06D0786800F018FA95
:1032500003467A6913437B61BB7CC3F38003DBB213
:10326000002B06D0786800F015F903467A691343FD
:103270007B613B7CC3F34003DBB2002B09D000230E
:10328000FB603B7B43F002033B737B68DB68FA68BF
:103290005A61FB7CC3F3C013DBB2002B06D0786805
:1032A00000F064F803467A6913437B617B7CC3F3C7
:1032B000C003DBB2002B06D0786800F097F8034615
:1032C0007A6913437B613B7CC3F3C003DBB2002B01
:1032D00006D0786800F094FA03467A6913437B615C
:1032E0003B7CC3F30013DBB2002B06D0786800F000
:1032F000A3FA03467A6913437B617B7CC3F3001313
:10330000DBB2002B06D0786800F08AFB03467A69AE
:1033100013437B617B7CC3F34013DBB2002B06D0ED
:10332000786800F01FFC03467A6913437B61BB7C1D
:10333000C3F30013DBB2002B06D0786800F04EFC1C
:1033400003467A6913437B61BB7CC3F34013DBB252
:10335000002B06D0786800F05DFC03467A691343C1
:103360007B617B6918461837BD4680BD80B586B045
:1033700000AF78607B689B7A002B11D07B6803F5E7
:1033800086731B68FB603B7B6FF341033B733B7BA6
:103390006FF300033B737B68D3F80C31FA681A6053
:1033A00000233B613B7C43F001033B747B681B695A
:1033B0007A68126951683A69D2430A405A6040F209
:1033C0002C03C2F200031B689B69786898470023AE
:1033D0007B61FB7D43F08003FB757B68DB687A696A
:1033E0005A61012318461837BD4680BD80B586B0A6
:1033F00000AF786040F22C03C2F200031B685B69E7
:10340000786898477B681B699B68FB6000237B6139
:103410007B7D43F008037B757B68DB687A695A61C2
:103420007B689B7A002B2FD03B7BC3F30003DBB27E
:10343000012B29D100233B613B7C43F001033B740A
:103440007B68D3F80C317A68D2F80C2111683A699C
:103450000A431A603B7C43F002033B747B68D3F859
:103460000C317A68D2F80C2111683A690A431A6063
:103470004FF46D43CEF200034FF46D42CEF20002E2
:10348000126942F006021A61012318461837BD4638
:1034900080BD00BF80B586B000AF786000233B617F
:1034A0000023BB607868FDF757FC7861DFE07B693B
:1034B00003F00103002B00F0D4803B69DBB2786895
:1034C000194600F0C3FB0346BB603B7AC3F300031D
:1034D000DBB2002B35D03B69012202FA03F3FB601B
:1034E0007B681B697A681269516BFA68D2430A409B
:1034F0005A630023BB603B7A43F001033B727A6856
:103500003B6904339B0013449B68BA689A6040F29D
:103510002C03C2F200031B685B683A69D2B2786878
:10352000114698477B68DB78012B0AD13B69002B59
:1035300007D17B6893F81131042B02D17868FDF72D
:1035400021FC3B7AC3F38003DBB2002B0DD00023B8
:10355000BB603B7A43F004033B727A683B690433F7
:103560009B0013449B68BA689A603B7AC3F3C0031C
:10357000DBB2002B0DD00023BB603B7A43F0080385
:103580003B727A683B6904339B0013449B68BA68BA
:103590009A603B7AC3F30013DBB2002B0DD00023FB
:1035A000BB603B7A43F010033B727A683B6904339B
:1035B0009B0013449B68BA689A603B7AC3F340133C
:1035C000DBB2002B0DD00023BB603B7A43F020031D
:1035D0003B727A683B6904339B0013449B68BA686A
:1035E0009A603B7AC3F38013DBB2002B0DD000232B
:1035F000BB603B7A43F040033B727A683B6904331B
:103600009B0013449B68BA689A603B7AC3F34003FB
:10361000DBB2002B0DD00023BB603B7A43F00203EA
:103620003B727A683B6904339B0013449B68BA6819
:103630009A603B7AC3F3C013DBB2002B11D07868D9
:10364000396900F07BF90023BB603B7A43F08003CB
:103650003B727A683B6904339B0013449B68BA68E9
:103660009A603B6901333B617B695B087B617B69E5
:10367000002B7FF41CAF012318461837BD4680BDD0
:1036800080B586B000AF786000233B610023FB600B
:103690007868FDF72FFB7861A9E07B6903F00103EF
:1036A000002B00F09E803B69DBB278681946FDF77D
:1036B00037FB0346FB603B7BC3F30003DBB2002B0D
:1036C0004BD00023FB603B7B43F001033B737A68E4
:1036D0003B6914339B0013445B68FA689A607B680B
:1036E000DB78012B1FD17A683B6914339B001344AC
:1036F0005B681B69BB6079683A6913469B00134499
:10370000DB000B4403F55E731A68BB68C3F3120356
:10371000D11A78683A6913469B001344DB000344CE
:1037200003F56273196040F22C03C2F200031B68B8
:103730001B683A69D2B27868114698477B68DB7893
:10374000012B0AD13B69002B07D17B6893F811311B
:10375000052B02D17868FDF715FB3B7BC3F34003D3
:10376000DBB2002B0DD00023FB603B7B43F0020358
:103770003B737A683B6914339B0013445B68FA68B7
:103780009A603B7BC3F38003DBB2002B0DD0002398
:10379000FB603B7B43F004033B737A683B69143363
:1037A0009B0013445B68FA689A603B7BC3F3C003D9
:1037B000DBB2002B15D040F22C03C2F200031B68D1
:1037C0009B68786898470023FB603B7B43F00803C5
:1037D0003B737A683B6914339B0013445B68FA6857
:1037E0009A603B6901333B617B695B087B617B6964
:1037F000002B7FF452AF012318461837BD4680BD19
:1038000080B584B000AF786040F22C03C2F20003B0
:103810001B68DB68786898470023FB603B7B43F0BC
:1038200008033B737B68DB68FA685A61012318461A
:103830001037BD4680BD00BF80B586B000AF786050
:1038400000233B613B7C43F010033B747B68DB68E7
:103850007A68D26891693A69D2430A409A617B6872
:10386000DB681B6AFB603B7BC3F30303DBB21A46D6
:1038700013469B001344DB0003F55C737A68134422
:103880007B61BB7BC3F34303DBB2013B052B46D813
:1038900001A252F823F000BF1F390008B138000818
:1038A0001F3900081F3900081F390008FB380008BD
:1038B000BB89C3F30A139BB2002B1DD07B69DA6866
:1038C000BB89C3F30A139BB2786811461A46FCF70A
:1038D000F7FD7B69DA68BB89C3F30A139BB21A440C
:1038E0007B69DA607B699A69BB89C3F30A139BB26F
:1038F0001A447B699A6113E012E07B6803F5B963AF
:10390000786819460822FCF7DBFD7B699A69BB8958
:10391000C3F30A139BB21A447B699A6100E000BFAB
:103920007B68DB687A68D26891693A690A439A6170
:10393000012318461837BD4680BD00BF80B586B04C
:1039400000AF7860396000237B610023BB603A6878
:1039500013469B001344DB0003F58C737A68134411
:10396000FB60FB685A69FB689B69D31A7B61FB6843
:103970009A687B699A4202D2FB689B687B617B698B
:1039800003339B083B617A683B6804339B00134414
:103990009B689B69BB602EE0FB685A69FB689B696A
:1039A000D31A7B61FB689A687B699A4202D2FB68F2
:1039B0009B687B617B6903339B083B61FB68D9682B
:1039C0003B68DAB27B699BB27868FCF741FDFB6823
:1039D000DA687B691A44FB68DA60FB689A697B697C
:1039E0001A44FB689A617A683B6804339B0013446D
:1039F0009B689B69BB603B891A463B699A4209D91F
:103A0000FB689A69FB685B699A4203D2FB685B6951
:103A1000002BC1D1012318461837BD4680BD00BF19
:103A200080B58AB000AF786000233B6100233B6221
:103A30000023FB610023BB6100237B610023FB604B
:103A40003B7C43F001033B747B681B697A68126915
:103A500051683A69D2430A405A6078680021FCF7FD
:103A60005DFD00237B6212E07A687B6A04339B0071
:103A700013449B68FF229A607A687B6A14339B0028
:103A800013445B68FF229A607B6A01337B627B6828
:103A90005B781A467B6A9A42E6D87B681B694FF0CE
:103AA000FF329A613B8C012262F30F033B847B8CD3
:103AB000012262F30F037B847B681B693A6ADA6137
:103AC0003B7F43F008033B773B7F43F001033B77A9
:103AD0003B7F43F004033B773B7F43F002033B779C
:103AE0007B681B69FA695A613B7E43F001033B76B0
:103AF0003B7E43F008033B763B7E43F002033B767C
:103B00003B7E43F004033B763B7E43F020033B7651
:103B10007B681B69BA691A617B681B691B687B61DA
:103B2000BB8A6FF30A13BB827B681B697A691A60D0
:103B30007868FDF727F90023FB607B7B43F01003D7
:103B40007B737B68DB68FA685A6140F22C03C2F22F
:103B500000031B681B6978689847012318462837BB
:103B6000BD4680BD80B584B000AF78607868FCF752
:103B70006DFD7B68DB68DB68BB607868FCF742FD45
:103B80000346032B0CD17B6800229A707B684FF4AC
:103B900000729A807B7A092262F385037B720AE0C5
:103BA0007B6801229A707B6840229A807B7A05228A
:103BB00062F385037B727B68DB68BA68DA60002396
:103BC000FB607B7B43F020037B737B68DB68FA68D8
:103BD0005A61012318461037BD4680BD80B584B0B8
:103BE00000AF78600023FB6040F22C03C2F20003B8
:103BF0001B68DB6978689847BB7B43F01003BB7395
:103C00007B68DB68FA685A61012318461037BD46A5
:103C100080BD00BF80B584B000AF78600023FB603A
:103C200040F22C03C2F200031B681B6A78689847B5
:103C3000BB7B43F02003BB737B68DB68FA685A6187
:103C4000012318461037BD4680BD00BF80B487B041
:103C500000AF78600B46FB707B681B691B697B615A
:103C60007B681B695B6B3B61FB783A6922FA03F363
:103C7000DB01DBB27A6913437B61FB787A6804333A
:103C80009B0013449B689A687B691340FB60FB6848
:103C900018461C37BD465DF8047B704780B582B07E
:103CA00000AF0023FB7100F07DF90346FB71FB7947
:103CB000184600F059F80837BD4680BD00000000E6
:103CC000B0B586B000AFF860B9607A603B604FF085
:103CD00000037B61B86800F021F978617B68012BF3
:103CE00003D17B6983F000437B61786902F00AFDB0
:103CF00004460D46386802F0F3FC02460B4618A154
:103D0000D1E9000101F02CFA02460B462046294673
:103D100002F04CFD02460B461046194603F000F82F
:103D200003467B61FB68002B16DBFB68192B13DC59
:103D3000BB6A002B08D140F2A013C2F20003FA685C
:103D4000796943F8221007E040F20823C2F2000329
:103D5000FA68796943F822101837BD46B0BD00BF34
:103D60009A9999999999B93F90B587B002AF03464E
:103D7000FB710023FB602323FB72FA79FB7A9A42E2
:103D800036D140F27423C2F200031A6840F278235D
:103D9000C2F200030021995440F25403C2F200031E
:103DA000196840F29823C2F200031A6840F29C237B
:103DB000C2F200031C6840F2A023C2F200031B6899
:103DC0000093084640F27821C2F200012346FFF733
:103DD00077FF0123FB6040F25403C2F20003FF228D
:103DE0001A6040F2A023C2F2000300221A6070E0C1
:103DF000FB792F2B2CD9FB79392B29D840F274234E
:103E0000C2F200031A6840F27823C2F20003F97983
:103E1000995440F27423C2F200031B685A1C40F20A
:103E20007423C2F200031A6040F2A423C2F200031A
:103E30001B68012B0BD140F29C23C2F200031B68CC
:103E40005A1C40F29C23C2F200031A6041E040E099
:103E5000FB79602B13D9FB797A2B10D80123FB60F7
:103E6000FB79A3F1610240F25403C2F200031A602D
:103E700040F2A023C2F2000300221A6029E0FB797D
:103E8000402B13D9FB795A2B10D80123FB60FB7907
:103E9000A3F1410240F25403C2F200031A6040F25F
:103EA000A023C2F2000301221A6012E0FB792D2B3D
:103EB00006D140F29823C2F2000301221A6008E002
:103EC000FB792E2B05D140F2A423C2F2000301227C
:103ED0001A60FB68012B1DD1002240F27823C2F248
:103EE00000031A7040F27423C2F2000300221A6029
:103EF00040F29823C2F2000300221A6040F2A42389
:103F0000C2F2000300221A6040F29C23C2F20003B6
:103F100000221A601437BD4690BD00BF90B585B031
:103F200000AF78604FF00003FB600023BB602DE022
:103F3000BB687A6813441B782F2B2DD9BB687A682D
:103F400013441B78392B27D8F8684FF00001C4F2CE
:103F5000201103F043F803461C46BB687A681344FB
:103F60001B78184602F0E6FF03462046194602F089
:103F70002DFF034618464FF00001C4F2402102F025
:103F800023FF0346FB60BB680133BB60BB687A68F4
:103F900013441B78002BCBD1FB6818461437BD4661
:103FA00090BD00BF80B582B000AF0023FB714FF41D
:103FB0009040C4F2000040F22551FDF747F9034656
:103FC000012B07D14FF49040C4F20000FDF72EF909
:103FD0000346FB71FB7918460837BD4680BD00BF1C
:103FE00080B483B000AF78604FF47053C4F2010323
:103FF0007A685A610C37BD465DF8047B704700BF94
:1040000090B585B000AF03463960FB800023FB818B
:104010003B6800221A84FB8803F001039AB23B68D4
:104020001A80FB8803F002035B109AB23B685A8047
:10403000FB8803F004039B109AB23B689A80FB88CC
:1040400003F00803DB109AB23B68DA80FB8803F0C8
:1040500010031B119AB23B681A81FB8803F02003FE
:104060005B119AB23B685A81FB8803F040039B11B5
:104070009AB23B689A81FB8803F08003DB119AB205
:104080003B68DA81FB8803F480731B129AB23B68A9
:104090001A82FB8803F400735B129AB23B685A825F
:1040A000FB8803F480639B129AB23B689A82FB8878
:1040B00003F40063DB129AB23B68DA82FB8803F4F4
:1040C00080531B139AB23B681A83FB8803F4005396
:1040D0005B139AB23B685A83FB8803F480439B13BB
:1040E0009AB23B689A83FB88DB0B9AB23B68DA830F
:1040F0000023FB8131E0FA893B6833F81230012B51
:1041000021D1FC89FB89184602F0DAFA02460B46F7
:104110004FF000004FF0804101F022F802460B46BC
:104120001046194602F0DCFD03469AB2396804F1E4
:1041300010035B000B445A803B681B8C01339AB21E
:104140003B681A8406E0FB893A6810335B0013442D
:1041500000225A80FB890133FB81FB890F2BCAD9CE
:104160001437BD4690BD00BF80B582B000AF786007
:104170007A680023C4F201039A4219D140F2A823BD
:10418000C2F200031B6803F00103002B10D10120D1
:104190000121FDF7F3FE40F2A823C2F200031B68E1
:1041A00043F0010240F2A823C2F200031A6006E1C4
:1041B0007B68B3F1804F19D140F2A823C2F200030B
:1041C0001B6803F00203002B10D101200121FDF731
:1041D000ADFE40F2A823C2F200031B6843F00202C6
:1041E00040F2A823C2F200031A60E8E07A684FF4B4
:1041F0008063C4F200039A4219D140F2A823C2F2AC
:1042000000031B6803F00403002B10D102200121DE
:10421000FDF78CFE40F2A823C2F200031B6843F0B6
:10422000040240F2A823C2F200031A60C7E07A68D1
:104230004FF40063C4F200039A4219D140F2A8235C
:10424000C2F200031B6803F00803002B10D1042006
:104250000121FDF76BFE40F2A823C2F200031B68A8
:1042600043F0080240F2A823C2F200031A60A6E05D
:104270007A684FF44063C4F200039A4219D140F2C5
:10428000A823C2F200031B6803F01003002B10D117
:1042900008200121FDF74AFE40F2A823C2F20003E4
:1042A0001B6843F0100240F2A823C2F200031A6018
:1042B00085E07A684FF48063C4F201039A4219D111
:1042C00040F2A823C2F200031B6803F02003002B76
:1042D00010D102200121FDF751FE40F2A823C2F2C5
:1042E00000031B6843F0200240F2A823C2F200033F
:1042F0001A6064E07A684FF48043C4F201039A4282
:104300001AD140F2A823C2F200031B6803F0400355
:10431000002B11D14FF480300121FDF72FFE40F228
:10432000A823C2F200031B6843F0400240F2A82316
:10433000C2F200031A6042E07A684FF48843C4F284
:1043400001039A421AD140F2A823C2F200031B686B
:1043500003F08003002B11D14FF400300121FDF751
:104360000DFE40F2A823C2F200031B6843F0800256
:1043700040F2A823C2F200031A6020E07A684FF4EA
:104380009043C4F201039A4219D140F2A823C2F229
:1043900000031B6803F48073002B10D14FF48020BE
:1043A0000121FDF7EBFD40F2A823C2F200031B68D8
:1043B00043F4807240F2A823C2F200031A60083767
:1043C000BD4680BD80B485B000AF0346FB800023AE
:1043D000FB73FB88802B49D0802B11DC082B39D054
:1043E000082B06DC022B2FD0042B30D0012B28D039
:1043F00057E0202B34D0402B35D0102B2DD050E05F
:10440000B3F5006F3ED0B3F5006F09DCB3F5007F64
:1044100032D0B3F5806F32D0B3F5807F29D040E041
:10442000B3F5005F34D0B3F5005F03DCB3F5805F14
:104430002BD036E0B3F5804F2DD0B3F5004F2DD003
:104440002FE00023FB732CE00123FB7329E0022300
:10445000FB7326E00323FB7323E00423FB7320E0BC
:104460000523FB731DE00623FB731AE00723FB7390
:1044700017E00823FB7314E00923FB7311E00A2300
:10448000FB730EE00B23FB730BE00C23FB7308E0C4
:104490000D23FB7305E00E23FB7302E00F23FB7378
:1044A00000BFFB7B18461437BD465DF8047B7047A0
:1044B00080B485B000AF78600023FB737A68002376
:1044C000C4F201039A4202D10123FB734BE07B68E3
:1044D000B3F1804F02D10123FB7344E07A684FF4BB
:1044E0008063C4F200039A4202D10223FB733AE0D4
:1044F0007A684FF40063C4F200039A4202D10223A7
:10450000FB7330E07A684FF44063C4F200039A42D0
:1045100002D10223FB7326E07A684FF48063C4F271
:1045200001039A4202D10323FB731CE07A684FF423
:104530008043C4F201039A4202D10323FB7312E0C9
:104540007A684FF48843C4F201039A4202D10323EC
:10455000FB7308E07A684FF49043C4F201039A4277
:1045600001D10323FB73FB7B18461437BD465DF86E
:10457000047B704780B483B000AF78604FF46D4324
:10458000CEF200037A6842F0BF6242F40032DA6091
:104590000C37BD465DF8047B704700BF80B485B022
:1045A00000AF78600023FB730023BB730F237B7382
:1045B0007B68DB78002B40D04FF46D43CEF20003D4
:1045C000DB68DB4303F4E0631B0AFB73FB7BC3F193
:1045D0000403BB737A7BFB7B42FA03F37B737B6838
:1045E0005B781A46BB7B02FA03F3FB737B689A780D
:1045F0007B7B1340DAB2FB7B1343FB73FB7B1B011A
:10460000FB734FF46143CEF200037A6812781344CF
:10461000FA7B83F800234FF46143CEF200037A68FB
:1046200012785209D2B27968097801F01F0101208D
:1046300000FA01F143F8221011E04FF46143CEF289
:1046400000037A6812785209D2B27968097801F0C9
:104650001F01012000FA01F1203243F82210143723
:10466000BD465DF8047B704780B584B000AF7860CC
:10467000F9703A80BB70FB785BB2002B0CDAFB78E8
:1046800003F07F0213469B001344DB0003F58C7399
:104690007A681344FB600BE0FB7803F07F0213465B
:1046A0009B001344DB0003F55C737A681344FB60E2
:1046B000FB7803F07F03DAB2FB681A70FB78DB0942
:1046C000DBB21A46FB685A703A88FB689A60FB684E
:1046D000BA78DA70FB685B78002B04D0FB681B7833
:1046E0001A46FB68DA80BB78022B02D1FB680022F5
:1046F0001A717868F968FBF7E5FF00231846103750
:10470000BD4680BD80B586B000AFF8607A600A46CD
:10471000FA723B81FB7A03F07F0213469B0013443D
:10472000DB0003F55C73FA6813447B617B697A688C
:10473000DA603A897B695A617B6900229A617B69F8
:1047400000225A70FB7A03F07F03DAB27B691A7099
:10475000FB68DB78012B02D17A687B691A617B697F
:104760001B78002B04D1F8687969FCF759F903E04C
:10477000F8687969FCF714F8002318461837BD4625
:1047800080BD00BF80B586B000AFF8607A603B6046
:104790000B46FB72FB7A03F07F0213469B00134427
:1047A000DB0003F58C73FA6813447B617B6901229B
:1047B0005A70FB7A03F07F03DAB27B691A707B6967
:1047C0007A68DA607A687B691A617B6900229A618B
:1047D0007B693A685A617B691B78002B04D1F868C1
:1047E0007969FCF71DF903E0F8687969FBF7D8FFF0
:1047F000002318461837BD4680BD00BF80B584B081
:1048000000AF78600B46FB70FB785BB2002B0CDAD4
:10481000FB7803F07F0213469B001344DB0003F593
:104820008C737A681344FB6009E0FA7813469B00A6
:104830001344DB0003F55C737A681344FB60FB6888
:1048400001229A70FB7803F07F03DAB2FB681A70DA
:10485000FB78DB09DBB21A46FB685A707868F968A6
:10486000FCF7C8F9002318461037BD4680BD00BFCD
:1048700080B584B000AF78600B46FB70FB785BB20C
:10488000002B0CDAFB7803F07F0213469B001344E5
:10489000DB0003F58C737A681344FB6009E0FA7857
:1048A00013469B001344DB0003F55C737A681344E2
:1048B000FB60FB6800229A70FB7803F07F03DAB29A
:1048C000FB681A70FB78DB09DBB21A46FB685A708A
:1048D0007868F968FCF7D2F9002318461037BD460E
:1048E00080BD00BF80B485B000AF78600B46FB7020
:1048F0000023FB60FB7803F07F03DAB2BB8962F32D
:104900000A13BB817B681B697A6812691168FA68AF
:104910000A431A601437BD465DF8047B704700BF38
:1049200080B586B000AFF860B9601346FB80002305
:10493000FB75FA88FB68C3F83821FA88FB68C3F86E
:104940003421FB68022283F81121FB88F8680021DA
:10495000BA68FFF717FFFB7D18461837BD4680BDC4
:1049600080B586B000AFF860B9601346FB800023C5
:10497000FB75FB88F8680021BA68FFF703FFFB7D31
:1049800018461837BD4680BD80B586B000AFF860C8
:10499000B9601346FB800023FB75FB88F868002193
:1049A000BA68FFF7AFFEFB7D18461837BD4680BDDD
:1049B00080B584B000AF78600023FB737B6804226D
:1049C00083F811217868002100220023FFF7DAFE26
:1049D0007868FCF7D7F9FB7B18461037BD4680BDD9
:1049E00080B584B000AF78600023FB737B6805223C
:1049F00083F811217868002100220023FFF782FE4E
:104A00007868FCF7BFF9FB7B18461037BD4680BDC0
:104A100080B400AFBD465DF8047B704780B400AF42
:104A2000BD465DF8047B704780B500AFFFF736F9EF
:104A300080BD00BF80B485B000AF786039600023CE
:104A4000FB817B681B88FB817A680023C4F2010329
:104A50009A421FD07A684FF48063C4F201039A42ED
:104A600018D07B68B3F1804F14D07A684FF480631C
:104A7000C4F200039A420DD07A684FF40063C4F286
:104A800000039A4206D07A684FF44063C4F20003F0
:104A90009A4208D1FB8923F07003FB813B685A8856
:104AA000FB891343FB817A684FF48053C4F20003FF
:104AB0009A420FD07A684FF4A053C4F200039A428E
:104AC00008D0FB8923F44073FB813B681A89FB897A
:104AD0001343FB817B68FA891A803B685A687B68BC
:104AE000DA623B681A887B681A857A680023C4F208
:104AF00001039A4206D07A684FF48063C4F201033E
:104B00009A4204D13B689B7A1A467B681A867B6876
:104B100001229A821437BD465DF8047B704700BFBE
:104B200080B483B000AF78600B46FB70FB78002B3D
:104B300008D07B681B889BB243F080039AB27B68E5
:104B40001A8007E07B681B889BB223F080039AB22F
:104B50007B681A800C37BD465DF8047B704700BF48
:104B600080B483B000AF78600B46FB70FB78002BFD
:104B700008D07B681B889BB243F001039AB27B6824
:104B80001A8007E07B681B889BB223F001039AB26E
:104B90007B681A800C37BD465DF8047B704700BF08
:104BA00080B485B000AF7860396000237B8100233A
:104BB000FB810023BB817B681B8C9BB223F001032C
:104BC0009AB27B681A847B681B8CFB817B689B880C
:104BD000BB817B681B8B7B817B8923F070037B818E
:104BE0007B8923F003037B813B681A887B8913430D
:104BF0007B81FB8923F00203FB813B689A89FB8957
:104C00001343FB813B685A88FB891343FB817A6815
:104C10000023C4F201039A4206D07A684FF48063FD
:104C2000C4F201039A4223D1FB8923F00803FB81DC
:104C30003B68DA89FB891343FB81FB8923F004037A
:104C4000FB813B689A88FB891343FB81BB8923F472
:104C50008073BB81BB8923F40073BB813B681A8AD4
:104C6000BB891343BB813B685A8ABB891343BB8111
:104C70007B68BA899A807B687A891A833B689A68CC
:104C80007B685A637B68FA891A841437BD465DF8DD
:104C9000047B704780B485B000AF78603960002332
:104CA0007B810023FB810023BB817B681B8C9BB233
:104CB00023F010039AB27B681A847B681B8CFB81FB
:104CC0007B689B88BB817B681B8B7B817B8923F402
:104CD000E0437B817B8923F440737B813B681B88A5
:104CE0001B029AB27B8913437B81FB8923F020034B
:104CF000FB813B689B891B019AB2FB891343FB81B3
:104D00003B685B881B019AB2FB891343FB817A687D
:104D10000023C4F201039A4206D07A684FF48063FC
:104D2000C4F201039A422BD1FB8923F08003FB815B
:104D30003B68DB891B019AB2FB891343FB81FB892A
:104D400023F04003FB813B689B881B019AB2FB89DF
:104D50001343FB81BB8923F48063BB81BB8923F4AC
:104D60000063BB813B681B8A9B009AB2BB891343DB
:104D7000BB813B685B8A9B009AB2BB891343BB81B2
:104D80007B68BA899A807B687A891A833B689A68BB
:104D90007B689A637B68FA891A841437BD465DF88C
:104DA000047B704780B485B000AF78603960002321
:104DB0007B810023FB810023BB817B681B8C9BB222
:104DC00023F480739AB27B681A847B681B8CFB8106
:104DD0007B689B88BB817B689B8B7B817B8923F075
:104DE00070037B817B8923F003037B813B681A88F6
:104DF0007B8913437B81FB8923F40073FB813B6830
:104E00009B891B029AB2FB891343FB813B685B8839
:104E10001B029AB2FB891343FB817A680023C4F218
:104E200001039A4206D07A684FF48063C4F201030A
:104E30009A422BD1FB8923F40063FB813B68DB8919
:104E40001B029AB2FB891343FB81FB8923F4806325
:104E5000FB813B689B881B029AB2FB891343FB8151
:104E6000BB8923F48053BB81BB8923F40053BB81EE
:104E70003B681B8A1B019AB2BB891343BB813B6809
:104E80005B8A1B019AB2BB891343BB817B68BA89D9
:104E90009A807B687A899A833B689A687B68DA6330
:104EA0007B68FA891A841437BD465DF8047B704725
:104EB00080B485B000AF786039600023BB810023E7
:104EC0007B810023FB817B681B8C9BB223F4805386
:104ED0009AB27B681A847B681B8C7B817B689B8879
:104EE000FB817B689B8BBB81BB8923F4E043BB8147
:104EF000BB8923F44073BB813B681B881B029AB2B9
:104F0000BB891343BB817B8923F400537B813B68BE
:104F10009B891B039AB27B8913437B813B685B8827
:104F20001B039AB27B8913437B817A680023C4F206
:104F300001039A4206D07A684FF48063C4F20103F9
:104F40009A420AD1FB8923F48043FB813B681B8A88
:104F50009B019AB2FB891343FB817B68FA899A8093
:104F60007B68BA899A833B689A687B681A647B6815
:104F70007A891A841437BD465DF8047B704700BFF8
:104F800080B485B000AF78600B467B800023FB8146
:104F90007B681B8BFB81FB8923F00803FB81FA896B
:104FA0007B881343FB817B68FA891A831437BD46DB
:104FB0005DF8047B704700BF80B485B000AF7860B7
:104FC0000B467B800023FB817B681B8BFB81FB896D
:104FD00023F40063FB817B881B029AB2FB89134395
:104FE000FB817B68FA891A831437BD465DF8047B20
:104FF000704700BF80B485B000AF78600B467B80FF
:105000000023FB817B689B8BFB81FB8923F00803DA
:10501000FB81FA897B881343FB817B68FA899A8339
:105020001437BD465DF8047B704700BF80B485B07F
:1050300000AF78600B467B800023FB817B689B8BF5
:10504000FB81FB8923F40063FB817B881B029AB2FE
:10505000FB891343FB817B68FA899A831437BD4629
:105060005DF8047B704700BF80B483B000AF786008
:1050700039603B681A883B685B8813439AB23B6887
:105080009B8813439AB23B68DB8813439AB23B6810
:105090001B8913439AB23B685B8913439AB23B68FE
:1050A0009B8913439AB27B68A3F844200C37BD4612
:1050B0005DF8047B704700BF80B483B000AF7860B8
:1050C0007B6800221A807B6800225A807B6800225D
:1050D0009A807B680022DA807B6800221A817B68D4
:1050E00000225A817B6800229A810C37BD465DF808
:1050F000047B704780B483B000AF78600B46FB70D0
:10510000FB78002B0CD07B68B3F844309BB26FEA7D
:1051100043436FEA53439AB27B68A3F8442009E003
:105120007B68B3F844309BB2C3F30E039AB27B683A
:10513000A3F844200C37BD465DF8047B704700BFE0
:1051400080B483B000AF78600B467B807B88DB4304
:105150009AB27B681A820C37BD465DF8047B7047B3
:105160002DE9F04F8BB01D4680468946144600F06D
:1051700093F940F2580AC2F2000A9AF9003001335A
:1051800006460F4604D02046294601F001F820B912
:10519000304639460BB0BDE8F08F4046494600F036
:1051A000F7FF834640BB204629460022002301F03A
:1051B00065FD0028ECD09AF9000047F2C8210023D1
:1051C000C0F60001B0F1FF3F18BF02284FF0010602
:1051D0004FF00002C3F6F073CDF820B0CDE902899C
:1051E000CDE9044501910096CDE9062330D1DDE9F2
:1051F00006010BB0BDE8F08F40464946002200236F
:1052000001F03CFD002830D0204629460022002332
:1052100001F034FD8346002868D09AF9002047F257
:10522000C823CDE90445C0F6000301200024002571
:105230000021CDE90289CDE906458DE809000891F4
:1052400032B100230022C3F6F073CDE90623CEE786
:10525000684600F0C5FF002877D0089B002BC6D019
:1052600002F02CF8089B0360C1E73046394600F095
:1052700089FF834600286DD030463946002200233E
:1052800001F0FCFC002883D04046494600F07AFF3C
:1052900000283FF47DAF2046294600F073FF002828
:1052A0003FF476AF9AF9002047F2C823CDE90445D0
:1052B000C0F60003022A4FF004004FF000044FF044
:1052C00000054FF00001CDE90289CDE906458DE8E2
:1052D0000900089100F09080684600F081FF0028E6
:1052E00000F08A80089B002B81D0B9E72046294630
:1052F00000F048FF00283FF44BAF2046294600222B
:10530000002301F0C5FC00283FF442AF9AF80010DA
:1053100047F2C823C0F600030122CDF820B08DE883
:105320000C000022CDE902890023CDE904450029C3
:1053300036D1CDE90623684600F052FF0028D1D1CE
:1053400001F0BCFF21230360CCE701F0B7FF21236C
:10535000036082E74046494600F014FF00288BD0E6
:105360002046294600F00EFF002885D030463946F9
:1053700000F00EFFD8B99AF8006047F2C823C0F6D3
:10538000000301220890CDE90289CDE904458DE8AA
:105390000C00002E35D100240025CDE90645CAE7D2
:1053A0000229CFF6F073CDE90623C9D0C3E79AF9F5
:1053B000002047F2C8230321C0F60003CDF820B037
:1053C00040468DE80A004946CDE90289CDE9044509
:1053D00012BB4FF6FF77002200234FF06046C4F265
:1053E000EF77CDE9066701F053FC002839D19AF92F
:1053F0000030022B7FF470AF01F060FF22230360C6
:1054000070E70020002102460B4601F0F9FA022E57
:10541000CDE9060194D08EE7002700220023002664
:10542000C7F6F077CDE9066701F032FC0028DED040
:1054300000230022C3F6E0732046294601F0B6F9A6
:1054400004460D4600F0D4FE22462B4601F016FC21
:105450000028CCD100230022CFF6F073CDE906233B
:10546000C5E700230022C3F6E0732046294601F079
:105470009DF904460D4600F0BBFE22462B4601F086
:10548000FDFB0028B3D14FF6FF734FF06042CCF222
:10549000EF73CDE90623AAE72DE9F04F23F0004B87
:1054A000814606465BEA020093B090469C4614464D
:1054B0001D468A460F4600F08A80002221F00040F7
:1054C000C7F6F0720290904212DDDDF808A00AF1F2
:1054D000404C0CF5801C5CEA060640F082804FF0E0
:1054E000000AC3F6F07A3046514613B0BDE8F08F9B
:1054F00014BF00230123B9F1000F0CBF002103F0FA
:1055000001010029E1D19345DFDC14BF0021012115
:10551000B8F1000F0CBF002201F00102002AD4D123
:10552000002F67DB0692A4B9002940F08880002292
:10553000C3F6F072934500F0B280B5F1804F04BF1E
:10554000484651463CD00022C3F6E072954200F036
:10555000F783484651460193CDF800C000F00EFE97
:10556000019BDDF800C0049156B90299002908BFDB
:1055700043F00103002B7BD1C3F6F073994277D03F
:10558000FB0F0699013B0A9319437BD00023C4F219
:10559000E0139B4540F3A0800023C4F2F0339B4509
:1055A00040F34E844FF6FF73DDF808A0C3F6EF73A7
:1055B0009A4540F3E083002D57DD45A1D1E9000174
:1055C00002460B4601F0F2F806468A468BE74FF09A
:1055D000000A0646C3F6F07A3046514613B0BDE8DD
:1055E000F08F47F20030C0F6000013B0BDE8F04F76
:1055F00000F0F8BD4FF6FF70C4F23F3083455EDC2B
:105600004FF6FF70C3F6EF7083458BDD4FEA2B52E8
:1056100040F21340824240F3B284C2F58662033204
:1056200028FA02F000FA02F2424502BF00F001003F
:10563000C0F1020006903FF476AF002272E7DDF879
:1056400008A00AF1404303F580131E433FF447AF1F
:105650004FF6FF73C3F6EF739A4540F3BE83002DF8
:10566000A4BF4646E246BFF63EAF0026B2463AE742
:10567000002DC0F25F84002FC0F26C830646DDF877
:1056800010A030E7484651464A46534600F0DAFE3D
:1056900002460B4601F0B4F906468A4623E7002D80
:1056A000A8BF4E46BFF61FAF002153464A46002012
:1056B000C3F6F07101F0A4F906468A4613E702200A
:1056C0000690002C3FF430AF43E700BFAFF30080FB
:1056D0009C7500883CE4377EDDF808B0BBF5801F80
:1056E000A8BF002110DA049D0023C4F24033002239
:1056F0002946CDF800C001F059F8DDF800C00B468E
:1057000004916FF034010293DDF808A049F68E028F
:10571000C0F20302CAF313034FEA2A549342A4F2DD
:10572000FF3543F07F540D441195D8BF002544F454
:105730004014D8BFA94614DD4BF27962C0F20B02C7
:105740009342C1BF0025A4F58014DDF844B0A946FA
:10575000D9BF4FF480254FF001090BF1010BCDF8B3
:1057600044B047F2D0210246C0F60001234601EBC7
:10577000C909CDE908232146CDF800C0D9E900AB1D
:1057800052465B46CDE90CAB00F05CFEDDE90C2334
:1057900006460F46DDE9080100F056FE0B460021E3
:1057A0000246C3F6F071002001F02AF9CDE90E019E
:1057B0003046DDE90E23394600F0F8FF0022CDE93E
:1057C00004016110DDE904AB002041F000511446F2
:1057D00001F50021CDE902AB6B1802901D46DDE911
:1057E00002AB5046594600F0E1FF02460B463046F8
:1057F000394600F027FEDDE90C2306460F46204619
:10580000294600F01FFE02460B46DDE9080100F0C4
:1058100019FE02460B465046594600F0C7FF0246A5
:105820000B463046394600F00DFEDDE90E2300F050
:10583000BDFF06460F46DDE9040102460B4600F0B7
:10584000B5FF02460B4604460D4600F0AFFF7AA3B3
:10585000D3E90023CDE908012046294600F0A6FF40
:1058600077A3D3E9002300F0EFFD22462B4600F09A
:105870009DFF75A3D3E9002300F0E6FD22462B46E9
:1058800000F094FF72A3D3E9002300F0DDFD22466F
:105890002B4600F08BFF70A3D3E9002300F0D4FD6A
:1058A00022462B4600F082FF6DA3D3E9002300F0CF
:1058B000CBFD02460B46DDE9080100F077FFDDE98C
:1058C000042304460D465046594600F0BDFD3246BD
:1058D0003B4600F06BFF22462B4600F0B5FD5246DA
:1058E0005B46CDE908015046594600F05FFF0023B2
:1058F0000022C4F20803CDE90C0100F0A5FDDDE9AA
:10590000082300F0A1FD029C504622460D46594650
:105910002B4600F04BFF22462B4682468B463046F4
:10592000394600F043FF00230022C4F20803064674
:105930000F462046294600F085FDDDE90C2300F0E6
:1059400081FD02460B46DDE9080100F07BFDDDE943
:10595000042300F02BFF02460B463046394600F088
:1059600073FD06460F4632463B465046594600F008
:105970006BFD02983CA3D3E9002304460D4600F0DA
:1059800015FF3BA3D3E90023CDE9080120462946B2
:1059900000F00CFF52465B46CDE904012046294643
:1059A00000F050FD02460B463046394600F04AFDF5
:1059B00031A3D3E9002300F0F9FE02460B46DDE9EE
:1059C000040100F041FDD9E9042300F03DFD8246C9
:1059D00011988B4600F084FED9E90823CDE9042311
:1059E00052465B4604460D46DDE9080100F02CFDF9
:1059F000DDE9042300F028FD22462B4600F024FDBB
:105A0000029822462B4606460F4600F01BFDDDE9B4
:105A1000042300F017FDDDE9082300F013FD024622
:105A20000B465046594600F00DFDCDE90401DDF866
:105A300000C025E0AFF30080EF4E454A287ECA3F04
:105A400065DBC9934A86CD3F01411DA96074D13FF2
:105A50004D268F515555D53FFFAB6FDBB66DDB3F04
:105A6000033333333333E33F000000E009C7EE3F35
:105A7000F5015B14E02F3EBEFD033ADC09C7EE3FA3
:105A8000DDF818A00022DDF828B061460AF1FF33E6
:105A90004FF0000A53EA0B0B4FF0000B0CBFCBF694
:105AA000F07BC3F6F07BCDE90AABE346C246CDE915
:105AB00002AB02924046DDE902ABCDF800C052468F
:105AC0005B4600F0BFFC3B46324600F06FFEDDF85F
:105AD00000C0DDE9042304460D464046614600F05F
