:020000040800F2
:10000000700E0020A10E0008D50B0008E10B0008BF
:10001000ED0B0008F90B0008050C000800000000BB
:10002000000000000000000000000000110C0008AB
:100030001D0C000800000000290C0008B512000883
:10004000010F0008010F0008010F0008010F000850
:10005000010F0008010F0008010F0008010F000840
:10006000010F0008010F0008010F0008010F000830
:10007000010F0008010F0008010F0008010F000820
:10008000010F0008010F0008010F0008010F000810
:10009000010F0008010F0008010F0008010F000800
:1000A000010F00088D0C0008010F0008010F000867
:1000B00005130008F10C00085D0D0008010F000891
:1000C000010F0008010F0008010F0008010F0008D0
:1000D000010F0008792D0008852D0008912D0008DA
:1000E000010F0008010F0008490C0008010F00086B
:1000F000350E0008010F0008010F0008010F00086D
:10010000010F0008010F0008C90D0008010F0008C9
:10011000010F0008010F0008010F0008010F00087F
:10012000010F0008010F0008010F0008010F00086F
:10013000010F0008010F0008010F0008010F00085F
:10014000010F0008010F0008010F0008350C00081E
:10015000010F0008010F0008010F0008010F00083F
:10016000010F0008010F0008010F0008010F00082F
:10017000010F0008010F0008010F0008010F00081F
:10018000010F0008010F000880B489B000AFF860CB
:10019000B960FA71BB800023FB76FB68DB78002B2B
:1001A00023D100237B610023FB61BB880333DA1C6E
:1001B000002BB8BF13469B107B61FB79FA68323382
:1001C0009B0013449B683B610023FB6109E0BB6813
:1001D0001A683B691A60FB690133FB61BB68043331
:1001E000BB60FA697B699A42F1D3FB7E18462437DB
:1001F000BD465DF8047B704780B489B000AFF860FD
:10020000B9601346FB800023FB61FB880333DA1CD3
:10021000002BB8BF13469B10BB61FB68D3F8D030EE
:100220007B610023FB6109E07B691A68BB681A6087
:10023000FB690133FB61BB680433BB60FA69BB69CE
:100240009A42F1D3BB6818462437BD465DF8047B5B
:10025000704700BF80B586B000AF7860396000237A
:10026000FB7400237B610023FB60FB6843F02003E9
:10027000FB603B68DBB203F01F03DAB2FB6862F39A
:100280008A13FB607B68DB68FA681A617B68DB684D
:100290001B69FB607B6901337B617A694FF45463AE
:1002A000C0F203039A4200D905E0FB68C3F3401390
:1002B000DBB2012BEAD0032001F09EF9FB7C18464B
:1002C0001837BD4680BD00BF80B483B000AF7860F2
:1002D0007B68DB685B6903F0010318460C37BD4699
:1002E0005DF8047B704700BF80B582B000AF7860D6
:1002F0007868FFF7E9FF0346012B0CBF00230123B9
:10030000DBB218460837BD4680BD00BF80B485B05B
:1003100000AF78600023FB607B68DB685B69FB6093
:100320007B68DB689B69FA681340FB60FB681846D2
:100330001437BD465DF8047B704700BF80B485B0BC
:1003400000AF78600023FB737B681B699B68BB6010
:100350003B7AC3F34103DBB2022B09D0032B04D059
:10036000012B02D00323FB7305E00223FB7302E0A1
:100370000123FB7300BFFB7B18461437BD465DF8B5
:10038000047B704780B487B000AF78600023FB75B2
:100390000023BB607B681B699B683B617B689B6932
:1003A0001B68FB603B7CC3F34103DBB2022B04D030
:1003B000BB896FF30A03BB8105E0BB89032262F3AB
:1003C0000A03BB8100BF7B689B69FA681A607B7A6D
:1003D00043F001037B727B681B697A68126951687C
:1003E000BA68D2431140BA680A435A60FB7D184686
:1003F0001C37BD465DF8047B704700BF80B487B0F2
:1004000000AF786039600023FB740023FB60002399
:10041000BB603B685B78012B0FD13B681B787A6827
:1004200004339B0013449B687B613B681B7801226B
:1004300002FA03F39BB23B810EE03B681B787A68BB
:1004400014339B0013445B687B613B681B7801227B
:1004500002FA03F39BB27B817B691B68FB607B7BA9
:10046000C3F3C013DBB2002B27D13B689B689BB260
:10047000C3F30A039AB2BB8962F30A03BB813B68E8
:10048000DB7803F00303DAB2BB7B62F38303BB7355
:100490003B68DB88DBB203F00F03DAB2FB8962F35F
:1004A0008913FB81FB7B43F01003FB737B7B43F0E1
:1004B00080037B73FA687B691A607B681B697A68C2
:1004C0001269D169BA680A43DA61FB7C18461C37A5
:1004D000BD465DF8047B704780B588B000AF78609A
:1004E00039600023FB770023BB6100237B6100237D
:1004F0003B613B685B78012B40F0AB803B681B782D
:100500007A6804339B0013449B681B687B613B68DB
:100510001B787A6804339B0013449B681B693B611A
:100520003B685B69002B09D13B696FF312033B61A8
:100530007B8A012262F3CC037B8222E03B685B6909
:10054000C3F312023B6962F312033B613B685A69D1
:100550003B689B6813445A1E3B689B68B2FBF3F3ED
:100560009BB2C3F309039AB27B8A62F3CC037B820A
:100570003B68DB78012B04D1FB7C012262F346133C
:10058000FB743B681B787A6804339B0013449B68B8
:100590003A691A617B68DB78012B0AD13B681B78CA
:1005A0007A6804339B0013449B683A6812695A6165
:1005B00015E03B68DB78012B11D03B685B69002BB1
:1005C0000DD03B681B78012202FA03F3BB617B6804
:1005D0001B697A681269516BBA690A435A633B68AE
:1005E000DB78012B14D17B681B699B68FB60FB687F
:1005F000C3F30D239BB203F00103002B04D1FB7D59
:1006000043F02003FB7503E0FB7D43F01003FB7513
:10061000FB7D43F00403FB75FB7D43F08003FB751A
:100620003B681B787A6804339B0013449B687A69A3
:100630001A603B68DB78012B40F088803B68D96802
:100640003B681A783B685B699BB27868FFF79CFD52
:100650007CE03B681B787A6814339B0013445B682A
:100660001B687B613B681B787A6814339B001344DA
:100670005B681B693B613B685B69002B0DD13B6884
:100680009B68C3F312023B6962F312033B617B8AEE
:10069000012262F3CC037B821FE03B685A693B680E
:1006A0009B6813445A1E3B689B68B2FBF3F39BB2F2
:1006B000C3F309039AB27B8A62F3CC037B827B8A01
:1006C000C3F3C9039BB23A68926802FB03F3C3F316
:1006D00012023B6962F312033B613B681B787A6844
:1006E00014339B0013445B683A691A617B68DB78BA
:1006F000012B09D13B681B787A6814339B001344A3
:100700005B683A6812695A613B68DB78012B0CD14F
:100710003B685B79002B04D0FB7D43F02003FB7525
:1007200003E0FB7D43F01003FB75FB7D43F0040306
:10073000FB75FB7D43F08003FB753B681B787A6893
:1007400014339B0013445B687A691A60FB7F184678
:100750002037BD4680BD00BF80B489B000AF78604F
:1007600039600023FB770023BB6100233B6100233A
:10077000BB603B685B78012B6FD17B689B697B61B9
:100780007B691B683B617B691B69BB603B685B697C
:10079000002B09D13B7A6FF306033B72BB7A01222F
:1007A00062F3C403BB7223E03B685A693B689B68F1
:1007B0009A420ED93B689A683B685A613B689B68CD
:1007C000DBB203F07F03DAB23B7A62F306033B72DB
:1007D00009E03B685B69DBB203F07F03DAB23B7A86
:1007E00062F306033B72BB7A012262F3C403BB725D
:1007F000BA687B691A617B68DB78012B09D13B6899
:100800001B787A6804339B0013449B683A6812692A
:100810005A61FB7C43F00403FB74FB7C43F08003D0
:10082000FB743A697B691A607B68DB78002B75D1B1
:100830003B685B69002B71D03B681B78012202FA90
:1008400003F3BA691343BB617B681B697A68126959
:10085000516BBA690A435A6360E03B681B787A6857
:1008600014339B0013445B681B683B613B681B7837
:100870007A6814339B0013445B681B69BB603B6858
:100880005B69002B0FD13B689B68DBB203F07F03F1
:10089000DAB23B7A62F306033B72BB7A012262F35F
:1008A000C403BB7212E03B689A683B685A613B68BC
:1008B0009B68DBB203F07F03DAB23B7A62F3060394
:1008C0003B72BB7A012262F3C403BB723B681B78A4
:1008D0007A6814339B0013445B68BA681A617B68BA
:1008E000DB78012B09D13B681B787A6814339B00B5
:1008F00013445B683A6812695A61FB7C43F0040355
:10090000FB74FB7C43F08003FB743B681B787A68C4
:1009100014339B0013445B683A691A60FB7F1846E6
:100920002437BD465DF8047B704700BF80B487B0B4
:1009300000AF786039600023FB750023FB603B68E3
:100940005B78012B1CD13B681B787A6804339B00D1
:1009500013449B683B613B691B68FB60FB7BC3F3F3
:10096000C013DBB2002B03D0FB7B43F04003FB73CF
:10097000BB7B43F02003BB73FA683B691A6011E04C
:100980003B681B787A6814339B0013445B683B61B7
:100990003B691B68FB60BB7B43F02003BB73FA68B9
:1009A0003B691A60FB7D18461C37BD465DF8047B29
:1009B000704700BF80B487B000AF78603960002313
:1009C000FB740023FB603B685B78012B08D13B681C
:1009D0001B787A6804339B0013449B687B6107E0B3
:1009E0003B681B787A6814339B0013445B687B6117
:1009F0007B691B68FB60BB7B6FF34513BB733B6874
:100A0000DB78032B03D03B68DB78022B03D1FB7B25
:100A100043F01003FB73FA687B691A60FB7C18468D
:100A20001C37BD465DF8047B704700BF80B485B0BD
:100A300000AF78607B681B699B69FB607B681B6902
:100A4000DB69FA681340FB60FB681B0C184614371F
:100A5000BD465DF8047B704780B485B000AF786018
:100A60000B46FB70FB787A6814339B0013445B6879
:100A70009B68FB607B681B695B69FA681340FB60DD
:100A8000FB6818461437BD465DF8047B704700BF0D
:100A900080B485B000AF78607B681B699B69FB60A0
:100AA0007B681B69DB69FA681340FB60FB689BB2DB
:100AB00018461437BD465DF8047B704780B487B094
:100AC00000AF786000233B61FB7C43F0C003FB7404
:100AD000BB7C012262F3C403BB743B7C182262F32B
:100AE00006033B747B685B6D3A691A617B68DB784F
:100AF000012B16D10023FB607B685B6D7A6802F5E1
:100B0000B9625A617B685B6D1B68FB60FB7B43F0DD
:100B10008003FB734FF08023FB607B685B6DFA689A
:100B20001A601C37BD465DF8047B704780B485B001
:100B300000AF78607B689B7A002B1BD07B681B69B9
:100B40009B68FB603B7BC3F30003DBB2012B11D13D
:100B50007B6803F586731B68BB603B7A6FF34103C8
:100B60003B723B7A6FF300033B727B68D3F80C3126
:100B7000BA681A601437BD465DF8047B704700BF41
:100B800080B483B000AF0123FB8000233B6000BF33
:100B90003A68531C3B604AF21F13C0F207039A42A3
:100BA000F6D94FF44063C4F20203FA88120392B2FA
:100BB0005A83FB885B00FB80FB880F2B01D9012344
:100BC000FB804FF44063C4F20203FA88120392B22E
:100BD0001A83DAE780B400AFBD465DF8047B704746
:100BE00080B500AFFFF7CCFF80BD00BF80B500AF80
:100BF000FFF7C6FF80BD00BF80B500AFFFF7C0FFA5
:100C000080BD00BF80B500AFFFF7BAFF80BD00BF59
:100C100080B400AFBD465DF8047B704780B400AF80
:100C2000BD465DF8047B704780B400AFBD465DF8FB
:100C3000047B704780B500AF40F28000C2F2000034
:100C400001F070F980BD00BF80B500AF40F28003B5
:100C5000C2F200039B7A002B13D04EF61053CEF253
:100C600000034EF61052CEF20002126822F0060285
:100C70001A6000F0BBFB40F28000C2F20000FFF7F8
:100C800055FF4FF4802001F093FE80BD80B500AF8A
:100C90000023C4F201031B889BB21B099BB2002BEB
:100CA0000BD040F23403C2F200031B685A1C40F21E
:100CB0003403C2F200031A6013E00023C4F20103FC
:100CC0001B889BB21B099BB2002B0AD140F2300358
:100CD000C2F200031B685A1C40F23003C2F2000348
:100CE0001A600020C4F20100012102F057F880BD13
:100CF00080B500AF4FF48063C4F200031B889BB241
:100D00001B099BB2002B0BD040F24403C2F200033C
:100D10001B685A1C40F24403C2F200031A6014E03C
:100D20004FF48063C4F200031B889BB21B099BB283
:100D3000002B0AD140F24003C2F200031B685A1C88
:100D400040F24003C2F200031A604FF48060C4F224
:100D50000000012102F022F880BD00BF80B500AF85
:100D60004FF40063C4F200031B889BB21B099BB2C3
:100D7000002B0BD040F24C03C2F200031B685A1C3C
:100D800040F24C03C2F200031A6014E04FF4006317
:100D9000C4F200031B889BB21B099BB2002B0AD133
:100DA00040F24803C2F200031B685A1C40F2480399
:100DB000C2F200031A604FF40060C4F20000012187
:100DC00001F0ECFF80BD00BF80B500AF4FF4406381
:100DD000C4F200031B889BB21B099BB2002B0BD0F3
:100DE00040F25403C2F200031B685A1C40F2540341
:100DF000C2F200031A6014E04FF44063C4F200032F
:100E00001B889BB21B099BB2002B0AD140F25003F6
:100E1000C2F200031B685A1C40F25003C2F20003E6
:100E20001A604FF44060C4F20000012101F0B6FFE7
:100E300080BD00BF80B500AF4FF48063C4F20103F2
:100E40001B889BB21B099BB2002B0BD040F25C03AA
:100E5000C2F200031B685A1C40F25C03C2F200039A
:100E60001A6014E04FF48063C4F201031B889BB244
:100E70001B099BB2002B0AD140F25803C2F20003B7
:100E80001B685A1C40F25803C2F200031A604FF468
:100E90008060C4F20100012101F080FF80BD00BF2D
:100EA00080B582B000AF42F6BC53C0F600037B6051
:100EB00040F20003C2F200033B6007E03B681A1DEA
:100EC0003A607A68111D796012681A603A6840F2D7
:100ED0003003C2F200039A42F0D3074807494FF0AB
:100EE00000028842B8BF40F8042BFADB00F0D4F9C6
:100EF0000837BD4680BD000030000020700600208D
:100F000080B400AFFEE700BF80B584B000AF78606A
:100F100007F108037868194600F09AFF3B7A03F05E
:100F20001F03012B0AD0022B0FD0002B14D107F185
:100F300008037868194600F085FB16E007F10803FE
:100F40007868194600F0CEFB0FE007F108037868D7
:100F5000194600F0FBFB08E03B7A23F07F03DBB28D
:100F60007868194601F0FEFD00BF002318461037CF
:100F7000BD4680BD80B584B000AF78600B46FB7085
:100F8000FB78002B45D17B6803F55C73FB607B68C5
:100F900093F81131032B4FD1FB68DA69FB689B682A
:100FA0009A4221D9FB68DA69FB689B68D21AFB6810
:100FB000DA617B68DB78012B06D1FB68DA68FB68B5
:100FC0009B681A44FB68DA60FB68DA68FB6899681A
:100FD000FB68DB69994238BF0B469BB278681146C3
:100FE0001A4601F085FE27E07B68D3F8E0351B69DF
:100FF000002B0AD07B6893F81231032B05D17B6854
:10100000D3F8E0351B6978689847786801F084FE6A
:1010100012E07B68D3F8E0359B69002B0CD07B682D
:1010200093F81231032B07D17B68D3F8E0359B6925
:10103000FA78786811469847002318461037BD465D
:1010400080BD00BF80B584B000AF78600B46FB70F8
:10105000FB78002B60D17B6803F58C73FB607B68A9
:1010600093F81131022B6AD1FB68DA69FB689B683F
:101070009A421CD9FB68DA69FB689B68D21AFB6844
:10108000DA617B68DB78012B06D1FB68DA68FB68E4
:101090009B681A44FB68DA60FB68DA68FB68DB6906
:1010A0009BB2786811461A4601F00EFE47E0FB68D5
:1010B0001B6AFA689268B3FBF2F102FB01F29B1A19
:1010C000002B14D1FB681A6AFB689B689A420ED306
:1010D000FB681A6AFB685B6A9A4208D2786800214A
:1010E000002201F0F1FDFB6800225A6227E07B68D4
:1010F000D3F8E035DB68002B0AD07B6893F8123117
:10110000032B05D17B68D3F8E035DB687868984716
:10111000786801F019FE12E07B68D3F8E0355B696E
:10112000002B0CD07B6893F81231032B07D17B681E
:10113000D3F8E0355B69FA78786811469847002360
:1011400018461037BD4680BD80B582B000AF7860CC
:10115000786800214022002301F03AFC7868802161
:101160004022002301F034FC7B68012283F8122125
:101170007B68D3F8E4355B687A68927810469847C4
:10118000002318460837BD4680BD00BF80B582B039
:1011900000AF78607B68D3F8E4351B6998477B68BB
:1011A000032283F81221002318460837BD4680BD6C
:1011B00080B582B000AF78607B68042283F812218A
:1011C0007B68D3F8E435DB68984700231846083776
:1011D000BD4680BD80B582B000AF78607B68D3F833
:1011E000E035DB69002B05D07B68D3F8E035DB699F
:1011F00078689847002318460837BD4680BD00BF71
:1012000080B582B000AF78600B46FB707B68D3F886
:10121000E0351B68FA787868114698477B68D3F800
:10122000E4359B689847002318460837BD4680BDC3
:1012300080B582B000AF78600B46FB707B68D3F856
:10124000E0355B68FA7878681146984700231846BD
:101250000837BD4680BD00BF80B582B000AF786062
:101260007B68D3F8E0351B6A7868984700231846F6
:101270000837BD4680BD00BF80B582B000AF786042
:101280007B68D3F8E0355B6A786898470023184696
:101290000837BD4680BD00BF80B500AF002000F01C
:1012A00045F80346042B03D9002000F06FF8F5E75A
:1012B000F4E700BF80B400AF40F26003C2F2000365
:1012C0001B685A1C40F26003C2F200031A6040F22D
:1012D0006803C2F200031B685A1C40F26803C2F2A2
:1012E00000031A6040F26403C2F200031B685A1C38
:1012F00040F26403C2F200031A60BD465DF8047B4D
:10130000704700BF80B500AF40F26C03C2F200032B
:101310001B685A1C40F26C03C2F200031A604FF0C3
:101320008040012101F03AFD80BD00BF80B483B050
:1013300000AF78607B68002B05D140F26003C2F2F9
:1013400000031B681BE07B68012B05D140F264039E
:10135000C2F200031B6812E07B68022B05D140F249
:101360006C03C2F200031B6809E07B68032B05D104
:1013700040F26803C2F200031B6800E00023184635
:101380000C37BD465DF8047B704700BF80B483B066
:1013900000AF78607B68002B06D140F26003C2F298
:1013A000000300221A601CE07B68012B06D140F28A
:1013B0006403C2F2000300221A6012E07B68022B71
:1013C00006D140F26C03C2F2000300221A6008E06A
:1013D0007B68032B05D140F26803C2F200030022B0
:1013E0001A600C37BD465DF8047B704780B500AFCE
:1013F0004FF46053C4F202034FF46052C4F202028D
:10140000126842F001021A604FF46053C4F2020302
:1014100000229A604FF46053C4F202034FF460520A
:10142000C4F20202126822F0847222F480321A603E
:101430004FF46053C4F2020343F21002C2F20042BE
:101440005A604FF46053C4F202034FF46052C4F286
:101450000202126822F480221A604FF46053C4F230
:1014600002030022DA6000F009F84FF46D43CEF277
:1014700000034FF000629A6080BD00BF80B483B06B
:1014800000AF00237B6000233B604FF46053C4F245
:1014900002034FF46052C4F20202126842F4803236
:1014A0001A604FF46053C4F202031B6803F4003364
:1014B0003B607B6801337B603B68002B03D17B681A
:1014C000B3F5A06FEDD14FF46053C4F202031B6873
:1014D00003F40033002B02D001233B6001E0002322
:1014E0003B603B68012B40F082804FF46053C4F2B4
:1014F00002034FF46052C4F20202126C42F08052B6
:101500001A644FF4E043C4F200034FF4E042C4F223
:101510000002126842F480421A604FF46053C4F231
:1015200002034FF46052C4F2020292689A604FF4D0
:101530006053C4F202034FF46052C4F20202926894
:1015400042F400429A604FF46053C4F202034FF435
:101550006052C4F20202926842F4A0529A604FF4C0
:101560006053C4F2020345F20842C0F240725A606E
:101570004FF46053C4F202034FF46052C4F202020B
:10158000126842F080721A6000BF4FF46053C4F2D8
:1015900002031B6803F00073002BF6D04FF4705366
:1015A000C4F2020340F205621A604FF46053C4F2C1
:1015B00002034FF46052C4F20202926822F0030266
:1015C0009A604FF46053C4F202034FF46052C4F2C5
:1015D0000202926842F002029A6000BF4FF4605328
:1015E000C4F202039B6803F00C03082BF6D10C37FE
:1015F000BD465DF8047B704780B485B000AF78606D
:101600000023FB607A6813461B019B1ADB001A4615
:1016100044F62513C2F29243A3FB0213D21A5208D6
:1016200013449B08BB60FB680133FB60FA68BB682E
:101630009A4200D900E0F6E71437BD465DF8047B16
:10164000704700BF80B584B000AF78603960002378
:10165000FB733B685B78092B39D801A252F823F061
:10166000B1160008C5160008CF160008BB16000802
:10167000CF1600089316000889160008CF16000838
:10168000A71600089D1600087868396800F042F92E
:1016900022E07868396800F019FA1DE07868396846
:1016A00000F052FA18E07868396800F0E5FA13E0C3
:1016B0007868396800F010FB0EE07868396800F04F
:1016C00039FB09E07868396800F09AFB04E0786833
:1016D000396800F003FC00BFFB7B18461037BD469D
:1016E00080BD00BF80B584B000AF78603960002352
:1016F000FB737B6893F81231032B1CD13B689B88EA
:10170000DBB2012B11D87B68D3F8E0359B68786891
:10171000396898473B68DB88002B0BD1FB7B002B9B
:1017200008D1786801F0F8FA0AE07868396800F0C2
:10173000D5FB05E004E07868396800F0CFFB00BF16
:10174000FB7B18461037BD4680BD00BF80B584B016
:1017500000AF786039600023FB733B689B88BB73E4
:101760003B685B78012B39D0032B02D0002B6BD068
:10177000CBE07B6893F81231022B02D0032B0DD003
:1017800026E0BB7B002B08D0BB7B802B05D0BB7B2E
:101790007868194601F0E6F91FE01EE03B685B88B7
:1017A000002B0AD1BB7B002B07D0BB7B802B04D046
:1017B000BB7B7868194601F0D5F97B68D3F8E03532
:1017C0009B68786839689847786801F0A5FA04E062
:1017D0007868396800F082FB00BF96E07B6893F878
:1017E0001231022B02D0032B0DD027E0BB7B002B44
:1017F00008D0BB7B802B05D0BB7B7868194601F0F5
:10180000B1F920E01FE03B685B88002B15D1BB7B62
:10181000002B0ED0BB7B802B0BD0BB7B786819468E
:1018200001F0DAF97B68D3F8E0359B6878683968AD
:101830009847786801F070FA05E004E07868396844
:1018400000F04CFB00BF60E07B6893F81231022B84
:1018500002D0032B0DD052E0BB7B002B08D0BB7B0A
:10186000802B05D0BB7B7868194601F07BF94BE0F3
:101870004AE0BB7B5BB2002B1BDABB7B03F07F0231
:10188000796813469B001344DB000B4403F58C730B
:101890009B78002B06D040F27003C2F200030122B5
:1018A0001A6023E040F27003C2F2000300221A60C3
:1018B0001CE0BB7B5BB2002B18DBBA7B796813465C
:1018C0009B001344DB000B4403F55C739B78002BF7
:1018D00006D040F27003C2F2000301221A6005E054
:1018E00040F27003C2F2000300221A60786840F2EE
:1018F0007001C2F20001022201F0C6F904E078682A
:10190000396800F0EBFA00BF00BFFB7B18461037C8
:10191000BD4680BD80B584B000AF786039603B685B
:101920005B881B0A9BB2013B062B00F2B18001A22F
:1019300052F823F05119000883190008AD19000866
:10194000911A0008911A00087D1A0008871A0008E9
:101950007B68D3F8E8351B687A68917807F10A024A
:10196000084611469847F8603B68DB88402B04D056
:101970007B6893F81231012B02D108237B818CE024
:101980008BE07B68D3F8E0359B6A7A68917807F141
:101990000A02084611469847F860FB6801330222A4
:1019A0001A707B68FA68C3F8EC2576E03B685B88C0
:1019B000DBB2052B5CD801A252F823F0D519000840
:1019C000EF190008091A0008231A00083D1A000838
:1019D000571A00087B68D3F8E8355B687A68917815
:1019E00007F10A02084611469847F86045E07B680F
:1019F000D3F8E8359B687A68917807F10A020846BF
:101A000011469847F86038E07B68D3F8E835DB6822
:101A10007A68917807F10A02084611469847F860FB
:101A20002BE07B68D3F8E8351B697A68917807F179
:101A30000A02084611469847F8601EE07B68D3F812
:101A4000E8355B697A68917807F10A020846114621
:101A50009847F86011E07B68D3F8E8359B697A68AD
:101A6000917807F10A02084611469847F86004E0A9
:101A70007868396800F032FA24E00EE07868396856
:101A800000F02CFA1EE07868396800F027FA19E0B7
:101A90007868396800F022FA14E07B89002B11D0B5
:101AA0003B68DB88002B0DD03B68DA887B899A4243
:101AB00038BF13469BB27B817B897868F9681A46E8
:101AC00001F0E2F81037BD4680BD00BF80B584B09C
:101AD00000AF786039603B689B88002B2DD13B6854
:101AE000DB88002B29D13B685B88DBB203F07F03E6
:101AF000FB737B6893F81231032B04D17868396843
:101B000000F0ECF918E07B68FA7B83F81321FB7B8B
:101B10007868194601F09AF8786801F0FDF8FB7BC7
:101B2000002B04D07B68022283F8122104E07B683A
:101B3000012283F8122104E003E07868396800F09C
:101B4000CDF91037BD4680BD80B582B000AF78605A
:101B500039603B685B88DAB240F27C03C2F2000372
:101B60001A7040F27C03C2F200031B78012B04D9E7
:101B70007868396800F0B2F97BE07B6893F812313D
:101B8000022B02D0032B24D06EE040F27C03C2F281
:101B900000031B78002B18D040F27C03C2F2000334
:101BA0001A787B6883F810217B68032283F812215E
:101BB00040F27C03C2F200031B7878681946FFF7F5
:101BC0001FFB786801F0A8F853E0786801F0A4F8EA
:101BD0004FE040F27C03C2F200031B78002B18D1C7
:101BE0007B68022283F8122140F27C03C2F20003D8
:101BF0001A787B6883F8102140F27C03C2F200035C
:101C00001B7878681946FFF713FB786801F084F8B1
:101C100029E07B6893F8102140F27C03C2F20003B4
:101C20001B789A421BD07B6893F81031786819466C
:101C3000FFF7FEFA40F27C03C2F200031A787B68D9
:101C400083F8102140F27C03C2F200031B7878680D
:101C50001946FFF7D5FA786801F05EF803E0786876
:101C600001F05AF805E004E07868396800F036F9C8
:101C700000BF0837BD4680BD80B582B000AF786038
:101C800039603B68DB88012B04D07868396800F044
:101C900025F91EE07B6893F81231022B02D0032B4A
:101CA00009D011E0786840F27401C2F2000101220B
:101CB00000F0EAFF0DE07B6803F588737868194649
:101CC000012200F0E1FF04E07868396800F006F9CD
:101CD00000BF0837BD4680BD80B582B000AF7860D8
:101CE00039607B6893F81231023B012B1AD87B686C
:101CF000D3F81431002B06D040F27803C2F200036F
:101D000003221A6005E040F27803C2F200030122C8
:101D10001A60786840F27801C2F20001012200F0F6
:101D2000B3FF04E07868396800F0D8F800BF0837DE
:101D3000BD4680BD80B584B000AF786039600023B7
:101D4000FB733B685B88012B0ED17B680122C3F8D3
:101D500014217B68D3F8E0359B6878683968984728
:101D6000786800F0D9FF48E03B685B88022B44D1DB
:101D70003B689B88DBB2002B3FD17B681B695B68AB
:101D8000BB603B689B881B0A9BB2FB73FB7B013BE0
:101D9000042B2BD801A252F823F000BFB11D00087C
:101DA000BD1D0008C91D0008D51D0008E11D000863
:101DB0003B7A012262F306133B7217E03B7A022260
:101DC00062F306133B7211E03B7A032262F30613BF
:101DD0003B720BE03B7A042262F306133B7205E090
:101DE0003B7A052262F306133B7200BF7B681B69D6
:101DF000BA685A60786800F08FFF1037BD4680BD22
:101E000080B582B000AF786039607B6893F812319A
:101E1000023B012B13D83B685B88012B0ED17B68FA
:101E20000022C3F814217B68D3F8E0359B687868FA
:101E300039689847786800F06FFF05E004E078683B
:101E4000396800F04BF800BF0837BD4680BD00BFC1
:101E500080B483B000AF786039607B6893F8C825A0
:101E60003B681A707B6893F8C9253B685A707B6899
:101E700093F8CA351A467B6893F8CB351B029BB2A0
:101E800013449AB23B685A807B6893F8CC351A4663
:101E90007B6893F8CD351B029BB213449AB23B6822
:101EA0009A807B6893F8CE351A467B6893F8CF35D5
:101EB0001B029BB213449AB23B68DA803B68DB8812
:101EC0001A467B68C3F83C217B68012283F8112104
:101ED0000C37BD465DF8047B704700BF80B582B00B
:101EE00000AF786039603B681B78DBB25BB2002BD7
:101EF00004DA7868802100F035FE0CE03B68DB886E
:101F0000002B04D17868802100F02CFE03E0786873
:101F1000002100F027FE7868FEF7D0FD0837BD46A7
:101F200080BD00BF80B586B000AF786000237B61C4
:101F30007868FEF7D9F90346002B00F09C8078689A
:101F4000FEF7E4F903463B613B69002B01D1002316
:101F500092E0BB7CC3F3C003DBB2002B06D07868F1
:101F600000F018FA03467A6913437B61BB7CC3F324
:101F70008003DBB2002B06D0786800F015F9034629
:101F80007A6913437B613B7CC3F34003DBB2002BD4
:101F900009D00023FB603B7B43F002033B737B686B
:101FA000DB68FA685A61FB7CC3F3C013DBB2002B19
:101FB00006D0786800F064F803467A6913437B61C1
:101FC0007B7CC3F3C003DBB2002B06D0786800F043
:101FD00097F803467A6913437B613B7CC3F3C003E4
:101FE000DBB2002B06D0786800F094FA03467A69D9
:101FF00013437B613B7CC3F30013DBB2002B06D0A1
:10200000786800F0A3FA03467A6913437B617B7C0E
:10201000C3F30013DBB2002B06D0786800F08AFB14
:1020200003467A6913437B617B7CC3F34013DBB2C5
:10203000002B06D0786800F01FFC03467A69134332
:102040007B61BB7CC3F30013DBB2002B06D0786846
:1020500000F04EFC03467A6913437B61BB7CC3F3FB
:102060004013DBB2002B06D0786800F05DFC03461D
:102070007A6913437B617B6918461837BD4680BD7A
:1020800080B586B000AF78607B689B7A002B11D05A
:102090007B6803F586731B68FB603B7B6FF3410332
:1020A0003B733B7B6FF300033B737B68D3F80C31CE
:1020B000FA681A6000233B613B7C43F001033B74E8
:1020C0007B681B697A68126951683A69D2430A4091
:1020D0005A6040F22C03C2F200031B689B697868C7
:1020E000984700237B61FB7D43F08003FB757B6891
:1020F000DB687A695A61012318461837BD4680BDEE
:1021000080B586B000AF786040F22C03C2F20003C5
:102110001B685B69786898477B681B699B68FB60F4
:1021200000237B617B7D43F008037B757B68DB6864
:102130007A695A617B689B7A002B2FD03B7BC3F373
:102140000003DBB2012B29D100233B613B7C43F030
:1021500001033B747B68D3F80C317A68D2F80C2108
:1021600011683A690A431A603B7C43F002033B74EE
:102170007B68D3F80C317A68D2F80C2111683A697F
:102180000A431A604FF46D43CEF200034FF46D42E0
:10219000CEF20002126942F006021A6101231846CB
:1021A0001837BD4680BD00BF80B586B000AF7860EF
:1021B00000233B610023BB607868FEF769FC78610F
:1021C000DFE07B6903F00103002B00F0D4803B6962
:1021D000DBB27868194600F0C3FB0346BB603B7A6C
:1021E000C3F30003DBB2002B35D03B69012202FAB6
:1021F00003F3FB607B681B697A681269516BFA68AC
:10220000D2430A405A630023BB603B7A43F0010388
:102210003B727A683B6904339B0013449B68BA683D
:102220009A6040F22C03C2F200031B685B683A69B3
:10223000D2B27868114698477B68DB78012B0AD1C7
:102240003B69002B07D17B6893F81131042B02D135
:102250007868FEF733FC3B7AC3F38003DBB2002BD4
:102260000DD00023BB603B7A43F004033B727A68D5
:102270003B6904339B0013449B68BA689A603B7ABD
:10228000C3F3C003DBB2002B0DD00023BB603B7A4D
:1022900043F008033B727A683B6904339B001344A4
:1022A0009B68BA689A603B7AC3F30013DBB2002BD9
:1022B0000DD00023BB603B7A43F010033B727A6879
:1022C0003B6904339B0013449B68BA689A603B7A6D
:1022D000C3F34013DBB2002B0DD00023BB603B7A6D
:1022E00043F020033B727A683B6904339B0013443C
:1022F0009B68BA689A603B7AC3F38013DBB2002B09
:102300000DD00023BB603B7A43F040033B727A68F8
:102310003B6904339B0013449B68BA689A603B7A1C
:10232000C3F34003DBB2002B0DD00023BB603B7A2C
:1023300043F002033B727A683B6904339B00134409
:102340009B68BA689A603B7AC3F3C013DBB2002B78
:1023500011D07868396900F07BF90023BB603B7AC3
:1023600043F080033B727A683B6904339B0013445B
:102370009B68BA689A603B6901333B617B695B0883
:102380007B617B69002B7FF41CAF01231846183753
:10239000BD4680BD80B586B000AF786000233B614C
:1023A0000023FB607868FEF741FB7861A9E07B6958
:1023B00003F00103002B00F09E803B69DBB27868DC
:1023C0001946FEF749FB0346FB603B7BC3F3000362
:1023D000DBB2002B4BD00023FB603B7B43F00103BF
:1023E0003B737A683B6914339B0013445B68FA685B
:1023F0009A607B68DB78012B1FD17A683B691433C4
:102400009B0013445B681B69BB6079683A6913469B
:102410009B001344DB000B4403F55E731A68BB6832
:10242000C3F31203D11A78683A6913469B00134428
:10243000DB00034403F56273196040F22C03C2F21F
:1024400000031B681B683A69D2B278681146984746
:102450007B68DB78012B0AD13B69002B07D17B68B5
:1024600093F81131052B02D17868FEF727FB3B7BEF
:10247000C3F34003DBB2002B0DD00023FB603B7B9A
:1024800043F002033B737A683B6914339B001344A7
:102490005B68FA689A603B7BC3F38003DBB2002B76
:1024A0000DD00023FB603B7B43F004033B737A6851
:1024B0003B6914339B0013445B68FA689A603B7B6A
:1024C000C3F3C003DBB2002B15D040F22C03C2F2E1
:1024D00000031B689B68786898470023FB603B7B80
:1024E00043F008033B737A683B6914339B00134441
:1024F0005B68FA689A603B6901333B617B695B0802
:102500007B617B69002B7FF452AF0123184618379B
:10251000BD4680BD80B584B000AF786040F22C032A
:10252000C2F200031B68DB68786898470023FB60F1
:102530003B7B43F008033B737B68DB68FA685A61B6
:10254000012318461037BD4680BD00BF80B586B058
:1025500000AF786000233B613B7C43F010033B7489
:102560007B68DB687A68D26891693A69D2430A402D
:102570009A617B68DB681B6AFB603B7BC3F30303E8
:10258000DBB21A4613469B001344DB0003F55C7371
:102590007A6813447B61BB7BC3F34303DBB2013B2B
:1025A000052B46D801A252F823F000BF33260008BD
:1025B000C525000833260008332600083326000806
:1025C0000F260008BB89C3F30A139BB2002B1DD052
:1025D0007B69DA68BB89C3F30A139BB2786811463A
:1025E0001A46FDF709FE7B69DA68BB89C3F30A1353
:1025F0009BB21A447B69DA607B699A69BB89C3F331
:102600000A139BB21A447B699A6113E012E07B685B
:1026100003F5B963786819460822FDF7EDFD7B697B
:102620009A69BB89C3F30A139BB21A447B699A6106
:1026300000E000BF7B68DB687A68D26891693A691C
:102640000A439A61012318461837BD4680BD00BF72
:1026500080B586B000AF7860396000237B610023CD
:10266000BB603A6813469B001344DB0003F58C7390
:102670007A681344FB60FB685A69FB689B69D31A4C
:102680007B61FB689A687B699A4202D2FB689B680F
:102690007B617B6903339B083B617A683B68043349
:1026A0009B0013449B689B69BB602EE0FB685A69E2
:1026B000FB689B69D31A7B61FB689A687B699A42C5
:1026C00002D2FB689B687B617B6903339B083B619B
:1026D000FB68D9683B68DAB27B699BB27868FDF722
:1026E00053FDFB68DA687B691A44FB68DA60FB68B3
:1026F0009A697B691A44FB689A617A683B6804337B
:102700009B0013449B689B69BB603B891A463B69ED
:102710009A4209D9FB689A69FB685B699A4203D2BD
:10272000FB685B69002BC1D1012318461837BD46F1
:1027300080BD00BF80B58AB000AF786000233B61E8
:1027400000233B620023FB610023BB6100237B610C
:102750000023FB603B7C43F001033B747B681B69F7
:102760007A68126951683A69D2430A405A607868B7
:102770000021FDF76FFD00237B6212E07A687B6A1F
:1027800004339B0013449B68FF229A607A687B6A3B
:1027900014339B0013445B68FF229A607B6A013309
:1027A0007B627B685B781A467B6A9A42E6D87B68D4
:1027B0001B694FF0FF329A613B8C012262F30F03D9
:1027C0003B847B8C012262F30F037B847B681B6953
:1027D0003A6ADA613B7F43F008033B773B7F43F083
:1027E00001033B773B7F43F004033B773B7F43F0A0
:1027F00002033B777B681B69FA695A613B7E43F0B1
:1028000001033B763B7E43F008033B763B7E43F07F
:1028100002033B763B7E43F004033B763B7E43F072
:1028200020033B767B681B69BA691A617B681B6968
:102830001B687B61BB8A6FF30A13BB827B681B69D1
:102840007A691A607868FEF739F90023FB607B7BB0
:1028500043F010037B737B68DB68FA685A6140F2CF
:102860002C03C2F200031B681B6978689847012398
:1028700018462837BD4680BD80B584B000AF78606B
:102880007868FDF77FFD7B68DB68DB68BB60786894
:10289000FDF754FD0346032B0CD17B6800229A7090
:1028A0007B684FF400729A807B7A092262F3850379
:1028B0007B720AE07B6801229A707B6840229A80D2
:1028C0007B7A052262F385037B727B68DB68BA68DA
:1028D000DA600023FB607B7B43F020037B737B6823
:1028E000DB68FA685A61012318461037BD4680BD7F
:1028F00080B584B000AF78600023FB6040F22C0309
:10290000C2F200031B68DB6978689847BB7B43F021
:102910001003BB737B68DB68FA685A6101231846B1
:102920001037BD4680BD00BF80B584B000AF786071
:102930000023FB6040F22C03C2F200031B681B6AF9
:1029400078689847BB7B43F02003BB737B68DB68E8
:10295000FA685A61012318461037BD4680BD00BF92
:1029600080B487B000AF78600B46FB707B681B6952
:102970001B697B617B681B695B6B3B61FB783A6918
:1029800022FA03F3DB01DBB27A6913437B61FB7844
:102990007A6804339B0013449B689A687B691340F0
:1029A000FB60FB6818461C37BD465DF8047B70472A
:1029B00080B483B000AF78604FF47053C4F2010369
:1029C0007A685A610C37BD465DF8047B704700BFDA
:1029D00080B584B000AF7860F9703A80BB70FB7846
:1029E0005BB2002B0CDAFB7803F07F0213469B00EE
:1029F0001344DB0003F58C737A681344FB600BE02F
:102A0000FB7803F07F0213469B001344DB0003F5C1
:102A10005C737A681344FB60FB7803F07F03DAB2DF
:102A2000FB681A70FB78DB09DBB21A46FB685A7048
:102A30003A88FB689A60FB68BA78DA70FB685B7862
:102A4000002B04D0FB681B781A46FB68DA80BB7841
:102A5000022B02D1FB6800221A717868F968FDF731
:102A6000CDFC002318461037BD4680BD80B586B02A
:102A700000AFF8607A600A46FA723B81FB7A03F095
:102A80007F0213469B001344DB0003F55C73FA6876
:102A900013447B617B697A68DA603A897B695A61A1
:102AA0007B6900229A617B6900225A70FB7A03F0ED
:102AB0007F03DAB27B691A70FB68DB78012B02D1E5
:102AC0007A687B691A617B691B78002B04D1F868EE
:102AD0007969FDF741FE03E0F8687969FDF7FCFCD0
:102AE000002318461837BD4680BD00BF80B586B0AC
:102AF00000AFF8607A603B600B46FB72FB7A03F034
:102B00007F0213469B001344DB0003F58C73FA68C5
:102B100013447B617B6901225A70FB7A03F07F03C7
:102B2000DAB27B691A707B697A68DA607A687B69E5
:102B30001A617B6900229A617B693A685A617B69F4
:102B40001B78002B04D1F8687969FDF705FE03E0D6
:102B5000F8687969FDF7C0FC002318461837BD46B0
:102B600080BD00BF80B584B000AF78600B46FB70BD
:102B7000FB785BB2002B0CDAFB7803F07F02134684
:102B80009B001344DB0003F58C737A681344FB60ED
:102B900009E0FA7813469B001344DB0003F55C73ED
:102BA0007A681344FB60FB6801229A70FB7803F09B
:102BB0007F03DAB2FB681A70FB78DB09DBB21A46D6
:102BC000FB685A707868F968FDF7B0FE0023184674
:102BD0001037BD4680BD00BF80B584B000AF7860BF
:102BE0000B46FB70FB785BB2002B0CDAFB7803F032
:102BF0007F0213469B001344DB0003F58C737A6855
:102C00001344FB6009E0FA7813469B001344DB0091
:102C100003F55C737A681344FB60FB6800229A70CA
:102C2000FB7803F07F03DAB2FB681A70FB78DB09EC
:102C3000DBB21A46FB685A707868F968FDF7BAFE8D
:102C4000002318461037BD4680BD00BF80B485B054
:102C500000AF78600B46FB700023FB60FB7803F04D
:102C60007F03DAB2BB8962F30A13BB817B681B69FD
:102C70007A6812691168FA680A431A601437BD4607
:102C80005DF8047B704700BF80B586B000AFF86088
:102C9000B9601346FB800023FB75FA88FB68C3F814
:102CA0003821FA88FB68C3F83421FB68022283F8D4
:102CB0001121FB88F8680021BA68FFF717FFFB7D38
:102CC00018461837BD4680BD80B586B000AFF860A5
:102CD000B9601346FB800023FB75FB88F868002170
:102CE000BA68FFF703FFFB7D18461837BD4680BD65
:102CF00080B586B000AFF860B9601346FB80002352
:102D0000FB75FB88F8680021BA68FFF7AFFEFB7D12
:102D100018461837BD4680BD80B584B000AF7860D6
:102D20000023FB737B68042283F81121786800215B
:102D300000220023FFF7DAFE7868FDF7BFFEFB7B79
:102D400018461037BD4680BD80B584B000AF7860AE
:102D50000023FB737B68052283F81121786800212A
:102D600000220023FFF782FE7868FDF7A7FEFB7BB9
:102D700018461037BD4680BD80B400AFBD465DF833
:102D8000047B704780B400AFBD465DF8047B70479C
:102D900080B400AFBD465DF8047B704780B483B05B
:102DA00000AF78600B467B807B88DB439AB27B6800
:0C2DB0001A820C37BD465DF8047B7047AA
:102DBC00750F000845100008090F0008D511000810
:102DCC0049110008B11100088D11000859120008B2
:102DDC007912000800000000000000000000002034
:0400000508000000EF
:00000001FF
