:020000040800F2
:1000000000190020E515000859260008652600089B
:10001000712600087D2600088926000800000000DF
:10002000000000000000000000000000952600080D
:10003000A126000800000000AD260008ED1B000806
:100040004516000845160008451600084516000824
:100050004516000845160008451600084516000814
:100060004516000845160008451600084516000804
:1000700045160008451600084516000845160008F4
:1000800045160008451600084516000845160008E4
:1000900045160008451600084516000845160008D4
:1000A00045160008451600084516000845160008C4
:1000B00045160008C11B0008451600084516000833
:1000C00045160008451600084516000845160008A4
:1000D0004516000845160008451600084516000894
:1000E0004516000845160008CD26000845160008EC
:1000F0004516000845160008451600084516000874
:100100004516000845160008451600084516000863
:100110004516000845160008451600084516000853
:100120004516000845160008451600084516000843
:100130004516000845160008451600084516000833
:10014000451600084516000845160008B92600089F
:100150004516000845160008451600084516000813
:100160004516000845160008451600084516000803
:1001700045160008451600084516000845160008F3
:10018000451600084516000880B485B000AF7860B9
:100190000023FB607B68DB684FF0FF325A607B68AE
:1001A000DB684FF0FF325A61FB7B43F08003FB7347
:1001B0007B7B43F008037B737B68DB68FA689A619A
:1001C0001437BD465DF8047B704700BF80B586B02C
:1001D00000AF78600023FB7400237B610023FB6089
:1001E000032002F025FF7B68DB681B69FB607B69ED
:1001F00001337B617A694FF45463C0F203039A427E
:1002000001D9002328E0FB68C3F3C073DBB2002BE5
:10021000E6D000237B61FB6843F00103FB607B6851
:10022000DB68FA681A617B68DB681B69FB607B69C5
:1002300001337B617A694FF45463C0F203039A423D
:1002400000D905E0FB68C3F30003DBB2012BEAD061
:10025000032002F0EDFEFB7C18461837BD4680BD3A
:1002600080B489B000AFF860B960FA71BB80002338
:10027000FB76FB68DB78002B23D100237B61002316
:10028000FB61BB880333DA1C002BB8BF13469B10FD
:100290007B61FB79FA6832339B0013449B683B61B6
:1002A0000023FB6109E0BB681A683B691A60FB69BF
:1002B0000133FB61BB680433BB60FA697B699A4216
:1002C000F1D3FB7E18462437BD465DF8047B7047AA
:1002D00080B489B000AFF860B9601346FB8000239A
:1002E000FB61FB880333DA1C002BB8BF13469B105D
:1002F000BB61FB68D3F8D0307B610023FB6109E070
:100300007B691A68BB681A60FB690133FB61BB68D3
:100310000433BB60FA69BB699A42F1D3BB681846E3
:100320002437BD465DF8047B704700BF80B487B0BA
:1003300000AF78600B46FB7000233B610023FB732A
:100340007B680022DA707B6801229A707B68402209
:100350009A80FB78012B13D14FF0A0433B617B685F
:100360000122DA727B6808221A707B6804225A70B4
:100370007B684FF4A072DA807B6802221A7213E065
:10038000FB78002B10D10023C4F204033B617B688F
:100390000022DA727B680C221A707B6806225A707F
:1003A0007B684FF4A062DA803A697B68DA603B6967
:1003B00003F500631A467B681A6100237B611CE029
:1003C0007B695A013B69134403F510631A46796847
:1003D0007B6904339B000B449A607B695A013B693B
:1003E000134403F530631A4679687B6914339B0024
:1003F0000B445A607B6901337B617B685B781A46EA
:100400007B699A42DCD83B6903F580631A467B68B6
:100410005A613B6903F588631A467B68C3F8CC20B0
:1004200000237B610FE07B695A013B69134403F5AC
:10043000A0631A4679687B6922339B000B449A605B
:100440007B6901337B617B681B781A467B699A4222
:10045000E9D800237B610FE07B691A033B691344F1
:1004600003F580531A4679687B6932339B000B444D
:100470009A607B6901337B617B681B781A467B69D4
:100480009A42E9D83B6903F560631A467B68C3F872
:100490000C21FB7B18461C37BD465DF8047B70477A
:1004A00080B588B000AF78600023FB770023BB6184
:1004B00000237B610023FB607B681B7A012B4FD1FB
:1004C0007B68DB689B6B7B61BB7D6FF30003BB7557
:1004D0007B685B7A002B03D0BB7D43F01003BB75B8
:1004E0007B68DB687A699A630023BB617B68DB68A1
:1004F000DB68BB613B7E6FF386133B76BB7E6FF39D
:100500008613BB763B7E43F010033B763B7E6FF356
:10051000C3033B763B7E6FF3C7133B76BB7E6FF323
:100520004103BB76BB7E6FF3C303BB767B68DB689E
:10053000BA69DA607868FFF749FE7B68DB78012BDF
:1005400040F082803B7B052262F344033B733B7B9C
:1005500043F020033B737B68DB68FA689A6073E0C2
:100560007B68DB68DB68BB613B7E43F040033B7626
:100570007B68DB68BA69DA607868FFF727FE0023DA
:100580007B61BB7D43F00103BB757B681B7A032B4A
:1005900003D1BB7D43F00203BB75BB7D43F0040375
:1005A000BB75BB7D43F00803BB75BB7D43F02003E7
:1005B000BB757B685B7A002B03D0BB7D43F01003D7
:1005C000BB757B68DB687A699A63142002F056FD7C
:1005D0007B68DB68DB68BB617B681B7A032B03D11C
:1005E000BB7E43F00103BB767B68DB68BA69DA60E7
:1005F0007B681B7A032B27D17B68DB681B6B3B6115
:10060000FB7C012262F38303FB74BB7C6FF3C71393
:10061000BB74FB7C43F01003FB74BB7C2D2262F3A4
:100620000603BB747B68DB683A691A63C82002F072
:1006300025FDBB7C43F08003BB747B68DB683A69B3
:100640001A63C82002F01AFD7B68DB78012B10D1F9
:100650007B68DB689B68FB603B7B052262F344039D
:100660003B733B7B43F020033B737B68DB68FA689A
:100670009A60FB7F18462037BD4680BD80B485B0A8
:1006800000AF78600023FB730023BB603B7A43F02C
:1006900001033B727B68DB687A68D2689168BA684C
:1006A0000A439A60FB7B18461437BD465DF8047B0D
:1006B000704700BF80B485B000AF78600023FB7343
:1006C0000023BB603B7A43F001033B727B68DB682D
:1006D0007A68D2689168BA68D2430A409A60FB7B14
:1006E00018461437BD465DF8047B704780B586B068
:1006F00000AF786039600023FB7400237B61002326
:10070000FB60FB6843F02003FB603B68DBB203F057
:100710001F03DAB2FB6862F38A13FB607B68DB6855
:10072000FA681A617B68DB681B69FB607B690133CF
:100730007B617A694FF45463C0F203039A4200D993
:1007400005E0FB68C3F34013DBB2012BEAD00320C2
:1007500002F06EFCFB7C18461837BD4680BD00BF1A
:1007600080B586B000AF78600023FB7400237B6106
:100770000023FB60FB6843F01003FB607B68DB68D1
:10078000FA681A617B68DB681B69FB607B6901336F
:100790007B617A694FF45463C0F203039A4200D933
:1007A00005E0FB68C3F30013DBB2012BEAD00320A2
:1007B00002F03EFCFB7C18461837BD4680BD00BFEA
:1007C00080B584B000AF78600B46FB700023FB73EC
:1007D0007B68DB68DB68BB60FB7A6FF34513FB72F9
:1007E000FB7A6FF38613FB72FB78012B04D1FB7A43
:1007F00043F02003FB7206E0FB78002B03D1FB7A69
:1008000043F04003FB727B68DB68BA68DA60322031
:1008100002F034FCFB7B18461037BD4680BD00BF9C
:1008200080B483B000AF78607B68DB685B6903F0FD
:10083000010318460C37BD465DF8047B704700BFC6
:1008400080B582B000AF78607868FFF7E9FF0346B3
:10085000012B0CBF00230123DBB218460837BD462D
:1008600080BD00BF80B485B000AF78600023FB601E
:100870007B68DB685B69FB607B68DB689B69FA68A7
:100880001340FB60FB6818461437BD465DF8047BD7
:10089000704700BF80B485B000AF78600B46FB7036
:1008A0007B681B691B68FB60FB7803F00303DAB20B
:1008B0003B7B62F301033B737B681B69FA681A6038
:1008C0001437BD465DF8047B704700BF80B58CB01F
:1008D00000AF7860002387F82B3000237B62002371
:1008E0003B620023FB610023BB6100237B617B68CB
:1008F000D3F80C3100221A607B681B691B683B62CD
:1009000097F821306FF3C40387F821307B681B69A7
:100910003A6A1A607B68DB7A012B40D17868032140
:10092000FFF7B8FF7B68DB6880225A62FB8B4022AE
:1009300062F30F03FB83BB8B802262F30F03BB8345
:100940007B68DB68FA699A62BA8BFB8B13449BB2B3
:100950003B837B8B802262F30F037B837B68DB68A6
:10096000BA69C3F804213A8B7B8B13449BB23B8357
:100970007B8B6FF30F037B837B68DB68BA69C3F8FB
:1009800008213A8B7B8B13449BB23B837B8B6FF3A9
:100990000F037B837B68DB68BA69C3F80C21786836
:1009A0001021FFF7A3FE7868FFF7DAFE7B681B696A
:1009B00000221A617B681B6900225A617B681B69EF
:1009C0004FF0FF329A617B681B690022DA610023D5
:1009D000FB623AE07A68FB6A04339B0013449B682D
:1009E0001B687B6297F82730C3F3C013DBB2002B80
:1009F0000ED000237B6297F8273043F0400387F83E
:100A0000273097F8273043F0080387F8273001E0B4
:100A100000237B627A68FB6A04339B0013449B6863
:100A20007A6A1A607A68FB6A04339B0013449B68F5
:100A300000221A617A68FB6A04339B0013449B68A6
:100A4000FF229A60FB6A0133FB627B685B781A467F
:100A5000FB6A9A42BED80023FB6235E07A68FB6AE3
:100A600014339B0013445B681B68FB60FB7BC3F380
:100A7000C013DBB2002B0AD00023FB60FB7B43F0EA
:100A80004003FB73FB7B43F00803FB7301E000238F
:100A9000FB607A68FB6A14339B0013445B68FA6856
:100AA0001A607A68FB6A14339B0013445B68002267
:100AB0001A617A68FB6A14339B0013445B68FF2257
:100AC0009A60FB6A0133FB627B685B781A46FB6ABB
:100AD0009A42C3D800237B617B7D43F001037B7581
:100AE0007B681B697A68126911697A69D24311407F
:100AF0007A690A431A617B68DB78012B1BD10023DA
:100B00003B613B7C43F001033B743B7C43F00203BD
:100B10003B743B8A402262F38A033B82BB7C43F0F6
:100B20000103BB747B8A402262F349037B827B68AA
:100B30001B693A691A63786800F006F897F82B3059
:100B400018463037BD4680BD80B584B000AF7860B0
:100B50000023FB730023BB607B68DB6800229A6183
:100B60007B68DB684FF0FF325A617868FFF70CFB57
:100B70007B68DB78002B03D13B7A43F010033B7298
:100B80007B7A43F008037B727B7A43F010037B721D
:100B90007B7A43F020037B72BB7A43F00403BB7281
:100BA000BB7A43F00803BB723B7A43F008033B7205
:100BB000BB7A43F01003BB72BB7A43F02003BB72D5
:100BC0007B68DB687A68D2689169BA68D243114061
:100BD000BA680A439A61FB7B18461037BD4680BD50
:100BE00080B485B000AF78600023FB737B681B691D
:100BF0009B68BB603B7AC3F34103DBB2022B09D095
:100C0000032B04D0012B02D00323FB7305E0022346
:100C1000FB7302E00123FB7300BFFB7B1846143714
:100C2000BD465DF8047B704780B487B000AF786044
:100C30000023FB750023BB607B681B699B683B61DD
:100C40007B689B691B68FB603B7CC3F34103DBB2A1
:100C5000022B04D0BB896FF30A03BB8105E0BB897B
:100C6000032262F30A03BB8100BF7B689B69FA68B9
:100C70001A607B7A43F001037B727B681B697A6898
:100C800012695168BA68D2431140BA680A435A607F
:100C9000FB7D18461C37BD465DF8047B704700BFDE
:100CA00080B487B000AF786039600023FB74002304
:100CB000FB600023BB603B685B78012B0FD13B6876
:100CC0001B787A6804339B0013449B687B613B6804
:100CD0001B78012202FA03F39BB23B810EE03B68D2
:100CE0001B787A6814339B0013445B687B613B6814
:100CF0001B78012202FA03F39BB27B817B691B689C
:100D0000FB607B7BC3F3C013DBB2002B27D13B68B6
:100D10009B689BB2C3F30A039AB2BB8962F30A03CE
:100D2000BB813B68DB7803F00303DAB2BB7B62F381
:100D30008303BB733B68DB88DBB203F00F03DAB2DB
:100D4000FB8962F38913FB81FB7B43F01003FB7388
:100D50007B7B43F080037B73FA687B691A607B6856
:100D60001B697A681269D169BA680A43DA61FB7C47
:100D700018461C37BD465DF8047B704780B487B0C9
:100D800000AF786039600023FB740023FB60002310
:100D9000BB603B685B78012B0FD13B681B787A689E
:100DA00004339B0013449B687B613B681B780122E2
:100DB00002FA03F39BB23B810EE03B681B787A6832
:100DC00014339B0013445B687B613B681B780122F2
:100DD00002FA03F39BB27B817B7B6FF3C7137B73B8
:100DE000FA687B691A607B681B697A681269D16945
:100DF000BA68D2430A40DA61FB7C18461C37BD460C
:100E00005DF8047B704700BF80B588B000AF7860A4
:100E100039600023FB770023BB6100237B61002343
:100E20003B613B685B78012B40F0AB803B681B78F3
:100E30007A6804339B0013449B681B687B613B68A2
:100E40001B787A6804339B0013449B681B693B61E1
:100E50003B685B69002B09D13B696FF312033B616F
:100E60007B8A012262F3CC037B8222E03B685B69D0
:100E7000C3F312023B6962F312033B613B685A6998
:100E80003B689B6813445A1E3B689B68B2FBF3F3B4
:100E90009BB2C3F309039AB27B8A62F3CC037B82D1
:100EA0003B68DB78012B04D1FB7C012262F3461303
:100EB000FB743B681B787A6804339B0013449B687F
:100EC0003A691A617B68DB78012B0AD13B681B7891
:100ED0007A6804339B0013449B683A6812695A612C
:100EE00015E03B68DB78012B11D03B685B69002B78
:100EF0000DD03B681B78012202FA03F3BB617B68CB
:100F00001B697A681269516BBA690A435A633B6874
:100F1000DB78012B14D17B681B699B68FB60FB6845
:100F2000C3F30D239BB203F00103002B04D1FB7D1F
:100F300043F02003FB7503E0FB7D43F01003FB75DA
:100F4000FB7D43F00403FB75FB7D43F08003FB75E1
:100F50003B681B787A6804339B0013449B687A696A
:100F60001A603B68DB78012B40F088803B68D968C9
:100F70003B681A783B685B699BB27868FFF770F949
:100F80007CE03B681B787A6814339B0013445B68F1
:100F90001B687B613B681B787A6814339B001344A1
:100FA0005B681B693B613B685B69002B0DD13B684B
:100FB0009B68C3F312023B6962F312033B617B8AB5
:100FC000012262F3CC037B821FE03B685A693B68D5
:100FD0009B6813445A1E3B689B68B2FBF3F39BB2B9
:100FE000C3F309039AB27B8A62F3CC037B827B8AC8
:100FF000C3F3C9039BB23A68926802FB03F3C3F3DD
:1010000012023B6962F312033B613B681B787A680A
:1010100014339B0013445B683A691A617B68DB7880
:10102000012B09D13B681B787A6814339B00134469
:101030005B683A6812695A613B68DB78012B0CD116
:101040003B685B79002B04D0FB7D43F02003FB75EC
:1010500003E0FB7D43F01003FB75FB7D43F00403CD
:10106000FB75FB7D43F08003FB753B681B787A685A
:1010700014339B0013445B687A691A60FB7F18463F
:101080002037BD4680BD00BF80B489B000AF786016
:1010900039600023FB770023BB6100233B61002301
:1010A000BB603B685B78012B6FD17B689B697B6180
:1010B0007B691B683B617B691B69BB603B685B6943
:1010C000002B09D13B7A6FF306033B72BB7A0122F6
:1010D00062F3C403BB7223E03B685A693B689B68B8
:1010E0009A420ED93B689A683B685A613B689B6894
:1010F000DBB203F07F03DAB23B7A62F306033B72A2
:1011000009E03B685B69DBB203F07F03DAB23B7A4C
:1011100062F306033B72BB7A012262F3C403BB7223
:10112000BA687B691A617B68DB78012B09D13B685F
:101130001B787A6804339B0013449B683A681269F1
:101140005A61FB7C43F00403FB74FB7C43F0800397
:10115000FB743A697B691A607B68DB78002B75D178
:101160003B685B69002B71D03B681B78012202FA57
:1011700003F3BA691343BB617B681B697A68126920
:10118000516BBA690A435A6360E03B681B787A681E
:1011900014339B0013445B681B683B613B681B78FE
:1011A0007A6814339B0013445B681B69BB603B681F
:1011B0005B69002B0FD13B689B68DBB203F07F03B8
:1011C000DAB23B7A62F306033B72BB7A012262F326
:1011D000C403BB7212E03B689A683B685A613B6883
:1011E0009B68DBB203F07F03DAB23B7A62F306035B
:1011F0003B72BB7A012262F3C403BB723B681B786B
:101200007A6814339B0013445B68BA681A617B6880
:10121000DB78012B09D13B681B787A6814339B007B
:1012200013445B683A6812695A61FB7C43F004031B
:10123000FB74FB7C43F08003FB743B681B787A688B
:1012400014339B0013445B683A691A60FB7F1846AD
:101250002437BD465DF8047B704700BF80B487B07B
:1012600000AF786039600023FB750023FB603B68AA
:101270005B78012B1CD13B681B787A6804339B0098
:1012800013449B683B613B691B68FB60FB7BC3F3BA
:10129000C013DBB2002B03D0FB7B43F04003FB7396
:1012A000BB7B43F02003BB73FA683B691A6011E013
:1012B0003B681B787A6814339B0013445B683B617E
:1012C0003B691B68FB60BB7B43F02003BB73FA6880
:1012D0003B691A60FB7D18461C37BD465DF8047BF0
:1012E000704700BF80B487B000AF786039600023DA
:1012F000FB740023FB603B685B78012B08D13B68E3
:101300001B787A6804339B0013449B687B6107E079
:101310003B681B787A6814339B0013445B687B61DD
:101320007B691B68FB60BB7B6FF34513BB733B683A
:10133000DB78032B03D03B68DB78022B03D1FB7BEC
:1013400043F01003FB73FA687B691A60FB7C184654
:101350001C37BD465DF8047B704700BF80B485B084
:1013600000AF78607B681B699B69FB607B681B69C9
:10137000DB69FA681340FB60FB681B0C18461437E6
:10138000BD465DF8047B704780B485B000AF7860DF
:101390000B46FB70FB787A6814339B0013445B6840
:1013A0009B68FB607B681B695B69FA681340FB60A4
:1013B000FB6818461437BD465DF8047B704700BFD4
:1013C00080B485B000AF78607B681B699B69FB6067
:1013D0007B681B69DB69FA681340FB60FB689BB2A2
:1013E00018461437BD465DF8047B704780B487B05B
:1013F00000AF786000233B61FB7C43F0C003FB74CB
:10140000BB7C012262F3C403BB743B7C182262F3F1
:1014100006033B747B685B6D3A691A617B68DB7815
:10142000012B16D10023FB607B685B6D7A6802F5A7
:10143000B9625A617B685B6D1B68FB60FB7B43F0A4
:101440008003FB734FF08023FB607B685B6DFA6861
:101450001A601C37BD465DF8047B704780B485B0C8
:1014600000AF78607B689B7A002B1BD07B681B6980
:101470009B68FB603B7BC3F30003DBB2012B11D104
:101480007B6803F586731B68BB603B7A6FF341038F
:101490003B723B7A6FF300033B727B68D3F80C31ED
:1014A000BA681A601437BD465DF8047B704700BF08
:1014B00080B584B000AF39600146F971BA80BB7164
:1014C0003A680023C4F202039A4204D101200121A8
:1014D00000F04EFD2EE03A684FF48063C4F2020340
:1014E0009A4204D10220012100F042FD22E03A6834
:1014F0004FF40063C4F202039A4204D10420012194
:1015000000F036FD16E03A684FF44063C4F202037F
:101510009A4204D10820012100F02AFD0AE03A682D
:101520004FF48053C4F202039A4203D110200121E8
:1015300000F01EFD07F10803184601F073F9BB889F
:10154000BB60FB793B733B7EBB73BB79FB730323AF
:101550007B7307F108033868194601F0D5F8FB7969
:10156000012B04D1BB883868194601F09DF910376A
:10157000BD4680BD80B400AFBD465DF8047B7047BA
:1015800080B483B000AF0346FB71FB79002B02D01F
:10159000012B02D002E000BF00E000BF0C37BD46C7
:1015A0005DF8047B704700BF80B400AFBD465DF8B6
:1015B000047B704780B400AFBD465DF8047B704784
:1015C00080B400AFBD465DF8047B704780B400AFC7
:1015D000BD465DF8047B704780B400AFBD465DF842
:1015E000047B704780B582B000AF46F2E423C0F6BA
:1015F00000037B6040F20003C2F200033B6007E09F
:101600003B681A1D3A607A68111D796012681A6089
:101610003A6840F23013C2F200039A42F0D307480E
:1016200007494FF000028842B8BF40F8042BFADBAC
:1016300000F056FC0837BD4680BD00003001002098
:10164000FC10002080B400AFFEE700BF80B584B07E
:1016500000AFF8607A603B600B46FB72F86801F0FF
:101660006BFCF86800F01CF8FB683A68C3F8E025EA
:10167000FB68BA69C3F8E425FB687A68C3F8E82513
:10168000FB7AF868194603F087FAFB68D3F8E4356B
:101690001B689847F86801F0B3FC1037BD4680BD61
:1016A00080B483B000AF7860002318460C37BD4685
:1016B0005DF8047B704700BF80B584B000AF7860F0
:1016C00007F108037868194602F0EEF83B7A03F058
:1016D0001F03012B0AD0022B0FD0002B14D107F1CE
:1016E00008037868194601F0D9FC16E007F10803F1
:1016F0007868194601F022FD0FE007F108037868C9
:10170000194601F04FFD08E03B7A23F07F03DBB27E
:101710007868194603F0C2FB00BF00231846103753
:10172000BD4680BD80B584B000AF78600B46FB70CD
:10173000FB78002B45D17B6803F55C73FB607B680D
:1017400093F81131032B4FD1FB68DA69FB689B6872
:101750009A4221D9FB68DA69FB689B68D21AFB6858
:10176000DA617B68DB78012B06D1FB68DA68FB68FD
:101770009B681A44FB68DA60FB68DA68FB68996862
:10178000FB68DB69994238BF0B469BB2786811460B
:101790001A4603F069FC27E07B68D3F8E0351B6943
:1017A000002B0AD07B6893F81231032B05D17B689C
:1017B000D3F8E0351B6978689847786803F068FCCF
:1017C00012E07B68D3F8E0359B69002B0CD07B6876
:1017D00093F81231032B07D17B68D3F8E0359B696E
:1017E000FA78786811469847002318461037BD46A6
:1017F00080BD00BF80B584B000AF78600B46FB7041
:10180000FB78002B60D17B6803F58C73FB607B68F1
:1018100093F81131022B6AD1FB68DA69FB689B6887
:101820009A421CD9FB68DA69FB689B68D21AFB688C
:10183000DA617B68DB78012B06D1FB68DA68FB682C
:101840009B681A44FB68DA60FB68DA68FB68DB694E
:101850009BB2786811461A4603F0D2FB47E0FB685A
:101860001B6AFA689268B3FBF2F102FB01F29B1A61
:10187000002B14D1FB681A6AFB689B689A420ED34E
:10188000FB681A6AFB685B6A9A4208D27868002192
:10189000002203F0B5FBFB6800225A6227E07B6858
:1018A000D3F8E035DB68002B0AD07B6893F812315F
:1018B000032B05D17B68D3F8E035DB68786898475F
:1018C000786803F0FDFB12E07B68D3F8E0355B69D4
:1018D000002B0CD07B6893F81231032B07D17B6867
:1018E000D3F8E0355B69FA787868114698470023A9
:1018F00018461037BD4680BD80B582B000AF786015
:10190000786800214022002303F0C6F9786880211E
:101910004022002303F0C0F97B68012283F81221E2
:101920007B68D3F8E4355B687A689278104698470C
:10193000002318460837BD4680BD00BF80B582B081
:1019400000AF78607B68D3F8E4351B6998477B6803
:10195000032283F81221002318460837BD4680BDB4
:1019600080B582B000AF78607B68042283F81221D2
:101970007B68D3F8E435DB689847002318460837BE
:10198000BD4680BD80B582B000AF78607B68D3F87B
:10199000E035DB69002B05D07B68D3F8E035DB69E7
:1019A00078689847002318460837BD4680BD00BFB9
:1019B00080B582B000AF78600B46FB707B68D3F8CF
:1019C000E0351B68FA787868114698477B68D3F849
:1019D000E4359B689847002318460837BD4680BD0C
:1019E00080B582B000AF78600B46FB707B68D3F89F
:1019F000E0355B68FA787868114698470023184606
:101A00000837BD4680BD00BF80B582B000AF7860AA
:101A10007B68D3F8E0351B6A78689847002318463E
:101A20000837BD4680BD00BF80B582B000AF78608A
:101A30007B68D3F8E0355B6A7868984700231846DE
:101A40000837BD4680BD00BF80B483B000AF0346F9
:101A50003960FB7197F90730002B0EDA4FF46D43B4
:101A6000CEF20003FA7902F00F02111F3A68D2B2E7
:101A70001201D2B20B441A760CE04FF46143CEF25D
:101A8000000397F907103A68D2B21201D2B20B44A0
:101A900083F800230C37BD465DF8047B704700BF18
:101AA00080B582B000AF78607B68B3F1807F01D3EE
:101AB00001231AE04EF21003CEF200037A6822F0FE
:101AC0007F42013A5A604FF0FF300F21FFF7BCFF11
:101AD0004EF21003CEF2000300229A604EF2100381
:101AE000CEF2000307221A60002318460837BD46CD
:101AF00080BD00BF80B582B002AF002300930120FB
:101B00004FF44061C4F202014FF470420123FFF729
:101B1000CFFCBD4680BD00BF80B584B000AF0220C1
:101B2000012100F075FA5323BB600023BB80002322
:101B3000BB810023FB803B1D4FF48060C4F200009A
:101B4000194603F0D5FA4FF48060C4F20000012179
:101B5000012203F063FB4FF48060C4F20000012116
:101B600003F03CFB1D233B7001237B700123BB7002
:101B70000123FB703B46184602F0A8FF1037BD4614
:101B800080BD00BF80B582B000AF786001F06CF816
:101B900040F2A803C2F200031B68184604F012F9D1
:101BA00003461846796804F065F90346184604F0C0
:101BB00027FB03461846FFF773FF0837BD4680BD75
:101BC00080B500AF40F23413C2F200031B685A1C08
:101BD00040F23413C2F200031A604FF48060C4F282
:101BE0000000012103F03EFB80BD00BF80B400AFC8
:101BF00040F23013C2F200031B685A1C40F230134B
:101C0000C2F200031A60BD465DF8047B704700BF56
:101C100090B585B000AFF860B9607A6040F23C13CF
:101C2000C2F20003BA6853F82240F86804F0CEF814
:101C300003462046194604F0CFFA0346002B0CD089
:101C4000FB68013B184604F0C1F8014640F23C1322
:101C5000C2F20003BA6843F8221040F25C13C2F2E9
:101C60000003BA6853F8222040F23C13C2F200038A
:101C7000B96853F821301046194604F0FBF80346C2
:101C8000194640F25C13C2F20003BA6843F822100E
:101C900040F25C13C2F20003BA6853F822301846CF
:101CA000796803F0DFFF0346194640F25C13C2F285
:101CB0000003BA6843F8221040F23C13C2F200035A
:101CC000BA6853F8223018464FF07E5103F0CAFF2D
:101CD0000346194640F23C13C2F20003BA6843F8C7
:101CE000221040F25C13C2F20003BA6853F82220BB
:101CF00040F23C13C2F20003B96853F82130104699
:101D0000194604F06BF90346194640F25C13C2F21F
:101D10000003BA6843F8221040F25C13C2F20003D9
:101D2000BA6853F8223018461437BD4690BD00BF3C
:101D300080B584B002AF4FF000037B6000230093B6
:101D400001204FF48061C4F202014FF4807201233C
:101D5000FFF7AEFB0023009300204FF48061C4F234
:101D600002014FF400720023FFF7A2FB40F27C1344
:101D7000C2F200031B68002B24D14FF48060C4F230
:101D800002004FF4807100F081FD40F23413C2F282
:101D900000031B68092B40F399804FF48060C4F264
:101DA00002004FF4807100F07FFD40F27C13C2F21C
:101DB000000301221A6040F23413C2F20003002231
:101DC0001A6083E040F27C13C2F200031B68012B0F
:101DD00017D14FF48060C4F202004FF4007100F09C
:101DE0003BFD0346012B71D140F23413C2F20003D4
:101DF00000221A6040F27C13C2F2000302221A6031
:101E000064E040F27C13C2F200031B68022B5DD138
:101E10004FF48060C4F202004FF4007100F01CFD2A
:101E20000346002B52D140F23413C2F200031B6868
:101E3000184603F079FB02460B461046194626A3C6
:101E4000D3E9002303F0D6FB02460B4610461946A1
:101E500003F0B2FE0346142000211A46FFF7D8FE15
:101E6000786040F23413C2F200031B68184603F096
:101E70005BFB02460B4642F20D60C0F6000046F2E4
:101E80004021C0F6000100F0A1FB786803F05EFB82
:101E900002460B4642F20D60C0F6000046F24421B5
:101EA000C0F6000100F092FB42F20D60C0F60000A7
:101EB00000F07EFB40F23413C2F2000300221A60ED
:101EC00040F27C13C2F2000300221A600837BD46BC
:101ED00080BD00BFAFF30080C3F5285C8FC2C53F53
:101EE00080B584B000AF0023FB600023BB604FF0DF
:101EF00000037B6000F070FEFFF7FCFDFFF70CFEB7
:101F000041F26F20C3F68320FFF73CFE00F08AFB0E
:101F100040F23813C2F200031A6844F23F23C0F2C1
:101F20000F039A4210DD40F23813C2F20003002280
:101F30001A604FF44060C4F202004FF4005100F008
:101F4000A5FCFB680133FB6040F23013C2F20003D2
:101F50001B68B3F57A7F08DB40F23013C2F200034E
:101F600000221A60BB680133BB60FFF7E1FECFE7D8
:101F700080B483B000AF78600B46FB70FB78002B19
:101F80000CD04FF46053C4F202034FF46052C4F219
:101F90000202116B7A680A431A630CE04FF4605333
:101FA000C4F202034FF46052C4F20202116B7A6869
:101FB000D2430A401A630C37BD465DF8047B704774
:101FC00080B483B000AF78600B46FB70FB78002BC9
:101FD0000CD04FF46053C4F202034FF46052C4F2C9
:101FE0000202516B7A680A435A630CE04FF4605363
:101FF000C4F202034FF46052C4F20202516B7A68D9
:10200000D2430A405A630C37BD465DF8047B7047E3
:1020100080B483B000AF78600B46FB70FB78002B78
:102020000CD04FF46053C4F202034FF46052C4F278
:102030000202116C7A680A431A640CE04FF4605390
:10204000C4F202034FF46052C4F20202116C7A68C7
:10205000D2430A401A640C37BD465DF8047B7047D2
:1020600080B483B000AF78600B46FB70FB78002B28
:102070000CD04FF46053C4F202034FF46052C4F228
:102080000202516C7A680A435A640CE04FF46053C0
:10209000C4F202034FF46052C4F20202516C7A6837
:1020A000D2430A405A640C37BD465DF8047B704742
:1020B00080B483B000AF78600B46FB70FB78002BD8
:1020C0000CD04FF46053C4F202034FF46052C4F2D8
:1020D0000202116A7A680A431A620CE04FF46053F4
:1020E000C4F202034FF46052C4F20202116A7A6829
:1020F000D2430A401A620C37BD465DF8047B704734
:1021000080B483B000AF03463960FB713B68122294
:102110001A8040F26803C2F2000318460C37BD462D
:102120005DF8047B704700BF80B483B000AF034606
:102130003960FB713B6804221A8040F28803C2F2C6
:10214000000318460C37BD465DF8047B704700BF9E
:1021500080B582B000AF03463960FB71FB79002B7C
:102160000BD146F24C20C0F6000040F63C01C2F212
:1021700000013A6801F002FC0AE046F27020C0F665
:10218000000040F63C01C2F200013A6801F0F6FBA3
:1021900040F63C03C2F2000318460837BD4680BD36
:1021A00080B582B000AF03463960FB7146F29420DF
:1021B000C0F6000040F63C01C2F200013A6801F0AE
:1021C000DDFB40F63C03C2F2000318460837BD466B
:1021D00080BD00BF80B582B000AF03463960FB719F
:1021E000FB79002B0BD146F2A820C0F6000040F688
:1021F0003C01C2F200013A6801F0C0FB0AE046F27D
:10220000B820C0F6000040F63C01C2F200013A6876
:1022100001F0B4FB40F63C03C2F200031846083755
:10222000BD4680BD80B582B000AF03463960FB710A
:10223000FB79002B0BD146F2C820C0F6000040F617
:102240003C01C2F200013A6801F098FB0AE046F254
:10225000C820C0F6000040F63C01C2F200013A6816
:1022600001F08CFB40F63C03C2F20003184608372D
:10227000BD4680BD80B582B000AF03463960FB71BA
:10228000FB79002B0BD146F2D420C0F6000040F6BB
:102290003C01C2F200013A6801F070FB0AE046F22C
:1022A000D420C0F6000040F63C01C2F200013A68BA
:1022B00001F064FB40F63C03C2F200031846083705
:1022C000BD4680BD80B588B000AFC7E902017A6025
:1022D0000023FB614FF000024FF00003C3F6F073E0
:1022E000C7E904237B68002B14DB0123FB610CE0AE
:1022F000D7E90401D7E9022303F07CF902460B4633
:10230000C7E90423FB690133FB61FA697B689A42E0
:10231000EEDD14E04FF0FF33FB610CE0D7E9040180
:10232000D7E9022303F090FA02460B46C7E90423DB
:10233000FB69013BFB61FA697B689A42EEDDD7E9F4
:102340000423104619462037BD4680BD000000001A
:1023500080B58AB000AF7860396000237B620023CB
:102360003B6207F10C0300221A60043300221A605A
:10237000043300221A60043300221A60043300225E
:102380001A6004333B687B6200233B6229E0796A70
:102390004CF6CD43CCF6CC43A3FB0123DA0813461D
:1023A0009B0013445B00CA1AD2B207F10C013B6ACE
:1023B0000B441A70786A03F0A7F802460B461046E1
:1023C000194619A3D3E9002303F014F902460B467A
:1023D0001046194603F0D0FB03467B623B6A01338B
:1023E0003B627B6A002BD2D13B68002B03D17B6818
:1023F0003020984713E03B6A013B3B620CE007F159
:102400000C023B6A13441B783033DAB27B68104607
:1024100098473B6A013B3B623B6A002BEFDA283767
:10242000BD4680BDAFF300809A9999999999B93FBB
:1024300080B582B000AF786039603B68002B09DA64
:102440007B682D2098473B685B4278681946FFF708
:102450007FFF04E03B6878681946FFF779FF08378B
:10246000BD4680BD2DE9B0438AB000AFF860C7E932
:10247000002303233B6200237B620023FB614FF0B8
:1024800000024FF00003C7E90423D7E9000103F07D
:102490004BFB0346FB61F868F969FFF7C9FFFB686E
:1024A0002E209847F86903F03FF802460B46D7E91B
:1024B000000102F0EBFE02460B46904699464FF0B3
:1024C00000004FF00001C4F224013A6AFFF7FAFE5F
:1024D00002460B464046494603F08CF802460B463E
:1024E000C7E904233C697B6923F00045204629465F
:1024F0004FF000024FF00003C3F6E07302F0C8FE95
:1025000002460B461046194603F00EFB0346FB61DC
:1025100001237B6205E0FB68302098477B6A01332A
:102520007B623A6A7B6AD31A4FF000004FF00001D9
:10253000C4F224011A46FFF7C5FE04460D46F869A9
:1025400002F0F2FF02460B462046294603F0E2FA6B
:102550000346002B03D07A6A3B6A9A42DBDBFB69B5
:10256000F8681946FFF7F4FE2837BD46BDE8B0838A
:1025700080B584B000AF786039600023FB60002331
:10258000FB6009E0FB683A6813441A787B681046E0
:102590009847FB680133FB60FB683A6813441B787B
:1025A000002B02D0FB68132BECDD1037BD4680BD3D
:1025B00080B582B000AF78607B680D2098477B685B
:1025C0000A2098470837BD4680BD00BF80B584B05B
:1025D00000AFF860B960C7E90023F868B968FFF791
:1025E000C7FFFB682C209847F868D7E90023FFF75E
:1025F00039FFFB682C2098471037BD4680BD00BFCF
:1026000080B400AFBD465DF8047B704780B582B0F2
:1026100000AF0346FB71FB79184600F047FA083714
:10262000BD4680BD80B582B002AF40F20003C2F269
:102630000003009340F2B410C2F20000012140F206
:102640004C02C2F2000240F20413C2F20003FEF791
:10265000FDFFBD4680BD00BF80B400AFBD465DF844
:10266000047B704780B500AFFFF7CAFF80BD00BF95
:1026700080B500AFFFF7C4FF80BD00BF80B500AFDD
:10268000FFF7BEFF80BD00BF80B500AFFFF7B8FF0A
:1026900080BD00BF80B400AFBD465DF8047B7047CD
:1026A00080B400AFBD465DF8047B704780B400AFD6
:1026B000BD465DF8047B704780B500AF40F2B410B2
:1026C000C2F2000001F0B0F980BD00BF80B500AFDC
:1026D00040F2B413C2F200039B7A002B13D04EF6E3
:1026E0001053CEF200034EF61052CEF200021268E2
:1026F00022F006021A6000F06FFA40F2B410C2F243
:102700000000FEF7ABFE80BD80B487B000AF7860FC
:10271000396000237B6100233B610023FB600023C1
:102720007B6176E07B69012202FA03F33B613B683F
:102730001A683B691340FB60FA683B699A4265D1AD
:102740007B681A687B695B00032101FA03F3DB43B2
:102750001A407B681A607B681A683B681B791946C7
:102760007B695B0001FA03F31A437B681A603B68DC
:102770001B79012B03D03B681B79022B2ED17B6880
:102780009A687B695B00032101FA03F3DB431A407B
:102790007B689A607B689A683B685B7919467B69BD
:1027A0005B0001FA03F31A437B689A607B685A68FE
:1027B0007B699BB2012101FA03F3DB431A407B687A
:1027C0005A607B685A683B689B7919467B699BB263
:1027D00001FA03F39BB21A437B685A607B68DA689C
:1027E0007B699BB25B00032101FA03F3DB431A40D0
:1027F0007B68DA607B68DA683B68DB7919467B695D
:102800005B0001FA03F31A437B68DA607B690133EA
:102810007B617B690F2B85D91C37BD465DF8047B36
:10282000704700BF80B483B000AF78607B684FF61C
:10283000FF721A607B6800221A717B6800225A714D
:102840007B6800229A717B680022DA710C37BD46E2
:102850005DF8047B704700BF80B485B000AF78603E
:102860000B467B800023FB737B681A697B881340CF
:10287000002B02D00123FB7301E00023FB73FB7BE1
:1028800018461437BD465DF8047B704780B483B0AA
:1028900000AF78600B467B807B687A881A830C37A0
:1028A000BD465DF8047B704780B483B000AF7860AC
:1028B0000B467B807B687A885A830C37BD465DF86F
:1028C000047B704780B485B000AF786013460A4639
:1028D0007A807B700023FB600023BB607A787B8862
:1028E00003F007039B0002FA03F3FB607B88DB081D
:1028F0009BB21A467B88DB089BB219467B6808317D
:1029000053F821107B8803F007039B000F2000FA87
:1029100003F3DB4319407B68083243F822107B88BD
:10292000DB089BB21A467B68083253F82220FB680A
:102930001343BB607B88DB089BB21A467B68083276
:10294000B96843F822101437BD465DF8047B704720
:1029500080B400AF00231846BD465DF8047B704785
:1029600080B400AF00231846BD465DF8047B704775
:1029700080B485B000AFF860B9607A60FB68232B43
:1029800000F28B8001A252F823F000BF9B2A0008BE
:102990009B2A00089B2A00089B2A00089B2A000803
:1029A0009B2A00089B2A00089B2A00089B2A0008F3
:1029B0009B2A00089B2A00089B2A00089B2A0008E3
:1029C0009B2A00089B2A00089B2A00089B2A0008D3
:1029D0009B2A00089B2A00089B2A00089B2A0008C3
:1029E0009B2A00089B2A00089B2A00089B2A0008B3
:1029F0009B2A00089B2A00089B2A00089B2A0008A3
:102A00009B2A00089B2A00089B2A00089B2A000892
:102A10001D2A00089B2A00089B2A000840F28C030C
:102A2000C2F200031B68DAB2BB681A70BB685A1C9A
:102A300040F28C03C2F200031B681B0ADBB2137066
:102A4000BB689A1C40F28C03C2F200031B681B0C8B
:102A5000DBB21370BB68DA1C40F28C03C2F20003D5
:102A60001B681B0EDBB21370BB681A1D40F28C038F
:102A7000C2F200031B791370BB685A1D40F28C032D
:102A8000C2F200035B791370BB689A1D40F28C039D
:102A9000C2F200039B79137000E000BF00231846C8
:102AA0001437BD465DF8047B704700BF80B582B027
:102AB00000AF0346FB71FB1D1846012100F004F82E
:102AC0000837BD4680BD00BF80B485B000AF7860D8
:102AD00039600023FB6029E040F29413C2F2000346
:102AE0001A687968FB680B44197840F6FC03C2F257
:102AF0000003995440F29413C2F200031B685A1C5D
:102B000040F29413C2F200031A60FB680133FB60C9
:102B100040F29413C2F200031B68B3F5006F05D1B5
:102B200040F29413C2F2000300221A60FA683B6874
:102B30009A42D1D3002318461437BD465DF8047B72
:102B4000704700BF80B485B000AF78603960002363
:102B5000FB6036E040F63803C2F200031A68796879
:102B6000FB680B44197840F2A473C2F20003995435
:102B700040F63803C2F200031B685A1C40F63803C3
:102B8000C2F200031A6040F63803C2F200031B6869
:102B9000802B05D140F63803C2F2000300221A60F0
:102BA00040F63803C2F200031A6840F62403C2F26A
:102BB00000031B689A4201D1022307E0FB6801333E
:102BC000FB60FA683B689A42C4D300231846143766
:102BD000BD465DF8047B704780B500AF4FF460538D
:102BE000C4F202034FF46052C4F20202126842F0CF
:102BF00001021A604FF46053C4F2020300229A608B
:102C00004FF46053C4F202034FF46052C4F2020264
:102C1000126822F0847222F480321A604FF46053FA
:102C2000C4F2020343F21002C2F200425A604FF4AF
:102C30006053C4F202034FF46052C4F202021268FD
:102C400022F480221A604FF46053C4F2020300227F
:102C5000DA6000F0B3F84FF46D43CEF200034FF0AA
:102C600000629A6080BD00BF80B487B000AF0023CF
:102C70003B6100237B610223FB600023BB600223D6
:102C80007B604FF46053C4F202039B6803F00C03B3
:102C90003B613B69042B0DD0082B15D0002B63D171
:102CA00040F2A803C2F200034FF41052C0F2F40243
:102CB0001A6063E040F2A803C2F200034FF490529E
:102CC000C0F27A021A6059E04FF46053C4F2020372
:102CD0005B6803F480039B0DBB604FF46053C4F248
:102CE00002035B6803F03F037B60BB68002B13D0DB
:102CF0004FF49053C0F27A037A68B3FBF2F24FF4C8
:102D00006053C4F20203596847F6C0730B409B0935
:102D100003FB02F37B6112E04FF41053C0F2F403A3
:102D20007A68B3FBF2F24FF46053C4F202035968BD
:102D300047F6C0730B409B0903FB02F37B614FF422
:102D40006053C4F202035B6803F440331B0C01338D
:102D50005B00FB607A69FB68B2FBF3F240F2A80308
:102D6000C2F200031A6009E040F2A803C2F20003B5
:102D70004FF41052C0F2F4021A6000BF4FF46053D7
:102D8000C4F202039B6803F0F0031A0940F2AC039B
:102D9000C2F200039B5CDBB23B6140F2A803C2F2CB
:102DA00000031A683B69DA4040F2A803C2F200034C
:102DB0001A601C37BD465DF8047B704780B483B051
:102DC00000AF00237B6000233B604FF46053C4F2EC
:102DD00002034FF46052C4F20202126842F48032DD
:102DE0001A604FF46053C4F202031B6803F400330B
:102DF0003B607B6801337B603B68002B03D17B68C1
:102E0000B3F5A06FEDD14FF46053C4F202031B6819
:102E100003F40033002B02D001233B6001E00023C8
:102E20003B603B68012B40F082804FF46053C4F25A
:102E300002034FF46052C4F20202126C42F080525C
:102E40001A644FF4E043C4F200034FF4E042C4F2CA
:102E50000002126842F480421A604FF46053C4F2D8
:102E600002034FF46052C4F2020292689A604FF477
:102E70006053C4F202034FF46052C4F2020292683B
:102E800042F400429A604FF46053C4F202034FF4DC
:102E90006052C4F20202926842F4A0529A604FF467
:102EA0006053C4F2020345F20842C0F240725A6015
:102EB0004FF46053C4F202034FF46052C4F20202B2
:102EC000126842F080721A6000BF4FF46053C4F27F
:102ED00002031B6803F00073002BF6D04FF470530D
:102EE000C4F2020340F205621A604FF46053C4F268
:102EF00002034FF46052C4F20202926822F003020D
:102F00009A604FF46053C4F202034FF46052C4F26B
:102F10000202926842F002029A6000BF4FF46053CE
:102F2000C4F202039B6803F00C03082BF6D10C37A4
:102F3000BD465DF8047B704780B584B000AF786013
:102F400001200121FFF714F84FF4D853BB6003238D
:102F50007B7302233B730023BB730023FB7307F1D6
:102F600008030020C4F202001946FFF7CDFB002041
:102F7000C4F2020008210A22FFF7A4FC0020C4F2D8
:102F8000020009210A22FFF79DFC0020C4F2020082
:102F90000B210A22FFF796FC0020C4F202000C214C
:102FA0000A22FFF78FFC4FF48063BB600123BB73E1
:102FB0000123FB7303237B7307F108030020C4F292
:102FC00002001946FFF7A0FB0020C4F202000A210C
:102FD0000A22FFF777FC4FF480400121FFF740F809
:102FE00080200121FEF7ECFF4FF080500121FFF718
:102FF0005FF8012001F046FD1037BD4680BD00BFDF
:1030000080B584B000AF78604FF4C06001F04AFD35
:1030100043233B7301237B730323BB730123FB73A4
:1030200007F10C03184601F051FD1037BD4680BD75
:1030300080B485B000AF78600023FB607A681346E7
:103040001B019B1ADB001A4644F62513C2F2924379
:10305000A3FB0213D21A520813449B08BB60FB68FF
:103060000133FB60FA68BB689A4200D900E0F6E7DA
:103070001437BD465DF8047B704700BF80B582B051
:1030800000AF78607B684FF47A7202FB03F3184656
:10309000FFF7CEFF0837BD4680BD00BF80B584B0C6
:1030A00000AF786039600023FB733B685B78092BC5
:1030B00039D801A252F823F0093100081D31000867
:1030C000273100081331000827310008EB300008D1
:1030D000E130000827310008FF300008F530000813
:1030E0007868396800F042F922E07868396800F0C1
:1030F00019FA1DE07868396800F052FA18E078682B
:10310000396800F0E5FA13E07868396800F010FBE0
:103110000EE07868396800F039FB09E078683968B2
:1031200000F09AFB04E07868396800F003FC00BF07
:10313000FB7B18461037BD4680BD00BF80B584B00C
:1031400000AF786039600023FB737B6893F812311D
:10315000032B1CD13B689B88DBB2012B11D87B6809
:10316000D3F8E0359B687868396898473B68DB8816
:10317000002B0BD1FB7B002B08D1786801F088FF76
:103180000AE07868396800F0D5FB05E004E078686B
:10319000396800F0CFFB00BFFB7B18461037BD46F7
:1031A00080BD00BF80B584B000AF78603960002377
:1031B000FB733B689B88BB733B685B78012B39D002
:1031C000032B02D0002B6BD0CBE07B6893F812313D
:1031D000022B02D0032B0DD026E0BB7B002B08D0A6
:1031E000BB7B802B05D0BB7B7868194601F056FE6F
:1031F0001FE01EE03B685B88002B0AD1BB7B002BE5
:1032000007D0BB7B802B04D0BB7B7868194601F0CC
:1032100045FE7B68D3F8E0359B6878683968984745
:10322000786801F035FF04E07868396800F082FBC7
:1032300000BF96E07B6893F81231022B02D0032B7B
:103240000DD027E0BB7B002B08D0BB7B802B05D0AB
:10325000BB7B7868194601F021FE20E01FE03B6847
:103260005B88002B15D1BB7B002B0ED0BB7B802B4A
:103270000BD0BB7B7868194601F04AFE7B68D3F817
:10328000E0359B68786839689847786801F000FFF6
:1032900005E004E07868396800F04CFB00BF60E0AE
:1032A0007B6893F81231022B02D0032B0DD052E031
:1032B000BB7B002B08D0BB7B802B05D0BB7B786809
:1032C000194601F0EBFD4BE04AE0BB7B5BB2002B03
:1032D0001BDABB7B03F07F02796813469B00134423
:1032E000DB000B4403F58C739B78002B06D040F277
:1032F0008013C2F2000301221A6023E040F280131F
:10330000C2F2000300221A601CE0BB7B5BB2002B00
:1033100018DBBA7B796813469B001344DB000B442F
:1033200003F55C739B78002B06D040F28013C2F249
:10333000000301221A6005E040F28013C2F200038C
:1033400000221A60786840F28011C2F20001022265
:1033500001F036FE04E07868396800F0EBFA00BF4F
:1033600000BFFB7B18461037BD4680BD80B584B0DA
:1033700000AF786039603B685B881B0A9BB2013BF9
:10338000062B00F2B18001A252F823F0A933000805
:10339000DB33000805340008E9340008E93400088C
:1033A000D5340008DF3400087B68D3F8E8351B68A3
:1033B0007A68917807F10A02084611469847F86042
:1033C0003B68DB88402B04D07B6893F81231012BDB
:1033D00002D108237B818CE08BE07B68D3F8E03559
:1033E0009B6A7A68917807F10A0208461146984765
:1033F000F860FB68013302221A707B68FA68C3F830
:10340000EC2576E03B685B88DBB2052B5CD801A23B
:1034100052F823F02D3400084734000861340008C6
:103420007B34000895340008AF3400087B68D3F87B
:10343000E8355B687A68917807F10A020846114618
:103440009847F86045E07B68D3F8E8359B687A6870
:10345000917807F10A02084611469847F86038E06B
:103460007B68D3F8E835DB687A68917807F10A025F
:10347000084611469847F8602BE07B68D3F8E8359A
:103480001B697A68917807F10A0208461146984745
:10349000F8601EE07B68D3F8E8355B697A6891785C
:1034A00007F10A02084611469847F86011E07B6868
:1034B000D3F8E8359B697A68917807F10A020846E3
:1034C00011469847F86004E07868396800F032FAED
:1034D00024E00EE07868396800F02CFA1EE0786885
:1034E000396800F027FA19E07868396800F022FAA4
:1034F00014E07B89002B11D03B68DB88002B0DD0BA
:103500003B68DA887B899A4238BF13469BB27B813D
:103510007B897868F9681A4601F052FD1037BD467C
:1035200080BD00BF80B584B000AF786039603B6873
:103530009B88002B2DD13B68DB88002B29D13B6871
:103540005B88DBB203F07F03FB737B6893F8123177
:10355000032B04D17868396800F0ECF918E07B6837
:10356000FA7B83F81321FB7B7868194601F00AFD8A
:10357000786801F08DFDFB7B002B04D07B68022274
:1035800083F8122104E07B68012283F8122104E011
:1035900003E07868396800F0CDF91037BD4680BD8A
:1035A00080B582B000AF786039603B685B88DAB282
:1035B00040F28C13C2F200031A7040F28C13C2F274
:1035C00000031B78012B04D97868396800F0B2F940
:1035D0007BE07B6893F81231022B02D0032B24D0BE
:1035E0006EE040F28C13C2F200031B78002B18D05F
:1035F00040F28C13C2F200031A787B6883F8102122
:103600007B68032283F8122140F28C13C2F200037C
:103610001B7878681946FEF7CBF9786801F038FD19
:1036200053E0786801F034FD4FE040F28C13C2F2B1
:1036300000031B78002B18D17B68022283F812212B
:1036400040F28C13C2F200031A787B6883F81021D1
:1036500040F28C13C2F200031B7878681946FEF71B
:10366000BFF9786801F014FD29E07B6893F8102118
:1036700040F28C13C2F200031B789A421BD07B6885
:1036800093F8103178681946FEF7AAF940F28C13C6
:10369000C2F200031A787B6883F8102140F28C1381
:1036A000C2F200031B7878681946FEF781F9786842
:1036B00001F0EEFC03E0786801F0EAFC05E004E0CC
:1036C0007868396800F036F900BF0837BD4680BD1C
:1036D00080B582B000AF786039603B68DB88012B31
:1036E00004D07868396800F025F91EE07B6893F80B
:1036F0001231022B02D0032B09D011E0786840F27E
:103700008411C2F20001012201F05AFC0DE07B6835
:1037100003F5887378681946012201F051FC04E032
:103720007868396800F006F900BF0837BD4680BDEB
:1037300080B582B000AF786039607B6893F8123151
:10374000023B012B1AD87B68D3F81431002B06D02A
:1037500040F28813C2F2000303221A6005E040F22F
:103760008813C2F2000301221A60786840F28811BF
:10377000C2F20001012201F023FC04E078683968FC
:1037800000F0D8F800BF0837BD4680BD80B584B0D2
:1037900000AF786039600023FB733B685B88012BC6
:1037A0000ED17B680122C3F814217B68D3F8E03581
:1037B0009B68786839689847786801F069FC48E048
:1037C0003B685B88022B44D13B689B88DBB2002BB3
:1037D0003FD17B681B695B68BB603B689B881B0AA9
:1037E0009BB2FB73FB7B013B042B2BD801A252F84D
:1037F00023F000BF093800081538000821380008F8
:103800002D380008393800083B7A012262F306138C
:103810003B7217E03B7A022262F306133B7211E01F
:103820003B7A032262F306133B720BE03B7A0422DD
:1038300062F306133B7205E03B7A052262F306133E
:103840003B7200BF7B681B69BA685A60786801F0F8
:103850001FFC1037BD4680BD80B582B000AF7860D8
:1038600039607B6893F81231023B012B13D83B6817
:103870005B88012B0ED17B680022C3F814217B6882
:10388000D3F8E0359B68786839689847786801F024
:10389000FFFB05E004E07868396800F04BF800BFF2
:1038A0000837BD4680BD00BF80B483B000AF7860EC
:1038B00039607B6893F8C8253B681A707B6893F879
:1038C000C9253B685A707B6893F8CA351A467B68ED
:1038D00093F8CB351B029BB213449AB23B685A80D3
:1038E0007B6893F8CC351A467B6893F8CD351B027C
:1038F0009BB213449AB23B689A807B6893F8CE35AA
:103900001A467B6893F8CF351B029BB213449AB2D8
:103910003B68DA803B68DB881A467B68C3F83C2149
:103920007B68012283F811210C37BD465DF8047BCA
:10393000704700BF80B582B000AF786039603B68E7
:103940001B78DBB25BB2002B04DA7868802101F0CF
:10395000A5FA0CE03B68DB88002B04D17868802155
:1039600001F09CFA03E07868002101F097FA78688A
:10397000FDF73CFD0837BD4680BD00BF80B586B071
:1039800000AFF860B9607A600023FB75FB68002B1C
:103990002FD0F86800F030F8034601339BB25B008B
:1039A0009AB27B681A80FB7D5A1CFA75BA68134478
:1039B0007A681288D2B21A70FB7D5A1CFA75BA68FE
:1039C000134403221A7010E0FB7D5A1CFA75BA6882
:1039D0001A44FB68591CF9601B781370FB7D5A1C54
:1039E000FA75BA68134400221A70FB681B78002B22
:1039F000EAD11837BD4680BD80B485B000AF78608D
:103A00000023FB7305E0FB7B0133FB737B68013311
:103A10007B607B681B78002BF5D1FB7B1846143745
:103A2000BD465DF8047B704780B586B000AF786016
:103A300000237B617868FCF703FF0346002B00F04E
:103A40009C807868FCF70EFF03463B613B69002BC6
:103A500001D1002392E0BB7CC3F3C003DBB2002B97
:103A600006D0786800F018FA03467A6913437B6140
:103A7000BB7CC3F38003DBB2002B06D0786800F078
:103A800015F903467A6913437B613B7CC3F340031A
:103A9000DBB2002B09D00023FB603B7B43F0020329
:103AA0003B737B68DB68FA685A61FB7CC3F3C01325
:103AB000DBB2002B06D0786800F064F803467A6920
:103AC00013437B617B7CC3F3C003DBB2002B06D0C6
:103AD000786800F097F803467A6913437B613B7C72
:103AE000C3F3C003DBB2002B06D0786800F094FA71
:103AF00003467A6913437B613B7CC3F30013DBB25B
:103B0000002B06D0786800F0A3FA03467A691343C5
:103B10007B617B7CC3F30013DBB2002B06D078689B
:103B200000F08AFB03467A6913437B617B7CC3F315
:103B30004013DBB2002B06D0786800F01FFC034670
:103B40007A6913437B61BB7CC3F30013DBB2002BA8
:103B500006D0786800F04EFC03467A6913437B6117
:103B6000BB7CC3F34013DBB2002B06D0786800F0B7
:103B70005DFC03467A6913437B617B6918461837FD
:103B8000BD4680BD80B586B000AF78607B689B7A0B
:103B9000002B11D07B6803F586731B68FB603B7BB1
:103BA0006FF341033B733B7B6FF300033B737B6815
:103BB000D3F80C31FA681A6000233B613B7C43F078
:103BC00001033B747B681B697A68126951683A6922
:103BD000D2430A405A6040F24803C2F200031B6815
:103BE0009B697868984700237B61FB7D43F08003E5
:103BF000FB757B68DB687A695A61012318461837C0
:103C0000BD4680BD80B586B000AF786040F2480305
:103C1000C2F200031B685B69786898477B681B6980
:103C20009B68FB6000237B617B7D43F008037B7511
:103C30007B68DB687A695A617B689B7A002B2FD09E
:103C40003B7BC3F30003DBB2012B29D100233B6193
:103C50003B7C43F001033B747B68D3F80C317A68FA
:103C6000D2F80C2111683A690A431A603B7C43F090
:103C700002033B747B68D3F80C317A68D2F80C21CC
:103C800011683A690A431A604FF46D43CEF200039B
:103C90004FF46D42CEF20002126942F006021A6140
:103CA000012318461837BD4680BD00BF80B586B0D9
:103CB00000AF786000233B610023BB607868FDF7AC
:103CC0007FFB7861DFE07B6903F00103002B00F0EC
:103CD000D4803B69DBB27868194600F0C3FB034629
:103CE000BB603B7AC3F30003DBB2002B35D03B69EA
:103CF000012202FA03F3FB607B681B697A68126990
:103D0000516BFA68D2430A405A630023BB603B7A86
:103D100043F001033B727A683B6904339B00134410
:103D20009B68BA689A6040F24803C2F200031B68BD
:103D30005B683A69D2B27868114698477B68DB784D
:103D4000012B0AD13B69002B07D17B6893F8113115
:103D5000042B02D17868FDF749FB3B7AC3F380035B
:103D6000DBB2002B0DD00023BB603B7A43F0040391
:103D70003B727A683B6904339B0013449B68BA68C2
:103D80009A603B7AC3F3C003DBB2002B0DD0002353
:103D9000BB603B7A43F008033B727A683B690433AB
:103DA0009B0013449B68BA689A603B7AC3F3001384
:103DB000DBB2002B0DD00023BB603B7A43F0100335
:103DC0003B727A683B6904339B0013449B68BA6872
:103DD0009A603B7AC3F34013DBB2002B0DD0002373
:103DE000BB603B7A43F020033B727A683B69043343
:103DF0009B0013449B68BA689A603B7AC3F38013B4
:103E0000DBB2002B0DD00023BB603B7A43F04003B4
:103E10003B727A683B6904339B0013449B68BA6821
:103E20009A603B7AC3F34003DBB2002B0DD0002332
:103E3000BB603B7A43F002033B727A683B69043310
:103E40009B0013449B68BA689A603B7AC3F3C01323
:103E5000DBB2002B11D07868396900F07BF90023C0
:103E6000BB603B7A43F080033B727A683B69043362
:103E70009B0013449B68BA689A603B6901333B61BD
:103E80007B695B087B617B69002B7FF41CAF01239E
:103E900018461837BD4680BD80B586B000AF786043
:103EA00000233B610023FB607868FDF757FA7861D7
:103EB000A9E07B6903F00103002B00F09E803B69C1
:103EC000DBB278681946FDF75FFA0346FB603B7B7F
:103ED000C3F30003DBB2002B4BD00023FB603B7B22
:103EE00043F001033B737A683B6914339B0013442E
:103EF0005B68FA689A607B68DB78012B1FD17A686F
:103F00003B6914339B0013445B681B69BB60796891
:103F10003A6913469B001344DB000B4403F55E73C0
:103F20001A68BB68C3F31203D11A78683A6913465A
:103F30009B001344DB00034403F56273196040F2F5
:103F40004803C2F200031B681B683A69D2B2786862
:103F5000114698477B68DB78012B0AD13B69002B1F
:103F600007D17B6893F81131052B02D17868FDF7F2
:103F70003DFA3B7BC3F34003DBB2002B0DD00023A3
:103F8000FB603B7B43F002033B737A683B6914336D
:103F90009B0013445B68FA689A603B7BC3F3800321
:103FA000DBB2002B0DD00023FB603B7B43F004030E
:103FB0003B737A683B6914339B0013445B68FA686F
:103FC0009A603B7BC3F3C003DBB2002B15D040F2F9
:103FD0004803C2F200031B689B6878689847002377
:103FE000FB603B7B43F008033B737A683B69143307
:103FF0009B0013445B68FA689A603B6901333B613C
:104000007B695B087B617B69002B7FF452AF0123E6
:1040100018461837BD4680BD80B584B000AF7860C3
:1040200040F24803C2F200031B68DB6878689847D7
:104030000023FB603B7B43F008033B737B68DB683A
:10404000FA685A61012318461037BD4680BD00BF8B
:1040500080B586B000AF786000233B613B7C43F0C5
:1040600010033B747B68DB687A68D26891693A69AF
:10407000D2430A409A617B68DB681B6AFB603B7B2A
:10408000C3F30303DBB21A4613469B001344DB0061
:1040900003F55C737A6813447B61BB7BC3F3430312
:1040A000DBB2013B052B46D801A252F823F000BF3A
:1040B00037410008C940000837410008374100086F
:1040C0003741000813410008BB89C3F30A139BB2B0
:1040D000002B1DD07B69DA68BB89C3F30A139BB23E
:1040E000786811461A46FCF7F3F87B69DA68BB89F1
:1040F000C3F30A139BB21A447B69DA607B699A693D
:10410000BB89C3F30A139BB21A447B699A6113E01B
:1041100012E07B6803F5B963786819460822FCF75A
:10412000D7F87B699A69BB89C3F30A139BB21A4417
:104130007B699A6100E000BF7B68DB687A68D268BF
:1041400091693A690A439A61012318461837BD46B6
:1041500080BD00BF80B586B000AF786039600023B5
:104160007B610023BB603A6813469B001344DB006D
:1041700003F58C737A681344FB60FB685A69FB682B
:104180009B69D31A7B61FB689A687B699A4202D269
:10419000FB689B687B617B6903339B083B617A68A2
:1041A0003B6804339B0013449B689B69BB602EE013
:1041B000FB685A69FB689B69D31A7B61FB689A6844
:1041C0007B699A4202D2FB689B687B617B690333FF
:1041D0009B083B61FB68D9683B68DAB27B699BB29C
:1041E0007868FCF73DF8FB68DA687B691A44FB687D
:1041F000DA60FB689A697B691A44FB689A617A689D
:104200003B6804339B0013449B689B69BB603B89FC
:104210001A463B699A4209D9FB689A69FB685B694F
:104220009A4203D2FB685B69002BC1D10123184677
:104230001837BD4680BD00BF80B58AB000AF78603A
:1042400000233B6100233B620023FB610023BB6131
:1042500000237B610023FB603B7C43F001033B7444
:104260007B681B697A68126951683A69D2430A40CF
:104270005A6078680021FCF739FA00237B6212E06B
:104280007A687B6A04339B0013449B68FF229A6020
:104290007A687B6A14339B0013445B68FF229A6040
:1042A0007B6A01337B627B685B781A467B6A9A4241
:1042B000E6D87B681B694FF0FF329A613B8C012284
:1042C00062F30F033B847B8C012262F30F037B8438
:1042D0007B681B693A6ADA613B7F43F008033B77EE
:1042E0003B7F43F001033B773B7F43F004033B7785
:1042F0003B7F43F002033B777B681B69FA695A6195
:104300003B7E43F001033B763B7E43F008033B7664
:104310003B7E43F002033B763B7E43F004033B7657
:104320003B7E43F020033B767B681B69BA691A61C8
:104330007B681B691B687B61BB8A6FF30A13BB82B6
:104340007B681B697A691A607868FDF74FF800236B
:10435000FB607B7B43F010037B737B68DB68FA6850
:104360005A6140F24803C2F200031B681B69786877
:104370009847012318462837BD4680BD80B584B0D4
:1043800000AF78607868FCF74FFC7B68DB68DB681F
:10439000BB607868FCF724FC0346032B0CD17B68D8
:1043A00000229A707B684FF400729A807B7A09220F
:1043B00062F385037B720AE07B6801229A707B6856
:1043C00040229A807B7A052262F385037B727B68A8
:1043D000DB68BA68DA600023FB607B7B43F0200374
:1043E0007B737B68DB68FA685A61012318461037D3
:1043F000BD4680BD80B584B000AF78600023FB600F
:1044000040F24803C2F200031B68DB6978689847F2
:10441000BB7B43F01003BB737B68DB68FA685A61AF
:10442000012318461037BD4680BD00BF80B584B05B
:1044300000AF78600023FB6040F24803C2F2000343
:104440001B681B6A78689847BB7B43F02003BB73EB
:104450007B68DB68FA685A61012318461037BD464D
:1044600080BD00BF80B487B000AF78600B46FB70A2
:104470007B681B691B697B617B681B695B6B3B61AC
:10448000FB783A6922FA03F3DB01DBB27A69134362
:104490007B61FB787A6804339B0013449B689A68BD
:1044A0007B691340FB60FB6818461C37BD465DF80E
:1044B000047B704780B584B000AF78600B46FB701A
:1044C0007B68D3F8EC3539331B88786881211A462C
:1044D000022300F0E1FB7B68D3F8EC3540331B8806
:1044E000786801211A46022300F0D6FB7868822101
:1044F0000822032300F0D0FB40F26803C2F200035D
:10450000FB60FB68043302221A70FB68053300224B
:104510001A7040F29403C2F200031B6898477B684C
:10452000D3F8EC3540331B887868012140F6B4029B
:10453000C2F2000200F036FC002318461037BD46D8
:1045400080BD00BF80B582B000AF78600B46FB70C5
:104550007868812100F0EEFB7868012100F0EAFB29
:104560007868822100F0E6FB40F29403C2F2000377
:104570005B689847002318460837BD4680BD00BFDA
:1045800080B584B000AF786039603B681B7803F079
:104590006003002B54D0202B4CD13B68DB88002BD0
:1045A0003BD03B681B78DBB25BB2002B1ADA40F2DF
:1045B0009403C2F200039B683A68527811463A6845
:1045C000D288084640F6F401C2F2000198473B68E1
:1045D000DB88786840F6F401C2F200011A4600F068
:1045E000EFFC25E03B685B781A4640F20013C2F20C
:1045F00000031A603B68DB881A4640F2A413C2F23B
:1046000000031A603B68DB88786840F6F401C2F268
:1046100000011A4600F008FD0AE040F29403C2F2DD
:1046200000039B683A6852781046002100229847A0
:10463000002340E078683968FFF77CF902233AE00C
:104640003B685B780A2B18D00B2B1FD0062B31D17F
:104650003B685B881B0A9BB2212B07D1184BBB60C0
:104660003B68DB883A2B28BF3A23FB81FB897868BB
:10467000B9681A4600F0A4FC1CE0786840F290117A
:10468000C2F20001012200F09BFC13E03B685B8852
:10469000DBB2002B09D13B685B88DBB21A4640F2E3
:1046A0009013C2F200031A6003E078683968FFF7DC
:1046B00041F900BF002318461037BD4680BD00BF3A
:1046C000CE00002090B583B000AF786040F20013B8
:1046D000C2F200031B68FF2B1BD040F29403C2F20E
:1046E00000039C6840F20013C2F200031A6840F213
:1046F000A413C2F200031B68104640F6F401C2F294
:1047000000011A46A04740F20013C2F20003FF2244
:104710001A60002318460C37BD4690BD80B584B0A2
:1047200000AF78600B46FB7040F2A013C2F20003AA
:104730001B78012B75D140F29C13C2F200031B6859
:10474000002B06D140F2A013C2F2000300221A701F
:1047500067E07B68D3F8EC3539331B881A4640F2A2
:104760009C13C2F200031B689A422DD240F29813A8
:10477000C2F200031B68FB817B68D3F8EC35B3F809
:104780003930BB817B68D3F8EC3539331B881A4646
:1047900040F29813C2F200031B681A4440F29813C7
:1047A000C2F200031A6040F29C13C2F200031A68BE
:1047B0007B68D3F8EC3539331B88D21A40F29C134E
:1047C000C2F200031A6021E040F29813C2F2000323
:1047D0001B68FB8140F29C13C2F200031B68BB8183
:1047E00040F29813C2F200031A6840F29C13C2F21E
:1047F00000031B681A4440F29813C2F200031A60C7
:1048000040F29C13C2F2000300221A60FA8940F6BB
:10481000FC03C2F200031A44BB897868812100F0CE
:1048200001FB002318461037BD4680BD80B584B01B
:1048300000AF78600B46FB70FA78796813469B00EE
:104840001344DB000B4403F562731B68FB8140F2E9
:104850009403C2F200031B69FA8940F6B400C2F265
:104860000000114698477B68D3F8EC3540331B882D
:104870007868012140F6B402C2F2000200F092FA18
:10488000002318461037BD4680BD00BF80B582B0FA
:1048900000AF786040F2A813C2F200031B681A460A
:1048A000511C40F2A813C2F200031960052A08D176
:1048B00040F2A813C2F2000300221A60786800F0E8
:1048C00005F8002318460837BD4680BD80B584B082
:1048D00000AF786040F2A013C2F200031B78012BF6
:1048E00000F0B88040F29813C2F200031B68B3F5E1
:1048F000006F05D140F29813C2F2000300221A6043
:1049000040F29813C2F200031A6840F29413C2F204
:1049100000031B689A4206D140F2A013C2F20003C2
:1049200000221A7096E040F29813C2F200031A684F
:1049300040F29413C2F200031B689A420CD940F271
:104940009813C2F200031B68C3F5006240F29C1387
:10495000C2F200031A600FE040F29413C2F20003A7
:104960001A6840F29813C2F200031B68D21A40F290
:104970009C13C2F200031A607B68D3F8EC3539331C
:104980001B881A4640F29C13C2F200031B689A422D
:104990002DD240F29813C2F200031B68FB817B68A2
:1049A000D3F8EC35B3F83930BB817B68D3F8EC35FC
:1049B00039331B881A4640F29813C2F200031B6871
:1049C0001A4440F29813C2F200031A6040F29C139A
:1049D000C2F200031A687B68D3F8EC3539331B88C0
:1049E000D21A40F29C13C2F200031A6021E040F296
:1049F0009813C2F200031B68FB8140F29C13C2F2C1
:104A000000031B68BB8140F29813C2F200031A68CE
:104A100040F29C13C2F200031B681A4440F2981340
:104A2000C2F200031A6040F29C13C2F2000300229B
:104A30001A6040F2A013C2F2000301221A70FA8930
:104A400040F6FC03C2F200031A44BB897868812156
:104A500000F0E8F91037BD4680BD00BF80B483B0D8
:104A600000AF03463960FB713B6843221A8040F275
:104A7000BC03C2F2000318460C37BD465DF8047B48
:104A8000704700BF80B483B000AF78604FF47053BC
:104A9000C4F201037A685A610C37BD465DF8047BA5
:104AA000704700BF80B483B000AF78604FF46D43AF
:104AB000CEF200037A6842F0BF6242F40032DA605C
:104AC0000C37BD465DF8047B704700BF80B485B0ED
:104AD00000AF78600023FB730023BB730F237B734D
:104AE0007B68DB78002B40D04FF46D43CEF200039F
:104AF000DB68DB4303F4E0631B0AFB73FB7BC3F15E
:104B00000403BB737A7BFB7B42FA03F37B737B6802
:104B10005B781A46BB7B02FA03F3FB737B689A78D7
:104B20007B7B1340DAB2FB7B1343FB73FB7B1B01E4
:104B3000FB734FF46143CEF200037A68127813449A
:104B4000FA7B83F800234FF46143CEF200037A68C6
:104B500012785209D2B27968097801F01F01012058
:104B600000FA01F143F8221011E04FF46143CEF254
:104B700000037A6812785209D2B27968097801F094
:104B80001F01012000FA01F1203243F822101437EE
:104B9000BD465DF8047B704780B584B000AF786097
:104BA0000B46FB70FB7878681946FBF7BFFB7B6808
:104BB000012283F812217B68002283F8132100234D
:104BC000FB6023E0FA6813469B001344DB0003F507
:104BD0008C737A681344BB60BB6801225A70FB680F
:104BE000DAB2BB681A70FB689AB2BB68DA80BB683D
:104BF0000022DA70BB6840229A60BB680022DA604B
:104C0000BB6800225A61FB680133FB607B685B78FC
:104C10001A46FB689A42D5D80023FB6023E0FA6865
:104C200013469B001344DB0003F55C737A6813445E
:104C3000BB60BB6800225A70FB68DAB2BB681A70AE
:104C4000FB689AB2BB68DA80BB680022DA70BB6886
:104C500040229A60BB680022DA60BB6800225A6179
:104C6000FB680133FB607B685B781A46FB689A42FD
:104C7000D5D87868FBF71EFD7868FBF711FC7868DB
:104C80000021FBF79DFD7868FBF720FE7868FBF7B5
:104C9000F5FC1037BD4680BD80B584B000AF7860AC
:104CA000F9703A80BB70FB785BB2002B0CDAFB78B2
:104CB00003F07F0213469B001344DB0003F58C7363
:104CC0007A681344FB600BE0FB7803F07F02134625
:104CD0009B001344DB0003F55C737A681344FB60AC
:104CE000FB7803F07F03DAB2FB681A70FB78DB090C
:104CF000DBB21A46FB685A703A88FB689A60FB6818
:104D0000BA78DA70FB685B78002B04D0FB681B78FC
:104D10001A46FB68DA80BB78022B02D1FB680022BE
:104D20001A717868F968FBF7BBFF00231846103743
:104D3000BD4680BD80B584B000AF78600B46FB7087
:104D4000FB785BB2002B0CDAFB7803F07F02134692
:104D50009B001344DB0003F58C737A681344FB60FB
:104D60000BE0FB7803F07F0213469B001344DB004B
:104D700003F55C737A681344FB60FB7803F07F03F0
:104D8000DAB2FB681A70FB78DB09DBB21A46FB6803
:104D90005A707868F968FBF7F1FF0023184610375E
:104DA000BD4680BD80B586B000AFF8607A600A4627
:104DB000FA723B81FB7A03F07F0213469B00134497
:104DC000DB0003F55C73FA6813447B617B697A68E6
:104DD000DA603A897B695A617B6900229A617B6952
:104DE00000225A70FB7A03F07F03DAB27B691A70F3
:104DF000FB68DB78012B02D17A687B691A617B69D9
:104E00001B78002B04D1F8687969FCF73DF903E0C1
:104E1000F8687969FBF7F8FF002318461837BD4694
:104E200080BD00BF80B586B000AFF8607A603B609F
:104E30000B46FB72FB7A03F07F0213469B00134480
:104E4000DB0003F58C73FA6813447B617B690122F4
:104E50005A70FB7A03F07F03DAB27B691A707B69C0
:104E60007A68DA607A687B691A617B6900229A61E4
:104E70007B693A685A617B691B78002B04D1F8681A
:104E80007969FCF701F903E0F8687969FBF7BCFF81
:104E9000002318461837BD4680BD00BF80B584B0DA
:104EA00000AF78600B46FB70FB785BB2002B0CDA2E
:104EB000FB7803F07F0213469B001344DB0003F5ED
:104EC0008C737A681344FB6009E0FA7813469B0000
:104ED0001344DB0003F55C737A681344FB60FB68E2
:104EE00001229A70FB7803F07F03DAB2FB681A7034
:104EF000FB78DB09DBB21A46FB685A707868F96800
:104F0000FCF7ACF9002318461037BD4680BD00BF42
:104F100080B584B000AF78600B46FB70FB785BB265
:104F2000002B0CDAFB7803F07F0213469B0013443E
:104F3000DB0003F58C737A681344FB6009E0FA78B0
:104F400013469B001344DB0003F55C737A6813443B
:104F5000FB60FB6800229A70FB7803F07F03DAB2F3
:104F6000FB681A70FB78DB09DBB21A46FB685A70E3
:104F70007868F968FCF7B6F9002318461037BD4683
:104F800080BD00BF80B485B000AF78600B46FB7079
:104F90000023FB60FB7803F07F03DAB2BB8962F386
:104FA0000A13BB817B681B697A6812691168FA6809
:104FB0000A431A601437BD465DF8047B704700BF92
:104FC00080B586B000AFF860B9601346FB8000235F
:104FD000FB75FA88FB68C3F83821FA88FB68C3F8C8
:104FE0003421FB68022283F81121FB88F868002134
:104FF000BA68FFF717FFFB7D18461837BD4680BD1E
:1050000080B586B000AFF860B9601346FB8000231E
:10501000FB75FB88F8680021BA68FFF703FFFB7D8A
:1050200018461837BD4680BD80B586B000AFF86021
:10503000B9601346FB800023FB75FA88FB68C3F850
:105040009023FA88FB68C3F88C23FB68032283F85B
:105050001121FB88F8680021BA68FFF7A3FEFB7DE9
:1050600018461837BD4680BD80B586B000AFF860E1
:10507000B9601346FB800023FB75FB88F8680021AC
:10508000BA68FFF78FFEFB7D18461837BD4680BD16
:1050900080B584B000AF78600023FB737B68042286
:1050A00083F811217868002100220023FFF7BAFE5F
:1050B0007868FCF79BF9FB7B18461037BD4680BD2E
:1050C00080B584B000AF78600023FB737B68052255
:1050D00083F811217868002100220023FFF762FE87
:1050E0007868FCF783F9FB7B18461037BD4680BD16
:1050F00080B485B000AF786039600023FB817B68A5
:105100001B88FB817A680023C4F201039A421FD0F6
:105110007A684FF48063C4F201039A4218D07B6826
:10512000B3F1804F14D07A684FF48063C4F2000367
:105130009A420DD07A684FF40063C4F200039A4299
:1051400006D07A684FF44063C4F200039A4208D153
:10515000FB8923F07003FB813B685A88FB8913436A
:10516000FB817A684FF48053C4F200039A420FD057
:105170007A684FF4A053C4F200039A4208D0FB8926
:1051800023F44073FB813B681A89FB891343FB813D
:105190007B68FA891A803B685A687B68DA623B68E8
:1051A0001A887B681A857A680023C4F201039A4240
:1051B00006D07A684FF48063C4F201039A4204D1A6
:1051C0003B689B7A1A467B681A867B6801229A8222
:1051D0001437BD465DF8047B704700BF80B483B0D0
:1051E00000AF78600B46FB70FB78002B08D07B6823
:1051F0001B889BB243F001039AB27B681A8007E0D8
:105200007B681B889BB223F001039AB27B681A80EB
:105210000C37BD465DF8047B704700BF80B483B097
:1052200000AF786013460A467A807B707B78002B4B
:1052300008D07B689B899AB27B8813439AB27B68BB
:105240009A8109E07B689B899AB27B88DB439BB299
:1052500013409AB27B689A810C37BD465DF8047B97
:10526000704700BF80B483B000AF78600B467B808E
:105270007B88DB439AB27B681A820C37BD465DF8A7
:10528000047B704781F0004102E000BF83F00043DF
:1052900030B54FEA41044FEA430594EA050F08BFD1
:1052A00090EA020F1FBF54EA000C55EA020C7FEA95
:1052B000645C7FEA655C00F0E2804FEA5454D4EB12
:1052C0005555B8BF6D420CDD2C4480EA020281EADC
:1052D000030382EA000083EA010180EA020281EA14
:1052E0000303362D88BF30BD11F0004F4FEA013166
:1052F0004FF4801C4CEA113102D0404261EB410175
:1053000013F0004F4FEA03334CEA133302D05242FA
:1053100063EB430394EA050F00F0A780A4F10104B6
:10532000D5F1200E0DDB02FA0EFC22FA05F28018F0
:1053300041F1000103FA0EF2801843FA05F35941D6
:105340000EE0A5F120050EF1200E012A03FA0EFC55
:1053500028BF4CF0020C43FA05F3C01851EBE3717F
:1053600001F0004507D54FF0000EDCF1000C7EEB9C
:1053700000006EEB0101B1F5801F1BD3B1F5001FDA
:105380000CD349085FEA30004FEA3C0C04F10104F9
:105390004FEA445212F5800F80F09A80BCF1004F22
:1053A00008BF5FEA500C50F1000041EB045141EAA4
:1053B000050130BD5FEA4C0C404141EB010111F4A5
:1053C000801FA4F10104E9D191F0000F04BF014650
:1053D0000020B1FA81F308BF2033A3F10B03B3F12E
:1053E00020020CDA0C3208DD02F1140CC2F10C02BE
:1053F00001FA0CF021FA02F10CE002F11402D8BF1C
:10540000C2F1200C01FA02F120FA0CFCDCBF41EAE7
:105410000C019040E41AA2BF01EB0451294330BDB6
:105420006FEA04041F3C1CDA0C340EDC04F1140493
:10543000C4F1200220FA04F001FA02F340EA03006A
:1054400021FA04F345EA030130BDC4F10C04C4F1B0
:10545000200220FA02F001FA04F340EA0300294690
:1054600030BD21FA04F0294630BD94F0000F83F4DA
:10547000801306BF81F480110134013D4EE77FEABD
:10548000645C18BF7FEA655C29D094EA050F08BF09
:1054900090EA020F05D054EA000C04BF19461046EA
:1054A00030BD91EA030F1EBF0021002030BD5FEA2E
:1054B000545C05D14000494128BF41F0004130BD56
:1054C00014F580043CBF01F5801130BD01F00045AA
:1054D00045F0FE4141F470014FF0000030BD7FEA1D
:1054E000645C1ABF194610467FEA655C1CBF0B4618
:1054F000024650EA013406BF52EA033591EA030F2F
:1055000041F4002130BD00BF90F0000F04BF002126
:10551000704730B54FF4806404F132044FF0000559
:105520004FF0000150E700BF90F0000F04BF0021D2
:10553000704730B54FF4806404F1320410F0004538
:1055400048BF40424FF000013EE700BF42004FEA33
:10555000E2014FEA31014FEA02701FBF12F07F43B0
:1055600093F07F4F81F06051704792F0000F14BFAD
:1055700093F07F4F704730B54FF4607401F00045F1
:1055800021F0004120E700BF50EA010208BF704748
:1055900030B54FF000050AE050EA010208BF70473D
:1055A00030B511F0004502D5404261EB41014FF4A6
:1055B000806404F132045FEA915C3FF4DCAE4FF0AA
:1055C00003025FEADC0C18BF03325FEADC0C18BF91
:1055D000033202EBDC02C2F1200300FA03FC20FAE2
:1055E00002F001FA03FE40EA0E0021FA02F114442F
:1055F000C1E600BF70B54FF0FF0C4CF4E06C1CEA44
:1056000011541DBF1CEA135594EA0C0F95EA0C0FB8
:1056100000F0DEF82C4481EA030621EA4C5123EA2B
:105620004C5350EA013518BF52EA033541F480115A
:1056300043F4801338D0A0FB02CE4FF00005E1FB0D
:1056400002E506F00042E0FB03E54FF00006E1FB57
:1056500003569CF0000F18BF4EF0010EA4F1FF049A
:10566000B6F5007F64F5407404D25FEA4E0E6D41DA
:1056700046EB060642EAC62141EA55514FEAC520EB
:1056800040EA5E504FEACE2EB4F1FD0C88BFBCF567
:10569000E06F1ED8BEF1004F08BF5FEA500E50F118
:1056A000000041EB045170BD06F0004646EA0101DE
:1056B00040EA020081EA0301B4EB5C04C2BFD4EB10
:1056C0000C0541EA045170BD41F480114FF0000E09
:1056D000013C00F3AB8014F1360FDEBF002001F077
:1056E000004170BDC4F10004203C35DA0C341BDCF1
:1056F00004F11404C4F1200500FA05F320FA04F0C3
:1057000001FA05F240EA020001F0004221F00041F6
:1057100010EBD37021FA04F642EB06015EEA430E69
:1057200008BF20EAD37070BDC4F10C04C4F1200599
:1057300000FA04F320FA05F001FA04F240EA02004C
:1057400001F0004110EBD37041F100015EEA430E1D
:1057500008BF20EAD37070BDC4F1200500FA05F23D
:105760004EEA020E20FA04F301FA05F243EA0203BC
:1057700021FA04F001F0004121FA04F220EA0200CB
:1057800000EBD3705EEA430E08BF20EAD37070BD11
:1057900094F0000F0FD101F00046400041EB0101F1
:1057A00011F4801F08BF013CF7D041EA060195F0D3
:1057B000000F18BF704703F00046520043EB03038D
:1057C00013F4801F08BF013DF7D043EA060370477A
:1057D00094EA0C0F0CEA135518BF95EA0C0F0CD085
:1057E00050EA410618BF52EA4306D1D181EA0301CB
:1057F00001F000414FF0000070BD50EA410606BFC5
:105800001046194652EA430619D094EA0C0F02D109
:1058100050EA013613D195EA0C0F05D152EA03364E
:105820001CBF104619460AD181EA030101F000416C
:1058300041F0FE4141F470014FF0000070BD41F0B5
:10584000FE4141F4780170BD70B54FF0FF0C4CF48F
:10585000E06C1CEA11541DBF1CEA135594EA0C0FAE
:1058600095EA0C0F00F0A7F8A4EB050481EA030EFB
:1058700052EA03354FEA013100F088804FEA0333E2
:105880004FF0805545EA131343EA12634FEA0222B0
:1058900045EA111545EA10654FEA00260EF0004171
:1058A0009D4208BF964244F1FD0404F5407402D2C3
:1058B0005B084FEA3202B61A65EB03055B084FEA54
:1058C00032024FF480104FF4002CB6EB020E75EB51
:1058D000030E22BFB61A754640EA0C005B084FEA79
:1058E0003202B6EB020E75EB030E22BFB61A7546F6
:1058F00040EA5C005B084FEA3202B6EB020E75EB41
:10590000030E22BFB61A754640EA9C005B084FEAB8
:105910003202B6EB020E75EB030E22BFB61A7546C5
:1059200040EADC0055EA060E18D04FEA051545EAB4
:1059300016754FEA06164FEAC30343EA52734FEA5D
:10594000C2025FEA1C1CC0D111F4801F0BD141EAD6
:1059500000014FF000004FF0004CB6E711F4801F3B
:1059600004BF01430020B4F1FD0C88BFBCF5E06F1B
:105970003FF6AFAEB5EB030C04BFB6EB020C5FEA2B
:10598000500C50F1000041EB045170BD0EF0004E80
:105990004EEA113114EB5C04C2BFD4EB0C0541EAB2
:1059A000045170BD41F480114FF0000E013C90E6AF
:1059B00045EA060E8DE60CEA135594EA0C0F08BF73
:1059C00095EA0C0F3FF43BAF94EA0C0F0AD150EA72
:1059D00001347FF434AF95EA0C0F7FF425AF104605
:1059E00019462CE795EA0C0F06D152EA03353FF42D
:1059F000FDAE1046194622E750EA410618BF52EAAA
:105A000043067FF4C5AE50EA41047FF40DAF52EA7D
:105A100043057FF4EBAE12E74FF0FF3C06E000BF1A
:105A20004FF0010C02E000BF4FF0010C4DF804CD27
:105A30004FEA410C7FEA6C5C4FEA430C18BF7FEAE7
:105A40006C5C1BD001B050EA410C0CBF52EA430C15
:105A500091EA030F02BF90EA020F0020704710F195
:105A6000000F91EA030F58BF994208BF90422CBF24
:105A7000D8176FEAE37040F0010070474FEA410C1D
:105A80007FEA6C5C02D150EA013C07D14FEA430C3B
:105A90007FEA6C5CD6D152EA033CD3D05DF8040BAC
:105AA000704700BF8446104662468C4619466346DE
:105AB00000E000BF01B5FFF7B7FF002848BF10F1B5
:105AC000000F01BD4DF808EDFFF7F4FF0CBF0120FA
:105AD00000205DF808FB00BF4DF808EDFFF7EAFF76
